{
	"contracts/RentalContract.sol": {
		"RentalManagement": {
			"abi": [
				{
					"inputs": [],
					"stateMutability": "nonpayable",
					"type": "constructor"
				},
				{
					"inputs": [
						{
							"internalType": "uint256",
							"name": "requestIndex",
							"type": "uint256"
						}
					],
					"name": "approveEarlyTermination",
					"outputs": [],
					"stateMutability": "nonpayable",
					"type": "function"
				},
				{
					"inputs": [
						{
							"internalType": "uint256",
							"name": "",
							"type": "uint256"
						}
					],
					"name": "complaints",
					"outputs": [
						{
							"internalType": "address",
							"name": "user",
							"type": "address"
						},
						{
							"internalType": "int256",
							"name": "propertyId",
							"type": "int256"
						},
						{
							"internalType": "string",
							"name": "description",
							"type": "string"
						},
						{
							"internalType": "string",
							"name": "response",
							"type": "string"
						}
					],
					"stateMutability": "view",
					"type": "function"
				},
				{
					"inputs": [
						{
							"internalType": "int256",
							"name": "propertyId",
							"type": "int256"
						},
						{
							"internalType": "string",
							"name": "description",
							"type": "string"
						}
					],
					"name": "createComplaint",
					"outputs": [],
					"stateMutability": "nonpayable",
					"type": "function"
				},
				{
					"inputs": [
						{
							"internalType": "address",
							"name": "tenant",
							"type": "address"
						},
						{
							"internalType": "int256",
							"name": "propertyId",
							"type": "int256"
						},
						{
							"internalType": "uint256",
							"name": "startDate",
							"type": "uint256"
						},
						{
							"internalType": "uint256",
							"name": "endDate",
							"type": "uint256"
						}
					],
					"name": "createLease",
					"outputs": [],
					"stateMutability": "nonpayable",
					"type": "function"
				},
				{
					"inputs": [
						{
							"internalType": "string",
							"name": "name",
							"type": "string"
						},
						{
							"internalType": "string",
							"name": "description",
							"type": "string"
						}
					],
					"name": "createProperty",
					"outputs": [],
					"stateMutability": "nonpayable",
					"type": "function"
				},
				{
					"inputs": [
						{
							"internalType": "string",
							"name": "name",
							"type": "string"
						},
						{
							"internalType": "bool",
							"name": "_isTenant",
							"type": "bool"
						},
						{
							"internalType": "bool",
							"name": "_isLandlord",
							"type": "bool"
						}
					],
					"name": "createUser",
					"outputs": [],
					"stateMutability": "nonpayable",
					"type": "function"
				},
				{
					"inputs": [
						{
							"internalType": "uint256",
							"name": "",
							"type": "uint256"
						}
					],
					"name": "earlyTerminationRequests",
					"outputs": [
						{
							"internalType": "address",
							"name": "tenant",
							"type": "address"
						},
						{
							"internalType": "int256",
							"name": "propertyId",
							"type": "int256"
						},
						{
							"internalType": "uint256",
							"name": "requestTime",
							"type": "uint256"
						},
						{
							"internalType": "bool",
							"name": "isApproved",
							"type": "bool"
						}
					],
					"stateMutability": "view",
					"type": "function"
				},
				{
					"inputs": [],
					"name": "getLandlordComplaints",
					"outputs": [
						{
							"internalType": "int256[]",
							"name": "",
							"type": "int256[]"
						},
						{
							"internalType": "string[]",
							"name": "",
							"type": "string[]"
						},
						{
							"internalType": "string[]",
							"name": "",
							"type": "string[]"
						}
					],
					"stateMutability": "view",
					"type": "function"
				},
				{
					"inputs": [],
					"name": "getTenantComplaints",
					"outputs": [
						{
							"internalType": "int256[]",
							"name": "",
							"type": "int256[]"
						},
						{
							"internalType": "string[]",
							"name": "",
							"type": "string[]"
						},
						{
							"internalType": "string[]",
							"name": "",
							"type": "string[]"
						},
						{
							"internalType": "string[]",
							"name": "",
							"type": "string[]"
						}
					],
					"stateMutability": "view",
					"type": "function"
				},
				{
					"inputs": [],
					"name": "landlordCount",
					"outputs": [
						{
							"internalType": "uint256",
							"name": "",
							"type": "uint256"
						}
					],
					"stateMutability": "view",
					"type": "function"
				},
				{
					"inputs": [
						{
							"internalType": "uint256",
							"name": "",
							"type": "uint256"
						}
					],
					"name": "leases",
					"outputs": [
						{
							"internalType": "address",
							"name": "tenant",
							"type": "address"
						},
						{
							"internalType": "int256",
							"name": "propertyId",
							"type": "int256"
						},
						{
							"internalType": "uint256",
							"name": "startDate",
							"type": "uint256"
						},
						{
							"internalType": "uint256",
							"name": "endDate",
							"type": "uint256"
						}
					],
					"stateMutability": "view",
					"type": "function"
				},
				{
					"inputs": [
						{
							"internalType": "uint256",
							"name": "id",
							"type": "uint256"
						}
					],
					"name": "listProperties",
					"outputs": [
						{
							"internalType": "int256[]",
							"name": "",
							"type": "int256[]"
						},
						{
							"internalType": "string[]",
							"name": "",
							"type": "string[]"
						},
						{
							"internalType": "string[]",
							"name": "",
							"type": "string[]"
						},
						{
							"internalType": "address[]",
							"name": "",
							"type": "address[]"
						}
					],
					"stateMutability": "view",
					"type": "function"
				},
				{
					"inputs": [],
					"name": "listRentedProperties",
					"outputs": [
						{
							"internalType": "address[]",
							"name": "",
							"type": "address[]"
						}
					],
					"stateMutability": "view",
					"type": "function"
				},
				{
					"inputs": [],
					"name": "listUsers",
					"outputs": [
						{
							"internalType": "uint256",
							"name": "tenantCount",
							"type": "uint256"
						},
						{
							"internalType": "uint256",
							"name": "landlordCount",
							"type": "uint256"
						}
					],
					"stateMutability": "view",
					"type": "function"
				},
				{
					"inputs": [
						{
							"internalType": "int256",
							"name": "",
							"type": "int256"
						}
					],
					"name": "properties",
					"outputs": [
						{
							"internalType": "int256",
							"name": "Id",
							"type": "int256"
						},
						{
							"internalType": "string",
							"name": "name",
							"type": "string"
						},
						{
							"internalType": "string",
							"name": "description",
							"type": "string"
						},
						{
							"internalType": "address",
							"name": "owner",
							"type": "address"
						},
						{
							"internalType": "bool",
							"name": "isRentable",
							"type": "bool"
						},
						{
							"internalType": "address",
							"name": "tenant",
							"type": "address"
						}
					],
					"stateMutability": "view",
					"type": "function"
				},
				{
					"inputs": [],
					"name": "propertyIdCounter",
					"outputs": [
						{
							"internalType": "int256",
							"name": "",
							"type": "int256"
						}
					],
					"stateMutability": "view",
					"type": "function"
				},
				{
					"inputs": [
						{
							"internalType": "int256",
							"name": "propertyId",
							"type": "int256"
						}
					],
					"name": "requestEarlyTermination",
					"outputs": [],
					"stateMutability": "nonpayable",
					"type": "function"
				},
				{
					"inputs": [
						{
							"internalType": "uint256",
							"name": "complaintIndex",
							"type": "uint256"
						},
						{
							"internalType": "string",
							"name": "response",
							"type": "string"
						}
					],
					"name": "respondToComplaint",
					"outputs": [],
					"stateMutability": "nonpayable",
					"type": "function"
				},
				{
					"inputs": [],
					"name": "tenantCount",
					"outputs": [
						{
							"internalType": "uint256",
							"name": "",
							"type": "uint256"
						}
					],
					"stateMutability": "view",
					"type": "function"
				},
				{
					"inputs": [
						{
							"internalType": "int256",
							"name": "propertyId",
							"type": "int256"
						},
						{
							"internalType": "address",
							"name": "tenant",
							"type": "address"
						}
					],
					"name": "terminateLease",
					"outputs": [],
					"stateMutability": "nonpayable",
					"type": "function"
				},
				{
					"inputs": [
						{
							"internalType": "uint256",
							"name": "",
							"type": "uint256"
						}
					],
					"name": "userList",
					"outputs": [
						{
							"internalType": "address",
							"name": "",
							"type": "address"
						}
					],
					"stateMutability": "view",
					"type": "function"
				},
				{
					"inputs": [
						{
							"internalType": "address",
							"name": "",
							"type": "address"
						}
					],
					"name": "users",
					"outputs": [
						{
							"internalType": "string",
							"name": "name",
							"type": "string"
						},
						{
							"internalType": "bool",
							"name": "isTenant",
							"type": "bool"
						},
						{
							"internalType": "bool",
							"name": "isLandlord",
							"type": "bool"
						}
					],
					"stateMutability": "view",
					"type": "function"
				}
			],
			"devdoc": {
				"kind": "dev",
				"methods": {},
				"version": 1
			},
			"evm": {
				"assembly": "    /* \"contracts/RentalContract.sol\":59:10312  contract RentalManagement {\r... */\n  mstore(0x40, 0x80)\n    /* \"contracts/RentalContract.sol\":1787:1877  constructor() {\r... */\n  callvalue\n  dup1\n  iszero\n  tag_1\n  jumpi\n  0x00\n  dup1\n  revert\ntag_1:\n  pop\n    /* \"contracts/RentalContract.sol\":1832:1833  1 */\n  0x01\n    /* \"contracts/RentalContract.sol\":1812:1829  propertyIdCounter */\n  0x06\n    /* \"contracts/RentalContract.sol\":1812:1833  propertyIdCounter = 1 */\n  dup2\n  swap1\n  sstore\n  pop\n    /* \"contracts/RentalContract.sol\":59:10312  contract RentalManagement {\r... */\n  dataSize(sub_0)\n  dup1\n  dataOffset(sub_0)\n  0x00\n  codecopy\n  0x00\n  return\nstop\n\nsub_0: assembly {\n        /* \"contracts/RentalContract.sol\":59:10312  contract RentalManagement {\r... */\n      mstore(0x40, 0x80)\n      callvalue\n      dup1\n      iszero\n      tag_1\n      jumpi\n      0x00\n      dup1\n      revert\n    tag_1:\n      pop\n      jumpi(tag_2, lt(calldatasize, 0x04))\n      shr(0xe0, calldataload(0x00))\n      dup1\n      0x70acd52a\n      gt\n      tag_25\n      jumpi\n      dup1\n      0x9c386174\n      gt\n      tag_26\n      jumpi\n      dup1\n      0x9c386174\n      eq\n      tag_19\n      jumpi\n      dup1\n      0x9f4216e8\n      eq\n      tag_20\n      jumpi\n      dup1\n      0xa87430ba\n      eq\n      tag_21\n      jumpi\n      dup1\n      0xadba8378\n      eq\n      tag_22\n      jumpi\n      dup1\n      0xae23d553\n      eq\n      tag_23\n      jumpi\n      dup1\n      0xc9dda6fe\n      eq\n      tag_24\n      jumpi\n      jump(tag_2)\n    tag_26:\n      dup1\n      0x70acd52a\n      eq\n      tag_14\n      jumpi\n      dup1\n      0x7e69e912\n      eq\n      tag_15\n      jumpi\n      dup1\n      0x8927a106\n      eq\n      tag_16\n      jumpi\n      dup1\n      0x8ad257b7\n      eq\n      tag_17\n      jumpi\n      dup1\n      0x91909980\n      eq\n      tag_18\n      jumpi\n      jump(tag_2)\n    tag_25:\n      dup1\n      0x3317e396\n      gt\n      tag_27\n      jumpi\n      dup1\n      0x3317e396\n      eq\n      tag_8\n      jumpi\n      dup1\n      0x33625e78\n      eq\n      tag_9\n      jumpi\n      dup1\n      0x40ec27f3\n      eq\n      tag_10\n      jumpi\n      dup1\n      0x503015bf\n      eq\n      tag_11\n      jumpi\n      dup1\n      0x6233775c\n      eq\n      tag_12\n      jumpi\n      dup1\n      0x63575877\n      eq\n      tag_13\n      jumpi\n      jump(tag_2)\n    tag_27:\n      dup1\n      0xd89033\n      eq\n      tag_3\n      jumpi\n      dup1\n      0x06552091\n      eq\n      tag_4\n      jumpi\n      dup1\n      0x07460b66\n      eq\n      tag_5\n      jumpi\n      dup1\n      0x1307430a\n      eq\n      tag_6\n      jumpi\n      dup1\n      0x16ef034c\n      eq\n      tag_7\n      jumpi\n    tag_2:\n      0x00\n      dup1\n      revert\n        /* \"contracts/RentalContract.sol\":1612:1640  int public propertyIdCounter */\n    tag_3:\n      tag_28\n      tag_29\n      jump\t// in\n    tag_28:\n      mload(0x40)\n      tag_30\n      swap2\n      swap1\n      tag_31\n      jump\t// in\n    tag_30:\n      mload(0x40)\n      dup1\n      swap2\n      sub\n      swap1\n      return\n        /* \"contracts/RentalContract.sol\":1750:1778  uint256 public landlordCount */\n    tag_4:\n      tag_32\n      tag_33\n      jump\t// in\n    tag_32:\n      mload(0x40)\n      tag_34\n      swap2\n      swap1\n      tag_35\n      jump\t// in\n    tag_34:\n      mload(0x40)\n      dup1\n      swap2\n      sub\n      swap1\n      return\n        /* \"contracts/RentalContract.sol\":3213:3590  function createProperty(string memory name, string memory description) public {\r... */\n    tag_5:\n      tag_36\n      0x04\n      dup1\n      calldatasize\n      sub\n      dup2\n      add\n      swap1\n      tag_37\n      swap2\n      swap1\n      tag_38\n      jump\t// in\n    tag_37:\n      tag_39\n      jump\t// in\n    tag_36:\n      stop\n        /* \"contracts/RentalContract.sol\":1717:1743  uint256 public tenantCount */\n    tag_6:\n      tag_40\n      tag_41\n      jump\t// in\n    tag_40:\n      mload(0x40)\n      tag_42\n      swap2\n      swap1\n      tag_35\n      jump\t// in\n    tag_42:\n      mload(0x40)\n      dup1\n      swap2\n      sub\n      swap1\n      return\n        /* \"contracts/RentalContract.sol\":2776:3122  function createUser(string memory name, bool _isTenant, bool _isLandlord) public {\r... */\n    tag_7:\n      tag_43\n      0x04\n      dup1\n      calldatasize\n      sub\n      dup2\n      add\n      swap1\n      tag_44\n      swap2\n      swap1\n      tag_45\n      jump\t// in\n    tag_44:\n      tag_46\n      jump\t// in\n    tag_43:\n      stop\n        /* \"contracts/RentalContract.sol\":8833:9515  function requestEarlyTermination(int propertyId) public {\r... */\n    tag_8:\n      tag_47\n      0x04\n      dup1\n      calldatasize\n      sub\n      dup2\n      add\n      swap1\n      tag_48\n      swap2\n      swap1\n      tag_49\n      jump\t// in\n    tag_48:\n      tag_50\n      jump\t// in\n    tag_47:\n      stop\n        /* \"contracts/RentalContract.sol\":6266:7026  function getLandlordComplaints() public view returns (int[] memory, string[] memory, string[] memory) {\r... */\n    tag_9:\n      tag_51\n      tag_52\n      jump\t// in\n    tag_51:\n      mload(0x40)\n      tag_53\n      swap4\n      swap3\n      swap2\n      swap1\n      tag_54\n      jump\t// in\n    tag_53:\n      mload(0x40)\n      dup1\n      swap2\n      sub\n      swap1\n      return\n        /* \"contracts/RentalContract.sol\":8041:8672  function terminateLease(int propertyId, address tenant) public {\r... */\n    tag_10:\n      tag_55\n      0x04\n      dup1\n      calldatasize\n      sub\n      dup2\n      add\n      swap1\n      tag_56\n      swap2\n      swap1\n      tag_57\n      jump\t// in\n    tag_56:\n      tag_58\n      jump\t// in\n    tag_55:\n      stop\n        /* \"contracts/RentalContract.sol\":5194:6185  function getTenantComplaints() public view returns (int[] memory, string[] memory, string[] memory, string[] memory) {\r... */\n    tag_11:\n      tag_59\n      tag_60\n      jump\t// in\n    tag_59:\n      mload(0x40)\n      tag_61\n      swap5\n      swap4\n      swap3\n      swap2\n      swap1\n      tag_62\n      jump\t// in\n    tag_61:\n      mload(0x40)\n      dup1\n      swap2\n      sub\n      swap1\n      return\n        /* \"contracts/RentalContract.sol\":4188:4545  function createComplaint(int propertyId, string memory description) public {\r... */\n    tag_12:\n      tag_63\n      0x04\n      dup1\n      calldatasize\n      sub\n      dup2\n      add\n      swap1\n      tag_64\n      swap2\n      swap1\n      tag_65\n      jump\t// in\n    tag_64:\n      tag_66\n      jump\t// in\n    tag_63:\n      stop\n        /* \"contracts/RentalContract.sol\":1374:1424  EarlyTermination[] public earlyTerminationRequests */\n    tag_13:\n      tag_67\n      0x04\n      dup1\n      calldatasize\n      sub\n      dup2\n      add\n      swap1\n      tag_68\n      swap2\n      swap1\n      tag_69\n      jump\t// in\n    tag_68:\n      tag_70\n      jump\t// in\n    tag_67:\n      mload(0x40)\n      tag_71\n      swap5\n      swap4\n      swap3\n      swap2\n      swap1\n      tag_72\n      jump\t// in\n    tag_71:\n      mload(0x40)\n      dup1\n      swap2\n      sub\n      swap1\n      return\n        /* \"contracts/RentalContract.sol\":1130:1172  mapping(int => Property) public properties */\n    tag_14:\n      tag_73\n      0x04\n      dup1\n      calldatasize\n      sub\n      dup2\n      add\n      swap1\n      tag_74\n      swap2\n      swap1\n      tag_49\n      jump\t// in\n    tag_74:\n      tag_75\n      jump\t// in\n    tag_73:\n      mload(0x40)\n      tag_76\n      swap7\n      swap6\n      swap5\n      swap4\n      swap3\n      swap2\n      swap1\n      tag_77\n      jump\t// in\n    tag_76:\n      mload(0x40)\n      dup1\n      swap2\n      sub\n      swap1\n      return\n        /* \"contracts/RentalContract.sol\":1286:1315  Complaint[] public complaints */\n    tag_15:\n      tag_78\n      0x04\n      dup1\n      calldatasize\n      sub\n      dup2\n      add\n      swap1\n      tag_79\n      swap2\n      swap1\n      tag_69\n      jump\t// in\n    tag_79:\n      tag_80\n      jump\t// in\n    tag_78:\n      mload(0x40)\n      tag_81\n      swap5\n      swap4\n      swap3\n      swap2\n      swap1\n      tag_82\n      jump\t// in\n    tag_81:\n      mload(0x40)\n      dup1\n      swap2\n      sub\n      swap1\n      return\n        /* \"contracts/RentalContract.sol\":1217:1238  Lease[] public leases */\n    tag_16:\n      tag_83\n      0x04\n      dup1\n      calldatasize\n      sub\n      dup2\n      add\n      swap1\n      tag_84\n      swap2\n      swap1\n      tag_69\n      jump\t// in\n    tag_84:\n      tag_85\n      jump\t// in\n    tag_83:\n      mload(0x40)\n      tag_86\n      swap5\n      swap4\n      swap3\n      swap2\n      swap1\n      tag_87\n      jump\t// in\n    tag_86:\n      mload(0x40)\n      dup1\n      swap2\n      sub\n      swap1\n      return\n        /* \"contracts/RentalContract.sol\":1959:2315  function listUsers() public view returns (uint256 tenantCount, uint256 landlordCount) {\r... */\n    tag_17:\n      tag_88\n      tag_89\n      jump\t// in\n    tag_88:\n      mload(0x40)\n      tag_90\n      swap3\n      swap2\n      swap1\n      tag_91\n      jump\t// in\n    tag_90:\n      mload(0x40)\n      dup1\n      swap2\n      sub\n      swap1\n      return\n        /* \"contracts/RentalContract.sol\":2389:2724  function listRentedProperties() public view returns (address[] memory) {\r... */\n    tag_18:\n      tag_92\n      tag_93\n      jump\t// in\n    tag_92:\n      mload(0x40)\n      tag_94\n      swap2\n      swap1\n      tag_95\n      jump\t// in\n    tag_94:\n      mload(0x40)\n      dup1\n      swap2\n      sub\n      swap1\n      return\n        /* \"contracts/RentalContract.sol\":7060:7990  function listProperties(uint id) public view returns (int[] memory, string[] memory, string[] memory, address[] memory) {\r... */\n    tag_19:\n      tag_96\n      0x04\n      dup1\n      calldatasize\n      sub\n      dup2\n      add\n      swap1\n      tag_97\n      swap2\n      swap1\n      tag_69\n      jump\t// in\n    tag_97:\n      tag_98\n      jump\t// in\n    tag_96:\n      mload(0x40)\n      tag_99\n      swap5\n      swap4\n      swap3\n      swap2\n      swap1\n      tag_100\n      jump\t// in\n    tag_99:\n      mload(0x40)\n      dup1\n      swap2\n      sub\n      swap1\n      return\n        /* \"contracts/RentalContract.sol\":1511:1536  address[] public userList */\n    tag_20:\n      tag_101\n      0x04\n      dup1\n      calldatasize\n      sub\n      dup2\n      add\n      swap1\n      tag_102\n      swap2\n      swap1\n      tag_69\n      jump\t// in\n    tag_102:\n      tag_103\n      jump\t// in\n    tag_101:\n      mload(0x40)\n      tag_104\n      swap2\n      swap1\n      tag_105\n      jump\t// in\n    tag_104:\n      mload(0x40)\n      dup1\n      swap2\n      sub\n      swap1\n      return\n        /* \"contracts/RentalContract.sol\":1034:1071  mapping(address => User) public users */\n    tag_21:\n      tag_106\n      0x04\n      dup1\n      calldatasize\n      sub\n      dup2\n      add\n      swap1\n      tag_107\n      swap2\n      swap1\n      tag_108\n      jump\t// in\n    tag_107:\n      tag_109\n      jump\t// in\n    tag_106:\n      mload(0x40)\n      tag_110\n      swap4\n      swap3\n      swap2\n      swap1\n      tag_111\n      jump\t// in\n    tag_110:\n      mload(0x40)\n      dup1\n      swap2\n      sub\n      swap1\n      return\n        /* \"contracts/RentalContract.sol\":4617:5127  function respondToComplaint(uint256 complaintIndex, string memory response) public {\r... */\n    tag_22:\n      tag_112\n      0x04\n      dup1\n      calldatasize\n      sub\n      dup2\n      add\n      swap1\n      tag_113\n      swap2\n      swap1\n      tag_114\n      jump\t// in\n    tag_113:\n      tag_115\n      jump\t// in\n    tag_112:\n      stop\n        /* \"contracts/RentalContract.sol\":9587:10309  function approveEarlyTermination(uint256 requestIndex) public {\r... */\n    tag_23:\n      tag_116\n      0x04\n      dup1\n      calldatasize\n      sub\n      dup2\n      add\n      swap1\n      tag_117\n      swap2\n      swap1\n      tag_69\n      jump\t// in\n    tag_117:\n      tag_118\n      jump\t// in\n    tag_116:\n      stop\n        /* \"contracts/RentalContract.sol\":3648:4135  function createLease(address tenant, int propertyId, uint256 startDate, uint256 endDate) public {\r... */\n    tag_24:\n      tag_119\n      0x04\n      dup1\n      calldatasize\n      sub\n      dup2\n      add\n      swap1\n      tag_120\n      swap2\n      swap1\n      tag_121\n      jump\t// in\n    tag_120:\n      tag_122\n      jump\t// in\n    tag_119:\n      stop\n        /* \"contracts/RentalContract.sol\":1612:1640  int public propertyIdCounter */\n    tag_29:\n      sload(0x06)\n      dup2\n      jump\t// out\n        /* \"contracts/RentalContract.sol\":1750:1778  uint256 public landlordCount */\n    tag_33:\n      sload(0x08)\n      dup2\n      jump\t// out\n        /* \"contracts/RentalContract.sol\":3213:3590  function createProperty(string memory name, string memory description) public {\r... */\n    tag_39:\n        /* \"contracts/RentalContract.sol\":3310:3315  users */\n      0x00\n        /* \"contracts/RentalContract.sol\":3310:3327  users[msg.sender] */\n      dup1\n        /* \"contracts/RentalContract.sol\":3316:3326  msg.sender */\n      caller\n        /* \"contracts/RentalContract.sol\":3310:3327  users[msg.sender] */\n      0xffffffffffffffffffffffffffffffffffffffff\n      and\n      0xffffffffffffffffffffffffffffffffffffffff\n      and\n      dup2\n      mstore\n      0x20\n      add\n      swap1\n      dup2\n      mstore\n      0x20\n      add\n      0x00\n      keccak256\n        /* \"contracts/RentalContract.sol\":3310:3338  users[msg.sender].isLandlord */\n      0x01\n      add\n      0x01\n      swap1\n      sload\n      swap1\n      0x0100\n      exp\n      swap1\n      div\n      0xff\n      and\n        /* \"contracts/RentalContract.sol\":3302:3379  require(users[msg.sender].isLandlord, \"Only landlords can create properties\") */\n      tag_124\n      jumpi\n      mload(0x40)\n      0x08c379a000000000000000000000000000000000000000000000000000000000\n      dup2\n      mstore\n      0x04\n      add\n      tag_125\n      swap1\n      tag_126\n      jump\t// in\n    tag_125:\n      mload(0x40)\n      dup1\n      swap2\n      sub\n      swap1\n      revert\n    tag_124:\n        /* \"contracts/RentalContract.sol\":3422:3496  Property(propertyIdCounter, name, description, msg.sender,true,address(0)) */\n      mload(0x40)\n      dup1\n      0xc0\n      add\n      0x40\n      mstore\n      dup1\n        /* \"contracts/RentalContract.sol\":3431:3448  propertyIdCounter */\n      sload(0x06)\n        /* \"contracts/RentalContract.sol\":3422:3496  Property(propertyIdCounter, name, description, msg.sender,true,address(0)) */\n      dup2\n      mstore\n      0x20\n      add\n        /* \"contracts/RentalContract.sol\":3450:3454  name */\n      dup4\n        /* \"contracts/RentalContract.sol\":3422:3496  Property(propertyIdCounter, name, description, msg.sender,true,address(0)) */\n      dup2\n      mstore\n      0x20\n      add\n        /* \"contracts/RentalContract.sol\":3456:3467  description */\n      dup3\n        /* \"contracts/RentalContract.sol\":3422:3496  Property(propertyIdCounter, name, description, msg.sender,true,address(0)) */\n      dup2\n      mstore\n      0x20\n      add\n        /* \"contracts/RentalContract.sol\":3469:3479  msg.sender */\n      caller\n        /* \"contracts/RentalContract.sol\":3422:3496  Property(propertyIdCounter, name, description, msg.sender,true,address(0)) */\n      0xffffffffffffffffffffffffffffffffffffffff\n      and\n      dup2\n      mstore\n      0x20\n      add\n        /* \"contracts/RentalContract.sol\":3480:3484  true */\n      0x01\n        /* \"contracts/RentalContract.sol\":3422:3496  Property(propertyIdCounter, name, description, msg.sender,true,address(0)) */\n      iszero\n      iszero\n      dup2\n      mstore\n      0x20\n      add\n        /* \"contracts/RentalContract.sol\":3493:3494  0 */\n      0x00\n        /* \"contracts/RentalContract.sol\":3422:3496  Property(propertyIdCounter, name, description, msg.sender,true,address(0)) */\n      0xffffffffffffffffffffffffffffffffffffffff\n      and\n      dup2\n      mstore\n      pop\n        /* \"contracts/RentalContract.sol\":3390:3400  properties */\n      0x01\n        /* \"contracts/RentalContract.sol\":3390:3419  properties[propertyIdCounter] */\n      0x00\n        /* \"contracts/RentalContract.sol\":3401:3418  propertyIdCounter */\n      sload(0x06)\n        /* \"contracts/RentalContract.sol\":3390:3419  properties[propertyIdCounter] */\n      dup2\n      mstore\n      0x20\n      add\n      swap1\n      dup2\n      mstore\n      0x20\n      add\n      0x00\n      keccak256\n        /* \"contracts/RentalContract.sol\":3390:3496  properties[propertyIdCounter] = Property(propertyIdCounter, name, description, msg.sender,true,address(0)) */\n      0x00\n      dup3\n      add\n      mload\n      dup2\n      0x00\n      add\n      sstore\n      0x20\n      dup3\n      add\n      mload\n      dup2\n      0x01\n      add\n      swap1\n      dup1\n      mload\n      swap1\n      0x20\n      add\n      swap1\n      tag_127\n      swap3\n      swap2\n      swap1\n      tag_128\n      jump\t// in\n    tag_127:\n      pop\n      0x40\n      dup3\n      add\n      mload\n      dup2\n      0x02\n      add\n      swap1\n      dup1\n      mload\n      swap1\n      0x20\n      add\n      swap1\n      tag_129\n      swap3\n      swap2\n      swap1\n      tag_128\n      jump\t// in\n    tag_129:\n      pop\n      0x60\n      dup3\n      add\n      mload\n      dup2\n      0x03\n      add\n      exp(0x0100, 0x00)\n      dup2\n      sload\n      dup2\n      0xffffffffffffffffffffffffffffffffffffffff\n      mul\n      not\n      and\n      swap1\n      dup4\n      0xffffffffffffffffffffffffffffffffffffffff\n      and\n      mul\n      or\n      swap1\n      sstore\n      pop\n      0x80\n      dup3\n      add\n      mload\n      dup2\n      0x03\n      add\n      exp(0x0100, 0x14)\n      dup2\n      sload\n      dup2\n      0xff\n      mul\n      not\n      and\n      swap1\n      dup4\n      iszero\n      iszero\n      mul\n      or\n      swap1\n      sstore\n      pop\n      0xa0\n      dup3\n      add\n      mload\n      dup2\n      0x04\n      add\n      exp(0x0100, 0x00)\n      dup2\n      sload\n      dup2\n      0xffffffffffffffffffffffffffffffffffffffff\n      mul\n      not\n      and\n      swap1\n      dup4\n      0xffffffffffffffffffffffffffffffffffffffff\n      and\n      mul\n      or\n      swap1\n      sstore\n      pop\n      swap1\n      pop\n      pop\n        /* \"contracts/RentalContract.sol\":3517:3534  propertyIdCounter */\n      0x06\n      0x00\n        /* \"contracts/RentalContract.sol\":3517:3536  propertyIdCounter++ */\n      dup2\n      sload\n      dup1\n      swap3\n      swap2\n      swap1\n      tag_130\n      swap1\n      tag_131\n      jump\t// in\n    tag_130:\n      swap2\n      swap1\n      pop\n      sstore\n      pop\n        /* \"contracts/RentalContract.sol\":3213:3590  function createProperty(string memory name, string memory description) public {\r... */\n      pop\n      pop\n      jump\t// out\n        /* \"contracts/RentalContract.sol\":1717:1743  uint256 public tenantCount */\n    tag_41:\n      sload(0x07)\n      dup2\n      jump\t// out\n        /* \"contracts/RentalContract.sol\":2776:3122  function createUser(string memory name, bool _isTenant, bool _isLandlord) public {\r... */\n    tag_46:\n        /* \"contracts/RentalContract.sol\":2877:2882  users */\n      0x00\n        /* \"contracts/RentalContract.sol\":2877:2894  users[msg.sender] */\n      dup1\n        /* \"contracts/RentalContract.sol\":2883:2893  msg.sender */\n      caller\n        /* \"contracts/RentalContract.sol\":2877:2894  users[msg.sender] */\n      0xffffffffffffffffffffffffffffffffffffffff\n      and\n      0xffffffffffffffffffffffffffffffffffffffff\n      and\n      dup2\n      mstore\n      0x20\n      add\n      swap1\n      dup2\n      mstore\n      0x20\n      add\n      0x00\n      keccak256\n        /* \"contracts/RentalContract.sol\":2877:2903  users[msg.sender].isTenant */\n      0x01\n      add\n      0x00\n      swap1\n      sload\n      swap1\n      0x0100\n      exp\n      swap1\n      div\n      0xff\n      and\n        /* \"contracts/RentalContract.sol\":2876:2903  !users[msg.sender].isTenant */\n      iszero\n        /* \"contracts/RentalContract.sol\":2876:2936  !users[msg.sender].isTenant && !users[msg.sender].isLandlord */\n      dup1\n      iszero\n      tag_133\n      jumpi\n      pop\n        /* \"contracts/RentalContract.sol\":2908:2913  users */\n      0x00\n        /* \"contracts/RentalContract.sol\":2908:2925  users[msg.sender] */\n      dup1\n        /* \"contracts/RentalContract.sol\":2914:2924  msg.sender */\n      caller\n        /* \"contracts/RentalContract.sol\":2908:2925  users[msg.sender] */\n      0xffffffffffffffffffffffffffffffffffffffff\n      and\n      0xffffffffffffffffffffffffffffffffffffffff\n      and\n      dup2\n      mstore\n      0x20\n      add\n      swap1\n      dup2\n      mstore\n      0x20\n      add\n      0x00\n      keccak256\n        /* \"contracts/RentalContract.sol\":2908:2936  users[msg.sender].isLandlord */\n      0x01\n      add\n      0x01\n      swap1\n      sload\n      swap1\n      0x0100\n      exp\n      swap1\n      div\n      0xff\n      and\n        /* \"contracts/RentalContract.sol\":2907:2936  !users[msg.sender].isLandlord */\n      iszero\n        /* \"contracts/RentalContract.sol\":2876:2936  !users[msg.sender].isTenant && !users[msg.sender].isLandlord */\n    tag_133:\n        /* \"contracts/RentalContract.sol\":2868:2960  require(!users[msg.sender].isTenant && !users[msg.sender].isLandlord, \"User already exists\") */\n      tag_134\n      jumpi\n      mload(0x40)\n      0x08c379a000000000000000000000000000000000000000000000000000000000\n      dup2\n      mstore\n      0x04\n      add\n      tag_135\n      swap1\n      tag_136\n      jump\t// in\n    tag_135:\n      mload(0x40)\n      dup1\n      swap2\n      sub\n      swap1\n      revert\n    tag_134:\n        /* \"contracts/RentalContract.sol\":2991:3025  User(name, _isTenant, _isLandlord) */\n      mload(0x40)\n      dup1\n      0x60\n      add\n      0x40\n      mstore\n      dup1\n        /* \"contracts/RentalContract.sol\":2996:3000  name */\n      dup5\n        /* \"contracts/RentalContract.sol\":2991:3025  User(name, _isTenant, _isLandlord) */\n      dup2\n      mstore\n      0x20\n      add\n        /* \"contracts/RentalContract.sol\":3002:3011  _isTenant */\n      dup4\n        /* \"contracts/RentalContract.sol\":2991:3025  User(name, _isTenant, _isLandlord) */\n      iszero\n      iszero\n      dup2\n      mstore\n      0x20\n      add\n        /* \"contracts/RentalContract.sol\":3013:3024  _isLandlord */\n      dup3\n        /* \"contracts/RentalContract.sol\":2991:3025  User(name, _isTenant, _isLandlord) */\n      iszero\n      iszero\n      dup2\n      mstore\n      pop\n        /* \"contracts/RentalContract.sol\":2971:2976  users */\n      0x00\n        /* \"contracts/RentalContract.sol\":2971:2988  users[msg.sender] */\n      dup1\n        /* \"contracts/RentalContract.sol\":2977:2987  msg.sender */\n      caller\n        /* \"contracts/RentalContract.sol\":2971:2988  users[msg.sender] */\n      0xffffffffffffffffffffffffffffffffffffffff\n      and\n      0xffffffffffffffffffffffffffffffffffffffff\n      and\n      dup2\n      mstore\n      0x20\n      add\n      swap1\n      dup2\n      mstore\n      0x20\n      add\n      0x00\n      keccak256\n        /* \"contracts/RentalContract.sol\":2971:3025  users[msg.sender] = User(name, _isTenant, _isLandlord) */\n      0x00\n      dup3\n      add\n      mload\n      dup2\n      0x00\n      add\n      swap1\n      dup1\n      mload\n      swap1\n      0x20\n      add\n      swap1\n      tag_137\n      swap3\n      swap2\n      swap1\n      tag_128\n      jump\t// in\n    tag_137:\n      pop\n      0x20\n      dup3\n      add\n      mload\n      dup2\n      0x01\n      add\n      exp(0x0100, 0x00)\n      dup2\n      sload\n      dup2\n      0xff\n      mul\n      not\n      and\n      swap1\n      dup4\n      iszero\n      iszero\n      mul\n      or\n      swap1\n      sstore\n      pop\n      0x40\n      dup3\n      add\n      mload\n      dup2\n      0x01\n      add\n      exp(0x0100, 0x01)\n      dup2\n      sload\n      dup2\n      0xff\n      mul\n      not\n      and\n      swap1\n      dup4\n      iszero\n      iszero\n      mul\n      or\n      swap1\n      sstore\n      pop\n      swap1\n      pop\n      pop\n        /* \"contracts/RentalContract.sol\":3036:3044  userList */\n      0x05\n        /* \"contracts/RentalContract.sol\":3050:3060  msg.sender */\n      caller\n        /* \"contracts/RentalContract.sol\":3036:3061  userList.push(msg.sender) */\n      swap1\n      dup1\n      0x01\n      dup2\n      sload\n      add\n      dup1\n      dup3\n      sstore\n      dup1\n      swap2\n      pop\n      pop\n      0x01\n      swap1\n      sub\n      swap1\n      0x00\n      mstore\n      keccak256(0x00, 0x20)\n      add\n      0x00\n      swap1\n      swap2\n      swap1\n      swap2\n      swap1\n      swap2\n      0x0100\n      exp\n      dup2\n      sload\n      dup2\n      0xffffffffffffffffffffffffffffffffffffffff\n      mul\n      not\n      and\n      swap1\n      dup4\n      0xffffffffffffffffffffffffffffffffffffffff\n      and\n      mul\n      or\n      swap1\n      sstore\n      pop\n        /* \"contracts/RentalContract.sol\":2776:3122  function createUser(string memory name, bool _isTenant, bool _isLandlord) public {\r... */\n      pop\n      pop\n      pop\n      jump\t// out\n        /* \"contracts/RentalContract.sol\":8833:9515  function requestEarlyTermination(int propertyId) public {\r... */\n    tag_50:\n        /* \"contracts/RentalContract.sol\":8908:8913  users */\n      0x00\n        /* \"contracts/RentalContract.sol\":8908:8925  users[msg.sender] */\n      dup1\n        /* \"contracts/RentalContract.sol\":8914:8924  msg.sender */\n      caller\n        /* \"contracts/RentalContract.sol\":8908:8925  users[msg.sender] */\n      0xffffffffffffffffffffffffffffffffffffffff\n      and\n      0xffffffffffffffffffffffffffffffffffffffff\n      and\n      dup2\n      mstore\n      0x20\n      add\n      swap1\n      dup2\n      mstore\n      0x20\n      add\n      0x00\n      keccak256\n        /* \"contracts/RentalContract.sol\":8908:8934  users[msg.sender].isTenant */\n      0x01\n      add\n      0x00\n      swap1\n      sload\n      swap1\n      0x0100\n      exp\n      swap1\n      div\n      0xff\n      and\n        /* \"contracts/RentalContract.sol\":8900:8981  require(users[msg.sender].isTenant, \"Only tenants can request early termination\") */\n      tag_140\n      jumpi\n      mload(0x40)\n      0x08c379a000000000000000000000000000000000000000000000000000000000\n      dup2\n      mstore\n      0x04\n      add\n      tag_141\n      swap1\n      tag_142\n      jump\t// in\n    tag_141:\n      mload(0x40)\n      dup1\n      swap2\n      sub\n      swap1\n      revert\n    tag_140:\n        /* \"contracts/RentalContract.sol\":9005:9018  bool hasLease */\n      0x00\n        /* \"contracts/RentalContract.sol\":9114:9123  uint256 i */\n      dup1\n        /* \"contracts/RentalContract.sol\":9109:9327  for (uint256 i = 0; i < leases.length; i++) {\r... */\n    tag_143:\n        /* \"contracts/RentalContract.sol\":9133:9139  leases */\n      0x02\n        /* \"contracts/RentalContract.sol\":9133:9146  leases.length */\n      dup1\n      sload\n      swap1\n      pop\n        /* \"contracts/RentalContract.sol\":9129:9130  i */\n      dup2\n        /* \"contracts/RentalContract.sol\":9129:9146  i < leases.length */\n      lt\n        /* \"contracts/RentalContract.sol\":9109:9327  for (uint256 i = 0; i < leases.length; i++) {\r... */\n      iszero\n      tag_144\n      jumpi\n        /* \"contracts/RentalContract.sol\":9196:9206  propertyId */\n      dup3\n        /* \"contracts/RentalContract.sol\":9172:9178  leases */\n      0x02\n        /* \"contracts/RentalContract.sol\":9179:9180  i */\n      dup3\n        /* \"contracts/RentalContract.sol\":9172:9181  leases[i] */\n      dup2\n      sload\n      dup2\n      lt\n      tag_146\n      jumpi\n      mstore(0x00, 0x4e487b7100000000000000000000000000000000000000000000000000000000)\n      mstore(0x04, 0x32)\n      revert(0x00, 0x24)\n    tag_146:\n      swap1\n      0x00\n      mstore\n      keccak256(0x00, 0x20)\n      swap1\n      0x04\n      mul\n      add\n        /* \"contracts/RentalContract.sol\":9172:9192  leases[i].propertyId */\n      0x01\n      add\n      sload\n        /* \"contracts/RentalContract.sol\":9172:9206  leases[i].propertyId == propertyId */\n      eq\n        /* \"contracts/RentalContract.sol\":9172:9240  leases[i].propertyId == propertyId && leases[i].tenant == msg.sender */\n      dup1\n      iszero\n      tag_148\n      jumpi\n      pop\n        /* \"contracts/RentalContract.sol\":9230:9240  msg.sender */\n      caller\n        /* \"contracts/RentalContract.sol\":9210:9240  leases[i].tenant == msg.sender */\n      0xffffffffffffffffffffffffffffffffffffffff\n      and\n        /* \"contracts/RentalContract.sol\":9210:9216  leases */\n      0x02\n        /* \"contracts/RentalContract.sol\":9217:9218  i */\n      dup3\n        /* \"contracts/RentalContract.sol\":9210:9219  leases[i] */\n      dup2\n      sload\n      dup2\n      lt\n      tag_149\n      jumpi\n      mstore(0x00, 0x4e487b7100000000000000000000000000000000000000000000000000000000)\n      mstore(0x04, 0x32)\n      revert(0x00, 0x24)\n    tag_149:\n      swap1\n      0x00\n      mstore\n      keccak256(0x00, 0x20)\n      swap1\n      0x04\n      mul\n      add\n        /* \"contracts/RentalContract.sol\":9210:9226  leases[i].tenant */\n      0x00\n      add\n      0x00\n      swap1\n      sload\n      swap1\n      0x0100\n      exp\n      swap1\n      div\n      0xffffffffffffffffffffffffffffffffffffffff\n      and\n        /* \"contracts/RentalContract.sol\":9210:9240  leases[i].tenant == msg.sender */\n      0xffffffffffffffffffffffffffffffffffffffff\n      and\n      eq\n        /* \"contracts/RentalContract.sol\":9172:9240  leases[i].propertyId == propertyId && leases[i].tenant == msg.sender */\n    tag_148:\n        /* \"contracts/RentalContract.sol\":9168:9316  if (leases[i].propertyId == propertyId && leases[i].tenant == msg.sender) {\r... */\n      iszero\n      tag_151\n      jumpi\n        /* \"contracts/RentalContract.sol\":9272:9276  true */\n      0x01\n        /* \"contracts/RentalContract.sol\":9261:9276  hasLease = true */\n      swap2\n      pop\n        /* \"contracts/RentalContract.sol\":9295:9300  break */\n      jump(tag_144)\n        /* \"contracts/RentalContract.sol\":9168:9316  if (leases[i].propertyId == propertyId && leases[i].tenant == msg.sender) {\r... */\n    tag_151:\n        /* \"contracts/RentalContract.sol\":9148:9151  i++ */\n      dup1\n      dup1\n      tag_152\n      swap1\n      tag_153\n      jump\t// in\n    tag_152:\n      swap2\n      pop\n      pop\n        /* \"contracts/RentalContract.sol\":9109:9327  for (uint256 i = 0; i < leases.length; i++) {\r... */\n      jump(tag_143)\n    tag_144:\n      pop\n        /* \"contracts/RentalContract.sol\":9347:9355  hasLease */\n      dup1\n        /* \"contracts/RentalContract.sol\":9339:9401  require(hasLease, \"You do not have a lease for this property\") */\n      tag_154\n      jumpi\n      mload(0x40)\n      0x08c379a000000000000000000000000000000000000000000000000000000000\n      dup2\n      mstore\n      0x04\n      add\n      tag_155\n      swap1\n      tag_156\n      jump\t// in\n    tag_155:\n      mload(0x40)\n      dup1\n      swap2\n      sub\n      swap1\n      revert\n    tag_154:\n        /* \"contracts/RentalContract.sol\":9412:9436  earlyTerminationRequests */\n      0x04\n        /* \"contracts/RentalContract.sol\":9442:9506  EarlyTermination(msg.sender, propertyId, block.timestamp, false) */\n      mload(0x40)\n      dup1\n      0x80\n      add\n      0x40\n      mstore\n      dup1\n        /* \"contracts/RentalContract.sol\":9459:9469  msg.sender */\n      caller\n        /* \"contracts/RentalContract.sol\":9442:9506  EarlyTermination(msg.sender, propertyId, block.timestamp, false) */\n      0xffffffffffffffffffffffffffffffffffffffff\n      and\n      dup2\n      mstore\n      0x20\n      add\n        /* \"contracts/RentalContract.sol\":9471:9481  propertyId */\n      dup5\n        /* \"contracts/RentalContract.sol\":9442:9506  EarlyTermination(msg.sender, propertyId, block.timestamp, false) */\n      dup2\n      mstore\n      0x20\n      add\n        /* \"contracts/RentalContract.sol\":9483:9498  block.timestamp */\n      timestamp\n        /* \"contracts/RentalContract.sol\":9442:9506  EarlyTermination(msg.sender, propertyId, block.timestamp, false) */\n      dup2\n      mstore\n      0x20\n      add\n        /* \"contracts/RentalContract.sol\":9500:9505  false */\n      0x00\n        /* \"contracts/RentalContract.sol\":9442:9506  EarlyTermination(msg.sender, propertyId, block.timestamp, false) */\n      iszero\n      iszero\n      dup2\n      mstore\n      pop\n        /* \"contracts/RentalContract.sol\":9412:9507  earlyTerminationRequests.push(EarlyTermination(msg.sender, propertyId, block.timestamp, false)) */\n      swap1\n      dup1\n      0x01\n      dup2\n      sload\n      add\n      dup1\n      dup3\n      sstore\n      dup1\n      swap2\n      pop\n      pop\n      0x01\n      swap1\n      sub\n      swap1\n      0x00\n      mstore\n      keccak256(0x00, 0x20)\n      swap1\n      0x04\n      mul\n      add\n      0x00\n      swap1\n      swap2\n      swap1\n      swap2\n      swap1\n      swap2\n      pop\n      0x00\n      dup3\n      add\n      mload\n      dup2\n      0x00\n      add\n      exp(0x0100, 0x00)\n      dup2\n      sload\n      dup2\n      0xffffffffffffffffffffffffffffffffffffffff\n      mul\n      not\n      and\n      swap1\n      dup4\n      0xffffffffffffffffffffffffffffffffffffffff\n      and\n      mul\n      or\n      swap1\n      sstore\n      pop\n      0x20\n      dup3\n      add\n      mload\n      dup2\n      0x01\n      add\n      sstore\n      0x40\n      dup3\n      add\n      mload\n      dup2\n      0x02\n      add\n      sstore\n      0x60\n      dup3\n      add\n      mload\n      dup2\n      0x03\n      add\n      exp(0x0100, 0x00)\n      dup2\n      sload\n      dup2\n      0xff\n      mul\n      not\n      and\n      swap1\n      dup4\n      iszero\n      iszero\n      mul\n      or\n      swap1\n      sstore\n      pop\n      pop\n      pop\n        /* \"contracts/RentalContract.sol\":8833:9515  function requestEarlyTermination(int propertyId) public {\r... */\n      pop\n      pop\n      jump\t// out\n        /* \"contracts/RentalContract.sol\":6266:7026  function getLandlordComplaints() public view returns (int[] memory, string[] memory, string[] memory) {\r... */\n    tag_52:\n        /* \"contracts/RentalContract.sol\":6320:6332  int[] memory */\n      0x60\n        /* \"contracts/RentalContract.sol\":6334:6349  string[] memory */\n      dup1\n        /* \"contracts/RentalContract.sol\":6351:6366  string[] memory */\n      0x60\n        /* \"contracts/RentalContract.sol\":6379:6403  int[] memory propertyIds */\n      0x00\n        /* \"contracts/RentalContract.sol\":6416:6426  complaints */\n      0x03\n        /* \"contracts/RentalContract.sol\":6416:6433  complaints.length */\n      dup1\n      sload\n      swap1\n      pop\n        /* \"contracts/RentalContract.sol\":6406:6434  new int[](complaints.length) */\n      0xffffffffffffffff\n      dup2\n      gt\n      iszero\n      tag_159\n      jumpi\n      mstore(0x00, 0x4e487b7100000000000000000000000000000000000000000000000000000000)\n      mstore(0x04, 0x41)\n      revert(0x00, 0x24)\n    tag_159:\n      mload(0x40)\n      swap1\n      dup1\n      dup3\n      mstore\n      dup1\n      0x20\n      mul\n      0x20\n      add\n      dup3\n      add\n      0x40\n      mstore\n      dup1\n      iszero\n      tag_160\n      jumpi\n      dup2\n      0x20\n      add\n      0x20\n      dup3\n      mul\n      dup1\n      calldatasize\n      dup4\n      calldatacopy\n      dup1\n      dup3\n      add\n      swap2\n      pop\n      pop\n      swap1\n      pop\n    tag_160:\n      pop\n        /* \"contracts/RentalContract.sol\":6379:6434  int[] memory propertyIds = new int[](complaints.length) */\n      swap1\n      pop\n        /* \"contracts/RentalContract.sol\":6445:6473  string[] memory descriptions */\n      0x00\n        /* \"contracts/RentalContract.sol\":6489:6499  complaints */\n      0x03\n        /* \"contracts/RentalContract.sol\":6489:6506  complaints.length */\n      dup1\n      sload\n      swap1\n      pop\n        /* \"contracts/RentalContract.sol\":6476:6507  new string[](complaints.length) */\n      0xffffffffffffffff\n      dup2\n      gt\n      iszero\n      tag_161\n      jumpi\n      mstore(0x00, 0x4e487b7100000000000000000000000000000000000000000000000000000000)\n      mstore(0x04, 0x41)\n      revert(0x00, 0x24)\n    tag_161:\n      mload(0x40)\n      swap1\n      dup1\n      dup3\n      mstore\n      dup1\n      0x20\n      mul\n      0x20\n      add\n      dup3\n      add\n      0x40\n      mstore\n      dup1\n      iszero\n      tag_162\n      jumpi\n      dup2\n      0x20\n      add\n    tag_163:\n      0x60\n      dup2\n      mstore\n      0x20\n      add\n      swap1\n      0x01\n      swap1\n      sub\n      swap1\n      dup2\n      tag_163\n      jumpi\n      swap1\n      pop\n    tag_162:\n      pop\n        /* \"contracts/RentalContract.sol\":6445:6507  string[] memory descriptions = new string[](complaints.length) */\n      swap1\n      pop\n        /* \"contracts/RentalContract.sol\":6518:6543  string[] memory responses */\n      0x00\n        /* \"contracts/RentalContract.sol\":6559:6569  complaints */\n      0x03\n        /* \"contracts/RentalContract.sol\":6559:6576  complaints.length */\n      dup1\n      sload\n      swap1\n      pop\n        /* \"contracts/RentalContract.sol\":6546:6577  new string[](complaints.length) */\n      0xffffffffffffffff\n      dup2\n      gt\n      iszero\n      tag_164\n      jumpi\n      mstore(0x00, 0x4e487b7100000000000000000000000000000000000000000000000000000000)\n      mstore(0x04, 0x41)\n      revert(0x00, 0x24)\n    tag_164:\n      mload(0x40)\n      swap1\n      dup1\n      dup3\n      mstore\n      dup1\n      0x20\n      mul\n      0x20\n      add\n      dup3\n      add\n      0x40\n      mstore\n      dup1\n      iszero\n      tag_165\n      jumpi\n      dup2\n      0x20\n      add\n    tag_166:\n      0x60\n      dup2\n      mstore\n      0x20\n      add\n      swap1\n      0x01\n      swap1\n      sub\n      swap1\n      dup2\n      tag_166\n      jumpi\n      swap1\n      pop\n    tag_165:\n      pop\n        /* \"contracts/RentalContract.sol\":6518:6577  string[] memory responses = new string[](complaints.length) */\n      swap1\n      pop\n        /* \"contracts/RentalContract.sol\":6595:6604  uint256 i */\n      0x00\n        /* \"contracts/RentalContract.sol\":6590:6961  for (uint256 i = 0; i < complaints.length; i++) {\r... */\n    tag_167:\n        /* \"contracts/RentalContract.sol\":6614:6624  complaints */\n      0x03\n        /* \"contracts/RentalContract.sol\":6614:6631  complaints.length */\n      dup1\n      sload\n      swap1\n      pop\n        /* \"contracts/RentalContract.sol\":6610:6611  i */\n      dup2\n        /* \"contracts/RentalContract.sol\":6610:6631  i < complaints.length */\n      lt\n        /* \"contracts/RentalContract.sol\":6590:6961  for (uint256 i = 0; i < complaints.length; i++) {\r... */\n      iszero\n      tag_168\n      jumpi\n        /* \"contracts/RentalContract.sol\":6653:6679  Complaint memory complaint */\n      0x00\n        /* \"contracts/RentalContract.sol\":6682:6692  complaints */\n      0x03\n        /* \"contracts/RentalContract.sol\":6693:6694  i */\n      dup3\n        /* \"contracts/RentalContract.sol\":6682:6695  complaints[i] */\n      dup2\n      sload\n      dup2\n      lt\n      tag_170\n      jumpi\n      mstore(0x00, 0x4e487b7100000000000000000000000000000000000000000000000000000000)\n      mstore(0x04, 0x32)\n      revert(0x00, 0x24)\n    tag_170:\n      swap1\n      0x00\n      mstore\n      keccak256(0x00, 0x20)\n      swap1\n      0x04\n      mul\n      add\n        /* \"contracts/RentalContract.sol\":6653:6695  Complaint memory complaint = complaints[i] */\n      mload(0x40)\n      dup1\n      0x80\n      add\n      0x40\n      mstore\n      swap1\n      dup2\n      0x00\n      dup3\n      add\n      0x00\n      swap1\n      sload\n      swap1\n      0x0100\n      exp\n      swap1\n      div\n      0xffffffffffffffffffffffffffffffffffffffff\n      and\n      0xffffffffffffffffffffffffffffffffffffffff\n      and\n      0xffffffffffffffffffffffffffffffffffffffff\n      and\n      dup2\n      mstore\n      0x20\n      add\n      0x01\n      dup3\n      add\n      sload\n      dup2\n      mstore\n      0x20\n      add\n      0x02\n      dup3\n      add\n      dup1\n      sload\n      tag_172\n      swap1\n      tag_173\n      jump\t// in\n    tag_172:\n      dup1\n      0x1f\n      add\n      0x20\n      dup1\n      swap2\n      div\n      mul\n      0x20\n      add\n      mload(0x40)\n      swap1\n      dup2\n      add\n      0x40\n      mstore\n      dup1\n      swap3\n      swap2\n      swap1\n      dup2\n      dup2\n      mstore\n      0x20\n      add\n      dup3\n      dup1\n      sload\n      tag_174\n      swap1\n      tag_173\n      jump\t// in\n    tag_174:\n      dup1\n      iszero\n      tag_175\n      jumpi\n      dup1\n      0x1f\n      lt\n      tag_176\n      jumpi\n      0x0100\n      dup1\n      dup4\n      sload\n      div\n      mul\n      dup4\n      mstore\n      swap2\n      0x20\n      add\n      swap2\n      jump(tag_175)\n    tag_176:\n      dup3\n      add\n      swap2\n      swap1\n      0x00\n      mstore\n      keccak256(0x00, 0x20)\n      swap1\n    tag_177:\n      dup2\n      sload\n      dup2\n      mstore\n      swap1\n      0x01\n      add\n      swap1\n      0x20\n      add\n      dup1\n      dup4\n      gt\n      tag_177\n      jumpi\n      dup3\n      swap1\n      sub\n      0x1f\n      and\n      dup3\n      add\n      swap2\n    tag_175:\n      pop\n      pop\n      pop\n      pop\n      pop\n      dup2\n      mstore\n      0x20\n      add\n      0x03\n      dup3\n      add\n      dup1\n      sload\n      tag_178\n      swap1\n      tag_173\n      jump\t// in\n    tag_178:\n      dup1\n      0x1f\n      add\n      0x20\n      dup1\n      swap2\n      div\n      mul\n      0x20\n      add\n      mload(0x40)\n      swap1\n      dup2\n      add\n      0x40\n      mstore\n      dup1\n      swap3\n      swap2\n      swap1\n      dup2\n      dup2\n      mstore\n      0x20\n      add\n      dup3\n      dup1\n      sload\n      tag_179\n      swap1\n      tag_173\n      jump\t// in\n    tag_179:\n      dup1\n      iszero\n      tag_180\n      jumpi\n      dup1\n      0x1f\n      lt\n      tag_181\n      jumpi\n      0x0100\n      dup1\n      dup4\n      sload\n      div\n      mul\n      dup4\n      mstore\n      swap2\n      0x20\n      add\n      swap2\n      jump(tag_180)\n    tag_181:\n      dup3\n      add\n      swap2\n      swap1\n      0x00\n      mstore\n      keccak256(0x00, 0x20)\n      swap1\n    tag_182:\n      dup2\n      sload\n      dup2\n      mstore\n      swap1\n      0x01\n      add\n      swap1\n      0x20\n      add\n      dup1\n      dup4\n      gt\n      tag_182\n      jumpi\n      dup3\n      swap1\n      sub\n      0x1f\n      and\n      dup3\n      add\n      swap2\n    tag_180:\n      pop\n      pop\n      pop\n      pop\n      pop\n      dup2\n      mstore\n      pop\n      pop\n      swap1\n      pop\n        /* \"contracts/RentalContract.sol\":6756:6766  msg.sender */\n      caller\n        /* \"contracts/RentalContract.sol\":6714:6766  properties[complaint.propertyId].owner == msg.sender */\n      0xffffffffffffffffffffffffffffffffffffffff\n      and\n        /* \"contracts/RentalContract.sol\":6714:6724  properties */\n      0x01\n        /* \"contracts/RentalContract.sol\":6714:6746  properties[complaint.propertyId] */\n      0x00\n        /* \"contracts/RentalContract.sol\":6725:6734  complaint */\n      dup4\n        /* \"contracts/RentalContract.sol\":6725:6745  complaint.propertyId */\n      0x20\n      add\n      mload\n        /* \"contracts/RentalContract.sol\":6714:6746  properties[complaint.propertyId] */\n      dup2\n      mstore\n      0x20\n      add\n      swap1\n      dup2\n      mstore\n      0x20\n      add\n      0x00\n      keccak256\n        /* \"contracts/RentalContract.sol\":6714:6752  properties[complaint.propertyId].owner */\n      0x03\n      add\n      0x00\n      swap1\n      sload\n      swap1\n      0x0100\n      exp\n      swap1\n      div\n      0xffffffffffffffffffffffffffffffffffffffff\n      and\n        /* \"contracts/RentalContract.sol\":6714:6766  properties[complaint.propertyId].owner == msg.sender */\n      0xffffffffffffffffffffffffffffffffffffffff\n      and\n      eq\n        /* \"contracts/RentalContract.sol\":6710:6950  if (properties[complaint.propertyId].owner == msg.sender) {\r... */\n      iszero\n      tag_183\n      jumpi\n        /* \"contracts/RentalContract.sol\":6804:6813  complaint */\n      dup1\n        /* \"contracts/RentalContract.sol\":6804:6824  complaint.propertyId */\n      0x20\n      add\n      mload\n        /* \"contracts/RentalContract.sol\":6787:6798  propertyIds */\n      dup6\n        /* \"contracts/RentalContract.sol\":6799:6800  i */\n      dup4\n        /* \"contracts/RentalContract.sol\":6787:6801  propertyIds[i] */\n      dup2\n      mload\n      dup2\n      lt\n      tag_184\n      jumpi\n      mstore(0x00, 0x4e487b7100000000000000000000000000000000000000000000000000000000)\n      mstore(0x04, 0x32)\n      revert(0x00, 0x24)\n    tag_184:\n      0x20\n      mul\n      0x20\n      add\n      add\n        /* \"contracts/RentalContract.sol\":6787:6824  propertyIds[i] = complaint.propertyId */\n      dup2\n      dup2\n      mstore\n      pop\n      pop\n        /* \"contracts/RentalContract.sol\":6861:6870  complaint */\n      dup1\n        /* \"contracts/RentalContract.sol\":6861:6882  complaint.description */\n      0x40\n      add\n      mload\n        /* \"contracts/RentalContract.sol\":6843:6855  descriptions */\n      dup5\n        /* \"contracts/RentalContract.sol\":6856:6857  i */\n      dup4\n        /* \"contracts/RentalContract.sol\":6843:6858  descriptions[i] */\n      dup2\n      mload\n      dup2\n      lt\n      tag_185\n      jumpi\n      mstore(0x00, 0x4e487b7100000000000000000000000000000000000000000000000000000000)\n      mstore(0x04, 0x32)\n      revert(0x00, 0x24)\n    tag_185:\n      0x20\n      mul\n      0x20\n      add\n      add\n        /* \"contracts/RentalContract.sol\":6843:6882  descriptions[i] = complaint.description */\n      dup2\n      swap1\n      mstore\n      pop\n        /* \"contracts/RentalContract.sol\":6916:6925  complaint */\n      dup1\n        /* \"contracts/RentalContract.sol\":6916:6934  complaint.response */\n      0x60\n      add\n      mload\n        /* \"contracts/RentalContract.sol\":6901:6910  responses */\n      dup4\n        /* \"contracts/RentalContract.sol\":6911:6912  i */\n      dup4\n        /* \"contracts/RentalContract.sol\":6901:6913  responses[i] */\n      dup2\n      mload\n      dup2\n      lt\n      tag_186\n      jumpi\n      mstore(0x00, 0x4e487b7100000000000000000000000000000000000000000000000000000000)\n      mstore(0x04, 0x32)\n      revert(0x00, 0x24)\n    tag_186:\n      0x20\n      mul\n      0x20\n      add\n      add\n        /* \"contracts/RentalContract.sol\":6901:6934  responses[i] = complaint.response */\n      dup2\n      swap1\n      mstore\n      pop\n        /* \"contracts/RentalContract.sol\":6710:6950  if (properties[complaint.propertyId].owner == msg.sender) {\r... */\n    tag_183:\n        /* \"contracts/RentalContract.sol\":6590:6961  for (uint256 i = 0; i < complaints.length; i++) {\r... */\n      pop\n        /* \"contracts/RentalContract.sol\":6633:6636  i++ */\n      dup1\n      dup1\n      tag_187\n      swap1\n      tag_153\n      jump\t// in\n    tag_187:\n      swap2\n      pop\n      pop\n        /* \"contracts/RentalContract.sol\":6590:6961  for (uint256 i = 0; i < complaints.length; i++) {\r... */\n      jump(tag_167)\n    tag_168:\n      pop\n        /* \"contracts/RentalContract.sol\":6981:6992  propertyIds */\n      dup3\n        /* \"contracts/RentalContract.sol\":6994:7006  descriptions */\n      dup3\n        /* \"contracts/RentalContract.sol\":7008:7017  responses */\n      dup3\n        /* \"contracts/RentalContract.sol\":6973:7018  return (propertyIds, descriptions, responses) */\n      swap6\n      pop\n      swap6\n      pop\n      swap6\n      pop\n      pop\n      pop\n      pop\n        /* \"contracts/RentalContract.sol\":6266:7026  function getLandlordComplaints() public view returns (int[] memory, string[] memory, string[] memory) {\r... */\n      swap1\n      swap2\n      swap3\n      jump\t// out\n        /* \"contracts/RentalContract.sol\":8041:8672  function terminateLease(int propertyId, address tenant) public {\r... */\n    tag_58:\n        /* \"contracts/RentalContract.sol\":8123:8128  users */\n      0x00\n        /* \"contracts/RentalContract.sol\":8123:8140  users[msg.sender] */\n      dup1\n        /* \"contracts/RentalContract.sol\":8129:8139  msg.sender */\n      caller\n        /* \"contracts/RentalContract.sol\":8123:8140  users[msg.sender] */\n      0xffffffffffffffffffffffffffffffffffffffff\n      and\n      0xffffffffffffffffffffffffffffffffffffffff\n      and\n      dup2\n      mstore\n      0x20\n      add\n      swap1\n      dup2\n      mstore\n      0x20\n      add\n      0x00\n      keccak256\n        /* \"contracts/RentalContract.sol\":8123:8151  users[msg.sender].isLandlord */\n      0x01\n      add\n      0x01\n      swap1\n      sload\n      swap1\n      0x0100\n      exp\n      swap1\n      div\n      0xff\n      and\n        /* \"contracts/RentalContract.sol\":8115:8191  require(users[msg.sender].isLandlord, \"Only landlords can terminate leases\") */\n      tag_189\n      jumpi\n      mload(0x40)\n      0x08c379a000000000000000000000000000000000000000000000000000000000\n      dup2\n      mstore\n      0x04\n      add\n      tag_190\n      swap1\n      tag_191\n      jump\t// in\n    tag_190:\n      mload(0x40)\n      dup1\n      swap2\n      sub\n      swap1\n      revert\n    tag_189:\n        /* \"contracts/RentalContract.sol\":8289:8299  msg.sender */\n      caller\n        /* \"contracts/RentalContract.sol\":8257:8299  properties[propertyId].owner == msg.sender */\n      0xffffffffffffffffffffffffffffffffffffffff\n      and\n        /* \"contracts/RentalContract.sol\":8257:8267  properties */\n      0x01\n        /* \"contracts/RentalContract.sol\":8257:8279  properties[propertyId] */\n      0x00\n        /* \"contracts/RentalContract.sol\":8268:8278  propertyId */\n      dup5\n        /* \"contracts/RentalContract.sol\":8257:8279  properties[propertyId] */\n      dup2\n      mstore\n      0x20\n      add\n      swap1\n      dup2\n      mstore\n      0x20\n      add\n      0x00\n      keccak256\n        /* \"contracts/RentalContract.sol\":8257:8285  properties[propertyId].owner */\n      0x03\n      add\n      0x00\n      swap1\n      sload\n      swap1\n      0x0100\n      exp\n      swap1\n      div\n      0xffffffffffffffffffffffffffffffffffffffff\n      and\n        /* \"contracts/RentalContract.sol\":8257:8299  properties[propertyId].owner == msg.sender */\n      0xffffffffffffffffffffffffffffffffffffffff\n      and\n      eq\n        /* \"contracts/RentalContract.sol\":8249:8341  require(properties[propertyId].owner == msg.sender, \"You are not the owner of the property\") */\n      tag_192\n      jumpi\n      mload(0x40)\n      0x08c379a000000000000000000000000000000000000000000000000000000000\n      dup2\n      mstore\n      0x04\n      add\n      tag_193\n      swap1\n      tag_194\n      jump\t// in\n    tag_193:\n      mload(0x40)\n      dup1\n      swap2\n      sub\n      swap1\n      revert\n    tag_192:\n        /* \"contracts/RentalContract.sol\":8390:8399  uint256 i */\n      0x00\n        /* \"contracts/RentalContract.sol\":8385:8665  for (uint256 i = 0; i < leases.length; i++) {\r... */\n    tag_195:\n        /* \"contracts/RentalContract.sol\":8409:8415  leases */\n      0x02\n        /* \"contracts/RentalContract.sol\":8409:8422  leases.length */\n      dup1\n      sload\n      swap1\n      pop\n        /* \"contracts/RentalContract.sol\":8405:8406  i */\n      dup2\n        /* \"contracts/RentalContract.sol\":8405:8422  i < leases.length */\n      lt\n        /* \"contracts/RentalContract.sol\":8385:8665  for (uint256 i = 0; i < leases.length; i++) {\r... */\n      iszero\n      tag_196\n      jumpi\n        /* \"contracts/RentalContract.sol\":8472:8482  propertyId */\n      dup3\n        /* \"contracts/RentalContract.sol\":8448:8454  leases */\n      0x02\n        /* \"contracts/RentalContract.sol\":8455:8456  i */\n      dup3\n        /* \"contracts/RentalContract.sol\":8448:8457  leases[i] */\n      dup2\n      sload\n      dup2\n      lt\n      tag_198\n      jumpi\n      mstore(0x00, 0x4e487b7100000000000000000000000000000000000000000000000000000000)\n      mstore(0x04, 0x32)\n      revert(0x00, 0x24)\n    tag_198:\n      swap1\n      0x00\n      mstore\n      keccak256(0x00, 0x20)\n      swap1\n      0x04\n      mul\n      add\n        /* \"contracts/RentalContract.sol\":8448:8468  leases[i].propertyId */\n      0x01\n      add\n      sload\n        /* \"contracts/RentalContract.sol\":8448:8482  leases[i].propertyId == propertyId */\n      eq\n        /* \"contracts/RentalContract.sol\":8448:8512  leases[i].propertyId == propertyId && leases[i].tenant == tenant */\n      dup1\n      iszero\n      tag_200\n      jumpi\n      pop\n        /* \"contracts/RentalContract.sol\":8506:8512  tenant */\n      dup2\n        /* \"contracts/RentalContract.sol\":8486:8512  leases[i].tenant == tenant */\n      0xffffffffffffffffffffffffffffffffffffffff\n      and\n        /* \"contracts/RentalContract.sol\":8486:8492  leases */\n      0x02\n        /* \"contracts/RentalContract.sol\":8493:8494  i */\n      dup3\n        /* \"contracts/RentalContract.sol\":8486:8495  leases[i] */\n      dup2\n      sload\n      dup2\n      lt\n      tag_201\n      jumpi\n      mstore(0x00, 0x4e487b7100000000000000000000000000000000000000000000000000000000)\n      mstore(0x04, 0x32)\n      revert(0x00, 0x24)\n    tag_201:\n      swap1\n      0x00\n      mstore\n      keccak256(0x00, 0x20)\n      swap1\n      0x04\n      mul\n      add\n        /* \"contracts/RentalContract.sol\":8486:8502  leases[i].tenant */\n      0x00\n      add\n      0x00\n      swap1\n      sload\n      swap1\n      0x0100\n      exp\n      swap1\n      div\n      0xffffffffffffffffffffffffffffffffffffffff\n      and\n        /* \"contracts/RentalContract.sol\":8486:8512  leases[i].tenant == tenant */\n      0xffffffffffffffffffffffffffffffffffffffff\n      and\n      eq\n        /* \"contracts/RentalContract.sol\":8448:8512  leases[i].propertyId == propertyId && leases[i].tenant == tenant */\n    tag_200:\n        /* \"contracts/RentalContract.sol\":8444:8654  if (leases[i].propertyId == propertyId && leases[i].tenant == tenant) {\r... */\n      iszero\n      tag_203\n      jumpi\n        /* \"contracts/RentalContract.sol\":8599:8614  block.timestamp */\n      timestamp\n        /* \"contracts/RentalContract.sol\":8579:8585  leases */\n      0x02\n        /* \"contracts/RentalContract.sol\":8586:8587  i */\n      dup3\n        /* \"contracts/RentalContract.sol\":8579:8588  leases[i] */\n      dup2\n      sload\n      dup2\n      lt\n      tag_204\n      jumpi\n      mstore(0x00, 0x4e487b7100000000000000000000000000000000000000000000000000000000)\n      mstore(0x04, 0x32)\n      revert(0x00, 0x24)\n    tag_204:\n      swap1\n      0x00\n      mstore\n      keccak256(0x00, 0x20)\n      swap1\n      0x04\n      mul\n      add\n        /* \"contracts/RentalContract.sol\":8579:8596  leases[i].endDate */\n      0x03\n      add\n        /* \"contracts/RentalContract.sol\":8579:8614  leases[i].endDate = block.timestamp */\n      dup2\n      swap1\n      sstore\n      pop\n        /* \"contracts/RentalContract.sol\":8633:8638  break */\n      jump(tag_196)\n        /* \"contracts/RentalContract.sol\":8444:8654  if (leases[i].propertyId == propertyId && leases[i].tenant == tenant) {\r... */\n    tag_203:\n        /* \"contracts/RentalContract.sol\":8424:8427  i++ */\n      dup1\n      dup1\n      tag_206\n      swap1\n      tag_153\n      jump\t// in\n    tag_206:\n      swap2\n      pop\n      pop\n        /* \"contracts/RentalContract.sol\":8385:8665  for (uint256 i = 0; i < leases.length; i++) {\r... */\n      jump(tag_195)\n    tag_196:\n      pop\n        /* \"contracts/RentalContract.sol\":8041:8672  function terminateLease(int propertyId, address tenant) public {\r... */\n      pop\n      pop\n      jump\t// out\n        /* \"contracts/RentalContract.sol\":5194:6185  function getTenantComplaints() public view returns (int[] memory, string[] memory, string[] memory, string[] memory) {\r... */\n    tag_60:\n        /* \"contracts/RentalContract.sol\":5246:5258  int[] memory */\n      0x60\n        /* \"contracts/RentalContract.sol\":5260:5275  string[] memory */\n      dup1\n        /* \"contracts/RentalContract.sol\":5277:5292  string[] memory */\n      0x60\n        /* \"contracts/RentalContract.sol\":5294:5309  string[] memory */\n      dup1\n        /* \"contracts/RentalContract.sol\":5322:5346  int[] memory propertyIds */\n      0x00\n        /* \"contracts/RentalContract.sol\":5359:5369  complaints */\n      0x03\n        /* \"contracts/RentalContract.sol\":5359:5376  complaints.length */\n      dup1\n      sload\n      swap1\n      pop\n        /* \"contracts/RentalContract.sol\":5349:5377  new int[](complaints.length) */\n      0xffffffffffffffff\n      dup2\n      gt\n      iszero\n      tag_208\n      jumpi\n      mstore(0x00, 0x4e487b7100000000000000000000000000000000000000000000000000000000)\n      mstore(0x04, 0x41)\n      revert(0x00, 0x24)\n    tag_208:\n      mload(0x40)\n      swap1\n      dup1\n      dup3\n      mstore\n      dup1\n      0x20\n      mul\n      0x20\n      add\n      dup3\n      add\n      0x40\n      mstore\n      dup1\n      iszero\n      tag_209\n      jumpi\n      dup2\n      0x20\n      add\n      0x20\n      dup3\n      mul\n      dup1\n      calldatasize\n      dup4\n      calldatacopy\n      dup1\n      dup3\n      add\n      swap2\n      pop\n      pop\n      swap1\n      pop\n    tag_209:\n      pop\n        /* \"contracts/RentalContract.sol\":5322:5377  int[] memory propertyIds = new int[](complaints.length) */\n      swap1\n      pop\n        /* \"contracts/RentalContract.sol\":5388:5416  string[] memory descriptions */\n      0x00\n        /* \"contracts/RentalContract.sol\":5432:5442  complaints */\n      0x03\n        /* \"contracts/RentalContract.sol\":5432:5449  complaints.length */\n      dup1\n      sload\n      swap1\n      pop\n        /* \"contracts/RentalContract.sol\":5419:5450  new string[](complaints.length) */\n      0xffffffffffffffff\n      dup2\n      gt\n      iszero\n      tag_210\n      jumpi\n      mstore(0x00, 0x4e487b7100000000000000000000000000000000000000000000000000000000)\n      mstore(0x04, 0x41)\n      revert(0x00, 0x24)\n    tag_210:\n      mload(0x40)\n      swap1\n      dup1\n      dup3\n      mstore\n      dup1\n      0x20\n      mul\n      0x20\n      add\n      dup3\n      add\n      0x40\n      mstore\n      dup1\n      iszero\n      tag_211\n      jumpi\n      dup2\n      0x20\n      add\n    tag_212:\n      0x60\n      dup2\n      mstore\n      0x20\n      add\n      swap1\n      0x01\n      swap1\n      sub\n      swap1\n      dup2\n      tag_212\n      jumpi\n      swap1\n      pop\n    tag_211:\n      pop\n        /* \"contracts/RentalContract.sol\":5388:5450  string[] memory descriptions = new string[](complaints.length) */\n      swap1\n      pop\n        /* \"contracts/RentalContract.sol\":5461:5486  string[] memory responses */\n      0x00\n        /* \"contracts/RentalContract.sol\":5502:5512  complaints */\n      0x03\n        /* \"contracts/RentalContract.sol\":5502:5519  complaints.length */\n      dup1\n      sload\n      swap1\n      pop\n        /* \"contracts/RentalContract.sol\":5489:5520  new string[](complaints.length) */\n      0xffffffffffffffff\n      dup2\n      gt\n      iszero\n      tag_213\n      jumpi\n      mstore(0x00, 0x4e487b7100000000000000000000000000000000000000000000000000000000)\n      mstore(0x04, 0x41)\n      revert(0x00, 0x24)\n    tag_213:\n      mload(0x40)\n      swap1\n      dup1\n      dup3\n      mstore\n      dup1\n      0x20\n      mul\n      0x20\n      add\n      dup3\n      add\n      0x40\n      mstore\n      dup1\n      iszero\n      tag_214\n      jumpi\n      dup2\n      0x20\n      add\n    tag_215:\n      0x60\n      dup2\n      mstore\n      0x20\n      add\n      swap1\n      0x01\n      swap1\n      sub\n      swap1\n      dup2\n      tag_215\n      jumpi\n      swap1\n      pop\n    tag_214:\n      pop\n        /* \"contracts/RentalContract.sol\":5461:5520  string[] memory responses = new string[](complaints.length) */\n      swap1\n      pop\n        /* \"contracts/RentalContract.sol\":5531:5561  string[] memory responseOwners */\n      0x00\n        /* \"contracts/RentalContract.sol\":5577:5587  complaints */\n      0x03\n        /* \"contracts/RentalContract.sol\":5577:5594  complaints.length */\n      dup1\n      sload\n      swap1\n      pop\n        /* \"contracts/RentalContract.sol\":5564:5595  new string[](complaints.length) */\n      0xffffffffffffffff\n      dup2\n      gt\n      iszero\n      tag_216\n      jumpi\n      mstore(0x00, 0x4e487b7100000000000000000000000000000000000000000000000000000000)\n      mstore(0x04, 0x41)\n      revert(0x00, 0x24)\n    tag_216:\n      mload(0x40)\n      swap1\n      dup1\n      dup3\n      mstore\n      dup1\n      0x20\n      mul\n      0x20\n      add\n      dup3\n      add\n      0x40\n      mstore\n      dup1\n      iszero\n      tag_217\n      jumpi\n      dup2\n      0x20\n      add\n    tag_218:\n      0x60\n      dup2\n      mstore\n      0x20\n      add\n      swap1\n      0x01\n      swap1\n      sub\n      swap1\n      dup2\n      tag_218\n      jumpi\n      swap1\n      pop\n    tag_217:\n      pop\n        /* \"contracts/RentalContract.sol\":5531:5595  string[] memory responseOwners = new string[](complaints.length) */\n      swap1\n      pop\n        /* \"contracts/RentalContract.sol\":5613:5622  uint256 i */\n      0x00\n        /* \"contracts/RentalContract.sol\":5608:6104  for (uint256 i = 0; i < complaints.length; i++) {\r... */\n    tag_219:\n        /* \"contracts/RentalContract.sol\":5632:5642  complaints */\n      0x03\n        /* \"contracts/RentalContract.sol\":5632:5649  complaints.length */\n      dup1\n      sload\n      swap1\n      pop\n        /* \"contracts/RentalContract.sol\":5628:5629  i */\n      dup2\n        /* \"contracts/RentalContract.sol\":5628:5649  i < complaints.length */\n      lt\n        /* \"contracts/RentalContract.sol\":5608:6104  for (uint256 i = 0; i < complaints.length; i++) {\r... */\n      iszero\n      tag_220\n      jumpi\n        /* \"contracts/RentalContract.sol\":5671:5697  Complaint memory complaint */\n      0x00\n        /* \"contracts/RentalContract.sol\":5700:5710  complaints */\n      0x03\n        /* \"contracts/RentalContract.sol\":5711:5712  i */\n      dup3\n        /* \"contracts/RentalContract.sol\":5700:5713  complaints[i] */\n      dup2\n      sload\n      dup2\n      lt\n      tag_222\n      jumpi\n      mstore(0x00, 0x4e487b7100000000000000000000000000000000000000000000000000000000)\n      mstore(0x04, 0x32)\n      revert(0x00, 0x24)\n    tag_222:\n      swap1\n      0x00\n      mstore\n      keccak256(0x00, 0x20)\n      swap1\n      0x04\n      mul\n      add\n        /* \"contracts/RentalContract.sol\":5671:5713  Complaint memory complaint = complaints[i] */\n      mload(0x40)\n      dup1\n      0x80\n      add\n      0x40\n      mstore\n      swap1\n      dup2\n      0x00\n      dup3\n      add\n      0x00\n      swap1\n      sload\n      swap1\n      0x0100\n      exp\n      swap1\n      div\n      0xffffffffffffffffffffffffffffffffffffffff\n      and\n      0xffffffffffffffffffffffffffffffffffffffff\n      and\n      0xffffffffffffffffffffffffffffffffffffffff\n      and\n      dup2\n      mstore\n      0x20\n      add\n      0x01\n      dup3\n      add\n      sload\n      dup2\n      mstore\n      0x20\n      add\n      0x02\n      dup3\n      add\n      dup1\n      sload\n      tag_224\n      swap1\n      tag_173\n      jump\t// in\n    tag_224:\n      dup1\n      0x1f\n      add\n      0x20\n      dup1\n      swap2\n      div\n      mul\n      0x20\n      add\n      mload(0x40)\n      swap1\n      dup2\n      add\n      0x40\n      mstore\n      dup1\n      swap3\n      swap2\n      swap1\n      dup2\n      dup2\n      mstore\n      0x20\n      add\n      dup3\n      dup1\n      sload\n      tag_225\n      swap1\n      tag_173\n      jump\t// in\n    tag_225:\n      dup1\n      iszero\n      tag_226\n      jumpi\n      dup1\n      0x1f\n      lt\n      tag_227\n      jumpi\n      0x0100\n      dup1\n      dup4\n      sload\n      div\n      mul\n      dup4\n      mstore\n      swap2\n      0x20\n      add\n      swap2\n      jump(tag_226)\n    tag_227:\n      dup3\n      add\n      swap2\n      swap1\n      0x00\n      mstore\n      keccak256(0x00, 0x20)\n      swap1\n    tag_228:\n      dup2\n      sload\n      dup2\n      mstore\n      swap1\n      0x01\n      add\n      swap1\n      0x20\n      add\n      dup1\n      dup4\n      gt\n      tag_228\n      jumpi\n      dup3\n      swap1\n      sub\n      0x1f\n      and\n      dup3\n      add\n      swap2\n    tag_226:\n      pop\n      pop\n      pop\n      pop\n      pop\n      dup2\n      mstore\n      0x20\n      add\n      0x03\n      dup3\n      add\n      dup1\n      sload\n      tag_229\n      swap1\n      tag_173\n      jump\t// in\n    tag_229:\n      dup1\n      0x1f\n      add\n      0x20\n      dup1\n      swap2\n      div\n      mul\n      0x20\n      add\n      mload(0x40)\n      swap1\n      dup2\n      add\n      0x40\n      mstore\n      dup1\n      swap3\n      swap2\n      swap1\n      dup2\n      dup2\n      mstore\n      0x20\n      add\n      dup3\n      dup1\n      sload\n      tag_230\n      swap1\n      tag_173\n      jump\t// in\n    tag_230:\n      dup1\n      iszero\n      tag_231\n      jumpi\n      dup1\n      0x1f\n      lt\n      tag_232\n      jumpi\n      0x0100\n      dup1\n      dup4\n      sload\n      div\n      mul\n      dup4\n      mstore\n      swap2\n      0x20\n      add\n      swap2\n      jump(tag_231)\n    tag_232:\n      dup3\n      add\n      swap2\n      swap1\n      0x00\n      mstore\n      keccak256(0x00, 0x20)\n      swap1\n    tag_233:\n      dup2\n      sload\n      dup2\n      mstore\n      swap1\n      0x01\n      add\n      swap1\n      0x20\n      add\n      dup1\n      dup4\n      gt\n      tag_233\n      jumpi\n      dup3\n      swap1\n      sub\n      0x1f\n      and\n      dup3\n      add\n      swap2\n    tag_231:\n      pop\n      pop\n      pop\n      pop\n      pop\n      dup2\n      mstore\n      pop\n      pop\n      swap1\n      pop\n        /* \"contracts/RentalContract.sol\":5750:5760  msg.sender */\n      caller\n        /* \"contracts/RentalContract.sol\":5732:5760  complaint.user == msg.sender */\n      0xffffffffffffffffffffffffffffffffffffffff\n      and\n        /* \"contracts/RentalContract.sol\":5732:5741  complaint */\n      dup2\n        /* \"contracts/RentalContract.sol\":5732:5746  complaint.user */\n      0x00\n      add\n      mload\n        /* \"contracts/RentalContract.sol\":5732:5760  complaint.user == msg.sender */\n      0xffffffffffffffffffffffffffffffffffffffff\n      and\n      eq\n        /* \"contracts/RentalContract.sol\":5728:6093  if (complaint.user == msg.sender) {\r... */\n      iszero\n      tag_234\n      jumpi\n        /* \"contracts/RentalContract.sol\":5798:5807  complaint */\n      dup1\n        /* \"contracts/RentalContract.sol\":5798:5818  complaint.propertyId */\n      0x20\n      add\n      mload\n        /* \"contracts/RentalContract.sol\":5781:5792  propertyIds */\n      dup7\n        /* \"contracts/RentalContract.sol\":5793:5794  i */\n      dup4\n        /* \"contracts/RentalContract.sol\":5781:5795  propertyIds[i] */\n      dup2\n      mload\n      dup2\n      lt\n      tag_235\n      jumpi\n      mstore(0x00, 0x4e487b7100000000000000000000000000000000000000000000000000000000)\n      mstore(0x04, 0x32)\n      revert(0x00, 0x24)\n    tag_235:\n      0x20\n      mul\n      0x20\n      add\n      add\n        /* \"contracts/RentalContract.sol\":5781:5818  propertyIds[i] = complaint.propertyId */\n      dup2\n      dup2\n      mstore\n      pop\n      pop\n        /* \"contracts/RentalContract.sol\":5855:5864  complaint */\n      dup1\n        /* \"contracts/RentalContract.sol\":5855:5876  complaint.description */\n      0x40\n      add\n      mload\n        /* \"contracts/RentalContract.sol\":5837:5849  descriptions */\n      dup6\n        /* \"contracts/RentalContract.sol\":5850:5851  i */\n      dup4\n        /* \"contracts/RentalContract.sol\":5837:5852  descriptions[i] */\n      dup2\n      mload\n      dup2\n      lt\n      tag_236\n      jumpi\n      mstore(0x00, 0x4e487b7100000000000000000000000000000000000000000000000000000000)\n      mstore(0x04, 0x32)\n      revert(0x00, 0x24)\n    tag_236:\n      0x20\n      mul\n      0x20\n      add\n      add\n        /* \"contracts/RentalContract.sol\":5837:5876  descriptions[i] = complaint.description */\n      dup2\n      swap1\n      mstore\n      pop\n        /* \"contracts/RentalContract.sol\":5910:5919  complaint */\n      dup1\n        /* \"contracts/RentalContract.sol\":5910:5928  complaint.response */\n      0x60\n      add\n      mload\n        /* \"contracts/RentalContract.sol\":5895:5904  responses */\n      dup5\n        /* \"contracts/RentalContract.sol\":5905:5906  i */\n      dup4\n        /* \"contracts/RentalContract.sol\":5895:5907  responses[i] */\n      dup2\n      mload\n      dup2\n      lt\n      tag_237\n      jumpi\n      mstore(0x00, 0x4e487b7100000000000000000000000000000000000000000000000000000000)\n      mstore(0x04, 0x32)\n      revert(0x00, 0x24)\n    tag_237:\n      0x20\n      mul\n      0x20\n      add\n      add\n        /* \"contracts/RentalContract.sol\":5895:5928  responses[i] = complaint.response */\n      dup2\n      swap1\n      mstore\n      pop\n        /* \"contracts/RentalContract.sol\":6017:6018  0 */\n      0x00\n        /* \"contracts/RentalContract.sol\":5967:6019  properties[complaint.propertyId].owner == address(0) */\n      0xffffffffffffffffffffffffffffffffffffffff\n      and\n        /* \"contracts/RentalContract.sol\":5967:5977  properties */\n      0x01\n        /* \"contracts/RentalContract.sol\":5967:5999  properties[complaint.propertyId] */\n      0x00\n        /* \"contracts/RentalContract.sol\":5978:5987  complaint */\n      dup4\n        /* \"contracts/RentalContract.sol\":5978:5998  complaint.propertyId */\n      0x20\n      add\n      mload\n        /* \"contracts/RentalContract.sol\":5967:5999  properties[complaint.propertyId] */\n      dup2\n      mstore\n      0x20\n      add\n      swap1\n      dup2\n      mstore\n      0x20\n      add\n      0x00\n      keccak256\n        /* \"contracts/RentalContract.sol\":5967:6005  properties[complaint.propertyId].owner */\n      0x03\n      add\n      0x00\n      swap1\n      sload\n      swap1\n      0x0100\n      exp\n      swap1\n      div\n      0xffffffffffffffffffffffffffffffffffffffff\n      and\n        /* \"contracts/RentalContract.sol\":5967:6019  properties[complaint.propertyId].owner == address(0) */\n      0xffffffffffffffffffffffffffffffffffffffff\n      and\n      eq\n        /* \"contracts/RentalContract.sol\":5967:6077  properties[complaint.propertyId].owner == address(0) ? \"\" : users[properties[complaint.propertyId].owner].name */\n      tag_238\n      jumpi\n        /* \"contracts/RentalContract.sol\":6027:6032  users */\n      0x00\n        /* \"contracts/RentalContract.sol\":6027:6072  users[properties[complaint.propertyId].owner] */\n      dup1\n        /* \"contracts/RentalContract.sol\":6033:6043  properties */\n      0x01\n        /* \"contracts/RentalContract.sol\":6033:6065  properties[complaint.propertyId] */\n      0x00\n        /* \"contracts/RentalContract.sol\":6044:6053  complaint */\n      dup5\n        /* \"contracts/RentalContract.sol\":6044:6064  complaint.propertyId */\n      0x20\n      add\n      mload\n        /* \"contracts/RentalContract.sol\":6033:6065  properties[complaint.propertyId] */\n      dup2\n      mstore\n      0x20\n      add\n      swap1\n      dup2\n      mstore\n      0x20\n      add\n      0x00\n      keccak256\n        /* \"contracts/RentalContract.sol\":6033:6071  properties[complaint.propertyId].owner */\n      0x03\n      add\n      0x00\n      swap1\n      sload\n      swap1\n      0x0100\n      exp\n      swap1\n      div\n      0xffffffffffffffffffffffffffffffffffffffff\n      and\n        /* \"contracts/RentalContract.sol\":6027:6072  users[properties[complaint.propertyId].owner] */\n      0xffffffffffffffffffffffffffffffffffffffff\n      and\n      0xffffffffffffffffffffffffffffffffffffffff\n      and\n      dup2\n      mstore\n      0x20\n      add\n      swap1\n      dup2\n      mstore\n      0x20\n      add\n      0x00\n      keccak256\n        /* \"contracts/RentalContract.sol\":6027:6077  users[properties[complaint.propertyId].owner].name */\n      0x00\n      add\n        /* \"contracts/RentalContract.sol\":5967:6077  properties[complaint.propertyId].owner == address(0) ? \"\" : users[properties[complaint.propertyId].owner].name */\n      dup1\n      sload\n      tag_239\n      swap1\n      tag_173\n      jump\t// in\n    tag_239:\n      dup1\n      0x1f\n      add\n      0x20\n      dup1\n      swap2\n      div\n      mul\n      0x20\n      add\n      mload(0x40)\n      swap1\n      dup2\n      add\n      0x40\n      mstore\n      dup1\n      swap3\n      swap2\n      swap1\n      dup2\n      dup2\n      mstore\n      0x20\n      add\n      dup3\n      dup1\n      sload\n      tag_240\n      swap1\n      tag_173\n      jump\t// in\n    tag_240:\n      dup1\n      iszero\n      tag_241\n      jumpi\n      dup1\n      0x1f\n      lt\n      tag_242\n      jumpi\n      0x0100\n      dup1\n      dup4\n      sload\n      div\n      mul\n      dup4\n      mstore\n      swap2\n      0x20\n      add\n      swap2\n      jump(tag_241)\n    tag_242:\n      dup3\n      add\n      swap2\n      swap1\n      0x00\n      mstore\n      keccak256(0x00, 0x20)\n      swap1\n    tag_243:\n      dup2\n      sload\n      dup2\n      mstore\n      swap1\n      0x01\n      add\n      swap1\n      0x20\n      add\n      dup1\n      dup4\n      gt\n      tag_243\n      jumpi\n      dup3\n      swap1\n      sub\n      0x1f\n      and\n      dup3\n      add\n      swap2\n    tag_241:\n      pop\n      pop\n      pop\n      pop\n      pop\n      jump(tag_244)\n    tag_238:\n      mload(0x40)\n      dup1\n      0x20\n      add\n      0x40\n      mstore\n      dup1\n      0x00\n      dup2\n      mstore\n      pop\n    tag_244:\n        /* \"contracts/RentalContract.sol\":5947:5961  responseOwners */\n      dup4\n        /* \"contracts/RentalContract.sol\":5962:5963  i */\n      dup4\n        /* \"contracts/RentalContract.sol\":5947:5964  responseOwners[i] */\n      dup2\n      mload\n      dup2\n      lt\n      tag_245\n      jumpi\n      mstore(0x00, 0x4e487b7100000000000000000000000000000000000000000000000000000000)\n      mstore(0x04, 0x32)\n      revert(0x00, 0x24)\n    tag_245:\n      0x20\n      mul\n      0x20\n      add\n      add\n        /* \"contracts/RentalContract.sol\":5947:6077  responseOwners[i] = properties[complaint.propertyId].owner == address(0) ? \"\" : users[properties[complaint.propertyId].owner].name */\n      dup2\n      swap1\n      mstore\n      pop\n        /* \"contracts/RentalContract.sol\":5728:6093  if (complaint.user == msg.sender) {\r... */\n    tag_234:\n        /* \"contracts/RentalContract.sol\":5608:6104  for (uint256 i = 0; i < complaints.length; i++) {\r... */\n      pop\n        /* \"contracts/RentalContract.sol\":5651:5654  i++ */\n      dup1\n      dup1\n      tag_246\n      swap1\n      tag_153\n      jump\t// in\n    tag_246:\n      swap2\n      pop\n      pop\n        /* \"contracts/RentalContract.sol\":5608:6104  for (uint256 i = 0; i < complaints.length; i++) {\r... */\n      jump(tag_219)\n    tag_220:\n      pop\n        /* \"contracts/RentalContract.sol\":6124:6135  propertyIds */\n      dup4\n        /* \"contracts/RentalContract.sol\":6137:6149  descriptions */\n      dup4\n        /* \"contracts/RentalContract.sol\":6151:6160  responses */\n      dup4\n        /* \"contracts/RentalContract.sol\":6162:6176  responseOwners */\n      dup4\n        /* \"contracts/RentalContract.sol\":6116:6177  return (propertyIds, descriptions, responses, responseOwners) */\n      swap8\n      pop\n      swap8\n      pop\n      swap8\n      pop\n      swap8\n      pop\n      pop\n      pop\n      pop\n      pop\n        /* \"contracts/RentalContract.sol\":5194:6185  function getTenantComplaints() public view returns (int[] memory, string[] memory, string[] memory, string[] memory) {\r... */\n      swap1\n      swap2\n      swap3\n      swap4\n      jump\t// out\n        /* \"contracts/RentalContract.sol\":4188:4545  function createComplaint(int propertyId, string memory description) public {\r... */\n    tag_66:\n        /* \"contracts/RentalContract.sol\":4282:4287  users */\n      0x00\n        /* \"contracts/RentalContract.sol\":4282:4299  users[msg.sender] */\n      dup1\n        /* \"contracts/RentalContract.sol\":4288:4298  msg.sender */\n      caller\n        /* \"contracts/RentalContract.sol\":4282:4299  users[msg.sender] */\n      0xffffffffffffffffffffffffffffffffffffffff\n      and\n      0xffffffffffffffffffffffffffffffffffffffff\n      and\n      dup2\n      mstore\n      0x20\n      add\n      swap1\n      dup2\n      mstore\n      0x20\n      add\n      0x00\n      keccak256\n        /* \"contracts/RentalContract.sol\":4282:4308  users[msg.sender].isTenant */\n      0x01\n      add\n      0x00\n      swap1\n      sload\n      swap1\n      0x0100\n      exp\n      swap1\n      div\n      0xff\n      and\n        /* \"contracts/RentalContract.sol\":4274:4347  require(users[msg.sender].isTenant, \"Only tenants can create complaints\") */\n      tag_248\n      jumpi\n      mload(0x40)\n      0x08c379a000000000000000000000000000000000000000000000000000000000\n      dup2\n      mstore\n      0x04\n      add\n      tag_249\n      swap1\n      tag_250\n      jump\t// in\n    tag_249:\n      mload(0x40)\n      dup1\n      swap2\n      sub\n      swap1\n      revert\n    tag_248:\n        /* \"contracts/RentalContract.sol\":4399:4409  msg.sender */\n      caller\n        /* \"contracts/RentalContract.sol\":4366:4409  properties[propertyId].tenant == msg.sender */\n      0xffffffffffffffffffffffffffffffffffffffff\n      and\n        /* \"contracts/RentalContract.sol\":4366:4376  properties */\n      0x01\n        /* \"contracts/RentalContract.sol\":4366:4388  properties[propertyId] */\n      0x00\n        /* \"contracts/RentalContract.sol\":4377:4387  propertyId */\n      dup5\n        /* \"contracts/RentalContract.sol\":4366:4388  properties[propertyId] */\n      dup2\n      mstore\n      0x20\n      add\n      swap1\n      dup2\n      mstore\n      0x20\n      add\n      0x00\n      keccak256\n        /* \"contracts/RentalContract.sol\":4366:4395  properties[propertyId].tenant */\n      0x04\n      add\n      0x00\n      swap1\n      sload\n      swap1\n      0x0100\n      exp\n      swap1\n      div\n      0xffffffffffffffffffffffffffffffffffffffff\n      and\n        /* \"contracts/RentalContract.sol\":4366:4409  properties[propertyId].tenant == msg.sender */\n      0xffffffffffffffffffffffffffffffffffffffff\n      and\n      eq\n        /* \"contracts/RentalContract.sol\":4358:4459  require(properties[propertyId].tenant == msg.sender, \"You can only complain about a rented property\") */\n      tag_251\n      jumpi\n      mload(0x40)\n      0x08c379a000000000000000000000000000000000000000000000000000000000\n      dup2\n      mstore\n      0x04\n      add\n      tag_252\n      swap1\n      tag_253\n      jump\t// in\n    tag_252:\n      mload(0x40)\n      dup1\n      swap2\n      sub\n      swap1\n      revert\n    tag_251:\n        /* \"contracts/RentalContract.sol\":4470:4480  complaints */\n      0x03\n        /* \"contracts/RentalContract.sol\":4486:4536  Complaint(msg.sender, propertyId, description, \"\") */\n      mload(0x40)\n      dup1\n      0x80\n      add\n      0x40\n      mstore\n      dup1\n        /* \"contracts/RentalContract.sol\":4496:4506  msg.sender */\n      caller\n        /* \"contracts/RentalContract.sol\":4486:4536  Complaint(msg.sender, propertyId, description, \"\") */\n      0xffffffffffffffffffffffffffffffffffffffff\n      and\n      dup2\n      mstore\n      0x20\n      add\n        /* \"contracts/RentalContract.sol\":4508:4518  propertyId */\n      dup5\n        /* \"contracts/RentalContract.sol\":4486:4536  Complaint(msg.sender, propertyId, description, \"\") */\n      dup2\n      mstore\n      0x20\n      add\n        /* \"contracts/RentalContract.sol\":4520:4531  description */\n      dup4\n        /* \"contracts/RentalContract.sol\":4486:4536  Complaint(msg.sender, propertyId, description, \"\") */\n      dup2\n      mstore\n      0x20\n      add\n      mload(0x40)\n      dup1\n      0x20\n      add\n      0x40\n      mstore\n      dup1\n      0x00\n      dup2\n      mstore\n      pop\n      dup2\n      mstore\n      pop\n        /* \"contracts/RentalContract.sol\":4470:4537  complaints.push(Complaint(msg.sender, propertyId, description, \"\")) */\n      swap1\n      dup1\n      0x01\n      dup2\n      sload\n      add\n      dup1\n      dup3\n      sstore\n      dup1\n      swap2\n      pop\n      pop\n      0x01\n      swap1\n      sub\n      swap1\n      0x00\n      mstore\n      keccak256(0x00, 0x20)\n      swap1\n      0x04\n      mul\n      add\n      0x00\n      swap1\n      swap2\n      swap1\n      swap2\n      swap1\n      swap2\n      pop\n      0x00\n      dup3\n      add\n      mload\n      dup2\n      0x00\n      add\n      exp(0x0100, 0x00)\n      dup2\n      sload\n      dup2\n      0xffffffffffffffffffffffffffffffffffffffff\n      mul\n      not\n      and\n      swap1\n      dup4\n      0xffffffffffffffffffffffffffffffffffffffff\n      and\n      mul\n      or\n      swap1\n      sstore\n      pop\n      0x20\n      dup3\n      add\n      mload\n      dup2\n      0x01\n      add\n      sstore\n      0x40\n      dup3\n      add\n      mload\n      dup2\n      0x02\n      add\n      swap1\n      dup1\n      mload\n      swap1\n      0x20\n      add\n      swap1\n      tag_255\n      swap3\n      swap2\n      swap1\n      tag_128\n      jump\t// in\n    tag_255:\n      pop\n      0x60\n      dup3\n      add\n      mload\n      dup2\n      0x03\n      add\n      swap1\n      dup1\n      mload\n      swap1\n      0x20\n      add\n      swap1\n      tag_256\n      swap3\n      swap2\n      swap1\n      tag_128\n      jump\t// in\n    tag_256:\n      pop\n      pop\n      pop\n        /* \"contracts/RentalContract.sol\":4188:4545  function createComplaint(int propertyId, string memory description) public {\r... */\n      pop\n      pop\n      jump\t// out\n        /* \"contracts/RentalContract.sol\":1374:1424  EarlyTermination[] public earlyTerminationRequests */\n    tag_70:\n      0x04\n      dup2\n      dup2\n      sload\n      dup2\n      lt\n      tag_257\n      jumpi\n      0x00\n      dup1\n      revert\n    tag_257:\n      swap1\n      0x00\n      mstore\n      keccak256(0x00, 0x20)\n      swap1\n      0x04\n      mul\n      add\n      0x00\n      swap2\n      pop\n      swap1\n      pop\n      dup1\n      0x00\n      add\n      0x00\n      swap1\n      sload\n      swap1\n      0x0100\n      exp\n      swap1\n      div\n      0xffffffffffffffffffffffffffffffffffffffff\n      and\n      swap1\n      dup1\n      0x01\n      add\n      sload\n      swap1\n      dup1\n      0x02\n      add\n      sload\n      swap1\n      dup1\n      0x03\n      add\n      0x00\n      swap1\n      sload\n      swap1\n      0x0100\n      exp\n      swap1\n      div\n      0xff\n      and\n      swap1\n      pop\n      dup5\n      jump\t// out\n        /* \"contracts/RentalContract.sol\":1130:1172  mapping(int => Property) public properties */\n    tag_75:\n      mstore(0x20, 0x01)\n      dup1\n      0x00\n      mstore\n      keccak256(0x00, 0x40)\n      0x00\n      swap2\n      pop\n      swap1\n      pop\n      dup1\n      0x00\n      add\n      sload\n      swap1\n      dup1\n      0x01\n      add\n      dup1\n      sload\n      tag_259\n      swap1\n      tag_173\n      jump\t// in\n    tag_259:\n      dup1\n      0x1f\n      add\n      0x20\n      dup1\n      swap2\n      div\n      mul\n      0x20\n      add\n      mload(0x40)\n      swap1\n      dup2\n      add\n      0x40\n      mstore\n      dup1\n      swap3\n      swap2\n      swap1\n      dup2\n      dup2\n      mstore\n      0x20\n      add\n      dup3\n      dup1\n      sload\n      tag_260\n      swap1\n      tag_173\n      jump\t// in\n    tag_260:\n      dup1\n      iszero\n      tag_261\n      jumpi\n      dup1\n      0x1f\n      lt\n      tag_262\n      jumpi\n      0x0100\n      dup1\n      dup4\n      sload\n      div\n      mul\n      dup4\n      mstore\n      swap2\n      0x20\n      add\n      swap2\n      jump(tag_261)\n    tag_262:\n      dup3\n      add\n      swap2\n      swap1\n      0x00\n      mstore\n      keccak256(0x00, 0x20)\n      swap1\n    tag_263:\n      dup2\n      sload\n      dup2\n      mstore\n      swap1\n      0x01\n      add\n      swap1\n      0x20\n      add\n      dup1\n      dup4\n      gt\n      tag_263\n      jumpi\n      dup3\n      swap1\n      sub\n      0x1f\n      and\n      dup3\n      add\n      swap2\n    tag_261:\n      pop\n      pop\n      pop\n      pop\n      pop\n      swap1\n      dup1\n      0x02\n      add\n      dup1\n      sload\n      tag_264\n      swap1\n      tag_173\n      jump\t// in\n    tag_264:\n      dup1\n      0x1f\n      add\n      0x20\n      dup1\n      swap2\n      div\n      mul\n      0x20\n      add\n      mload(0x40)\n      swap1\n      dup2\n      add\n      0x40\n      mstore\n      dup1\n      swap3\n      swap2\n      swap1\n      dup2\n      dup2\n      mstore\n      0x20\n      add\n      dup3\n      dup1\n      sload\n      tag_265\n      swap1\n      tag_173\n      jump\t// in\n    tag_265:\n      dup1\n      iszero\n      tag_266\n      jumpi\n      dup1\n      0x1f\n      lt\n      tag_267\n      jumpi\n      0x0100\n      dup1\n      dup4\n      sload\n      div\n      mul\n      dup4\n      mstore\n      swap2\n      0x20\n      add\n      swap2\n      jump(tag_266)\n    tag_267:\n      dup3\n      add\n      swap2\n      swap1\n      0x00\n      mstore\n      keccak256(0x00, 0x20)\n      swap1\n    tag_268:\n      dup2\n      sload\n      dup2\n      mstore\n      swap1\n      0x01\n      add\n      swap1\n      0x20\n      add\n      dup1\n      dup4\n      gt\n      tag_268\n      jumpi\n      dup3\n      swap1\n      sub\n      0x1f\n      and\n      dup3\n      add\n      swap2\n    tag_266:\n      pop\n      pop\n      pop\n      pop\n      pop\n      swap1\n      dup1\n      0x03\n      add\n      0x00\n      swap1\n      sload\n      swap1\n      0x0100\n      exp\n      swap1\n      div\n      0xffffffffffffffffffffffffffffffffffffffff\n      and\n      swap1\n      dup1\n      0x03\n      add\n      0x14\n      swap1\n      sload\n      swap1\n      0x0100\n      exp\n      swap1\n      div\n      0xff\n      and\n      swap1\n      dup1\n      0x04\n      add\n      0x00\n      swap1\n      sload\n      swap1\n      0x0100\n      exp\n      swap1\n      div\n      0xffffffffffffffffffffffffffffffffffffffff\n      and\n      swap1\n      pop\n      dup7\n      jump\t// out\n        /* \"contracts/RentalContract.sol\":1286:1315  Complaint[] public complaints */\n    tag_80:\n      0x03\n      dup2\n      dup2\n      sload\n      dup2\n      lt\n      tag_269\n      jumpi\n      0x00\n      dup1\n      revert\n    tag_269:\n      swap1\n      0x00\n      mstore\n      keccak256(0x00, 0x20)\n      swap1\n      0x04\n      mul\n      add\n      0x00\n      swap2\n      pop\n      swap1\n      pop\n      dup1\n      0x00\n      add\n      0x00\n      swap1\n      sload\n      swap1\n      0x0100\n      exp\n      swap1\n      div\n      0xffffffffffffffffffffffffffffffffffffffff\n      and\n      swap1\n      dup1\n      0x01\n      add\n      sload\n      swap1\n      dup1\n      0x02\n      add\n      dup1\n      sload\n      tag_271\n      swap1\n      tag_173\n      jump\t// in\n    tag_271:\n      dup1\n      0x1f\n      add\n      0x20\n      dup1\n      swap2\n      div\n      mul\n      0x20\n      add\n      mload(0x40)\n      swap1\n      dup2\n      add\n      0x40\n      mstore\n      dup1\n      swap3\n      swap2\n      swap1\n      dup2\n      dup2\n      mstore\n      0x20\n      add\n      dup3\n      dup1\n      sload\n      tag_272\n      swap1\n      tag_173\n      jump\t// in\n    tag_272:\n      dup1\n      iszero\n      tag_273\n      jumpi\n      dup1\n      0x1f\n      lt\n      tag_274\n      jumpi\n      0x0100\n      dup1\n      dup4\n      sload\n      div\n      mul\n      dup4\n      mstore\n      swap2\n      0x20\n      add\n      swap2\n      jump(tag_273)\n    tag_274:\n      dup3\n      add\n      swap2\n      swap1\n      0x00\n      mstore\n      keccak256(0x00, 0x20)\n      swap1\n    tag_275:\n      dup2\n      sload\n      dup2\n      mstore\n      swap1\n      0x01\n      add\n      swap1\n      0x20\n      add\n      dup1\n      dup4\n      gt\n      tag_275\n      jumpi\n      dup3\n      swap1\n      sub\n      0x1f\n      and\n      dup3\n      add\n      swap2\n    tag_273:\n      pop\n      pop\n      pop\n      pop\n      pop\n      swap1\n      dup1\n      0x03\n      add\n      dup1\n      sload\n      tag_276\n      swap1\n      tag_173\n      jump\t// in\n    tag_276:\n      dup1\n      0x1f\n      add\n      0x20\n      dup1\n      swap2\n      div\n      mul\n      0x20\n      add\n      mload(0x40)\n      swap1\n      dup2\n      add\n      0x40\n      mstore\n      dup1\n      swap3\n      swap2\n      swap1\n      dup2\n      dup2\n      mstore\n      0x20\n      add\n      dup3\n      dup1\n      sload\n      tag_277\n      swap1\n      tag_173\n      jump\t// in\n    tag_277:\n      dup1\n      iszero\n      tag_278\n      jumpi\n      dup1\n      0x1f\n      lt\n      tag_279\n      jumpi\n      0x0100\n      dup1\n      dup4\n      sload\n      div\n      mul\n      dup4\n      mstore\n      swap2\n      0x20\n      add\n      swap2\n      jump(tag_278)\n    tag_279:\n      dup3\n      add\n      swap2\n      swap1\n      0x00\n      mstore\n      keccak256(0x00, 0x20)\n      swap1\n    tag_280:\n      dup2\n      sload\n      dup2\n      mstore\n      swap1\n      0x01\n      add\n      swap1\n      0x20\n      add\n      dup1\n      dup4\n      gt\n      tag_280\n      jumpi\n      dup3\n      swap1\n      sub\n      0x1f\n      and\n      dup3\n      add\n      swap2\n    tag_278:\n      pop\n      pop\n      pop\n      pop\n      pop\n      swap1\n      pop\n      dup5\n      jump\t// out\n        /* \"contracts/RentalContract.sol\":1217:1238  Lease[] public leases */\n    tag_85:\n      0x02\n      dup2\n      dup2\n      sload\n      dup2\n      lt\n      tag_281\n      jumpi\n      0x00\n      dup1\n      revert\n    tag_281:\n      swap1\n      0x00\n      mstore\n      keccak256(0x00, 0x20)\n      swap1\n      0x04\n      mul\n      add\n      0x00\n      swap2\n      pop\n      swap1\n      pop\n      dup1\n      0x00\n      add\n      0x00\n      swap1\n      sload\n      swap1\n      0x0100\n      exp\n      swap1\n      div\n      0xffffffffffffffffffffffffffffffffffffffff\n      and\n      swap1\n      dup1\n      0x01\n      add\n      sload\n      swap1\n      dup1\n      0x02\n      add\n      sload\n      swap1\n      dup1\n      0x03\n      add\n      sload\n      swap1\n      pop\n      dup5\n      jump\t// out\n        /* \"contracts/RentalContract.sol\":1959:2315  function listUsers() public view returns (uint256 tenantCount, uint256 landlordCount) {\r... */\n    tag_89:\n        /* \"contracts/RentalContract.sol\":2001:2020  uint256 tenantCount */\n      0x00\n        /* \"contracts/RentalContract.sol\":2022:2043  uint256 landlordCount */\n      dup1\n        /* \"contracts/RentalContract.sol\":2061:2070  uint256 i */\n      0x00\n        /* \"contracts/RentalContract.sol\":2056:2308  for (uint256 i = 0; i < userList.length; i++) {\r... */\n    tag_284:\n        /* \"contracts/RentalContract.sol\":2080:2088  userList */\n      0x05\n        /* \"contracts/RentalContract.sol\":2080:2095  userList.length */\n      dup1\n      sload\n      swap1\n      pop\n        /* \"contracts/RentalContract.sol\":2076:2077  i */\n      dup2\n        /* \"contracts/RentalContract.sol\":2076:2095  i < userList.length */\n      lt\n        /* \"contracts/RentalContract.sol\":2056:2308  for (uint256 i = 0; i < userList.length; i++) {\r... */\n      iszero\n      tag_285\n      jumpi\n        /* \"contracts/RentalContract.sol\":2121:2126  users */\n      0x00\n        /* \"contracts/RentalContract.sol\":2121:2139  users[userList[i]] */\n      dup1\n        /* \"contracts/RentalContract.sol\":2127:2135  userList */\n      0x05\n        /* \"contracts/RentalContract.sol\":2136:2137  i */\n      dup4\n        /* \"contracts/RentalContract.sol\":2127:2138  userList[i] */\n      dup2\n      sload\n      dup2\n      lt\n      tag_287\n      jumpi\n      mstore(0x00, 0x4e487b7100000000000000000000000000000000000000000000000000000000)\n      mstore(0x04, 0x32)\n      revert(0x00, 0x24)\n    tag_287:\n      swap1\n      0x00\n      mstore\n      keccak256(0x00, 0x20)\n      add\n      0x00\n      swap1\n      sload\n      swap1\n      0x0100\n      exp\n      swap1\n      div\n      0xffffffffffffffffffffffffffffffffffffffff\n      and\n        /* \"contracts/RentalContract.sol\":2121:2139  users[userList[i]] */\n      0xffffffffffffffffffffffffffffffffffffffff\n      and\n      0xffffffffffffffffffffffffffffffffffffffff\n      and\n      dup2\n      mstore\n      0x20\n      add\n      swap1\n      dup2\n      mstore\n      0x20\n      add\n      0x00\n      keccak256\n        /* \"contracts/RentalContract.sol\":2121:2148  users[userList[i]].isTenant */\n      0x01\n      add\n      0x00\n      swap1\n      sload\n      swap1\n      0x0100\n      exp\n      swap1\n      div\n      0xff\n      and\n        /* \"contracts/RentalContract.sol\":2117:2198  if (users[userList[i]].isTenant) {\r... */\n      iszero\n      tag_289\n      jumpi\n        /* \"contracts/RentalContract.sol\":2169:2182  tenantCount++ */\n      dup3\n      dup1\n      tag_290\n      swap1\n      tag_153\n      jump\t// in\n    tag_290:\n      swap4\n      pop\n      pop\n        /* \"contracts/RentalContract.sol\":2117:2198  if (users[userList[i]].isTenant) {\r... */\n    tag_289:\n        /* \"contracts/RentalContract.sol\":2216:2221  users */\n      0x00\n        /* \"contracts/RentalContract.sol\":2216:2234  users[userList[i]] */\n      dup1\n        /* \"contracts/RentalContract.sol\":2222:2230  userList */\n      0x05\n        /* \"contracts/RentalContract.sol\":2231:2232  i */\n      dup4\n        /* \"contracts/RentalContract.sol\":2222:2233  userList[i] */\n      dup2\n      sload\n      dup2\n      lt\n      tag_291\n      jumpi\n      mstore(0x00, 0x4e487b7100000000000000000000000000000000000000000000000000000000)\n      mstore(0x04, 0x32)\n      revert(0x00, 0x24)\n    tag_291:\n      swap1\n      0x00\n      mstore\n      keccak256(0x00, 0x20)\n      add\n      0x00\n      swap1\n      sload\n      swap1\n      0x0100\n      exp\n      swap1\n      div\n      0xffffffffffffffffffffffffffffffffffffffff\n      and\n        /* \"contracts/RentalContract.sol\":2216:2234  users[userList[i]] */\n      0xffffffffffffffffffffffffffffffffffffffff\n      and\n      0xffffffffffffffffffffffffffffffffffffffff\n      and\n      dup2\n      mstore\n      0x20\n      add\n      swap1\n      dup2\n      mstore\n      0x20\n      add\n      0x00\n      keccak256\n        /* \"contracts/RentalContract.sol\":2216:2245  users[userList[i]].isLandlord */\n      0x01\n      add\n      0x01\n      swap1\n      sload\n      swap1\n      0x0100\n      exp\n      swap1\n      div\n      0xff\n      and\n        /* \"contracts/RentalContract.sol\":2212:2297  if (users[userList[i]].isLandlord) {\r... */\n      iszero\n      tag_293\n      jumpi\n        /* \"contracts/RentalContract.sol\":2266:2281  landlordCount++ */\n      dup2\n      dup1\n      tag_294\n      swap1\n      tag_153\n      jump\t// in\n    tag_294:\n      swap3\n      pop\n      pop\n        /* \"contracts/RentalContract.sol\":2212:2297  if (users[userList[i]].isLandlord) {\r... */\n    tag_293:\n        /* \"contracts/RentalContract.sol\":2097:2100  i++ */\n      dup1\n      dup1\n      tag_295\n      swap1\n      tag_153\n      jump\t// in\n    tag_295:\n      swap2\n      pop\n      pop\n        /* \"contracts/RentalContract.sol\":2056:2308  for (uint256 i = 0; i < userList.length; i++) {\r... */\n      jump(tag_284)\n    tag_285:\n      pop\n        /* \"contracts/RentalContract.sol\":1959:2315  function listUsers() public view returns (uint256 tenantCount, uint256 landlordCount) {\r... */\n      swap1\n      swap2\n      jump\t// out\n        /* \"contracts/RentalContract.sol\":2389:2724  function listRentedProperties() public view returns (address[] memory) {\r... */\n    tag_93:\n        /* \"contracts/RentalContract.sol\":2442:2458  address[] memory */\n      0x60\n        /* \"contracts/RentalContract.sol\":2471:2506  address[] memory rentedPropertyList */\n      0x00\n        /* \"contracts/RentalContract.sol\":2523:2529  leases */\n      0x02\n        /* \"contracts/RentalContract.sol\":2523:2536  leases.length */\n      dup1\n      sload\n      swap1\n      pop\n        /* \"contracts/RentalContract.sol\":2509:2537  new address[](leases.length) */\n      0xffffffffffffffff\n      dup2\n      gt\n      iszero\n      tag_297\n      jumpi\n      mstore(0x00, 0x4e487b7100000000000000000000000000000000000000000000000000000000)\n      mstore(0x04, 0x41)\n      revert(0x00, 0x24)\n    tag_297:\n      mload(0x40)\n      swap1\n      dup1\n      dup3\n      mstore\n      dup1\n      0x20\n      mul\n      0x20\n      add\n      dup3\n      add\n      0x40\n      mstore\n      dup1\n      iszero\n      tag_298\n      jumpi\n      dup2\n      0x20\n      add\n      0x20\n      dup3\n      mul\n      dup1\n      calldatasize\n      dup4\n      calldatacopy\n      dup1\n      dup3\n      add\n      swap2\n      pop\n      pop\n      swap1\n      pop\n    tag_298:\n      pop\n        /* \"contracts/RentalContract.sol\":2471:2537  address[] memory rentedPropertyList = new address[](leases.length) */\n      swap1\n      pop\n        /* \"contracts/RentalContract.sol\":2553:2562  uint256 i */\n      0x00\n        /* \"contracts/RentalContract.sol\":2548:2681  for (uint256 i = 0; i < leases.length; i++) {\r... */\n    tag_299:\n        /* \"contracts/RentalContract.sol\":2572:2578  leases */\n      0x02\n        /* \"contracts/RentalContract.sol\":2572:2585  leases.length */\n      dup1\n      sload\n      swap1\n      pop\n        /* \"contracts/RentalContract.sol\":2568:2569  i */\n      dup2\n        /* \"contracts/RentalContract.sol\":2568:2585  i < leases.length */\n      lt\n        /* \"contracts/RentalContract.sol\":2548:2681  for (uint256 i = 0; i < leases.length; i++) {\r... */\n      iszero\n      tag_300\n      jumpi\n        /* \"contracts/RentalContract.sol\":2631:2641  properties */\n      0x01\n        /* \"contracts/RentalContract.sol\":2631:2663  properties[leases[i].propertyId] */\n      0x00\n        /* \"contracts/RentalContract.sol\":2642:2648  leases */\n      0x02\n        /* \"contracts/RentalContract.sol\":2649:2650  i */\n      dup4\n        /* \"contracts/RentalContract.sol\":2642:2651  leases[i] */\n      dup2\n      sload\n      dup2\n      lt\n      tag_302\n      jumpi\n      mstore(0x00, 0x4e487b7100000000000000000000000000000000000000000000000000000000)\n      mstore(0x04, 0x32)\n      revert(0x00, 0x24)\n    tag_302:\n      swap1\n      0x00\n      mstore\n      keccak256(0x00, 0x20)\n      swap1\n      0x04\n      mul\n      add\n        /* \"contracts/RentalContract.sol\":2642:2662  leases[i].propertyId */\n      0x01\n      add\n      sload\n        /* \"contracts/RentalContract.sol\":2631:2663  properties[leases[i].propertyId] */\n      dup2\n      mstore\n      0x20\n      add\n      swap1\n      dup2\n      mstore\n      0x20\n      add\n      0x00\n      keccak256\n        /* \"contracts/RentalContract.sol\":2631:2669  properties[leases[i].propertyId].owner */\n      0x03\n      add\n      0x00\n      swap1\n      sload\n      swap1\n      0x0100\n      exp\n      swap1\n      div\n      0xffffffffffffffffffffffffffffffffffffffff\n      and\n        /* \"contracts/RentalContract.sol\":2607:2625  rentedPropertyList */\n      dup3\n        /* \"contracts/RentalContract.sol\":2626:2627  i */\n      dup3\n        /* \"contracts/RentalContract.sol\":2607:2628  rentedPropertyList[i] */\n      dup2\n      mload\n      dup2\n      lt\n      tag_304\n      jumpi\n      mstore(0x00, 0x4e487b7100000000000000000000000000000000000000000000000000000000)\n      mstore(0x04, 0x32)\n      revert(0x00, 0x24)\n    tag_304:\n      0x20\n      mul\n      0x20\n      add\n      add\n        /* \"contracts/RentalContract.sol\":2607:2669  rentedPropertyList[i] = properties[leases[i].propertyId].owner */\n      swap1\n      0xffffffffffffffffffffffffffffffffffffffff\n      and\n      swap1\n      dup2\n      0xffffffffffffffffffffffffffffffffffffffff\n      and\n      dup2\n      mstore\n      pop\n      pop\n        /* \"contracts/RentalContract.sol\":2587:2590  i++ */\n      dup1\n      dup1\n      tag_305\n      swap1\n      tag_153\n      jump\t// in\n    tag_305:\n      swap2\n      pop\n      pop\n        /* \"contracts/RentalContract.sol\":2548:2681  for (uint256 i = 0; i < leases.length; i++) {\r... */\n      jump(tag_299)\n    tag_300:\n      pop\n        /* \"contracts/RentalContract.sol\":2698:2716  rentedPropertyList */\n      dup1\n        /* \"contracts/RentalContract.sol\":2691:2716  return rentedPropertyList */\n      swap2\n      pop\n      pop\n        /* \"contracts/RentalContract.sol\":2389:2724  function listRentedProperties() public view returns (address[] memory) {\r... */\n      swap1\n      jump\t// out\n        /* \"contracts/RentalContract.sol\":7060:7990  function listProperties(uint id) public view returns (int[] memory, string[] memory, string[] memory, address[] memory) {\r... */\n    tag_98:\n        /* \"contracts/RentalContract.sol\":7114:7126  int[] memory */\n      0x60\n        /* \"contracts/RentalContract.sol\":7128:7143  string[] memory */\n      dup1\n        /* \"contracts/RentalContract.sol\":7145:7160  string[] memory */\n      0x60\n        /* \"contracts/RentalContract.sol\":7162:7178  address[] memory */\n      dup1\n        /* \"contracts/RentalContract.sol\":7191:7215  int[] memory propertyIds */\n      0x00\n        /* \"contracts/RentalContract.sol\":7228:7236  userList */\n      0x05\n        /* \"contracts/RentalContract.sol\":7228:7243  userList.length */\n      dup1\n      sload\n      swap1\n      pop\n        /* \"contracts/RentalContract.sol\":7218:7244  new int[](userList.length) */\n      0xffffffffffffffff\n      dup2\n      gt\n      iszero\n      tag_307\n      jumpi\n      mstore(0x00, 0x4e487b7100000000000000000000000000000000000000000000000000000000)\n      mstore(0x04, 0x41)\n      revert(0x00, 0x24)\n    tag_307:\n      mload(0x40)\n      swap1\n      dup1\n      dup3\n      mstore\n      dup1\n      0x20\n      mul\n      0x20\n      add\n      dup3\n      add\n      0x40\n      mstore\n      dup1\n      iszero\n      tag_308\n      jumpi\n      dup2\n      0x20\n      add\n      0x20\n      dup3\n      mul\n      dup1\n      calldatasize\n      dup4\n      calldatacopy\n      dup1\n      dup3\n      add\n      swap2\n      pop\n      pop\n      swap1\n      pop\n    tag_308:\n      pop\n        /* \"contracts/RentalContract.sol\":7191:7244  int[] memory propertyIds = new int[](userList.length) */\n      swap1\n      pop\n        /* \"contracts/RentalContract.sol\":7255:7284  string[] memory propertyNames */\n      0x00\n        /* \"contracts/RentalContract.sol\":7300:7308  userList */\n      0x05\n        /* \"contracts/RentalContract.sol\":7300:7315  userList.length */\n      dup1\n      sload\n      swap1\n      pop\n        /* \"contracts/RentalContract.sol\":7287:7316  new string[](userList.length) */\n      0xffffffffffffffff\n      dup2\n      gt\n      iszero\n      tag_309\n      jumpi\n      mstore(0x00, 0x4e487b7100000000000000000000000000000000000000000000000000000000)\n      mstore(0x04, 0x41)\n      revert(0x00, 0x24)\n    tag_309:\n      mload(0x40)\n      swap1\n      dup1\n      dup3\n      mstore\n      dup1\n      0x20\n      mul\n      0x20\n      add\n      dup3\n      add\n      0x40\n      mstore\n      dup1\n      iszero\n      tag_310\n      jumpi\n      dup2\n      0x20\n      add\n    tag_311:\n      0x60\n      dup2\n      mstore\n      0x20\n      add\n      swap1\n      0x01\n      swap1\n      sub\n      swap1\n      dup2\n      tag_311\n      jumpi\n      swap1\n      pop\n    tag_310:\n      pop\n        /* \"contracts/RentalContract.sol\":7255:7316  string[] memory propertyNames = new string[](userList.length) */\n      swap1\n      pop\n        /* \"contracts/RentalContract.sol\":7327:7363  string[] memory propertyDescriptions */\n      0x00\n        /* \"contracts/RentalContract.sol\":7379:7387  userList */\n      0x05\n        /* \"contracts/RentalContract.sol\":7379:7394  userList.length */\n      dup1\n      sload\n      swap1\n      pop\n        /* \"contracts/RentalContract.sol\":7366:7395  new string[](userList.length) */\n      0xffffffffffffffff\n      dup2\n      gt\n      iszero\n      tag_312\n      jumpi\n      mstore(0x00, 0x4e487b7100000000000000000000000000000000000000000000000000000000)\n      mstore(0x04, 0x41)\n      revert(0x00, 0x24)\n    tag_312:\n      mload(0x40)\n      swap1\n      dup1\n      dup3\n      mstore\n      dup1\n      0x20\n      mul\n      0x20\n      add\n      dup3\n      add\n      0x40\n      mstore\n      dup1\n      iszero\n      tag_313\n      jumpi\n      dup2\n      0x20\n      add\n    tag_314:\n      0x60\n      dup2\n      mstore\n      0x20\n      add\n      swap1\n      0x01\n      swap1\n      sub\n      swap1\n      dup2\n      tag_314\n      jumpi\n      swap1\n      pop\n    tag_313:\n      pop\n        /* \"contracts/RentalContract.sol\":7327:7395  string[] memory propertyDescriptions = new string[](userList.length) */\n      swap1\n      pop\n        /* \"contracts/RentalContract.sol\":7406:7437  address[] memory propertyOwners */\n      0x00\n        /* \"contracts/RentalContract.sol\":7454:7462  userList */\n      0x05\n        /* \"contracts/RentalContract.sol\":7454:7469  userList.length */\n      dup1\n      sload\n      swap1\n      pop\n        /* \"contracts/RentalContract.sol\":7440:7470  new address[](userList.length) */\n      0xffffffffffffffff\n      dup2\n      gt\n      iszero\n      tag_315\n      jumpi\n      mstore(0x00, 0x4e487b7100000000000000000000000000000000000000000000000000000000)\n      mstore(0x04, 0x41)\n      revert(0x00, 0x24)\n    tag_315:\n      mload(0x40)\n      swap1\n      dup1\n      dup3\n      mstore\n      dup1\n      0x20\n      mul\n      0x20\n      add\n      dup3\n      add\n      0x40\n      mstore\n      dup1\n      iszero\n      tag_316\n      jumpi\n      dup2\n      0x20\n      add\n      0x20\n      dup3\n      mul\n      dup1\n      calldatasize\n      dup4\n      calldatacopy\n      dup1\n      dup3\n      add\n      swap2\n      pop\n      pop\n      swap1\n      pop\n    tag_316:\n      pop\n        /* \"contracts/RentalContract.sol\":7406:7470  address[] memory propertyOwners = new address[](userList.length) */\n      swap1\n      pop\n        /* \"contracts/RentalContract.sol\":7488:7497  uint256 i */\n      0x00\n        /* \"contracts/RentalContract.sol\":7483:7897  for (uint256 i = 0; i < userList.length; i++) {\r... */\n    tag_317:\n        /* \"contracts/RentalContract.sol\":7507:7515  userList */\n      0x05\n        /* \"contracts/RentalContract.sol\":7507:7522  userList.length */\n      dup1\n      sload\n      swap1\n      pop\n        /* \"contracts/RentalContract.sol\":7503:7504  i */\n      dup2\n        /* \"contracts/RentalContract.sol\":7503:7522  i < userList.length */\n      lt\n        /* \"contracts/RentalContract.sol\":7483:7897  for (uint256 i = 0; i < userList.length; i++) {\r... */\n      iszero\n      tag_318\n      jumpi\n        /* \"contracts/RentalContract.sol\":7544:7558  int propertyId */\n      0x00\n        /* \"contracts/RentalContract.sol\":7569:7570  1 */\n      0x01\n        /* \"contracts/RentalContract.sol\":7565:7566  i */\n      dup3\n        /* \"contracts/RentalContract.sol\":7565:7570  i + 1 */\n      tag_320\n      swap2\n      swap1\n      tag_321\n      jump\t// in\n    tag_320:\n        /* \"contracts/RentalContract.sol\":7544:7571  int propertyId = int(i + 1) */\n      swap1\n      pop\n        /* \"contracts/RentalContract.sol\":7637:7661  Property memory property */\n      0x00\n        /* \"contracts/RentalContract.sol\":7664:7674  properties */\n      0x01\n        /* \"contracts/RentalContract.sol\":7664:7686  properties[propertyId] */\n      0x00\n        /* \"contracts/RentalContract.sol\":7675:7685  propertyId */\n      dup4\n        /* \"contracts/RentalContract.sol\":7664:7686  properties[propertyId] */\n      dup2\n      mstore\n      0x20\n      add\n      swap1\n      dup2\n      mstore\n      0x20\n      add\n      0x00\n      keccak256\n        /* \"contracts/RentalContract.sol\":7637:7686  Property memory property = properties[propertyId] */\n      mload(0x40)\n      dup1\n      0xc0\n      add\n      0x40\n      mstore\n      swap1\n      dup2\n      0x00\n      dup3\n      add\n      sload\n      dup2\n      mstore\n      0x20\n      add\n      0x01\n      dup3\n      add\n      dup1\n      sload\n      tag_322\n      swap1\n      tag_173\n      jump\t// in\n    tag_322:\n      dup1\n      0x1f\n      add\n      0x20\n      dup1\n      swap2\n      div\n      mul\n      0x20\n      add\n      mload(0x40)\n      swap1\n      dup2\n      add\n      0x40\n      mstore\n      dup1\n      swap3\n      swap2\n      swap1\n      dup2\n      dup2\n      mstore\n      0x20\n      add\n      dup3\n      dup1\n      sload\n      tag_323\n      swap1\n      tag_173\n      jump\t// in\n    tag_323:\n      dup1\n      iszero\n      tag_324\n      jumpi\n      dup1\n      0x1f\n      lt\n      tag_325\n      jumpi\n      0x0100\n      dup1\n      dup4\n      sload\n      div\n      mul\n      dup4\n      mstore\n      swap2\n      0x20\n      add\n      swap2\n      jump(tag_324)\n    tag_325:\n      dup3\n      add\n      swap2\n      swap1\n      0x00\n      mstore\n      keccak256(0x00, 0x20)\n      swap1\n    tag_326:\n      dup2\n      sload\n      dup2\n      mstore\n      swap1\n      0x01\n      add\n      swap1\n      0x20\n      add\n      dup1\n      dup4\n      gt\n      tag_326\n      jumpi\n      dup3\n      swap1\n      sub\n      0x1f\n      and\n      dup3\n      add\n      swap2\n    tag_324:\n      pop\n      pop\n      pop\n      pop\n      pop\n      dup2\n      mstore\n      0x20\n      add\n      0x02\n      dup3\n      add\n      dup1\n      sload\n      tag_327\n      swap1\n      tag_173\n      jump\t// in\n    tag_327:\n      dup1\n      0x1f\n      add\n      0x20\n      dup1\n      swap2\n      div\n      mul\n      0x20\n      add\n      mload(0x40)\n      swap1\n      dup2\n      add\n      0x40\n      mstore\n      dup1\n      swap3\n      swap2\n      swap1\n      dup2\n      dup2\n      mstore\n      0x20\n      add\n      dup3\n      dup1\n      sload\n      tag_328\n      swap1\n      tag_173\n      jump\t// in\n    tag_328:\n      dup1\n      iszero\n      tag_329\n      jumpi\n      dup1\n      0x1f\n      lt\n      tag_330\n      jumpi\n      0x0100\n      dup1\n      dup4\n      sload\n      div\n      mul\n      dup4\n      mstore\n      swap2\n      0x20\n      add\n      swap2\n      jump(tag_329)\n    tag_330:\n      dup3\n      add\n      swap2\n      swap1\n      0x00\n      mstore\n      keccak256(0x00, 0x20)\n      swap1\n    tag_331:\n      dup2\n      sload\n      dup2\n      mstore\n      swap1\n      0x01\n      add\n      swap1\n      0x20\n      add\n      dup1\n      dup4\n      gt\n      tag_331\n      jumpi\n      dup3\n      swap1\n      sub\n      0x1f\n      and\n      dup3\n      add\n      swap2\n    tag_329:\n      pop\n      pop\n      pop\n      pop\n      pop\n      dup2\n      mstore\n      0x20\n      add\n      0x03\n      dup3\n      add\n      0x00\n      swap1\n      sload\n      swap1\n      0x0100\n      exp\n      swap1\n      div\n      0xffffffffffffffffffffffffffffffffffffffff\n      and\n      0xffffffffffffffffffffffffffffffffffffffff\n      and\n      0xffffffffffffffffffffffffffffffffffffffff\n      and\n      dup2\n      mstore\n      0x20\n      add\n      0x03\n      dup3\n      add\n      0x14\n      swap1\n      sload\n      swap1\n      0x0100\n      exp\n      swap1\n      div\n      0xff\n      and\n      iszero\n      iszero\n      iszero\n      iszero\n      dup2\n      mstore\n      0x20\n      add\n      0x04\n      dup3\n      add\n      0x00\n      swap1\n      sload\n      swap1\n      0x0100\n      exp\n      swap1\n      div\n      0xffffffffffffffffffffffffffffffffffffffff\n      and\n      0xffffffffffffffffffffffffffffffffffffffff\n      and\n      0xffffffffffffffffffffffffffffffffffffffff\n      and\n      dup2\n      mstore\n      pop\n      pop\n      swap1\n      pop\n        /* \"contracts/RentalContract.sol\":7718:7728  propertyId */\n      dup2\n        /* \"contracts/RentalContract.sol\":7701:7712  propertyIds */\n      dup8\n        /* \"contracts/RentalContract.sol\":7713:7714  i */\n      dup5\n        /* \"contracts/RentalContract.sol\":7701:7715  propertyIds[i] */\n      dup2\n      mload\n      dup2\n      lt\n      tag_332\n      jumpi\n      mstore(0x00, 0x4e487b7100000000000000000000000000000000000000000000000000000000)\n      mstore(0x04, 0x32)\n      revert(0x00, 0x24)\n    tag_332:\n      0x20\n      mul\n      0x20\n      add\n      add\n        /* \"contracts/RentalContract.sol\":7701:7728  propertyIds[i] = propertyId */\n      dup2\n      dup2\n      mstore\n      pop\n      pop\n        /* \"contracts/RentalContract.sol\":7762:7770  property */\n      dup1\n        /* \"contracts/RentalContract.sol\":7762:7775  property.name */\n      0x20\n      add\n      mload\n        /* \"contracts/RentalContract.sol\":7743:7756  propertyNames */\n      dup7\n        /* \"contracts/RentalContract.sol\":7757:7758  i */\n      dup5\n        /* \"contracts/RentalContract.sol\":7743:7759  propertyNames[i] */\n      dup2\n      mload\n      dup2\n      lt\n      tag_333\n      jumpi\n      mstore(0x00, 0x4e487b7100000000000000000000000000000000000000000000000000000000)\n      mstore(0x04, 0x32)\n      revert(0x00, 0x24)\n    tag_333:\n      0x20\n      mul\n      0x20\n      add\n      add\n        /* \"contracts/RentalContract.sol\":7743:7775  propertyNames[i] = property.name */\n      dup2\n      swap1\n      mstore\n      pop\n        /* \"contracts/RentalContract.sol\":7816:7824  property */\n      dup1\n        /* \"contracts/RentalContract.sol\":7816:7836  property.description */\n      0x40\n      add\n      mload\n        /* \"contracts/RentalContract.sol\":7790:7810  propertyDescriptions */\n      dup6\n        /* \"contracts/RentalContract.sol\":7811:7812  i */\n      dup5\n        /* \"contracts/RentalContract.sol\":7790:7813  propertyDescriptions[i] */\n      dup2\n      mload\n      dup2\n      lt\n      tag_334\n      jumpi\n      mstore(0x00, 0x4e487b7100000000000000000000000000000000000000000000000000000000)\n      mstore(0x04, 0x32)\n      revert(0x00, 0x24)\n    tag_334:\n      0x20\n      mul\n      0x20\n      add\n      add\n        /* \"contracts/RentalContract.sol\":7790:7836  propertyDescriptions[i] = property.description */\n      dup2\n      swap1\n      mstore\n      pop\n        /* \"contracts/RentalContract.sol\":7871:7879  property */\n      dup1\n        /* \"contracts/RentalContract.sol\":7871:7885  property.owner */\n      0x60\n      add\n      mload\n        /* \"contracts/RentalContract.sol\":7851:7865  propertyOwners */\n      dup5\n        /* \"contracts/RentalContract.sol\":7866:7867  i */\n      dup5\n        /* \"contracts/RentalContract.sol\":7851:7868  propertyOwners[i] */\n      dup2\n      mload\n      dup2\n      lt\n      tag_335\n      jumpi\n      mstore(0x00, 0x4e487b7100000000000000000000000000000000000000000000000000000000)\n      mstore(0x04, 0x32)\n      revert(0x00, 0x24)\n    tag_335:\n      0x20\n      mul\n      0x20\n      add\n      add\n        /* \"contracts/RentalContract.sol\":7851:7885  propertyOwners[i] = property.owner */\n      swap1\n      0xffffffffffffffffffffffffffffffffffffffff\n      and\n      swap1\n      dup2\n      0xffffffffffffffffffffffffffffffffffffffff\n      and\n      dup2\n      mstore\n      pop\n      pop\n        /* \"contracts/RentalContract.sol\":7483:7897  for (uint256 i = 0; i < userList.length; i++) {\r... */\n      pop\n      pop\n        /* \"contracts/RentalContract.sol\":7524:7527  i++ */\n      dup1\n      dup1\n      tag_336\n      swap1\n      tag_153\n      jump\t// in\n    tag_336:\n      swap2\n      pop\n      pop\n        /* \"contracts/RentalContract.sol\":7483:7897  for (uint256 i = 0; i < userList.length; i++) {\r... */\n      jump(tag_317)\n    tag_318:\n      pop\n        /* \"contracts/RentalContract.sol\":7917:7928  propertyIds */\n      dup4\n        /* \"contracts/RentalContract.sol\":7930:7943  propertyNames */\n      dup4\n        /* \"contracts/RentalContract.sol\":7945:7965  propertyDescriptions */\n      dup4\n        /* \"contracts/RentalContract.sol\":7967:7981  propertyOwners */\n      dup4\n        /* \"contracts/RentalContract.sol\":7909:7982  return (propertyIds, propertyNames, propertyDescriptions, propertyOwners) */\n      swap8\n      pop\n      swap8\n      pop\n      swap8\n      pop\n      swap8\n      pop\n      pop\n      pop\n      pop\n      pop\n        /* \"contracts/RentalContract.sol\":7060:7990  function listProperties(uint id) public view returns (int[] memory, string[] memory, string[] memory, address[] memory) {\r... */\n      swap2\n      swap4\n      pop\n      swap2\n      swap4\n      jump\t// out\n        /* \"contracts/RentalContract.sol\":1511:1536  address[] public userList */\n    tag_103:\n      0x05\n      dup2\n      dup2\n      sload\n      dup2\n      lt\n      tag_337\n      jumpi\n      0x00\n      dup1\n      revert\n    tag_337:\n      swap1\n      0x00\n      mstore\n      keccak256(0x00, 0x20)\n      add\n      0x00\n      swap2\n      pop\n      sload\n      swap1\n      0x0100\n      exp\n      swap1\n      div\n      0xffffffffffffffffffffffffffffffffffffffff\n      and\n      dup2\n      jump\t// out\n        /* \"contracts/RentalContract.sol\":1034:1071  mapping(address => User) public users */\n    tag_109:\n      mstore(0x20, 0x00)\n      dup1\n      0x00\n      mstore\n      keccak256(0x00, 0x40)\n      0x00\n      swap2\n      pop\n      swap1\n      pop\n      dup1\n      0x00\n      add\n      dup1\n      sload\n      tag_339\n      swap1\n      tag_173\n      jump\t// in\n    tag_339:\n      dup1\n      0x1f\n      add\n      0x20\n      dup1\n      swap2\n      div\n      mul\n      0x20\n      add\n      mload(0x40)\n      swap1\n      dup2\n      add\n      0x40\n      mstore\n      dup1\n      swap3\n      swap2\n      swap1\n      dup2\n      dup2\n      mstore\n      0x20\n      add\n      dup3\n      dup1\n      sload\n      tag_340\n      swap1\n      tag_173\n      jump\t// in\n    tag_340:\n      dup1\n      iszero\n      tag_341\n      jumpi\n      dup1\n      0x1f\n      lt\n      tag_342\n      jumpi\n      0x0100\n      dup1\n      dup4\n      sload\n      div\n      mul\n      dup4\n      mstore\n      swap2\n      0x20\n      add\n      swap2\n      jump(tag_341)\n    tag_342:\n      dup3\n      add\n      swap2\n      swap1\n      0x00\n      mstore\n      keccak256(0x00, 0x20)\n      swap1\n    tag_343:\n      dup2\n      sload\n      dup2\n      mstore\n      swap1\n      0x01\n      add\n      swap1\n      0x20\n      add\n      dup1\n      dup4\n      gt\n      tag_343\n      jumpi\n      dup3\n      swap1\n      sub\n      0x1f\n      and\n      dup3\n      add\n      swap2\n    tag_341:\n      pop\n      pop\n      pop\n      pop\n      pop\n      swap1\n      dup1\n      0x01\n      add\n      0x00\n      swap1\n      sload\n      swap1\n      0x0100\n      exp\n      swap1\n      div\n      0xff\n      and\n      swap1\n      dup1\n      0x01\n      add\n      0x01\n      swap1\n      sload\n      swap1\n      0x0100\n      exp\n      swap1\n      div\n      0xff\n      and\n      swap1\n      pop\n      dup4\n      jump\t// out\n        /* \"contracts/RentalContract.sol\":4617:5127  function respondToComplaint(uint256 complaintIndex, string memory response) public {\r... */\n    tag_115:\n        /* \"contracts/RentalContract.sol\":4719:4724  users */\n      0x00\n        /* \"contracts/RentalContract.sol\":4719:4736  users[msg.sender] */\n      dup1\n        /* \"contracts/RentalContract.sol\":4725:4735  msg.sender */\n      caller\n        /* \"contracts/RentalContract.sol\":4719:4736  users[msg.sender] */\n      0xffffffffffffffffffffffffffffffffffffffff\n      and\n      0xffffffffffffffffffffffffffffffffffffffff\n      and\n      dup2\n      mstore\n      0x20\n      add\n      swap1\n      dup2\n      mstore\n      0x20\n      add\n      0x00\n      keccak256\n        /* \"contracts/RentalContract.sol\":4719:4747  users[msg.sender].isLandlord */\n      0x01\n      add\n      0x01\n      swap1\n      sload\n      swap1\n      0x0100\n      exp\n      swap1\n      div\n      0xff\n      and\n        /* \"contracts/RentalContract.sol\":4711:4792  require(users[msg.sender].isLandlord, \"Only landlords can respond to complaints\") */\n      tag_345\n      jumpi\n      mload(0x40)\n      0x08c379a000000000000000000000000000000000000000000000000000000000\n      dup2\n      mstore\n      0x04\n      add\n      tag_346\n      swap1\n      tag_347\n      jump\t// in\n    tag_346:\n      mload(0x40)\n      dup1\n      swap2\n      sub\n      swap1\n      revert\n    tag_345:\n        /* \"contracts/RentalContract.sol\":4828:4838  complaints */\n      0x03\n        /* \"contracts/RentalContract.sol\":4828:4845  complaints.length */\n      dup1\n      sload\n      swap1\n      pop\n        /* \"contracts/RentalContract.sol\":4811:4825  complaintIndex */\n      dup3\n        /* \"contracts/RentalContract.sol\":4811:4845  complaintIndex < complaints.length */\n      lt\n        /* \"contracts/RentalContract.sol\":4803:4873  require(complaintIndex < complaints.length, \"Invalid complaint index\") */\n      tag_348\n      jumpi\n      mload(0x40)\n      0x08c379a000000000000000000000000000000000000000000000000000000000\n      dup2\n      mstore\n      0x04\n      add\n      tag_349\n      swap1\n      tag_350\n      jump\t// in\n    tag_349:\n      mload(0x40)\n      dup1\n      swap2\n      sub\n      swap1\n      revert\n    tag_348:\n        /* \"contracts/RentalContract.sol\":4884:4911  Complaint storage complaint */\n      0x00\n        /* \"contracts/RentalContract.sol\":4914:4924  complaints */\n      0x03\n        /* \"contracts/RentalContract.sol\":4925:4939  complaintIndex */\n      dup4\n        /* \"contracts/RentalContract.sol\":4914:4940  complaints[complaintIndex] */\n      dup2\n      sload\n      dup2\n      lt\n      tag_351\n      jumpi\n      mstore(0x00, 0x4e487b7100000000000000000000000000000000000000000000000000000000)\n      mstore(0x04, 0x32)\n      revert(0x00, 0x24)\n    tag_351:\n      swap1\n      0x00\n      mstore\n      keccak256(0x00, 0x20)\n      swap1\n      0x04\n      mul\n      add\n        /* \"contracts/RentalContract.sol\":4884:4940  Complaint storage complaint = complaints[complaintIndex] */\n      swap1\n      pop\n        /* \"contracts/RentalContract.sol\":5001:5011  msg.sender */\n      caller\n        /* \"contracts/RentalContract.sol\":4959:5011  properties[complaint.propertyId].owner == msg.sender */\n      0xffffffffffffffffffffffffffffffffffffffff\n      and\n        /* \"contracts/RentalContract.sol\":4959:4969  properties */\n      0x01\n        /* \"contracts/RentalContract.sol\":4959:4991  properties[complaint.propertyId] */\n      0x00\n        /* \"contracts/RentalContract.sol\":4970:4979  complaint */\n      dup4\n        /* \"contracts/RentalContract.sol\":4970:4990  complaint.propertyId */\n      0x01\n      add\n      sload\n        /* \"contracts/RentalContract.sol\":4959:4991  properties[complaint.propertyId] */\n      dup2\n      mstore\n      0x20\n      add\n      swap1\n      dup2\n      mstore\n      0x20\n      add\n      0x00\n      keccak256\n        /* \"contracts/RentalContract.sol\":4959:4997  properties[complaint.propertyId].owner */\n      0x03\n      add\n      0x00\n      swap1\n      sload\n      swap1\n      0x0100\n      exp\n      swap1\n      div\n      0xffffffffffffffffffffffffffffffffffffffff\n      and\n        /* \"contracts/RentalContract.sol\":4959:5011  properties[complaint.propertyId].owner == msg.sender */\n      0xffffffffffffffffffffffffffffffffffffffff\n      and\n      eq\n        /* \"contracts/RentalContract.sol\":4951:5079  require(properties[complaint.propertyId].owner == msg.sender, \"You are not the owner of the property related to this complaint\") */\n      tag_353\n      jumpi\n      mload(0x40)\n      0x08c379a000000000000000000000000000000000000000000000000000000000\n      dup2\n      mstore\n      0x04\n      add\n      tag_354\n      swap1\n      tag_355\n      jump\t// in\n    tag_354:\n      mload(0x40)\n      dup1\n      swap2\n      sub\n      swap1\n      revert\n    tag_353:\n        /* \"contracts/RentalContract.sol\":5111:5119  response */\n      dup2\n        /* \"contracts/RentalContract.sol\":5090:5099  complaint */\n      dup2\n        /* \"contracts/RentalContract.sol\":5090:5108  complaint.response */\n      0x03\n      add\n        /* \"contracts/RentalContract.sol\":5090:5119  complaint.response = response */\n      swap1\n      dup1\n      mload\n      swap1\n      0x20\n      add\n      swap1\n      tag_356\n      swap3\n      swap2\n      swap1\n      tag_128\n      jump\t// in\n    tag_356:\n      pop\n        /* \"contracts/RentalContract.sol\":4617:5127  function respondToComplaint(uint256 complaintIndex, string memory response) public {\r... */\n      pop\n      pop\n      pop\n      jump\t// out\n        /* \"contracts/RentalContract.sol\":9587:10309  function approveEarlyTermination(uint256 requestIndex) public {\r... */\n    tag_118:\n        /* \"contracts/RentalContract.sol\":9668:9673  users */\n      0x00\n        /* \"contracts/RentalContract.sol\":9668:9685  users[msg.sender] */\n      dup1\n        /* \"contracts/RentalContract.sol\":9674:9684  msg.sender */\n      caller\n        /* \"contracts/RentalContract.sol\":9668:9685  users[msg.sender] */\n      0xffffffffffffffffffffffffffffffffffffffff\n      and\n      0xffffffffffffffffffffffffffffffffffffffff\n      and\n      dup2\n      mstore\n      0x20\n      add\n      swap1\n      dup2\n      mstore\n      0x20\n      add\n      0x00\n      keccak256\n        /* \"contracts/RentalContract.sol\":9668:9696  users[msg.sender].isLandlord */\n      0x01\n      add\n      0x01\n      swap1\n      sload\n      swap1\n      0x0100\n      exp\n      swap1\n      div\n      0xff\n      and\n        /* \"contracts/RentalContract.sol\":9660:9745  require(users[msg.sender].isLandlord, \"Only landlords can approve early termination\") */\n      tag_358\n      jumpi\n      mload(0x40)\n      0x08c379a000000000000000000000000000000000000000000000000000000000\n      dup2\n      mstore\n      0x04\n      add\n      tag_359\n      swap1\n      tag_360\n      jump\t// in\n    tag_359:\n      mload(0x40)\n      dup1\n      swap2\n      sub\n      swap1\n      revert\n    tag_358:\n        /* \"contracts/RentalContract.sol\":9779:9803  earlyTerminationRequests */\n      0x04\n        /* \"contracts/RentalContract.sol\":9779:9810  earlyTerminationRequests.length */\n      dup1\n      sload\n      swap1\n      pop\n        /* \"contracts/RentalContract.sol\":9764:9776  requestIndex */\n      dup2\n        /* \"contracts/RentalContract.sol\":9764:9810  requestIndex < earlyTerminationRequests.length */\n      lt\n        /* \"contracts/RentalContract.sol\":9756:9836  require(requestIndex < earlyTerminationRequests.length, \"Invalid request index\") */\n      tag_361\n      jumpi\n      mload(0x40)\n      0x08c379a000000000000000000000000000000000000000000000000000000000\n      dup2\n      mstore\n      0x04\n      add\n      tag_362\n      swap1\n      tag_363\n      jump\t// in\n    tag_362:\n      mload(0x40)\n      dup1\n      swap2\n      sub\n      swap1\n      revert\n    tag_361:\n        /* \"contracts/RentalContract.sol\":9849:9881  EarlyTermination storage request */\n      0x00\n        /* \"contracts/RentalContract.sol\":9884:9908  earlyTerminationRequests */\n      0x04\n        /* \"contracts/RentalContract.sol\":9909:9921  requestIndex */\n      dup3\n        /* \"contracts/RentalContract.sol\":9884:9922  earlyTerminationRequests[requestIndex] */\n      dup2\n      sload\n      dup2\n      lt\n      tag_364\n      jumpi\n      mstore(0x00, 0x4e487b7100000000000000000000000000000000000000000000000000000000)\n      mstore(0x04, 0x32)\n      revert(0x00, 0x24)\n    tag_364:\n      swap1\n      0x00\n      mstore\n      keccak256(0x00, 0x20)\n      swap1\n      0x04\n      mul\n      add\n        /* \"contracts/RentalContract.sol\":9849:9922  EarlyTermination storage request = earlyTerminationRequests[requestIndex] */\n      swap1\n      pop\n        /* \"contracts/RentalContract.sol\":9981:9991  msg.sender */\n      caller\n        /* \"contracts/RentalContract.sol\":9941:9991  properties[request.propertyId].owner == msg.sender */\n      0xffffffffffffffffffffffffffffffffffffffff\n      and\n        /* \"contracts/RentalContract.sol\":9941:9951  properties */\n      0x01\n        /* \"contracts/RentalContract.sol\":9941:9971  properties[request.propertyId] */\n      0x00\n        /* \"contracts/RentalContract.sol\":9952:9959  request */\n      dup4\n        /* \"contracts/RentalContract.sol\":9952:9970  request.propertyId */\n      0x01\n      add\n      sload\n        /* \"contracts/RentalContract.sol\":9941:9971  properties[request.propertyId] */\n      dup2\n      mstore\n      0x20\n      add\n      swap1\n      dup2\n      mstore\n      0x20\n      add\n      0x00\n      keccak256\n        /* \"contracts/RentalContract.sol\":9941:9977  properties[request.propertyId].owner */\n      0x03\n      add\n      0x00\n      swap1\n      sload\n      swap1\n      0x0100\n      exp\n      swap1\n      div\n      0xffffffffffffffffffffffffffffffffffffffff\n      and\n        /* \"contracts/RentalContract.sol\":9941:9991  properties[request.propertyId].owner == msg.sender */\n      0xffffffffffffffffffffffffffffffffffffffff\n      and\n      eq\n        /* \"contracts/RentalContract.sol\":9933:10033  require(properties[request.propertyId].owner == msg.sender, \"You are not the owner of the property\") */\n      tag_366\n      jumpi\n      mload(0x40)\n      0x08c379a000000000000000000000000000000000000000000000000000000000\n      dup2\n      mstore\n      0x04\n      add\n      tag_367\n      swap1\n      tag_194\n      jump\t// in\n    tag_367:\n      mload(0x40)\n      dup1\n      swap2\n      sub\n      swap1\n      revert\n    tag_366:\n        /* \"contracts/RentalContract.sol\":10105:10155  terminateLease(request.propertyId, request.tenant) */\n      tag_368\n        /* \"contracts/RentalContract.sol\":10120:10127  request */\n      dup2\n        /* \"contracts/RentalContract.sol\":10120:10138  request.propertyId */\n      0x01\n      add\n      sload\n        /* \"contracts/RentalContract.sol\":10140:10147  request */\n      dup3\n        /* \"contracts/RentalContract.sol\":10140:10154  request.tenant */\n      0x00\n      add\n      0x00\n      swap1\n      sload\n      swap1\n      0x0100\n      exp\n      swap1\n      div\n      0xffffffffffffffffffffffffffffffffffffffff\n      and\n        /* \"contracts/RentalContract.sol\":10105:10119  terminateLease */\n      tag_58\n        /* \"contracts/RentalContract.sol\":10105:10155  terminateLease(request.propertyId, request.tenant) */\n      jump\t// in\n    tag_368:\n        /* \"contracts/RentalContract.sol\":10238:10242  true */\n      0x01\n        /* \"contracts/RentalContract.sol\":10217:10224  request */\n      dup2\n        /* \"contracts/RentalContract.sol\":10217:10235  request.isApproved */\n      0x03\n      add\n      0x00\n        /* \"contracts/RentalContract.sol\":10217:10242  request.isApproved = true */\n      0x0100\n      exp\n      dup2\n      sload\n      dup2\n      0xff\n      mul\n      not\n      and\n      swap1\n      dup4\n      iszero\n      iszero\n      mul\n      or\n      swap1\n      sstore\n      pop\n        /* \"contracts/RentalContract.sol\":10297:10301  true */\n      0x01\n        /* \"contracts/RentalContract.sol\":10255:10265  properties */\n      dup1\n        /* \"contracts/RentalContract.sol\":10255:10285  properties[request.propertyId] */\n      0x00\n        /* \"contracts/RentalContract.sol\":10266:10273  request */\n      dup4\n        /* \"contracts/RentalContract.sol\":10266:10284  request.propertyId */\n      0x01\n      add\n      sload\n        /* \"contracts/RentalContract.sol\":10255:10285  properties[request.propertyId] */\n      dup2\n      mstore\n      0x20\n      add\n      swap1\n      dup2\n      mstore\n      0x20\n      add\n      0x00\n      keccak256\n        /* \"contracts/RentalContract.sol\":10255:10296  properties[request.propertyId].isRentable */\n      0x03\n      add\n      0x14\n        /* \"contracts/RentalContract.sol\":10255:10301  properties[request.propertyId].isRentable=true */\n      0x0100\n      exp\n      dup2\n      sload\n      dup2\n      0xff\n      mul\n      not\n      and\n      swap1\n      dup4\n      iszero\n      iszero\n      mul\n      or\n      swap1\n      sstore\n      pop\n        /* \"contracts/RentalContract.sol\":9587:10309  function approveEarlyTermination(uint256 requestIndex) public {\r... */\n      pop\n      pop\n      jump\t// out\n        /* \"contracts/RentalContract.sol\":3648:4135  function createLease(address tenant, int propertyId, uint256 startDate, uint256 endDate) public {\r... */\n    tag_122:\n        /* \"contracts/RentalContract.sol\":3763:3768  users */\n      0x00\n        /* \"contracts/RentalContract.sol\":3763:3776  users[tenant] */\n      dup1\n        /* \"contracts/RentalContract.sol\":3769:3775  tenant */\n      dup6\n        /* \"contracts/RentalContract.sol\":3763:3776  users[tenant] */\n      0xffffffffffffffffffffffffffffffffffffffff\n      and\n      0xffffffffffffffffffffffffffffffffffffffff\n      and\n      dup2\n      mstore\n      0x20\n      add\n      swap1\n      dup2\n      mstore\n      0x20\n      add\n      0x00\n      keccak256\n        /* \"contracts/RentalContract.sol\":3763:3785  users[tenant].isTenant */\n      0x01\n      add\n      0x00\n      swap1\n      sload\n      swap1\n      0x0100\n      exp\n      swap1\n      div\n      0xff\n      and\n        /* \"contracts/RentalContract.sol\":3763:3831  users[tenant].isTenant && properties[propertyId].owner == msg.sender */\n      dup1\n      iszero\n      tag_370\n      jumpi\n      pop\n        /* \"contracts/RentalContract.sol\":3821:3831  msg.sender */\n      caller\n        /* \"contracts/RentalContract.sol\":3789:3831  properties[propertyId].owner == msg.sender */\n      0xffffffffffffffffffffffffffffffffffffffff\n      and\n        /* \"contracts/RentalContract.sol\":3789:3799  properties */\n      0x01\n        /* \"contracts/RentalContract.sol\":3789:3811  properties[propertyId] */\n      0x00\n        /* \"contracts/RentalContract.sol\":3800:3810  propertyId */\n      dup6\n        /* \"contracts/RentalContract.sol\":3789:3811  properties[propertyId] */\n      dup2\n      mstore\n      0x20\n      add\n      swap1\n      dup2\n      mstore\n      0x20\n      add\n      0x00\n      keccak256\n        /* \"contracts/RentalContract.sol\":3789:3817  properties[propertyId].owner */\n      0x03\n      add\n      0x00\n      swap1\n      sload\n      swap1\n      0x0100\n      exp\n      swap1\n      div\n      0xffffffffffffffffffffffffffffffffffffffff\n      and\n        /* \"contracts/RentalContract.sol\":3789:3831  properties[propertyId].owner == msg.sender */\n      0xffffffffffffffffffffffffffffffffffffffff\n      and\n      eq\n        /* \"contracts/RentalContract.sol\":3763:3831  users[tenant].isTenant && properties[propertyId].owner == msg.sender */\n    tag_370:\n        /* \"contracts/RentalContract.sol\":3755:3862  require(users[tenant].isTenant && properties[propertyId].owner == msg.sender, \"Invalid tenant or property\") */\n      tag_371\n      jumpi\n      mload(0x40)\n      0x08c379a000000000000000000000000000000000000000000000000000000000\n      dup2\n      mstore\n      0x04\n      add\n      tag_372\n      swap1\n      tag_373\n      jump\t// in\n    tag_372:\n      mload(0x40)\n      dup1\n      swap2\n      sub\n      swap1\n      revert\n    tag_371:\n        /* \"contracts/RentalContract.sol\":3881:3891  properties */\n      0x01\n        /* \"contracts/RentalContract.sol\":3881:3903  properties[propertyId] */\n      0x00\n        /* \"contracts/RentalContract.sol\":3892:3902  propertyId */\n      dup5\n        /* \"contracts/RentalContract.sol\":3881:3903  properties[propertyId] */\n      dup2\n      mstore\n      0x20\n      add\n      swap1\n      dup2\n      mstore\n      0x20\n      add\n      0x00\n      keccak256\n        /* \"contracts/RentalContract.sol\":3881:3914  properties[propertyId].isRentable */\n      0x03\n      add\n      0x14\n      swap1\n      sload\n      swap1\n      0x0100\n      exp\n      swap1\n      div\n      0xff\n      and\n        /* \"contracts/RentalContract.sol\":3873:3943  require(properties[propertyId].isRentable, \"Property is not rentable\") */\n      tag_374\n      jumpi\n      mload(0x40)\n      0x08c379a000000000000000000000000000000000000000000000000000000000\n      dup2\n      mstore\n      0x04\n      add\n      tag_375\n      swap1\n      tag_376\n      jump\t// in\n    tag_375:\n      mload(0x40)\n      dup1\n      swap2\n      sub\n      swap1\n      revert\n    tag_374:\n        /* \"contracts/RentalContract.sol\":3954:3960  leases */\n      0x02\n        /* \"contracts/RentalContract.sol\":3966:4011  Lease(tenant, propertyId, startDate, endDate) */\n      mload(0x40)\n      dup1\n      0x80\n      add\n      0x40\n      mstore\n      dup1\n        /* \"contracts/RentalContract.sol\":3972:3978  tenant */\n      dup7\n        /* \"contracts/RentalContract.sol\":3966:4011  Lease(tenant, propertyId, startDate, endDate) */\n      0xffffffffffffffffffffffffffffffffffffffff\n      and\n      dup2\n      mstore\n      0x20\n      add\n        /* \"contracts/RentalContract.sol\":3980:3990  propertyId */\n      dup6\n        /* \"contracts/RentalContract.sol\":3966:4011  Lease(tenant, propertyId, startDate, endDate) */\n      dup2\n      mstore\n      0x20\n      add\n        /* \"contracts/RentalContract.sol\":3992:4001  startDate */\n      dup5\n        /* \"contracts/RentalContract.sol\":3966:4011  Lease(tenant, propertyId, startDate, endDate) */\n      dup2\n      mstore\n      0x20\n      add\n        /* \"contracts/RentalContract.sol\":4003:4010  endDate */\n      dup4\n        /* \"contracts/RentalContract.sol\":3966:4011  Lease(tenant, propertyId, startDate, endDate) */\n      dup2\n      mstore\n      pop\n        /* \"contracts/RentalContract.sol\":3954:4012  leases.push(Lease(tenant, propertyId, startDate, endDate)) */\n      swap1\n      dup1\n      0x01\n      dup2\n      sload\n      add\n      dup1\n      dup3\n      sstore\n      dup1\n      swap2\n      pop\n      pop\n      0x01\n      swap1\n      sub\n      swap1\n      0x00\n      mstore\n      keccak256(0x00, 0x20)\n      swap1\n      0x04\n      mul\n      add\n      0x00\n      swap1\n      swap2\n      swap1\n      swap2\n      swap1\n      swap2\n      pop\n      0x00\n      dup3\n      add\n      mload\n      dup2\n      0x00\n      add\n      exp(0x0100, 0x00)\n      dup2\n      sload\n      dup2\n      0xffffffffffffffffffffffffffffffffffffffff\n      mul\n      not\n      and\n      swap1\n      dup4\n      0xffffffffffffffffffffffffffffffffffffffff\n      and\n      mul\n      or\n      swap1\n      sstore\n      pop\n      0x20\n      dup3\n      add\n      mload\n      dup2\n      0x01\n      add\n      sstore\n      0x40\n      dup3\n      add\n      mload\n      dup2\n      0x02\n      add\n      sstore\n      0x60\n      dup3\n      add\n      mload\n      dup2\n      0x03\n      add\n      sstore\n      pop\n      pop\n        /* \"contracts/RentalContract.sol\":4059:4064  false */\n      0x00\n        /* \"contracts/RentalContract.sol\":4023:4033  properties */\n      0x01\n        /* \"contracts/RentalContract.sol\":4023:4045  properties[propertyId] */\n      0x00\n        /* \"contracts/RentalContract.sol\":4034:4044  propertyId */\n      dup6\n        /* \"contracts/RentalContract.sol\":4023:4045  properties[propertyId] */\n      dup2\n      mstore\n      0x20\n      add\n      swap1\n      dup2\n      mstore\n      0x20\n      add\n      0x00\n      keccak256\n        /* \"contracts/RentalContract.sol\":4023:4056  properties[propertyId].isRentable */\n      0x03\n      add\n      0x14\n        /* \"contracts/RentalContract.sol\":4023:4064  properties[propertyId].isRentable = false */\n      0x0100\n      exp\n      dup2\n      sload\n      dup2\n      0xff\n      mul\n      not\n      and\n      swap1\n      dup4\n      iszero\n      iszero\n      mul\n      or\n      swap1\n      sstore\n      pop\n        /* \"contracts/RentalContract.sol\":3648:4135  function createLease(address tenant, int propertyId, uint256 startDate, uint256 endDate) public {\r... */\n      pop\n      pop\n      pop\n      pop\n      jump\t// out\n    tag_128:\n      dup3\n      dup1\n      sload\n      tag_378\n      swap1\n      tag_173\n      jump\t// in\n    tag_378:\n      swap1\n      0x00\n      mstore\n      keccak256(0x00, 0x20)\n      swap1\n      0x1f\n      add\n      0x20\n      swap1\n      div\n      dup2\n      add\n      swap3\n      dup3\n      tag_380\n      jumpi\n      0x00\n      dup6\n      sstore\n      jump(tag_379)\n    tag_380:\n      dup3\n      0x1f\n      lt\n      tag_381\n      jumpi\n      dup1\n      mload\n      not(0xff)\n      and\n      dup4\n      dup1\n      add\n      or\n      dup6\n      sstore\n      jump(tag_379)\n    tag_381:\n      dup3\n      dup1\n      add\n      0x01\n      add\n      dup6\n      sstore\n      dup3\n      iszero\n      tag_379\n      jumpi\n      swap2\n      dup3\n      add\n    tag_382:\n      dup3\n      dup2\n      gt\n      iszero\n      tag_383\n      jumpi\n      dup3\n      mload\n      dup3\n      sstore\n      swap2\n      0x20\n      add\n      swap2\n      swap1\n      0x01\n      add\n      swap1\n      jump(tag_382)\n    tag_383:\n    tag_379:\n      pop\n      swap1\n      pop\n      tag_384\n      swap2\n      swap1\n      tag_385\n      jump\t// in\n    tag_384:\n      pop\n      swap1\n      jump\t// out\n    tag_385:\n    tag_386:\n      dup1\n      dup3\n      gt\n      iszero\n      tag_387\n      jumpi\n      0x00\n      dup2\n      0x00\n      swap1\n      sstore\n      pop\n      0x01\n      add\n      jump(tag_386)\n    tag_387:\n      pop\n      swap1\n      jump\t// out\n        /* \"#utility.yul\":7:351   */\n    tag_389:\n      0x00\n        /* \"#utility.yul\":110:175   */\n      tag_391\n        /* \"#utility.yul\":125:174   */\n      tag_392\n        /* \"#utility.yul\":167:173   */\n      dup5\n        /* \"#utility.yul\":125:174   */\n      tag_393\n      jump\t// in\n    tag_392:\n        /* \"#utility.yul\":110:175   */\n      tag_394\n      jump\t// in\n    tag_391:\n        /* \"#utility.yul\":101:175   */\n      swap1\n      pop\n        /* \"#utility.yul\":198:204   */\n      dup3\n        /* \"#utility.yul\":191:196   */\n      dup2\n        /* \"#utility.yul\":184:205   */\n      mstore\n        /* \"#utility.yul\":236:240   */\n      0x20\n        /* \"#utility.yul\":229:234   */\n      dup2\n        /* \"#utility.yul\":225:241   */\n      add\n        /* \"#utility.yul\":274:277   */\n      dup5\n        /* \"#utility.yul\":265:271   */\n      dup5\n        /* \"#utility.yul\":260:263   */\n      dup5\n        /* \"#utility.yul\":256:272   */\n      add\n        /* \"#utility.yul\":253:278   */\n      gt\n        /* \"#utility.yul\":250:252   */\n      iszero\n      tag_395\n      jumpi\n        /* \"#utility.yul\":291:292   */\n      0x00\n        /* \"#utility.yul\":288:289   */\n      dup1\n        /* \"#utility.yul\":281:293   */\n      revert\n        /* \"#utility.yul\":250:252   */\n    tag_395:\n        /* \"#utility.yul\":304:345   */\n      tag_396\n        /* \"#utility.yul\":338:344   */\n      dup5\n        /* \"#utility.yul\":333:336   */\n      dup3\n        /* \"#utility.yul\":328:331   */\n      dup6\n        /* \"#utility.yul\":304:345   */\n      tag_397\n      jump\t// in\n    tag_396:\n        /* \"#utility.yul\":91:351   */\n      pop\n      swap4\n      swap3\n      pop\n      pop\n      pop\n      jump\t// out\n        /* \"#utility.yul\":357:496   */\n    tag_398:\n      0x00\n        /* \"#utility.yul\":441:447   */\n      dup2\n        /* \"#utility.yul\":428:448   */\n      calldataload\n        /* \"#utility.yul\":419:448   */\n      swap1\n      pop\n        /* \"#utility.yul\":457:490   */\n      tag_400\n        /* \"#utility.yul\":484:489   */\n      dup2\n        /* \"#utility.yul\":457:490   */\n      tag_401\n      jump\t// in\n    tag_400:\n        /* \"#utility.yul\":409:496   */\n      swap3\n      swap2\n      pop\n      pop\n      jump\t// out\n        /* \"#utility.yul\":502:635   */\n    tag_402:\n      0x00\n        /* \"#utility.yul\":583:589   */\n      dup2\n        /* \"#utility.yul\":570:590   */\n      calldataload\n        /* \"#utility.yul\":561:590   */\n      swap1\n      pop\n        /* \"#utility.yul\":599:629   */\n      tag_404\n        /* \"#utility.yul\":623:628   */\n      dup2\n        /* \"#utility.yul\":599:629   */\n      tag_405\n      jump\t// in\n    tag_404:\n        /* \"#utility.yul\":551:635   */\n      swap3\n      swap2\n      pop\n      pop\n      jump\t// out\n        /* \"#utility.yul\":641:778   */\n    tag_406:\n      0x00\n        /* \"#utility.yul\":724:730   */\n      dup2\n        /* \"#utility.yul\":711:731   */\n      calldataload\n        /* \"#utility.yul\":702:731   */\n      swap1\n      pop\n        /* \"#utility.yul\":740:772   */\n      tag_408\n        /* \"#utility.yul\":766:771   */\n      dup2\n        /* \"#utility.yul\":740:772   */\n      tag_409\n      jump\t// in\n    tag_408:\n        /* \"#utility.yul\":692:778   */\n      swap3\n      swap2\n      pop\n      pop\n      jump\t// out\n        /* \"#utility.yul\":798:1071   */\n    tag_410:\n      0x00\n        /* \"#utility.yul\":903:906   */\n      dup3\n        /* \"#utility.yul\":896:900   */\n      0x1f\n        /* \"#utility.yul\":888:894   */\n      dup4\n        /* \"#utility.yul\":884:901   */\n      add\n        /* \"#utility.yul\":880:907   */\n      slt\n        /* \"#utility.yul\":870:872   */\n      tag_412\n      jumpi\n        /* \"#utility.yul\":921:922   */\n      0x00\n        /* \"#utility.yul\":918:919   */\n      dup1\n        /* \"#utility.yul\":911:923   */\n      revert\n        /* \"#utility.yul\":870:872   */\n    tag_412:\n        /* \"#utility.yul\":961:967   */\n      dup2\n        /* \"#utility.yul\":948:968   */\n      calldataload\n        /* \"#utility.yul\":986:1065   */\n      tag_413\n        /* \"#utility.yul\":1061:1064   */\n      dup5\n        /* \"#utility.yul\":1053:1059   */\n      dup3\n        /* \"#utility.yul\":1046:1050   */\n      0x20\n        /* \"#utility.yul\":1038:1044   */\n      dup7\n        /* \"#utility.yul\":1034:1051   */\n      add\n        /* \"#utility.yul\":986:1065   */\n      tag_389\n      jump\t// in\n    tag_413:\n        /* \"#utility.yul\":977:1065   */\n      swap2\n      pop\n        /* \"#utility.yul\":860:1071   */\n      pop\n      swap3\n      swap2\n      pop\n      pop\n      jump\t// out\n        /* \"#utility.yul\":1077:1216   */\n    tag_414:\n      0x00\n        /* \"#utility.yul\":1161:1167   */\n      dup2\n        /* \"#utility.yul\":1148:1168   */\n      calldataload\n        /* \"#utility.yul\":1139:1168   */\n      swap1\n      pop\n        /* \"#utility.yul\":1177:1210   */\n      tag_416\n        /* \"#utility.yul\":1204:1209   */\n      dup2\n        /* \"#utility.yul\":1177:1210   */\n      tag_417\n      jump\t// in\n    tag_416:\n        /* \"#utility.yul\":1129:1216   */\n      swap3\n      swap2\n      pop\n      pop\n      jump\t// out\n        /* \"#utility.yul\":1222:1484   */\n    tag_108:\n      0x00\n        /* \"#utility.yul\":1330:1332   */\n      0x20\n        /* \"#utility.yul\":1318:1327   */\n      dup3\n        /* \"#utility.yul\":1309:1316   */\n      dup5\n        /* \"#utility.yul\":1305:1328   */\n      sub\n        /* \"#utility.yul\":1301:1333   */\n      slt\n        /* \"#utility.yul\":1298:1300   */\n      iszero\n      tag_419\n      jumpi\n        /* \"#utility.yul\":1346:1347   */\n      0x00\n        /* \"#utility.yul\":1343:1344   */\n      dup1\n        /* \"#utility.yul\":1336:1348   */\n      revert\n        /* \"#utility.yul\":1298:1300   */\n    tag_419:\n        /* \"#utility.yul\":1389:1390   */\n      0x00\n        /* \"#utility.yul\":1414:1467   */\n      tag_420\n        /* \"#utility.yul\":1459:1466   */\n      dup5\n        /* \"#utility.yul\":1450:1456   */\n      dup3\n        /* \"#utility.yul\":1439:1448   */\n      dup6\n        /* \"#utility.yul\":1435:1457   */\n      add\n        /* \"#utility.yul\":1414:1467   */\n      tag_398\n      jump\t// in\n    tag_420:\n        /* \"#utility.yul\":1404:1467   */\n      swap2\n      pop\n        /* \"#utility.yul\":1360:1477   */\n      pop\n        /* \"#utility.yul\":1288:1484   */\n      swap3\n      swap2\n      pop\n      pop\n      jump\t// out\n        /* \"#utility.yul\":1490:2186   */\n    tag_121:\n      0x00\n      dup1\n      0x00\n      dup1\n        /* \"#utility.yul\":1648:1651   */\n      0x80\n        /* \"#utility.yul\":1636:1645   */\n      dup6\n        /* \"#utility.yul\":1627:1634   */\n      dup8\n        /* \"#utility.yul\":1623:1646   */\n      sub\n        /* \"#utility.yul\":1619:1652   */\n      slt\n        /* \"#utility.yul\":1616:1618   */\n      iszero\n      tag_422\n      jumpi\n        /* \"#utility.yul\":1665:1666   */\n      0x00\n        /* \"#utility.yul\":1662:1663   */\n      dup1\n        /* \"#utility.yul\":1655:1667   */\n      revert\n        /* \"#utility.yul\":1616:1618   */\n    tag_422:\n        /* \"#utility.yul\":1708:1709   */\n      0x00\n        /* \"#utility.yul\":1733:1786   */\n      tag_423\n        /* \"#utility.yul\":1778:1785   */\n      dup8\n        /* \"#utility.yul\":1769:1775   */\n      dup3\n        /* \"#utility.yul\":1758:1767   */\n      dup9\n        /* \"#utility.yul\":1754:1776   */\n      add\n        /* \"#utility.yul\":1733:1786   */\n      tag_398\n      jump\t// in\n    tag_423:\n        /* \"#utility.yul\":1723:1786   */\n      swap5\n      pop\n        /* \"#utility.yul\":1679:1796   */\n      pop\n        /* \"#utility.yul\":1835:1837   */\n      0x20\n        /* \"#utility.yul\":1861:1913   */\n      tag_424\n        /* \"#utility.yul\":1905:1912   */\n      dup8\n        /* \"#utility.yul\":1896:1902   */\n      dup3\n        /* \"#utility.yul\":1885:1894   */\n      dup9\n        /* \"#utility.yul\":1881:1903   */\n      add\n        /* \"#utility.yul\":1861:1913   */\n      tag_406\n      jump\t// in\n    tag_424:\n        /* \"#utility.yul\":1851:1913   */\n      swap4\n      pop\n        /* \"#utility.yul\":1806:1923   */\n      pop\n        /* \"#utility.yul\":1962:1964   */\n      0x40\n        /* \"#utility.yul\":1988:2041   */\n      tag_425\n        /* \"#utility.yul\":2033:2040   */\n      dup8\n        /* \"#utility.yul\":2024:2030   */\n      dup3\n        /* \"#utility.yul\":2013:2022   */\n      dup9\n        /* \"#utility.yul\":2009:2031   */\n      add\n        /* \"#utility.yul\":1988:2041   */\n      tag_414\n      jump\t// in\n    tag_425:\n        /* \"#utility.yul\":1978:2041   */\n      swap3\n      pop\n        /* \"#utility.yul\":1933:2051   */\n      pop\n        /* \"#utility.yul\":2090:2092   */\n      0x60\n        /* \"#utility.yul\":2116:2169   */\n      tag_426\n        /* \"#utility.yul\":2161:2168   */\n      dup8\n        /* \"#utility.yul\":2152:2158   */\n      dup3\n        /* \"#utility.yul\":2141:2150   */\n      dup9\n        /* \"#utility.yul\":2137:2159   */\n      add\n        /* \"#utility.yul\":2116:2169   */\n      tag_414\n      jump\t// in\n    tag_426:\n        /* \"#utility.yul\":2106:2169   */\n      swap2\n      pop\n        /* \"#utility.yul\":2061:2179   */\n      pop\n        /* \"#utility.yul\":1606:2186   */\n      swap3\n      swap6\n      swap2\n      swap5\n      pop\n      swap3\n      pop\n      jump\t// out\n        /* \"#utility.yul\":2192:2452   */\n    tag_49:\n      0x00\n        /* \"#utility.yul\":2299:2301   */\n      0x20\n        /* \"#utility.yul\":2287:2296   */\n      dup3\n        /* \"#utility.yul\":2278:2285   */\n      dup5\n        /* \"#utility.yul\":2274:2297   */\n      sub\n        /* \"#utility.yul\":2270:2302   */\n      slt\n        /* \"#utility.yul\":2267:2269   */\n      iszero\n      tag_428\n      jumpi\n        /* \"#utility.yul\":2315:2316   */\n      0x00\n        /* \"#utility.yul\":2312:2313   */\n      dup1\n        /* \"#utility.yul\":2305:2317   */\n      revert\n        /* \"#utility.yul\":2267:2269   */\n    tag_428:\n        /* \"#utility.yul\":2358:2359   */\n      0x00\n        /* \"#utility.yul\":2383:2435   */\n      tag_429\n        /* \"#utility.yul\":2427:2434   */\n      dup5\n        /* \"#utility.yul\":2418:2424   */\n      dup3\n        /* \"#utility.yul\":2407:2416   */\n      dup6\n        /* \"#utility.yul\":2403:2425   */\n      add\n        /* \"#utility.yul\":2383:2435   */\n      tag_406\n      jump\t// in\n    tag_429:\n        /* \"#utility.yul\":2373:2435   */\n      swap2\n      pop\n        /* \"#utility.yul\":2329:2445   */\n      pop\n        /* \"#utility.yul\":2257:2452   */\n      swap3\n      swap2\n      pop\n      pop\n      jump\t// out\n        /* \"#utility.yul\":2458:2863   */\n    tag_57:\n      0x00\n      dup1\n        /* \"#utility.yul\":2582:2584   */\n      0x40\n        /* \"#utility.yul\":2570:2579   */\n      dup4\n        /* \"#utility.yul\":2561:2568   */\n      dup6\n        /* \"#utility.yul\":2557:2580   */\n      sub\n        /* \"#utility.yul\":2553:2585   */\n      slt\n        /* \"#utility.yul\":2550:2552   */\n      iszero\n      tag_431\n      jumpi\n        /* \"#utility.yul\":2598:2599   */\n      0x00\n        /* \"#utility.yul\":2595:2596   */\n      dup1\n        /* \"#utility.yul\":2588:2600   */\n      revert\n        /* \"#utility.yul\":2550:2552   */\n    tag_431:\n        /* \"#utility.yul\":2641:2642   */\n      0x00\n        /* \"#utility.yul\":2666:2718   */\n      tag_432\n        /* \"#utility.yul\":2710:2717   */\n      dup6\n        /* \"#utility.yul\":2701:2707   */\n      dup3\n        /* \"#utility.yul\":2690:2699   */\n      dup7\n        /* \"#utility.yul\":2686:2708   */\n      add\n        /* \"#utility.yul\":2666:2718   */\n      tag_406\n      jump\t// in\n    tag_432:\n        /* \"#utility.yul\":2656:2718   */\n      swap3\n      pop\n        /* \"#utility.yul\":2612:2728   */\n      pop\n        /* \"#utility.yul\":2767:2769   */\n      0x20\n        /* \"#utility.yul\":2793:2846   */\n      tag_433\n        /* \"#utility.yul\":2838:2845   */\n      dup6\n        /* \"#utility.yul\":2829:2835   */\n      dup3\n        /* \"#utility.yul\":2818:2827   */\n      dup7\n        /* \"#utility.yul\":2814:2836   */\n      add\n        /* \"#utility.yul\":2793:2846   */\n      tag_398\n      jump\t// in\n    tag_433:\n        /* \"#utility.yul\":2783:2846   */\n      swap2\n      pop\n        /* \"#utility.yul\":2738:2856   */\n      pop\n        /* \"#utility.yul\":2540:2863   */\n      swap3\n      pop\n      swap3\n      swap1\n      pop\n      jump\t// out\n        /* \"#utility.yul\":2869:3387   */\n    tag_65:\n      0x00\n      dup1\n        /* \"#utility.yul\":3003:3005   */\n      0x40\n        /* \"#utility.yul\":2991:3000   */\n      dup4\n        /* \"#utility.yul\":2982:2989   */\n      dup6\n        /* \"#utility.yul\":2978:3001   */\n      sub\n        /* \"#utility.yul\":2974:3006   */\n      slt\n        /* \"#utility.yul\":2971:2973   */\n      iszero\n      tag_435\n      jumpi\n        /* \"#utility.yul\":3019:3020   */\n      0x00\n        /* \"#utility.yul\":3016:3017   */\n      dup1\n        /* \"#utility.yul\":3009:3021   */\n      revert\n        /* \"#utility.yul\":2971:2973   */\n    tag_435:\n        /* \"#utility.yul\":3062:3063   */\n      0x00\n        /* \"#utility.yul\":3087:3139   */\n      tag_436\n        /* \"#utility.yul\":3131:3138   */\n      dup6\n        /* \"#utility.yul\":3122:3128   */\n      dup3\n        /* \"#utility.yul\":3111:3120   */\n      dup7\n        /* \"#utility.yul\":3107:3129   */\n      add\n        /* \"#utility.yul\":3087:3139   */\n      tag_406\n      jump\t// in\n    tag_436:\n        /* \"#utility.yul\":3077:3139   */\n      swap3\n      pop\n        /* \"#utility.yul\":3033:3149   */\n      pop\n        /* \"#utility.yul\":3216:3218   */\n      0x20\n        /* \"#utility.yul\":3205:3214   */\n      dup4\n        /* \"#utility.yul\":3201:3219   */\n      add\n        /* \"#utility.yul\":3188:3220   */\n      calldataload\n        /* \"#utility.yul\":3247:3265   */\n      0xffffffffffffffff\n        /* \"#utility.yul\":3239:3245   */\n      dup2\n        /* \"#utility.yul\":3236:3266   */\n      gt\n        /* \"#utility.yul\":3233:3235   */\n      iszero\n      tag_437\n      jumpi\n        /* \"#utility.yul\":3279:3280   */\n      0x00\n        /* \"#utility.yul\":3276:3277   */\n      dup1\n        /* \"#utility.yul\":3269:3281   */\n      revert\n        /* \"#utility.yul\":3233:3235   */\n    tag_437:\n        /* \"#utility.yul\":3307:3370   */\n      tag_438\n        /* \"#utility.yul\":3362:3369   */\n      dup6\n        /* \"#utility.yul\":3353:3359   */\n      dup3\n        /* \"#utility.yul\":3342:3351   */\n      dup7\n        /* \"#utility.yul\":3338:3360   */\n      add\n        /* \"#utility.yul\":3307:3370   */\n      tag_410\n      jump\t// in\n    tag_438:\n        /* \"#utility.yul\":3297:3370   */\n      swap2\n      pop\n        /* \"#utility.yul\":3159:3380   */\n      pop\n        /* \"#utility.yul\":2961:3387   */\n      swap3\n      pop\n      swap3\n      swap1\n      pop\n      jump\t// out\n        /* \"#utility.yul\":3393:4046   */\n    tag_45:\n      0x00\n      dup1\n      0x00\n        /* \"#utility.yul\":3539:3541   */\n      0x60\n        /* \"#utility.yul\":3527:3536   */\n      dup5\n        /* \"#utility.yul\":3518:3525   */\n      dup7\n        /* \"#utility.yul\":3514:3537   */\n      sub\n        /* \"#utility.yul\":3510:3542   */\n      slt\n        /* \"#utility.yul\":3507:3509   */\n      iszero\n      tag_440\n      jumpi\n        /* \"#utility.yul\":3555:3556   */\n      0x00\n        /* \"#utility.yul\":3552:3553   */\n      dup1\n        /* \"#utility.yul\":3545:3557   */\n      revert\n        /* \"#utility.yul\":3507:3509   */\n    tag_440:\n        /* \"#utility.yul\":3626:3627   */\n      0x00\n        /* \"#utility.yul\":3615:3624   */\n      dup5\n        /* \"#utility.yul\":3611:3628   */\n      add\n        /* \"#utility.yul\":3598:3629   */\n      calldataload\n        /* \"#utility.yul\":3656:3674   */\n      0xffffffffffffffff\n        /* \"#utility.yul\":3648:3654   */\n      dup2\n        /* \"#utility.yul\":3645:3675   */\n      gt\n        /* \"#utility.yul\":3642:3644   */\n      iszero\n      tag_441\n      jumpi\n        /* \"#utility.yul\":3688:3689   */\n      0x00\n        /* \"#utility.yul\":3685:3686   */\n      dup1\n        /* \"#utility.yul\":3678:3690   */\n      revert\n        /* \"#utility.yul\":3642:3644   */\n    tag_441:\n        /* \"#utility.yul\":3716:3779   */\n      tag_442\n        /* \"#utility.yul\":3771:3778   */\n      dup7\n        /* \"#utility.yul\":3762:3768   */\n      dup3\n        /* \"#utility.yul\":3751:3760   */\n      dup8\n        /* \"#utility.yul\":3747:3769   */\n      add\n        /* \"#utility.yul\":3716:3779   */\n      tag_410\n      jump\t// in\n    tag_442:\n        /* \"#utility.yul\":3706:3779   */\n      swap4\n      pop\n        /* \"#utility.yul\":3569:3789   */\n      pop\n        /* \"#utility.yul\":3828:3830   */\n      0x20\n        /* \"#utility.yul\":3854:3904   */\n      tag_443\n        /* \"#utility.yul\":3896:3903   */\n      dup7\n        /* \"#utility.yul\":3887:3893   */\n      dup3\n        /* \"#utility.yul\":3876:3885   */\n      dup8\n        /* \"#utility.yul\":3872:3894   */\n      add\n        /* \"#utility.yul\":3854:3904   */\n      tag_402\n      jump\t// in\n    tag_443:\n        /* \"#utility.yul\":3844:3904   */\n      swap3\n      pop\n        /* \"#utility.yul\":3799:3914   */\n      pop\n        /* \"#utility.yul\":3953:3955   */\n      0x40\n        /* \"#utility.yul\":3979:4029   */\n      tag_444\n        /* \"#utility.yul\":4021:4028   */\n      dup7\n        /* \"#utility.yul\":4012:4018   */\n      dup3\n        /* \"#utility.yul\":4001:4010   */\n      dup8\n        /* \"#utility.yul\":3997:4019   */\n      add\n        /* \"#utility.yul\":3979:4029   */\n      tag_402\n      jump\t// in\n    tag_444:\n        /* \"#utility.yul\":3969:4029   */\n      swap2\n      pop\n        /* \"#utility.yul\":3924:4039   */\n      pop\n        /* \"#utility.yul\":3497:4046   */\n      swap3\n      pop\n      swap3\n      pop\n      swap3\n      jump\t// out\n        /* \"#utility.yul\":4052:4685   */\n    tag_38:\n      0x00\n      dup1\n        /* \"#utility.yul\":4197:4199   */\n      0x40\n        /* \"#utility.yul\":4185:4194   */\n      dup4\n        /* \"#utility.yul\":4176:4183   */\n      dup6\n        /* \"#utility.yul\":4172:4195   */\n      sub\n        /* \"#utility.yul\":4168:4200   */\n      slt\n        /* \"#utility.yul\":4165:4167   */\n      iszero\n      tag_446\n      jumpi\n        /* \"#utility.yul\":4213:4214   */\n      0x00\n        /* \"#utility.yul\":4210:4211   */\n      dup1\n        /* \"#utility.yul\":4203:4215   */\n      revert\n        /* \"#utility.yul\":4165:4167   */\n    tag_446:\n        /* \"#utility.yul\":4284:4285   */\n      0x00\n        /* \"#utility.yul\":4273:4282   */\n      dup4\n        /* \"#utility.yul\":4269:4286   */\n      add\n        /* \"#utility.yul\":4256:4287   */\n      calldataload\n        /* \"#utility.yul\":4314:4332   */\n      0xffffffffffffffff\n        /* \"#utility.yul\":4306:4312   */\n      dup2\n        /* \"#utility.yul\":4303:4333   */\n      gt\n        /* \"#utility.yul\":4300:4302   */\n      iszero\n      tag_447\n      jumpi\n        /* \"#utility.yul\":4346:4347   */\n      0x00\n        /* \"#utility.yul\":4343:4344   */\n      dup1\n        /* \"#utility.yul\":4336:4348   */\n      revert\n        /* \"#utility.yul\":4300:4302   */\n    tag_447:\n        /* \"#utility.yul\":4374:4437   */\n      tag_448\n        /* \"#utility.yul\":4429:4436   */\n      dup6\n        /* \"#utility.yul\":4420:4426   */\n      dup3\n        /* \"#utility.yul\":4409:4418   */\n      dup7\n        /* \"#utility.yul\":4405:4427   */\n      add\n        /* \"#utility.yul\":4374:4437   */\n      tag_410\n      jump\t// in\n    tag_448:\n        /* \"#utility.yul\":4364:4437   */\n      swap3\n      pop\n        /* \"#utility.yul\":4227:4447   */\n      pop\n        /* \"#utility.yul\":4514:4516   */\n      0x20\n        /* \"#utility.yul\":4503:4512   */\n      dup4\n        /* \"#utility.yul\":4499:4517   */\n      add\n        /* \"#utility.yul\":4486:4518   */\n      calldataload\n        /* \"#utility.yul\":4545:4563   */\n      0xffffffffffffffff\n        /* \"#utility.yul\":4537:4543   */\n      dup2\n        /* \"#utility.yul\":4534:4564   */\n      gt\n        /* \"#utility.yul\":4531:4533   */\n      iszero\n      tag_449\n      jumpi\n        /* \"#utility.yul\":4577:4578   */\n      0x00\n        /* \"#utility.yul\":4574:4575   */\n      dup1\n        /* \"#utility.yul\":4567:4579   */\n      revert\n        /* \"#utility.yul\":4531:4533   */\n    tag_449:\n        /* \"#utility.yul\":4605:4668   */\n      tag_450\n        /* \"#utility.yul\":4660:4667   */\n      dup6\n        /* \"#utility.yul\":4651:4657   */\n      dup3\n        /* \"#utility.yul\":4640:4649   */\n      dup7\n        /* \"#utility.yul\":4636:4658   */\n      add\n        /* \"#utility.yul\":4605:4668   */\n      tag_410\n      jump\t// in\n    tag_450:\n        /* \"#utility.yul\":4595:4668   */\n      swap2\n      pop\n        /* \"#utility.yul\":4457:4678   */\n      pop\n        /* \"#utility.yul\":4155:4685   */\n      swap3\n      pop\n      swap3\n      swap1\n      pop\n      jump\t// out\n        /* \"#utility.yul\":4691:4953   */\n    tag_69:\n      0x00\n        /* \"#utility.yul\":4799:4801   */\n      0x20\n        /* \"#utility.yul\":4787:4796   */\n      dup3\n        /* \"#utility.yul\":4778:4785   */\n      dup5\n        /* \"#utility.yul\":4774:4797   */\n      sub\n        /* \"#utility.yul\":4770:4802   */\n      slt\n        /* \"#utility.yul\":4767:4769   */\n      iszero\n      tag_452\n      jumpi\n        /* \"#utility.yul\":4815:4816   */\n      0x00\n        /* \"#utility.yul\":4812:4813   */\n      dup1\n        /* \"#utility.yul\":4805:4817   */\n      revert\n        /* \"#utility.yul\":4767:4769   */\n    tag_452:\n        /* \"#utility.yul\":4858:4859   */\n      0x00\n        /* \"#utility.yul\":4883:4936   */\n      tag_453\n        /* \"#utility.yul\":4928:4935   */\n      dup5\n        /* \"#utility.yul\":4919:4925   */\n      dup3\n        /* \"#utility.yul\":4908:4917   */\n      dup6\n        /* \"#utility.yul\":4904:4926   */\n      add\n        /* \"#utility.yul\":4883:4936   */\n      tag_414\n      jump\t// in\n    tag_453:\n        /* \"#utility.yul\":4873:4936   */\n      swap2\n      pop\n        /* \"#utility.yul\":4829:4946   */\n      pop\n        /* \"#utility.yul\":4757:4953   */\n      swap3\n      swap2\n      pop\n      pop\n      jump\t// out\n        /* \"#utility.yul\":4959:5479   */\n    tag_114:\n      0x00\n      dup1\n        /* \"#utility.yul\":5094:5096   */\n      0x40\n        /* \"#utility.yul\":5082:5091   */\n      dup4\n        /* \"#utility.yul\":5073:5080   */\n      dup6\n        /* \"#utility.yul\":5069:5092   */\n      sub\n        /* \"#utility.yul\":5065:5097   */\n      slt\n        /* \"#utility.yul\":5062:5064   */\n      iszero\n      tag_455\n      jumpi\n        /* \"#utility.yul\":5110:5111   */\n      0x00\n        /* \"#utility.yul\":5107:5108   */\n      dup1\n        /* \"#utility.yul\":5100:5112   */\n      revert\n        /* \"#utility.yul\":5062:5064   */\n    tag_455:\n        /* \"#utility.yul\":5153:5154   */\n      0x00\n        /* \"#utility.yul\":5178:5231   */\n      tag_456\n        /* \"#utility.yul\":5223:5230   */\n      dup6\n        /* \"#utility.yul\":5214:5220   */\n      dup3\n        /* \"#utility.yul\":5203:5212   */\n      dup7\n        /* \"#utility.yul\":5199:5221   */\n      add\n        /* \"#utility.yul\":5178:5231   */\n      tag_414\n      jump\t// in\n    tag_456:\n        /* \"#utility.yul\":5168:5231   */\n      swap3\n      pop\n        /* \"#utility.yul\":5124:5241   */\n      pop\n        /* \"#utility.yul\":5308:5310   */\n      0x20\n        /* \"#utility.yul\":5297:5306   */\n      dup4\n        /* \"#utility.yul\":5293:5311   */\n      add\n        /* \"#utility.yul\":5280:5312   */\n      calldataload\n        /* \"#utility.yul\":5339:5357   */\n      0xffffffffffffffff\n        /* \"#utility.yul\":5331:5337   */\n      dup2\n        /* \"#utility.yul\":5328:5358   */\n      gt\n        /* \"#utility.yul\":5325:5327   */\n      iszero\n      tag_457\n      jumpi\n        /* \"#utility.yul\":5371:5372   */\n      0x00\n        /* \"#utility.yul\":5368:5369   */\n      dup1\n        /* \"#utility.yul\":5361:5373   */\n      revert\n        /* \"#utility.yul\":5325:5327   */\n    tag_457:\n        /* \"#utility.yul\":5399:5462   */\n      tag_458\n        /* \"#utility.yul\":5454:5461   */\n      dup6\n        /* \"#utility.yul\":5445:5451   */\n      dup3\n        /* \"#utility.yul\":5434:5443   */\n      dup7\n        /* \"#utility.yul\":5430:5452   */\n      add\n        /* \"#utility.yul\":5399:5462   */\n      tag_410\n      jump\t// in\n    tag_458:\n        /* \"#utility.yul\":5389:5462   */\n      swap2\n      pop\n        /* \"#utility.yul\":5251:5472   */\n      pop\n        /* \"#utility.yul\":5052:5479   */\n      swap3\n      pop\n      swap3\n      swap1\n      pop\n      jump\t// out\n        /* \"#utility.yul\":5485:5664   */\n    tag_459:\n      0x00\n        /* \"#utility.yul\":5575:5621   */\n      tag_461\n        /* \"#utility.yul\":5617:5620   */\n      dup4\n        /* \"#utility.yul\":5609:5615   */\n      dup4\n        /* \"#utility.yul\":5575:5621   */\n      tag_462\n      jump\t// in\n    tag_461:\n        /* \"#utility.yul\":5653:5657   */\n      0x20\n        /* \"#utility.yul\":5648:5651   */\n      dup4\n        /* \"#utility.yul\":5644:5658   */\n      add\n        /* \"#utility.yul\":5630:5658   */\n      swap1\n      pop\n        /* \"#utility.yul\":5565:5664   */\n      swap3\n      swap2\n      pop\n      pop\n      jump\t// out\n        /* \"#utility.yul\":5670:5845   */\n    tag_463:\n      0x00\n        /* \"#utility.yul\":5758:5802   */\n      tag_465\n        /* \"#utility.yul\":5798:5801   */\n      dup4\n        /* \"#utility.yul\":5790:5796   */\n      dup4\n        /* \"#utility.yul\":5758:5802   */\n      tag_466\n      jump\t// in\n    tag_465:\n        /* \"#utility.yul\":5834:5838   */\n      0x20\n        /* \"#utility.yul\":5829:5832   */\n      dup4\n        /* \"#utility.yul\":5825:5839   */\n      add\n        /* \"#utility.yul\":5811:5839   */\n      swap1\n      pop\n        /* \"#utility.yul\":5748:5845   */\n      swap3\n      swap2\n      pop\n      pop\n      jump\t// out\n        /* \"#utility.yul\":5851:6047   */\n    tag_467:\n      0x00\n        /* \"#utility.yul\":5975:6041   */\n      tag_469\n        /* \"#utility.yul\":6037:6040   */\n      dup4\n        /* \"#utility.yul\":6029:6035   */\n      dup4\n        /* \"#utility.yul\":5975:6041   */\n      tag_470\n      jump\t// in\n    tag_469:\n        /* \"#utility.yul\":5961:6041   */\n      swap1\n      pop\n        /* \"#utility.yul\":5951:6047   */\n      swap3\n      swap2\n      pop\n      pop\n      jump\t// out\n        /* \"#utility.yul\":6053:6161   */\n    tag_462:\n        /* \"#utility.yul\":6130:6154   */\n      tag_472\n        /* \"#utility.yul\":6148:6153   */\n      dup2\n        /* \"#utility.yul\":6130:6154   */\n      tag_473\n      jump\t// in\n    tag_472:\n        /* \"#utility.yul\":6125:6128   */\n      dup3\n        /* \"#utility.yul\":6118:6155   */\n      mstore\n        /* \"#utility.yul\":6108:6161   */\n      pop\n      pop\n      jump\t// out\n        /* \"#utility.yul\":6167:6285   */\n    tag_474:\n        /* \"#utility.yul\":6254:6278   */\n      tag_476\n        /* \"#utility.yul\":6272:6277   */\n      dup2\n        /* \"#utility.yul\":6254:6278   */\n      tag_473\n      jump\t// in\n    tag_476:\n        /* \"#utility.yul\":6249:6252   */\n      dup3\n        /* \"#utility.yul\":6242:6279   */\n      mstore\n        /* \"#utility.yul\":6232:6285   */\n      pop\n      pop\n      jump\t// out\n        /* \"#utility.yul\":6321:7053   */\n    tag_477:\n      0x00\n        /* \"#utility.yul\":6469:6523   */\n      tag_479\n        /* \"#utility.yul\":6517:6522   */\n      dup3\n        /* \"#utility.yul\":6469:6523   */\n      tag_480\n      jump\t// in\n    tag_479:\n        /* \"#utility.yul\":6539:6625   */\n      tag_481\n        /* \"#utility.yul\":6618:6624   */\n      dup2\n        /* \"#utility.yul\":6613:6616   */\n      dup6\n        /* \"#utility.yul\":6539:6625   */\n      tag_482\n      jump\t// in\n    tag_481:\n        /* \"#utility.yul\":6532:6625   */\n      swap4\n      pop\n        /* \"#utility.yul\":6649:6705   */\n      tag_483\n        /* \"#utility.yul\":6699:6704   */\n      dup4\n        /* \"#utility.yul\":6649:6705   */\n      tag_484\n      jump\t// in\n    tag_483:\n        /* \"#utility.yul\":6728:6735   */\n      dup1\n        /* \"#utility.yul\":6759:6760   */\n      0x00\n        /* \"#utility.yul\":6744:7028   */\n    tag_485:\n        /* \"#utility.yul\":6769:6775   */\n      dup4\n        /* \"#utility.yul\":6766:6767   */\n      dup2\n        /* \"#utility.yul\":6763:6776   */\n      lt\n        /* \"#utility.yul\":6744:7028   */\n      iszero\n      tag_487\n      jumpi\n        /* \"#utility.yul\":6845:6851   */\n      dup2\n        /* \"#utility.yul\":6839:6852   */\n      mload\n        /* \"#utility.yul\":6872:6935   */\n      tag_488\n        /* \"#utility.yul\":6931:6934   */\n      dup9\n        /* \"#utility.yul\":6916:6929   */\n      dup3\n        /* \"#utility.yul\":6872:6935   */\n      tag_459\n      jump\t// in\n    tag_488:\n        /* \"#utility.yul\":6865:6935   */\n      swap8\n      pop\n        /* \"#utility.yul\":6958:7018   */\n      tag_489\n        /* \"#utility.yul\":7011:7017   */\n      dup4\n        /* \"#utility.yul\":6958:7018   */\n      tag_490\n      jump\t// in\n    tag_489:\n        /* \"#utility.yul\":6948:7018   */\n      swap3\n      pop\n        /* \"#utility.yul\":6804:7028   */\n      pop\n        /* \"#utility.yul\":6791:6792   */\n      0x01\n        /* \"#utility.yul\":6788:6789   */\n      dup2\n        /* \"#utility.yul\":6784:6793   */\n      add\n        /* \"#utility.yul\":6779:6793   */\n      swap1\n      pop\n        /* \"#utility.yul\":6744:7028   */\n      jump(tag_485)\n    tag_487:\n        /* \"#utility.yul\":6748:6762   */\n      pop\n        /* \"#utility.yul\":7044:7047   */\n      dup6\n        /* \"#utility.yul\":7037:7047   */\n      swap4\n      pop\n        /* \"#utility.yul\":6445:7053   */\n      pop\n      pop\n      pop\n      swap3\n      swap2\n      pop\n      pop\n      jump\t// out\n        /* \"#utility.yul\":7087:7811   */\n    tag_491:\n      0x00\n        /* \"#utility.yul\":7233:7286   */\n      tag_493\n        /* \"#utility.yul\":7280:7285   */\n      dup3\n        /* \"#utility.yul\":7233:7286   */\n      tag_494\n      jump\t// in\n    tag_493:\n        /* \"#utility.yul\":7302:7387   */\n      tag_495\n        /* \"#utility.yul\":7380:7386   */\n      dup2\n        /* \"#utility.yul\":7375:7378   */\n      dup6\n        /* \"#utility.yul\":7302:7387   */\n      tag_496\n      jump\t// in\n    tag_495:\n        /* \"#utility.yul\":7295:7387   */\n      swap4\n      pop\n        /* \"#utility.yul\":7411:7466   */\n      tag_497\n        /* \"#utility.yul\":7460:7465   */\n      dup4\n        /* \"#utility.yul\":7411:7466   */\n      tag_498\n      jump\t// in\n    tag_497:\n        /* \"#utility.yul\":7489:7496   */\n      dup1\n        /* \"#utility.yul\":7520:7521   */\n      0x00\n        /* \"#utility.yul\":7505:7786   */\n    tag_499:\n        /* \"#utility.yul\":7530:7536   */\n      dup4\n        /* \"#utility.yul\":7527:7528   */\n      dup2\n        /* \"#utility.yul\":7524:7537   */\n      lt\n        /* \"#utility.yul\":7505:7786   */\n      iszero\n      tag_501\n      jumpi\n        /* \"#utility.yul\":7606:7612   */\n      dup2\n        /* \"#utility.yul\":7600:7613   */\n      mload\n        /* \"#utility.yul\":7633:7694   */\n      tag_502\n        /* \"#utility.yul\":7690:7693   */\n      dup9\n        /* \"#utility.yul\":7675:7688   */\n      dup3\n        /* \"#utility.yul\":7633:7694   */\n      tag_463\n      jump\t// in\n    tag_502:\n        /* \"#utility.yul\":7626:7694   */\n      swap8\n      pop\n        /* \"#utility.yul\":7717:7776   */\n      tag_503\n        /* \"#utility.yul\":7769:7775   */\n      dup4\n        /* \"#utility.yul\":7717:7776   */\n      tag_504\n      jump\t// in\n    tag_503:\n        /* \"#utility.yul\":7707:7776   */\n      swap3\n      pop\n        /* \"#utility.yul\":7565:7786   */\n      pop\n        /* \"#utility.yul\":7552:7553   */\n      0x01\n        /* \"#utility.yul\":7549:7550   */\n      dup2\n        /* \"#utility.yul\":7545:7554   */\n      add\n        /* \"#utility.yul\":7540:7554   */\n      swap1\n      pop\n        /* \"#utility.yul\":7505:7786   */\n      jump(tag_499)\n    tag_501:\n        /* \"#utility.yul\":7509:7523   */\n      pop\n        /* \"#utility.yul\":7802:7805   */\n      dup6\n        /* \"#utility.yul\":7795:7805   */\n      swap4\n      pop\n        /* \"#utility.yul\":7209:7811   */\n      pop\n      pop\n      pop\n      swap3\n      swap2\n      pop\n      pop\n      jump\t// out\n        /* \"#utility.yul\":7845:8836   */\n    tag_505:\n      0x00\n        /* \"#utility.yul\":8013:8077   */\n      tag_507\n        /* \"#utility.yul\":8071:8076   */\n      dup3\n        /* \"#utility.yul\":8013:8077   */\n      tag_508\n      jump\t// in\n    tag_507:\n        /* \"#utility.yul\":8093:8189   */\n      tag_509\n        /* \"#utility.yul\":8182:8188   */\n      dup2\n        /* \"#utility.yul\":8177:8180   */\n      dup6\n        /* \"#utility.yul\":8093:8189   */\n      tag_510\n      jump\t// in\n    tag_509:\n        /* \"#utility.yul\":8086:8189   */\n      swap4\n      pop\n        /* \"#utility.yul\":8215:8218   */\n      dup4\n        /* \"#utility.yul\":8260:8264   */\n      0x20\n        /* \"#utility.yul\":8252:8258   */\n      dup3\n        /* \"#utility.yul\":8248:8265   */\n      mul\n        /* \"#utility.yul\":8243:8246   */\n      dup6\n        /* \"#utility.yul\":8239:8266   */\n      add\n        /* \"#utility.yul\":8290:8356   */\n      tag_511\n        /* \"#utility.yul\":8350:8355   */\n      dup6\n        /* \"#utility.yul\":8290:8356   */\n      tag_512\n      jump\t// in\n    tag_511:\n        /* \"#utility.yul\":8379:8386   */\n      dup1\n        /* \"#utility.yul\":8410:8411   */\n      0x00\n        /* \"#utility.yul\":8395:8791   */\n    tag_513:\n        /* \"#utility.yul\":8420:8426   */\n      dup6\n        /* \"#utility.yul\":8417:8418   */\n      dup2\n        /* \"#utility.yul\":8414:8427   */\n      lt\n        /* \"#utility.yul\":8395:8791   */\n      iszero\n      tag_515\n      jumpi\n        /* \"#utility.yul\":8491:8500   */\n      dup5\n        /* \"#utility.yul\":8485:8489   */\n      dup5\n        /* \"#utility.yul\":8481:8501   */\n      sub\n        /* \"#utility.yul\":8476:8479   */\n      dup10\n        /* \"#utility.yul\":8469:8502   */\n      mstore\n        /* \"#utility.yul\":8542:8548   */\n      dup2\n        /* \"#utility.yul\":8536:8549   */\n      mload\n        /* \"#utility.yul\":8570:8654   */\n      tag_516\n        /* \"#utility.yul\":8649:8653   */\n      dup6\n        /* \"#utility.yul\":8634:8647   */\n      dup3\n        /* \"#utility.yul\":8570:8654   */\n      tag_467\n      jump\t// in\n    tag_516:\n        /* \"#utility.yul\":8562:8654   */\n      swap5\n      pop\n        /* \"#utility.yul\":8677:8747   */\n      tag_517\n        /* \"#utility.yul\":8740:8746   */\n      dup4\n        /* \"#utility.yul\":8677:8747   */\n      tag_518\n      jump\t// in\n    tag_517:\n        /* \"#utility.yul\":8667:8747   */\n      swap3\n      pop\n        /* \"#utility.yul\":8776:8780   */\n      0x20\n        /* \"#utility.yul\":8771:8774   */\n      dup11\n        /* \"#utility.yul\":8767:8781   */\n      add\n        /* \"#utility.yul\":8760:8781   */\n      swap10\n      pop\n        /* \"#utility.yul\":8455:8791   */\n      pop\n        /* \"#utility.yul\":8442:8443   */\n      0x01\n        /* \"#utility.yul\":8439:8440   */\n      dup2\n        /* \"#utility.yul\":8435:8444   */\n      add\n        /* \"#utility.yul\":8430:8444   */\n      swap1\n      pop\n        /* \"#utility.yul\":8395:8791   */\n      jump(tag_513)\n    tag_515:\n        /* \"#utility.yul\":8399:8413   */\n      pop\n        /* \"#utility.yul\":8807:8811   */\n      dup3\n        /* \"#utility.yul\":8800:8811   */\n      swap8\n      pop\n        /* \"#utility.yul\":8827:8830   */\n      dup8\n        /* \"#utility.yul\":8820:8830   */\n      swap6\n      pop\n        /* \"#utility.yul\":7989:8836   */\n      pop\n      pop\n      pop\n      pop\n      pop\n      swap3\n      swap2\n      pop\n      pop\n      jump\t// out\n        /* \"#utility.yul\":8842:8951   */\n    tag_519:\n        /* \"#utility.yul\":8923:8944   */\n      tag_521\n        /* \"#utility.yul\":8938:8943   */\n      dup2\n        /* \"#utility.yul\":8923:8944   */\n      tag_522\n      jump\t// in\n    tag_521:\n        /* \"#utility.yul\":8918:8921   */\n      dup3\n        /* \"#utility.yul\":8911:8945   */\n      mstore\n        /* \"#utility.yul\":8901:8951   */\n      pop\n      pop\n      jump\t// out\n        /* \"#utility.yul\":8957:9062   */\n    tag_466:\n        /* \"#utility.yul\":9032:9055   */\n      tag_524\n        /* \"#utility.yul\":9049:9054   */\n      dup2\n        /* \"#utility.yul\":9032:9055   */\n      tag_525\n      jump\t// in\n    tag_524:\n        /* \"#utility.yul\":9027:9030   */\n      dup3\n        /* \"#utility.yul\":9020:9056   */\n      mstore\n        /* \"#utility.yul\":9010:9062   */\n      pop\n      pop\n      jump\t// out\n        /* \"#utility.yul\":9068:9183   */\n    tag_526:\n        /* \"#utility.yul\":9153:9176   */\n      tag_528\n        /* \"#utility.yul\":9170:9175   */\n      dup2\n        /* \"#utility.yul\":9153:9176   */\n      tag_525\n      jump\t// in\n    tag_528:\n        /* \"#utility.yul\":9148:9151   */\n      dup3\n        /* \"#utility.yul\":9141:9177   */\n      mstore\n        /* \"#utility.yul\":9131:9183   */\n      pop\n      pop\n      jump\t// out\n        /* \"#utility.yul\":9189:9533   */\n    tag_470:\n      0x00\n        /* \"#utility.yul\":9295:9334   */\n      tag_530\n        /* \"#utility.yul\":9328:9333   */\n      dup3\n        /* \"#utility.yul\":9295:9334   */\n      tag_531\n      jump\t// in\n    tag_530:\n        /* \"#utility.yul\":9350:9411   */\n      tag_532\n        /* \"#utility.yul\":9404:9410   */\n      dup2\n        /* \"#utility.yul\":9399:9402   */\n      dup6\n        /* \"#utility.yul\":9350:9411   */\n      tag_533\n      jump\t// in\n    tag_532:\n        /* \"#utility.yul\":9343:9411   */\n      swap4\n      pop\n        /* \"#utility.yul\":9420:9472   */\n      tag_534\n        /* \"#utility.yul\":9465:9471   */\n      dup2\n        /* \"#utility.yul\":9460:9463   */\n      dup6\n        /* \"#utility.yul\":9453:9457   */\n      0x20\n        /* \"#utility.yul\":9446:9451   */\n      dup7\n        /* \"#utility.yul\":9442:9458   */\n      add\n        /* \"#utility.yul\":9420:9472   */\n      tag_535\n      jump\t// in\n    tag_534:\n        /* \"#utility.yul\":9497:9526   */\n      tag_536\n        /* \"#utility.yul\":9519:9525   */\n      dup2\n        /* \"#utility.yul\":9497:9526   */\n      tag_537\n      jump\t// in\n    tag_536:\n        /* \"#utility.yul\":9492:9495   */\n      dup5\n        /* \"#utility.yul\":9488:9527   */\n      add\n        /* \"#utility.yul\":9481:9527   */\n      swap2\n      pop\n        /* \"#utility.yul\":9271:9533   */\n      pop\n      swap3\n      swap2\n      pop\n      pop\n      jump\t// out\n        /* \"#utility.yul\":9539:9903   */\n    tag_538:\n      0x00\n        /* \"#utility.yul\":9655:9694   */\n      tag_540\n        /* \"#utility.yul\":9688:9693   */\n      dup3\n        /* \"#utility.yul\":9655:9694   */\n      tag_531\n      jump\t// in\n    tag_540:\n        /* \"#utility.yul\":9710:9781   */\n      tag_541\n        /* \"#utility.yul\":9774:9780   */\n      dup2\n        /* \"#utility.yul\":9769:9772   */\n      dup6\n        /* \"#utility.yul\":9710:9781   */\n      tag_542\n      jump\t// in\n    tag_541:\n        /* \"#utility.yul\":9703:9781   */\n      swap4\n      pop\n        /* \"#utility.yul\":9790:9842   */\n      tag_543\n        /* \"#utility.yul\":9835:9841   */\n      dup2\n        /* \"#utility.yul\":9830:9833   */\n      dup6\n        /* \"#utility.yul\":9823:9827   */\n      0x20\n        /* \"#utility.yul\":9816:9821   */\n      dup7\n        /* \"#utility.yul\":9812:9828   */\n      add\n        /* \"#utility.yul\":9790:9842   */\n      tag_535\n      jump\t// in\n    tag_543:\n        /* \"#utility.yul\":9867:9896   */\n      tag_544\n        /* \"#utility.yul\":9889:9895   */\n      dup2\n        /* \"#utility.yul\":9867:9896   */\n      tag_537\n      jump\t// in\n    tag_544:\n        /* \"#utility.yul\":9862:9865   */\n      dup5\n        /* \"#utility.yul\":9858:9897   */\n      add\n        /* \"#utility.yul\":9851:9897   */\n      swap2\n      pop\n        /* \"#utility.yul\":9631:9903   */\n      pop\n      swap3\n      swap2\n      pop\n      pop\n      jump\t// out\n        /* \"#utility.yul\":9909:10285   */\n    tag_545:\n      0x00\n        /* \"#utility.yul\":10072:10139   */\n      tag_547\n        /* \"#utility.yul\":10136:10138   */\n      0x2c\n        /* \"#utility.yul\":10131:10134   */\n      dup4\n        /* \"#utility.yul\":10072:10139   */\n      tag_542\n      jump\t// in\n    tag_547:\n        /* \"#utility.yul\":10065:10139   */\n      swap2\n      pop\n        /* \"#utility.yul\":10169:10203   */\n      0x4f6e6c79206c616e646c6f7264732063616e20617070726f7665206561726c79\n        /* \"#utility.yul\":10165:10166   */\n      0x00\n        /* \"#utility.yul\":10160:10163   */\n      dup4\n        /* \"#utility.yul\":10156:10167   */\n      add\n        /* \"#utility.yul\":10149:10204   */\n      mstore\n        /* \"#utility.yul\":10235:10249   */\n      0x207465726d696e6174696f6e0000000000000000000000000000000000000000\n        /* \"#utility.yul\":10230:10232   */\n      0x20\n        /* \"#utility.yul\":10225:10228   */\n      dup4\n        /* \"#utility.yul\":10221:10233   */\n      add\n        /* \"#utility.yul\":10214:10250   */\n      mstore\n        /* \"#utility.yul\":10276:10278   */\n      0x40\n        /* \"#utility.yul\":10271:10274   */\n      dup3\n        /* \"#utility.yul\":10267:10279   */\n      add\n        /* \"#utility.yul\":10260:10279   */\n      swap1\n      pop\n        /* \"#utility.yul\":10055:10285   */\n      swap2\n      swap1\n      pop\n      jump\t// out\n        /* \"#utility.yul\":10291:10686   */\n    tag_548:\n      0x00\n        /* \"#utility.yul\":10454:10521   */\n      tag_550\n        /* \"#utility.yul\":10518:10520   */\n      0x3f\n        /* \"#utility.yul\":10513:10516   */\n      dup4\n        /* \"#utility.yul\":10454:10521   */\n      tag_542\n      jump\t// in\n    tag_550:\n        /* \"#utility.yul\":10447:10521   */\n      swap2\n      pop\n        /* \"#utility.yul\":10551:10585   */\n      0x596f7520617265206e6f7420746865206f776e6572206f66207468652070726f\n        /* \"#utility.yul\":10547:10548   */\n      0x00\n        /* \"#utility.yul\":10542:10545   */\n      dup4\n        /* \"#utility.yul\":10538:10549   */\n      add\n        /* \"#utility.yul\":10531:10586   */\n      mstore\n        /* \"#utility.yul\":10617:10650   */\n      0x70657274792072656c6174656420746f207468697320636f6d706c61696e7400\n        /* \"#utility.yul\":10612:10614   */\n      0x20\n        /* \"#utility.yul\":10607:10610   */\n      dup4\n        /* \"#utility.yul\":10603:10615   */\n      add\n        /* \"#utility.yul\":10596:10651   */\n      mstore\n        /* \"#utility.yul\":10677:10679   */\n      0x40\n        /* \"#utility.yul\":10672:10675   */\n      dup3\n        /* \"#utility.yul\":10668:10680   */\n      add\n        /* \"#utility.yul\":10661:10680   */\n      swap1\n      pop\n        /* \"#utility.yul\":10437:10686   */\n      swap2\n      swap1\n      pop\n      jump\t// out\n        /* \"#utility.yul\":10692:11059   */\n    tag_551:\n      0x00\n        /* \"#utility.yul\":10855:10922   */\n      tag_553\n        /* \"#utility.yul\":10919:10921   */\n      0x23\n        /* \"#utility.yul\":10914:10917   */\n      dup4\n        /* \"#utility.yul\":10855:10922   */\n      tag_542\n      jump\t// in\n    tag_553:\n        /* \"#utility.yul\":10848:10922   */\n      swap2\n      pop\n        /* \"#utility.yul\":10952:10986   */\n      0x4f6e6c79206c616e646c6f7264732063616e207465726d696e617465206c6561\n        /* \"#utility.yul\":10948:10949   */\n      0x00\n        /* \"#utility.yul\":10943:10946   */\n      dup4\n        /* \"#utility.yul\":10939:10950   */\n      add\n        /* \"#utility.yul\":10932:10987   */\n      mstore\n        /* \"#utility.yul\":11018:11023   */\n      0x7365730000000000000000000000000000000000000000000000000000000000\n        /* \"#utility.yul\":11013:11015   */\n      0x20\n        /* \"#utility.yul\":11008:11011   */\n      dup4\n        /* \"#utility.yul\":11004:11016   */\n      add\n        /* \"#utility.yul\":10997:11024   */\n      mstore\n        /* \"#utility.yul\":11050:11052   */\n      0x40\n        /* \"#utility.yul\":11045:11048   */\n      dup3\n        /* \"#utility.yul\":11041:11053   */\n      add\n        /* \"#utility.yul\":11034:11053   */\n      swap1\n      pop\n        /* \"#utility.yul\":10838:11059   */\n      swap2\n      swap1\n      pop\n      jump\t// out\n        /* \"#utility.yul\":11065:11387   */\n    tag_554:\n      0x00\n        /* \"#utility.yul\":11228:11295   */\n      tag_556\n        /* \"#utility.yul\":11292:11294   */\n      0x18\n        /* \"#utility.yul\":11287:11290   */\n      dup4\n        /* \"#utility.yul\":11228:11295   */\n      tag_542\n      jump\t// in\n    tag_556:\n        /* \"#utility.yul\":11221:11295   */\n      swap2\n      pop\n        /* \"#utility.yul\":11325:11351   */\n      0x50726f7065727479206973206e6f742072656e7461626c650000000000000000\n        /* \"#utility.yul\":11321:11322   */\n      0x00\n        /* \"#utility.yul\":11316:11319   */\n      dup4\n        /* \"#utility.yul\":11312:11323   */\n      add\n        /* \"#utility.yul\":11305:11352   */\n      mstore\n        /* \"#utility.yul\":11378:11380   */\n      0x20\n        /* \"#utility.yul\":11373:11376   */\n      dup3\n        /* \"#utility.yul\":11369:11381   */\n      add\n        /* \"#utility.yul\":11362:11381   */\n      swap1\n      pop\n        /* \"#utility.yul\":11211:11387   */\n      swap2\n      swap1\n      pop\n      jump\t// out\n        /* \"#utility.yul\":11393:11717   */\n    tag_557:\n      0x00\n        /* \"#utility.yul\":11556:11623   */\n      tag_559\n        /* \"#utility.yul\":11620:11622   */\n      0x1a\n        /* \"#utility.yul\":11615:11618   */\n      dup4\n        /* \"#utility.yul\":11556:11623   */\n      tag_542\n      jump\t// in\n    tag_559:\n        /* \"#utility.yul\":11549:11623   */\n      swap2\n      pop\n        /* \"#utility.yul\":11653:11681   */\n      0x496e76616c69642074656e616e74206f722070726f7065727479000000000000\n        /* \"#utility.yul\":11649:11650   */\n      0x00\n        /* \"#utility.yul\":11644:11647   */\n      dup4\n        /* \"#utility.yul\":11640:11651   */\n      add\n        /* \"#utility.yul\":11633:11682   */\n      mstore\n        /* \"#utility.yul\":11708:11710   */\n      0x20\n        /* \"#utility.yul\":11703:11706   */\n      dup3\n        /* \"#utility.yul\":11699:11711   */\n      add\n        /* \"#utility.yul\":11692:11711   */\n      swap1\n      pop\n        /* \"#utility.yul\":11539:11717   */\n      swap2\n      swap1\n      pop\n      jump\t// out\n        /* \"#utility.yul\":11723:12040   */\n    tag_560:\n      0x00\n        /* \"#utility.yul\":11886:11953   */\n      tag_562\n        /* \"#utility.yul\":11950:11952   */\n      0x13\n        /* \"#utility.yul\":11945:11948   */\n      dup4\n        /* \"#utility.yul\":11886:11953   */\n      tag_542\n      jump\t// in\n    tag_562:\n        /* \"#utility.yul\":11879:11953   */\n      swap2\n      pop\n        /* \"#utility.yul\":11983:12004   */\n      0x5573657220616c72656164792065786973747300000000000000000000000000\n        /* \"#utility.yul\":11979:11980   */\n      0x00\n        /* \"#utility.yul\":11974:11977   */\n      dup4\n        /* \"#utility.yul\":11970:11981   */\n      add\n        /* \"#utility.yul\":11963:12005   */\n      mstore\n        /* \"#utility.yul\":12031:12033   */\n      0x20\n        /* \"#utility.yul\":12026:12029   */\n      dup3\n        /* \"#utility.yul\":12022:12034   */\n      add\n        /* \"#utility.yul\":12015:12034   */\n      swap1\n      pop\n        /* \"#utility.yul\":11869:12040   */\n      swap2\n      swap1\n      pop\n      jump\t// out\n        /* \"#utility.yul\":12046:12367   */\n    tag_563:\n      0x00\n        /* \"#utility.yul\":12209:12276   */\n      tag_565\n        /* \"#utility.yul\":12273:12275   */\n      0x17\n        /* \"#utility.yul\":12268:12271   */\n      dup4\n        /* \"#utility.yul\":12209:12276   */\n      tag_542\n      jump\t// in\n    tag_565:\n        /* \"#utility.yul\":12202:12276   */\n      swap2\n      pop\n        /* \"#utility.yul\":12306:12331   */\n      0x496e76616c696420636f6d706c61696e7420696e646578000000000000000000\n        /* \"#utility.yul\":12302:12303   */\n      0x00\n        /* \"#utility.yul\":12297:12300   */\n      dup4\n        /* \"#utility.yul\":12293:12304   */\n      add\n        /* \"#utility.yul\":12286:12332   */\n      mstore\n        /* \"#utility.yul\":12358:12360   */\n      0x20\n        /* \"#utility.yul\":12353:12356   */\n      dup3\n        /* \"#utility.yul\":12349:12361   */\n      add\n        /* \"#utility.yul\":12342:12361   */\n      swap1\n      pop\n        /* \"#utility.yul\":12192:12367   */\n      swap2\n      swap1\n      pop\n      jump\t// out\n        /* \"#utility.yul\":12373:12746   */\n    tag_566:\n      0x00\n        /* \"#utility.yul\":12536:12603   */\n      tag_568\n        /* \"#utility.yul\":12600:12602   */\n      0x29\n        /* \"#utility.yul\":12595:12598   */\n      dup4\n        /* \"#utility.yul\":12536:12603   */\n      tag_542\n      jump\t// in\n    tag_568:\n        /* \"#utility.yul\":12529:12603   */\n      swap2\n      pop\n        /* \"#utility.yul\":12633:12667   */\n      0x596f7520646f206e6f7420686176652061206c6561736520666f722074686973\n        /* \"#utility.yul\":12629:12630   */\n      0x00\n        /* \"#utility.yul\":12624:12627   */\n      dup4\n        /* \"#utility.yul\":12620:12631   */\n      add\n        /* \"#utility.yul\":12613:12668   */\n      mstore\n        /* \"#utility.yul\":12699:12710   */\n      0x2070726f70657274790000000000000000000000000000000000000000000000\n        /* \"#utility.yul\":12694:12696   */\n      0x20\n        /* \"#utility.yul\":12689:12692   */\n      dup4\n        /* \"#utility.yul\":12685:12697   */\n      add\n        /* \"#utility.yul\":12678:12711   */\n      mstore\n        /* \"#utility.yul\":12737:12739   */\n      0x40\n        /* \"#utility.yul\":12732:12735   */\n      dup3\n        /* \"#utility.yul\":12728:12740   */\n      add\n        /* \"#utility.yul\":12721:12740   */\n      swap1\n      pop\n        /* \"#utility.yul\":12519:12746   */\n      swap2\n      swap1\n      pop\n      jump\t// out\n        /* \"#utility.yul\":12752:13118   */\n    tag_569:\n      0x00\n        /* \"#utility.yul\":12915:12982   */\n      tag_571\n        /* \"#utility.yul\":12979:12981   */\n      0x22\n        /* \"#utility.yul\":12974:12977   */\n      dup4\n        /* \"#utility.yul\":12915:12982   */\n      tag_542\n      jump\t// in\n    tag_571:\n        /* \"#utility.yul\":12908:12982   */\n      swap2\n      pop\n        /* \"#utility.yul\":13012:13046   */\n      0x4f6e6c792074656e616e74732063616e2063726561746520636f6d706c61696e\n        /* \"#utility.yul\":13008:13009   */\n      0x00\n        /* \"#utility.yul\":13003:13006   */\n      dup4\n        /* \"#utility.yul\":12999:13010   */\n      add\n        /* \"#utility.yul\":12992:13047   */\n      mstore\n        /* \"#utility.yul\":13078:13082   */\n      0x7473000000000000000000000000000000000000000000000000000000000000\n        /* \"#utility.yul\":13073:13075   */\n      0x20\n        /* \"#utility.yul\":13068:13071   */\n      dup4\n        /* \"#utility.yul\":13064:13076   */\n      add\n        /* \"#utility.yul\":13057:13083   */\n      mstore\n        /* \"#utility.yul\":13109:13111   */\n      0x40\n        /* \"#utility.yul\":13104:13107   */\n      dup3\n        /* \"#utility.yul\":13100:13112   */\n      add\n        /* \"#utility.yul\":13093:13112   */\n      swap1\n      pop\n        /* \"#utility.yul\":12898:13118   */\n      swap2\n      swap1\n      pop\n      jump\t// out\n        /* \"#utility.yul\":13124:13498   */\n    tag_572:\n      0x00\n        /* \"#utility.yul\":13287:13354   */\n      tag_574\n        /* \"#utility.yul\":13351:13353   */\n      0x2a\n        /* \"#utility.yul\":13346:13349   */\n      dup4\n        /* \"#utility.yul\":13287:13354   */\n      tag_542\n      jump\t// in\n    tag_574:\n        /* \"#utility.yul\":13280:13354   */\n      swap2\n      pop\n        /* \"#utility.yul\":13384:13418   */\n      0x4f6e6c792074656e616e74732063616e2072657175657374206561726c792074\n        /* \"#utility.yul\":13380:13381   */\n      0x00\n        /* \"#utility.yul\":13375:13378   */\n      dup4\n        /* \"#utility.yul\":13371:13382   */\n      add\n        /* \"#utility.yul\":13364:13419   */\n      mstore\n        /* \"#utility.yul\":13450:13462   */\n      0x65726d696e6174696f6e00000000000000000000000000000000000000000000\n        /* \"#utility.yul\":13445:13447   */\n      0x20\n        /* \"#utility.yul\":13440:13443   */\n      dup4\n        /* \"#utility.yul\":13436:13448   */\n      add\n        /* \"#utility.yul\":13429:13463   */\n      mstore\n        /* \"#utility.yul\":13489:13491   */\n      0x40\n        /* \"#utility.yul\":13484:13487   */\n      dup3\n        /* \"#utility.yul\":13480:13492   */\n      add\n        /* \"#utility.yul\":13473:13492   */\n      swap1\n      pop\n        /* \"#utility.yul\":13270:13498   */\n      swap2\n      swap1\n      pop\n      jump\t// out\n        /* \"#utility.yul\":13504:13876   */\n    tag_575:\n      0x00\n        /* \"#utility.yul\":13667:13734   */\n      tag_577\n        /* \"#utility.yul\":13731:13733   */\n      0x28\n        /* \"#utility.yul\":13726:13729   */\n      dup4\n        /* \"#utility.yul\":13667:13734   */\n      tag_542\n      jump\t// in\n    tag_577:\n        /* \"#utility.yul\":13660:13734   */\n      swap2\n      pop\n        /* \"#utility.yul\":13764:13798   */\n      0x4f6e6c79206c616e646c6f7264732063616e20726573706f6e6420746f20636f\n        /* \"#utility.yul\":13760:13761   */\n      0x00\n        /* \"#utility.yul\":13755:13758   */\n      dup4\n        /* \"#utility.yul\":13751:13762   */\n      add\n        /* \"#utility.yul\":13744:13799   */\n      mstore\n        /* \"#utility.yul\":13830:13840   */\n      0x6d706c61696e7473000000000000000000000000000000000000000000000000\n        /* \"#utility.yul\":13825:13827   */\n      0x20\n        /* \"#utility.yul\":13820:13823   */\n      dup4\n        /* \"#utility.yul\":13816:13828   */\n      add\n        /* \"#utility.yul\":13809:13841   */\n      mstore\n        /* \"#utility.yul\":13867:13869   */\n      0x40\n        /* \"#utility.yul\":13862:13865   */\n      dup3\n        /* \"#utility.yul\":13858:13870   */\n      add\n        /* \"#utility.yul\":13851:13870   */\n      swap1\n      pop\n        /* \"#utility.yul\":13650:13876   */\n      swap2\n      swap1\n      pop\n      jump\t// out\n        /* \"#utility.yul\":13882:14250   */\n    tag_578:\n      0x00\n        /* \"#utility.yul\":14045:14112   */\n      tag_580\n        /* \"#utility.yul\":14109:14111   */\n      0x24\n        /* \"#utility.yul\":14104:14107   */\n      dup4\n        /* \"#utility.yul\":14045:14112   */\n      tag_542\n      jump\t// in\n    tag_580:\n        /* \"#utility.yul\":14038:14112   */\n      swap2\n      pop\n        /* \"#utility.yul\":14142:14176   */\n      0x4f6e6c79206c616e646c6f7264732063616e206372656174652070726f706572\n        /* \"#utility.yul\":14138:14139   */\n      0x00\n        /* \"#utility.yul\":14133:14136   */\n      dup4\n        /* \"#utility.yul\":14129:14140   */\n      add\n        /* \"#utility.yul\":14122:14177   */\n      mstore\n        /* \"#utility.yul\":14208:14214   */\n      0x7469657300000000000000000000000000000000000000000000000000000000\n        /* \"#utility.yul\":14203:14205   */\n      0x20\n        /* \"#utility.yul\":14198:14201   */\n      dup4\n        /* \"#utility.yul\":14194:14206   */\n      add\n        /* \"#utility.yul\":14187:14215   */\n      mstore\n        /* \"#utility.yul\":14241:14243   */\n      0x40\n        /* \"#utility.yul\":14236:14239   */\n      dup3\n        /* \"#utility.yul\":14232:14244   */\n      add\n        /* \"#utility.yul\":14225:14244   */\n      swap1\n      pop\n        /* \"#utility.yul\":14028:14250   */\n      swap2\n      swap1\n      pop\n      jump\t// out\n        /* \"#utility.yul\":14256:14575   */\n    tag_581:\n      0x00\n        /* \"#utility.yul\":14419:14486   */\n      tag_583\n        /* \"#utility.yul\":14483:14485   */\n      0x15\n        /* \"#utility.yul\":14478:14481   */\n      dup4\n        /* \"#utility.yul\":14419:14486   */\n      tag_542\n      jump\t// in\n    tag_583:\n        /* \"#utility.yul\":14412:14486   */\n      swap2\n      pop\n        /* \"#utility.yul\":14516:14539   */\n      0x496e76616c6964207265717565737420696e6465780000000000000000000000\n        /* \"#utility.yul\":14512:14513   */\n      0x00\n        /* \"#utility.yul\":14507:14510   */\n      dup4\n        /* \"#utility.yul\":14503:14514   */\n      add\n        /* \"#utility.yul\":14496:14540   */\n      mstore\n        /* \"#utility.yul\":14566:14568   */\n      0x20\n        /* \"#utility.yul\":14561:14564   */\n      dup3\n        /* \"#utility.yul\":14557:14569   */\n      add\n        /* \"#utility.yul\":14550:14569   */\n      swap1\n      pop\n        /* \"#utility.yul\":14402:14575   */\n      swap2\n      swap1\n      pop\n      jump\t// out\n        /* \"#utility.yul\":14581:14958   */\n    tag_584:\n      0x00\n        /* \"#utility.yul\":14744:14811   */\n      tag_586\n        /* \"#utility.yul\":14808:14810   */\n      0x2d\n        /* \"#utility.yul\":14803:14806   */\n      dup4\n        /* \"#utility.yul\":14744:14811   */\n      tag_542\n      jump\t// in\n    tag_586:\n        /* \"#utility.yul\":14737:14811   */\n      swap2\n      pop\n        /* \"#utility.yul\":14841:14875   */\n      0x596f752063616e206f6e6c7920636f6d706c61696e2061626f75742061207265\n        /* \"#utility.yul\":14837:14838   */\n      0x00\n        /* \"#utility.yul\":14832:14835   */\n      dup4\n        /* \"#utility.yul\":14828:14839   */\n      add\n        /* \"#utility.yul\":14821:14876   */\n      mstore\n        /* \"#utility.yul\":14907:14922   */\n      0x6e7465642070726f706572747900000000000000000000000000000000000000\n        /* \"#utility.yul\":14902:14904   */\n      0x20\n        /* \"#utility.yul\":14897:14900   */\n      dup4\n        /* \"#utility.yul\":14893:14905   */\n      add\n        /* \"#utility.yul\":14886:14923   */\n      mstore\n        /* \"#utility.yul\":14949:14951   */\n      0x40\n        /* \"#utility.yul\":14944:14947   */\n      dup3\n        /* \"#utility.yul\":14940:14952   */\n      add\n        /* \"#utility.yul\":14933:14952   */\n      swap1\n      pop\n        /* \"#utility.yul\":14727:14958   */\n      swap2\n      swap1\n      pop\n      jump\t// out\n        /* \"#utility.yul\":14964:15333   */\n    tag_587:\n      0x00\n        /* \"#utility.yul\":15127:15194   */\n      tag_589\n        /* \"#utility.yul\":15191:15193   */\n      0x25\n        /* \"#utility.yul\":15186:15189   */\n      dup4\n        /* \"#utility.yul\":15127:15194   */\n      tag_542\n      jump\t// in\n    tag_589:\n        /* \"#utility.yul\":15120:15194   */\n      swap2\n      pop\n        /* \"#utility.yul\":15224:15258   */\n      0x596f7520617265206e6f7420746865206f776e6572206f66207468652070726f\n        /* \"#utility.yul\":15220:15221   */\n      0x00\n        /* \"#utility.yul\":15215:15218   */\n      dup4\n        /* \"#utility.yul\":15211:15222   */\n      add\n        /* \"#utility.yul\":15204:15259   */\n      mstore\n        /* \"#utility.yul\":15290:15297   */\n      0x7065727479000000000000000000000000000000000000000000000000000000\n        /* \"#utility.yul\":15285:15287   */\n      0x20\n        /* \"#utility.yul\":15280:15283   */\n      dup4\n        /* \"#utility.yul\":15276:15288   */\n      add\n        /* \"#utility.yul\":15269:15298   */\n      mstore\n        /* \"#utility.yul\":15324:15326   */\n      0x40\n        /* \"#utility.yul\":15319:15322   */\n      dup3\n        /* \"#utility.yul\":15315:15327   */\n      add\n        /* \"#utility.yul\":15308:15327   */\n      swap1\n      pop\n        /* \"#utility.yul\":15110:15333   */\n      swap2\n      swap1\n      pop\n      jump\t// out\n        /* \"#utility.yul\":15339:15457   */\n    tag_590:\n        /* \"#utility.yul\":15426:15450   */\n      tag_592\n        /* \"#utility.yul\":15444:15449   */\n      dup2\n        /* \"#utility.yul\":15426:15450   */\n      tag_593\n      jump\t// in\n    tag_592:\n        /* \"#utility.yul\":15421:15424   */\n      dup3\n        /* \"#utility.yul\":15414:15451   */\n      mstore\n        /* \"#utility.yul\":15404:15457   */\n      pop\n      pop\n      jump\t// out\n        /* \"#utility.yul\":15463:15685   */\n    tag_105:\n      0x00\n        /* \"#utility.yul\":15594:15596   */\n      0x20\n        /* \"#utility.yul\":15583:15592   */\n      dup3\n        /* \"#utility.yul\":15579:15597   */\n      add\n        /* \"#utility.yul\":15571:15597   */\n      swap1\n      pop\n        /* \"#utility.yul\":15607:15678   */\n      tag_595\n        /* \"#utility.yul\":15675:15676   */\n      0x00\n        /* \"#utility.yul\":15664:15673   */\n      dup4\n        /* \"#utility.yul\":15660:15677   */\n      add\n        /* \"#utility.yul\":15651:15657   */\n      dup5\n        /* \"#utility.yul\":15607:15678   */\n      tag_474\n      jump\t// in\n    tag_595:\n        /* \"#utility.yul\":15561:15685   */\n      swap3\n      swap2\n      pop\n      pop\n      jump\t// out\n        /* \"#utility.yul\":15691:16422   */\n    tag_82:\n      0x00\n        /* \"#utility.yul\":15944:15947   */\n      0x80\n        /* \"#utility.yul\":15933:15942   */\n      dup3\n        /* \"#utility.yul\":15929:15948   */\n      add\n        /* \"#utility.yul\":15921:15948   */\n      swap1\n      pop\n        /* \"#utility.yul\":15958:16029   */\n      tag_597\n        /* \"#utility.yul\":16026:16027   */\n      0x00\n        /* \"#utility.yul\":16015:16024   */\n      dup4\n        /* \"#utility.yul\":16011:16028   */\n      add\n        /* \"#utility.yul\":16002:16008   */\n      dup8\n        /* \"#utility.yul\":15958:16029   */\n      tag_474\n      jump\t// in\n    tag_597:\n        /* \"#utility.yul\":16039:16109   */\n      tag_598\n        /* \"#utility.yul\":16105:16107   */\n      0x20\n        /* \"#utility.yul\":16094:16103   */\n      dup4\n        /* \"#utility.yul\":16090:16108   */\n      add\n        /* \"#utility.yul\":16081:16087   */\n      dup7\n        /* \"#utility.yul\":16039:16109   */\n      tag_526\n      jump\t// in\n    tag_598:\n        /* \"#utility.yul\":16156:16165   */\n      dup2\n        /* \"#utility.yul\":16150:16154   */\n      dup2\n        /* \"#utility.yul\":16146:16166   */\n      sub\n        /* \"#utility.yul\":16141:16143   */\n      0x40\n        /* \"#utility.yul\":16130:16139   */\n      dup4\n        /* \"#utility.yul\":16126:16144   */\n      add\n        /* \"#utility.yul\":16119:16167   */\n      mstore\n        /* \"#utility.yul\":16184:16262   */\n      tag_599\n        /* \"#utility.yul\":16257:16261   */\n      dup2\n        /* \"#utility.yul\":16248:16254   */\n      dup6\n        /* \"#utility.yul\":16184:16262   */\n      tag_538\n      jump\t// in\n    tag_599:\n        /* \"#utility.yul\":16176:16262   */\n      swap1\n      pop\n        /* \"#utility.yul\":16309:16318   */\n      dup2\n        /* \"#utility.yul\":16303:16307   */\n      dup2\n        /* \"#utility.yul\":16299:16319   */\n      sub\n        /* \"#utility.yul\":16294:16296   */\n      0x60\n        /* \"#utility.yul\":16283:16292   */\n      dup4\n        /* \"#utility.yul\":16279:16297   */\n      add\n        /* \"#utility.yul\":16272:16320   */\n      mstore\n        /* \"#utility.yul\":16337:16415   */\n      tag_600\n        /* \"#utility.yul\":16410:16414   */\n      dup2\n        /* \"#utility.yul\":16401:16407   */\n      dup5\n        /* \"#utility.yul\":16337:16415   */\n      tag_538\n      jump\t// in\n    tag_600:\n        /* \"#utility.yul\":16329:16415   */\n      swap1\n      pop\n        /* \"#utility.yul\":15911:16422   */\n      swap6\n      swap5\n      pop\n      pop\n      pop\n      pop\n      pop\n      jump\t// out\n        /* \"#utility.yul\":16428:16965   */\n    tag_72:\n      0x00\n        /* \"#utility.yul\":16635:16638   */\n      0x80\n        /* \"#utility.yul\":16624:16633   */\n      dup3\n        /* \"#utility.yul\":16620:16639   */\n      add\n        /* \"#utility.yul\":16612:16639   */\n      swap1\n      pop\n        /* \"#utility.yul\":16649:16720   */\n      tag_602\n        /* \"#utility.yul\":16717:16718   */\n      0x00\n        /* \"#utility.yul\":16706:16715   */\n      dup4\n        /* \"#utility.yul\":16702:16719   */\n      add\n        /* \"#utility.yul\":16693:16699   */\n      dup8\n        /* \"#utility.yul\":16649:16720   */\n      tag_474\n      jump\t// in\n    tag_602:\n        /* \"#utility.yul\":16730:16800   */\n      tag_603\n        /* \"#utility.yul\":16796:16798   */\n      0x20\n        /* \"#utility.yul\":16785:16794   */\n      dup4\n        /* \"#utility.yul\":16781:16799   */\n      add\n        /* \"#utility.yul\":16772:16778   */\n      dup7\n        /* \"#utility.yul\":16730:16800   */\n      tag_526\n      jump\t// in\n    tag_603:\n        /* \"#utility.yul\":16810:16882   */\n      tag_604\n        /* \"#utility.yul\":16878:16880   */\n      0x40\n        /* \"#utility.yul\":16867:16876   */\n      dup4\n        /* \"#utility.yul\":16863:16881   */\n      add\n        /* \"#utility.yul\":16854:16860   */\n      dup6\n        /* \"#utility.yul\":16810:16882   */\n      tag_590\n      jump\t// in\n    tag_604:\n        /* \"#utility.yul\":16892:16958   */\n      tag_605\n        /* \"#utility.yul\":16954:16956   */\n      0x60\n        /* \"#utility.yul\":16943:16952   */\n      dup4\n        /* \"#utility.yul\":16939:16957   */\n      add\n        /* \"#utility.yul\":16930:16936   */\n      dup5\n        /* \"#utility.yul\":16892:16958   */\n      tag_519\n      jump\t// in\n    tag_605:\n        /* \"#utility.yul\":16602:16965   */\n      swap6\n      swap5\n      pop\n      pop\n      pop\n      pop\n      pop\n      jump\t// out\n        /* \"#utility.yul\":16971:17520   */\n    tag_87:\n      0x00\n        /* \"#utility.yul\":17184:17187   */\n      0x80\n        /* \"#utility.yul\":17173:17182   */\n      dup3\n        /* \"#utility.yul\":17169:17188   */\n      add\n        /* \"#utility.yul\":17161:17188   */\n      swap1\n      pop\n        /* \"#utility.yul\":17198:17269   */\n      tag_607\n        /* \"#utility.yul\":17266:17267   */\n      0x00\n        /* \"#utility.yul\":17255:17264   */\n      dup4\n        /* \"#utility.yul\":17251:17268   */\n      add\n        /* \"#utility.yul\":17242:17248   */\n      dup8\n        /* \"#utility.yul\":17198:17269   */\n      tag_474\n      jump\t// in\n    tag_607:\n        /* \"#utility.yul\":17279:17349   */\n      tag_608\n        /* \"#utility.yul\":17345:17347   */\n      0x20\n        /* \"#utility.yul\":17334:17343   */\n      dup4\n        /* \"#utility.yul\":17330:17348   */\n      add\n        /* \"#utility.yul\":17321:17327   */\n      dup7\n        /* \"#utility.yul\":17279:17349   */\n      tag_526\n      jump\t// in\n    tag_608:\n        /* \"#utility.yul\":17359:17431   */\n      tag_609\n        /* \"#utility.yul\":17427:17429   */\n      0x40\n        /* \"#utility.yul\":17416:17425   */\n      dup4\n        /* \"#utility.yul\":17412:17430   */\n      add\n        /* \"#utility.yul\":17403:17409   */\n      dup6\n        /* \"#utility.yul\":17359:17431   */\n      tag_590\n      jump\t// in\n    tag_609:\n        /* \"#utility.yul\":17441:17513   */\n      tag_610\n        /* \"#utility.yul\":17509:17511   */\n      0x60\n        /* \"#utility.yul\":17498:17507   */\n      dup4\n        /* \"#utility.yul\":17494:17512   */\n      add\n        /* \"#utility.yul\":17485:17491   */\n      dup5\n        /* \"#utility.yul\":17441:17513   */\n      tag_590\n      jump\t// in\n    tag_610:\n        /* \"#utility.yul\":17151:17520   */\n      swap6\n      swap5\n      pop\n      pop\n      pop\n      pop\n      pop\n      jump\t// out\n        /* \"#utility.yul\":17526:17899   */\n    tag_95:\n      0x00\n        /* \"#utility.yul\":17707:17709   */\n      0x20\n        /* \"#utility.yul\":17696:17705   */\n      dup3\n        /* \"#utility.yul\":17692:17710   */\n      add\n        /* \"#utility.yul\":17684:17710   */\n      swap1\n      pop\n        /* \"#utility.yul\":17756:17765   */\n      dup2\n        /* \"#utility.yul\":17750:17754   */\n      dup2\n        /* \"#utility.yul\":17746:17766   */\n      sub\n        /* \"#utility.yul\":17742:17743   */\n      0x00\n        /* \"#utility.yul\":17731:17740   */\n      dup4\n        /* \"#utility.yul\":17727:17744   */\n      add\n        /* \"#utility.yul\":17720:17767   */\n      mstore\n        /* \"#utility.yul\":17784:17892   */\n      tag_612\n        /* \"#utility.yul\":17887:17891   */\n      dup2\n        /* \"#utility.yul\":17878:17884   */\n      dup5\n        /* \"#utility.yul\":17784:17892   */\n      tag_477\n      jump\t// in\n    tag_612:\n        /* \"#utility.yul\":17776:17892   */\n      swap1\n      pop\n        /* \"#utility.yul\":17674:17899   */\n      swap3\n      swap2\n      pop\n      pop\n      jump\t// out\n        /* \"#utility.yul\":17905:18876   */\n    tag_54:\n      0x00\n        /* \"#utility.yul\":18280:18282   */\n      0x60\n        /* \"#utility.yul\":18269:18278   */\n      dup3\n        /* \"#utility.yul\":18265:18283   */\n      add\n        /* \"#utility.yul\":18257:18283   */\n      swap1\n      pop\n        /* \"#utility.yul\":18329:18338   */\n      dup2\n        /* \"#utility.yul\":18323:18327   */\n      dup2\n        /* \"#utility.yul\":18319:18339   */\n      sub\n        /* \"#utility.yul\":18315:18316   */\n      0x00\n        /* \"#utility.yul\":18304:18313   */\n      dup4\n        /* \"#utility.yul\":18300:18317   */\n      add\n        /* \"#utility.yul\":18293:18340   */\n      mstore\n        /* \"#utility.yul\":18357:18463   */\n      tag_614\n        /* \"#utility.yul\":18458:18462   */\n      dup2\n        /* \"#utility.yul\":18449:18455   */\n      dup7\n        /* \"#utility.yul\":18357:18463   */\n      tag_491\n      jump\t// in\n    tag_614:\n        /* \"#utility.yul\":18349:18463   */\n      swap1\n      pop\n        /* \"#utility.yul\":18510:18519   */\n      dup2\n        /* \"#utility.yul\":18504:18508   */\n      dup2\n        /* \"#utility.yul\":18500:18520   */\n      sub\n        /* \"#utility.yul\":18495:18497   */\n      0x20\n        /* \"#utility.yul\":18484:18493   */\n      dup4\n        /* \"#utility.yul\":18480:18498   */\n      add\n        /* \"#utility.yul\":18473:18521   */\n      mstore\n        /* \"#utility.yul\":18538:18666   */\n      tag_615\n        /* \"#utility.yul\":18661:18665   */\n      dup2\n        /* \"#utility.yul\":18652:18658   */\n      dup6\n        /* \"#utility.yul\":18538:18666   */\n      tag_505\n      jump\t// in\n    tag_615:\n        /* \"#utility.yul\":18530:18666   */\n      swap1\n      pop\n        /* \"#utility.yul\":18713:18722   */\n      dup2\n        /* \"#utility.yul\":18707:18711   */\n      dup2\n        /* \"#utility.yul\":18703:18723   */\n      sub\n        /* \"#utility.yul\":18698:18700   */\n      0x40\n        /* \"#utility.yul\":18687:18696   */\n      dup4\n        /* \"#utility.yul\":18683:18701   */\n      add\n        /* \"#utility.yul\":18676:18724   */\n      mstore\n        /* \"#utility.yul\":18741:18869   */\n      tag_616\n        /* \"#utility.yul\":18864:18868   */\n      dup2\n        /* \"#utility.yul\":18855:18861   */\n      dup5\n        /* \"#utility.yul\":18741:18869   */\n      tag_505\n      jump\t// in\n    tag_616:\n        /* \"#utility.yul\":18733:18869   */\n      swap1\n      pop\n        /* \"#utility.yul\":18247:18876   */\n      swap5\n      swap4\n      pop\n      pop\n      pop\n      pop\n      jump\t// out\n        /* \"#utility.yul\":18882:20115   */\n    tag_100:\n      0x00\n        /* \"#utility.yul\":19335:19338   */\n      0x80\n        /* \"#utility.yul\":19324:19333   */\n      dup3\n        /* \"#utility.yul\":19320:19339   */\n      add\n        /* \"#utility.yul\":19312:19339   */\n      swap1\n      pop\n        /* \"#utility.yul\":19385:19394   */\n      dup2\n        /* \"#utility.yul\":19379:19383   */\n      dup2\n        /* \"#utility.yul\":19375:19395   */\n      sub\n        /* \"#utility.yul\":19371:19372   */\n      0x00\n        /* \"#utility.yul\":19360:19369   */\n      dup4\n        /* \"#utility.yul\":19356:19373   */\n      add\n        /* \"#utility.yul\":19349:19396   */\n      mstore\n        /* \"#utility.yul\":19413:19519   */\n      tag_618\n        /* \"#utility.yul\":19514:19518   */\n      dup2\n        /* \"#utility.yul\":19505:19511   */\n      dup8\n        /* \"#utility.yul\":19413:19519   */\n      tag_491\n      jump\t// in\n    tag_618:\n        /* \"#utility.yul\":19405:19519   */\n      swap1\n      pop\n        /* \"#utility.yul\":19566:19575   */\n      dup2\n        /* \"#utility.yul\":19560:19564   */\n      dup2\n        /* \"#utility.yul\":19556:19576   */\n      sub\n        /* \"#utility.yul\":19551:19553   */\n      0x20\n        /* \"#utility.yul\":19540:19549   */\n      dup4\n        /* \"#utility.yul\":19536:19554   */\n      add\n        /* \"#utility.yul\":19529:19577   */\n      mstore\n        /* \"#utility.yul\":19594:19722   */\n      tag_619\n        /* \"#utility.yul\":19717:19721   */\n      dup2\n        /* \"#utility.yul\":19708:19714   */\n      dup7\n        /* \"#utility.yul\":19594:19722   */\n      tag_505\n      jump\t// in\n    tag_619:\n        /* \"#utility.yul\":19586:19722   */\n      swap1\n      pop\n        /* \"#utility.yul\":19769:19778   */\n      dup2\n        /* \"#utility.yul\":19763:19767   */\n      dup2\n        /* \"#utility.yul\":19759:19779   */\n      sub\n        /* \"#utility.yul\":19754:19756   */\n      0x40\n        /* \"#utility.yul\":19743:19752   */\n      dup4\n        /* \"#utility.yul\":19739:19757   */\n      add\n        /* \"#utility.yul\":19732:19780   */\n      mstore\n        /* \"#utility.yul\":19797:19925   */\n      tag_620\n        /* \"#utility.yul\":19920:19924   */\n      dup2\n        /* \"#utility.yul\":19911:19917   */\n      dup6\n        /* \"#utility.yul\":19797:19925   */\n      tag_505\n      jump\t// in\n    tag_620:\n        /* \"#utility.yul\":19789:19925   */\n      swap1\n      pop\n        /* \"#utility.yul\":19972:19981   */\n      dup2\n        /* \"#utility.yul\":19966:19970   */\n      dup2\n        /* \"#utility.yul\":19962:19982   */\n      sub\n        /* \"#utility.yul\":19957:19959   */\n      0x60\n        /* \"#utility.yul\":19946:19955   */\n      dup4\n        /* \"#utility.yul\":19942:19960   */\n      add\n        /* \"#utility.yul\":19935:19983   */\n      mstore\n        /* \"#utility.yul\":20000:20108   */\n      tag_621\n        /* \"#utility.yul\":20103:20107   */\n      dup2\n        /* \"#utility.yul\":20094:20100   */\n      dup5\n        /* \"#utility.yul\":20000:20108   */\n      tag_477\n      jump\t// in\n    tag_621:\n        /* \"#utility.yul\":19992:20108   */\n      swap1\n      pop\n        /* \"#utility.yul\":19302:20115   */\n      swap6\n      swap5\n      pop\n      pop\n      pop\n      pop\n      pop\n      jump\t// out\n        /* \"#utility.yul\":20121:21394   */\n    tag_62:\n      0x00\n        /* \"#utility.yul\":20594:20597   */\n      0x80\n        /* \"#utility.yul\":20583:20592   */\n      dup3\n        /* \"#utility.yul\":20579:20598   */\n      add\n        /* \"#utility.yul\":20571:20598   */\n      swap1\n      pop\n        /* \"#utility.yul\":20644:20653   */\n      dup2\n        /* \"#utility.yul\":20638:20642   */\n      dup2\n        /* \"#utility.yul\":20634:20654   */\n      sub\n        /* \"#utility.yul\":20630:20631   */\n      0x00\n        /* \"#utility.yul\":20619:20628   */\n      dup4\n        /* \"#utility.yul\":20615:20632   */\n      add\n        /* \"#utility.yul\":20608:20655   */\n      mstore\n        /* \"#utility.yul\":20672:20778   */\n      tag_623\n        /* \"#utility.yul\":20773:20777   */\n      dup2\n        /* \"#utility.yul\":20764:20770   */\n      dup8\n        /* \"#utility.yul\":20672:20778   */\n      tag_491\n      jump\t// in\n    tag_623:\n        /* \"#utility.yul\":20664:20778   */\n      swap1\n      pop\n        /* \"#utility.yul\":20825:20834   */\n      dup2\n        /* \"#utility.yul\":20819:20823   */\n      dup2\n        /* \"#utility.yul\":20815:20835   */\n      sub\n        /* \"#utility.yul\":20810:20812   */\n      0x20\n        /* \"#utility.yul\":20799:20808   */\n      dup4\n        /* \"#utility.yul\":20795:20813   */\n      add\n        /* \"#utility.yul\":20788:20836   */\n      mstore\n        /* \"#utility.yul\":20853:20981   */\n      tag_624\n        /* \"#utility.yul\":20976:20980   */\n      dup2\n        /* \"#utility.yul\":20967:20973   */\n      dup7\n        /* \"#utility.yul\":20853:20981   */\n      tag_505\n      jump\t// in\n    tag_624:\n        /* \"#utility.yul\":20845:20981   */\n      swap1\n      pop\n        /* \"#utility.yul\":21028:21037   */\n      dup2\n        /* \"#utility.yul\":21022:21026   */\n      dup2\n        /* \"#utility.yul\":21018:21038   */\n      sub\n        /* \"#utility.yul\":21013:21015   */\n      0x40\n        /* \"#utility.yul\":21002:21011   */\n      dup4\n        /* \"#utility.yul\":20998:21016   */\n      add\n        /* \"#utility.yul\":20991:21039   */\n      mstore\n        /* \"#utility.yul\":21056:21184   */\n      tag_625\n        /* \"#utility.yul\":21179:21183   */\n      dup2\n        /* \"#utility.yul\":21170:21176   */\n      dup6\n        /* \"#utility.yul\":21056:21184   */\n      tag_505\n      jump\t// in\n    tag_625:\n        /* \"#utility.yul\":21048:21184   */\n      swap1\n      pop\n        /* \"#utility.yul\":21231:21240   */\n      dup2\n        /* \"#utility.yul\":21225:21229   */\n      dup2\n        /* \"#utility.yul\":21221:21241   */\n      sub\n        /* \"#utility.yul\":21216:21218   */\n      0x60\n        /* \"#utility.yul\":21205:21214   */\n      dup4\n        /* \"#utility.yul\":21201:21219   */\n      add\n        /* \"#utility.yul\":21194:21242   */\n      mstore\n        /* \"#utility.yul\":21259:21387   */\n      tag_626\n        /* \"#utility.yul\":21382:21386   */\n      dup2\n        /* \"#utility.yul\":21373:21379   */\n      dup5\n        /* \"#utility.yul\":21259:21387   */\n      tag_505\n      jump\t// in\n    tag_626:\n        /* \"#utility.yul\":21251:21387   */\n      swap1\n      pop\n        /* \"#utility.yul\":20561:21394   */\n      swap6\n      swap5\n      pop\n      pop\n      pop\n      pop\n      pop\n      jump\t// out\n        /* \"#utility.yul\":21400:21618   */\n    tag_31:\n      0x00\n        /* \"#utility.yul\":21529:21531   */\n      0x20\n        /* \"#utility.yul\":21518:21527   */\n      dup3\n        /* \"#utility.yul\":21514:21532   */\n      add\n        /* \"#utility.yul\":21506:21532   */\n      swap1\n      pop\n        /* \"#utility.yul\":21542:21611   */\n      tag_628\n        /* \"#utility.yul\":21608:21609   */\n      0x00\n        /* \"#utility.yul\":21597:21606   */\n      dup4\n        /* \"#utility.yul\":21593:21610   */\n      add\n        /* \"#utility.yul\":21584:21590   */\n      dup5\n        /* \"#utility.yul\":21542:21611   */\n      tag_526\n      jump\t// in\n    tag_628:\n        /* \"#utility.yul\":21496:21618   */\n      swap3\n      swap2\n      pop\n      pop\n      jump\t// out\n        /* \"#utility.yul\":21624:22565   */\n    tag_77:\n      0x00\n        /* \"#utility.yul\":21927:21930   */\n      0xc0\n        /* \"#utility.yul\":21916:21925   */\n      dup3\n        /* \"#utility.yul\":21912:21931   */\n      add\n        /* \"#utility.yul\":21904:21931   */\n      swap1\n      pop\n        /* \"#utility.yul\":21941:22010   */\n      tag_630\n        /* \"#utility.yul\":22007:22008   */\n      0x00\n        /* \"#utility.yul\":21996:22005   */\n      dup4\n        /* \"#utility.yul\":21992:22009   */\n      add\n        /* \"#utility.yul\":21983:21989   */\n      dup10\n        /* \"#utility.yul\":21941:22010   */\n      tag_526\n      jump\t// in\n    tag_630:\n        /* \"#utility.yul\":22057:22066   */\n      dup2\n        /* \"#utility.yul\":22051:22055   */\n      dup2\n        /* \"#utility.yul\":22047:22067   */\n      sub\n        /* \"#utility.yul\":22042:22044   */\n      0x20\n        /* \"#utility.yul\":22031:22040   */\n      dup4\n        /* \"#utility.yul\":22027:22045   */\n      add\n        /* \"#utility.yul\":22020:22068   */\n      mstore\n        /* \"#utility.yul\":22085:22163   */\n      tag_631\n        /* \"#utility.yul\":22158:22162   */\n      dup2\n        /* \"#utility.yul\":22149:22155   */\n      dup9\n        /* \"#utility.yul\":22085:22163   */\n      tag_538\n      jump\t// in\n    tag_631:\n        /* \"#utility.yul\":22077:22163   */\n      swap1\n      pop\n        /* \"#utility.yul\":22210:22219   */\n      dup2\n        /* \"#utility.yul\":22204:22208   */\n      dup2\n        /* \"#utility.yul\":22200:22220   */\n      sub\n        /* \"#utility.yul\":22195:22197   */\n      0x40\n        /* \"#utility.yul\":22184:22193   */\n      dup4\n        /* \"#utility.yul\":22180:22198   */\n      add\n        /* \"#utility.yul\":22173:22221   */\n      mstore\n        /* \"#utility.yul\":22238:22316   */\n      tag_632\n        /* \"#utility.yul\":22311:22315   */\n      dup2\n        /* \"#utility.yul\":22302:22308   */\n      dup8\n        /* \"#utility.yul\":22238:22316   */\n      tag_538\n      jump\t// in\n    tag_632:\n        /* \"#utility.yul\":22230:22316   */\n      swap1\n      pop\n        /* \"#utility.yul\":22326:22398   */\n      tag_633\n        /* \"#utility.yul\":22394:22396   */\n      0x60\n        /* \"#utility.yul\":22383:22392   */\n      dup4\n        /* \"#utility.yul\":22379:22397   */\n      add\n        /* \"#utility.yul\":22370:22376   */\n      dup7\n        /* \"#utility.yul\":22326:22398   */\n      tag_474\n      jump\t// in\n    tag_633:\n        /* \"#utility.yul\":22408:22475   */\n      tag_634\n        /* \"#utility.yul\":22470:22473   */\n      0x80\n        /* \"#utility.yul\":22459:22468   */\n      dup4\n        /* \"#utility.yul\":22455:22474   */\n      add\n        /* \"#utility.yul\":22446:22452   */\n      dup6\n        /* \"#utility.yul\":22408:22475   */\n      tag_519\n      jump\t// in\n    tag_634:\n        /* \"#utility.yul\":22485:22558   */\n      tag_635\n        /* \"#utility.yul\":22553:22556   */\n      0xa0\n        /* \"#utility.yul\":22542:22551   */\n      dup4\n        /* \"#utility.yul\":22538:22557   */\n      add\n        /* \"#utility.yul\":22529:22535   */\n      dup5\n        /* \"#utility.yul\":22485:22558   */\n      tag_474\n      jump\t// in\n    tag_635:\n        /* \"#utility.yul\":21894:22565   */\n      swap8\n      swap7\n      pop\n      pop\n      pop\n      pop\n      pop\n      pop\n      pop\n      jump\t// out\n        /* \"#utility.yul\":22571:23080   */\n    tag_111:\n      0x00\n        /* \"#utility.yul\":22766:22768   */\n      0x60\n        /* \"#utility.yul\":22755:22764   */\n      dup3\n        /* \"#utility.yul\":22751:22769   */\n      add\n        /* \"#utility.yul\":22743:22769   */\n      swap1\n      pop\n        /* \"#utility.yul\":22815:22824   */\n      dup2\n        /* \"#utility.yul\":22809:22813   */\n      dup2\n        /* \"#utility.yul\":22805:22825   */\n      sub\n        /* \"#utility.yul\":22801:22802   */\n      0x00\n        /* \"#utility.yul\":22790:22799   */\n      dup4\n        /* \"#utility.yul\":22786:22803   */\n      add\n        /* \"#utility.yul\":22779:22826   */\n      mstore\n        /* \"#utility.yul\":22843:22921   */\n      tag_637\n        /* \"#utility.yul\":22916:22920   */\n      dup2\n        /* \"#utility.yul\":22907:22913   */\n      dup7\n        /* \"#utility.yul\":22843:22921   */\n      tag_538\n      jump\t// in\n    tag_637:\n        /* \"#utility.yul\":22835:22921   */\n      swap1\n      pop\n        /* \"#utility.yul\":22931:22997   */\n      tag_638\n        /* \"#utility.yul\":22993:22995   */\n      0x20\n        /* \"#utility.yul\":22982:22991   */\n      dup4\n        /* \"#utility.yul\":22978:22996   */\n      add\n        /* \"#utility.yul\":22969:22975   */\n      dup6\n        /* \"#utility.yul\":22931:22997   */\n      tag_519\n      jump\t// in\n    tag_638:\n        /* \"#utility.yul\":23007:23073   */\n      tag_639\n        /* \"#utility.yul\":23069:23071   */\n      0x40\n        /* \"#utility.yul\":23058:23067   */\n      dup4\n        /* \"#utility.yul\":23054:23072   */\n      add\n        /* \"#utility.yul\":23045:23051   */\n      dup5\n        /* \"#utility.yul\":23007:23073   */\n      tag_519\n      jump\t// in\n    tag_639:\n        /* \"#utility.yul\":22733:23080   */\n      swap5\n      swap4\n      pop\n      pop\n      pop\n      pop\n      jump\t// out\n        /* \"#utility.yul\":23086:23505   */\n    tag_360:\n      0x00\n        /* \"#utility.yul\":23290:23292   */\n      0x20\n        /* \"#utility.yul\":23279:23288   */\n      dup3\n        /* \"#utility.yul\":23275:23293   */\n      add\n        /* \"#utility.yul\":23267:23293   */\n      swap1\n      pop\n        /* \"#utility.yul\":23339:23348   */\n      dup2\n        /* \"#utility.yul\":23333:23337   */\n      dup2\n        /* \"#utility.yul\":23329:23349   */\n      sub\n        /* \"#utility.yul\":23325:23326   */\n      0x00\n        /* \"#utility.yul\":23314:23323   */\n      dup4\n        /* \"#utility.yul\":23310:23327   */\n      add\n        /* \"#utility.yul\":23303:23350   */\n      mstore\n        /* \"#utility.yul\":23367:23498   */\n      tag_641\n        /* \"#utility.yul\":23493:23497   */\n      dup2\n        /* \"#utility.yul\":23367:23498   */\n      tag_545\n      jump\t// in\n    tag_641:\n        /* \"#utility.yul\":23359:23498   */\n      swap1\n      pop\n        /* \"#utility.yul\":23257:23505   */\n      swap2\n      swap1\n      pop\n      jump\t// out\n        /* \"#utility.yul\":23511:23930   */\n    tag_355:\n      0x00\n        /* \"#utility.yul\":23715:23717   */\n      0x20\n        /* \"#utility.yul\":23704:23713   */\n      dup3\n        /* \"#utility.yul\":23700:23718   */\n      add\n        /* \"#utility.yul\":23692:23718   */\n      swap1\n      pop\n        /* \"#utility.yul\":23764:23773   */\n      dup2\n        /* \"#utility.yul\":23758:23762   */\n      dup2\n        /* \"#utility.yul\":23754:23774   */\n      sub\n        /* \"#utility.yul\":23750:23751   */\n      0x00\n        /* \"#utility.yul\":23739:23748   */\n      dup4\n        /* \"#utility.yul\":23735:23752   */\n      add\n        /* \"#utility.yul\":23728:23775   */\n      mstore\n        /* \"#utility.yul\":23792:23923   */\n      tag_643\n        /* \"#utility.yul\":23918:23922   */\n      dup2\n        /* \"#utility.yul\":23792:23923   */\n      tag_548\n      jump\t// in\n    tag_643:\n        /* \"#utility.yul\":23784:23923   */\n      swap1\n      pop\n        /* \"#utility.yul\":23682:23930   */\n      swap2\n      swap1\n      pop\n      jump\t// out\n        /* \"#utility.yul\":23936:24355   */\n    tag_191:\n      0x00\n        /* \"#utility.yul\":24140:24142   */\n      0x20\n        /* \"#utility.yul\":24129:24138   */\n      dup3\n        /* \"#utility.yul\":24125:24143   */\n      add\n        /* \"#utility.yul\":24117:24143   */\n      swap1\n      pop\n        /* \"#utility.yul\":24189:24198   */\n      dup2\n        /* \"#utility.yul\":24183:24187   */\n      dup2\n        /* \"#utility.yul\":24179:24199   */\n      sub\n        /* \"#utility.yul\":24175:24176   */\n      0x00\n        /* \"#utility.yul\":24164:24173   */\n      dup4\n        /* \"#utility.yul\":24160:24177   */\n      add\n        /* \"#utility.yul\":24153:24200   */\n      mstore\n        /* \"#utility.yul\":24217:24348   */\n      tag_645\n        /* \"#utility.yul\":24343:24347   */\n      dup2\n        /* \"#utility.yul\":24217:24348   */\n      tag_551\n      jump\t// in\n    tag_645:\n        /* \"#utility.yul\":24209:24348   */\n      swap1\n      pop\n        /* \"#utility.yul\":24107:24355   */\n      swap2\n      swap1\n      pop\n      jump\t// out\n        /* \"#utility.yul\":24361:24780   */\n    tag_376:\n      0x00\n        /* \"#utility.yul\":24565:24567   */\n      0x20\n        /* \"#utility.yul\":24554:24563   */\n      dup3\n        /* \"#utility.yul\":24550:24568   */\n      add\n        /* \"#utility.yul\":24542:24568   */\n      swap1\n      pop\n        /* \"#utility.yul\":24614:24623   */\n      dup2\n        /* \"#utility.yul\":24608:24612   */\n      dup2\n        /* \"#utility.yul\":24604:24624   */\n      sub\n        /* \"#utility.yul\":24600:24601   */\n      0x00\n        /* \"#utility.yul\":24589:24598   */\n      dup4\n        /* \"#utility.yul\":24585:24602   */\n      add\n        /* \"#utility.yul\":24578:24625   */\n      mstore\n        /* \"#utility.yul\":24642:24773   */\n      tag_647\n        /* \"#utility.yul\":24768:24772   */\n      dup2\n        /* \"#utility.yul\":24642:24773   */\n      tag_554\n      jump\t// in\n    tag_647:\n        /* \"#utility.yul\":24634:24773   */\n      swap1\n      pop\n        /* \"#utility.yul\":24532:24780   */\n      swap2\n      swap1\n      pop\n      jump\t// out\n        /* \"#utility.yul\":24786:25205   */\n    tag_373:\n      0x00\n        /* \"#utility.yul\":24990:24992   */\n      0x20\n        /* \"#utility.yul\":24979:24988   */\n      dup3\n        /* \"#utility.yul\":24975:24993   */\n      add\n        /* \"#utility.yul\":24967:24993   */\n      swap1\n      pop\n        /* \"#utility.yul\":25039:25048   */\n      dup2\n        /* \"#utility.yul\":25033:25037   */\n      dup2\n        /* \"#utility.yul\":25029:25049   */\n      sub\n        /* \"#utility.yul\":25025:25026   */\n      0x00\n        /* \"#utility.yul\":25014:25023   */\n      dup4\n        /* \"#utility.yul\":25010:25027   */\n      add\n        /* \"#utility.yul\":25003:25050   */\n      mstore\n        /* \"#utility.yul\":25067:25198   */\n      tag_649\n        /* \"#utility.yul\":25193:25197   */\n      dup2\n        /* \"#utility.yul\":25067:25198   */\n      tag_557\n      jump\t// in\n    tag_649:\n        /* \"#utility.yul\":25059:25198   */\n      swap1\n      pop\n        /* \"#utility.yul\":24957:25205   */\n      swap2\n      swap1\n      pop\n      jump\t// out\n        /* \"#utility.yul\":25211:25630   */\n    tag_136:\n      0x00\n        /* \"#utility.yul\":25415:25417   */\n      0x20\n        /* \"#utility.yul\":25404:25413   */\n      dup3\n        /* \"#utility.yul\":25400:25418   */\n      add\n        /* \"#utility.yul\":25392:25418   */\n      swap1\n      pop\n        /* \"#utility.yul\":25464:25473   */\n      dup2\n        /* \"#utility.yul\":25458:25462   */\n      dup2\n        /* \"#utility.yul\":25454:25474   */\n      sub\n        /* \"#utility.yul\":25450:25451   */\n      0x00\n        /* \"#utility.yul\":25439:25448   */\n      dup4\n        /* \"#utility.yul\":25435:25452   */\n      add\n        /* \"#utility.yul\":25428:25475   */\n      mstore\n        /* \"#utility.yul\":25492:25623   */\n      tag_651\n        /* \"#utility.yul\":25618:25622   */\n      dup2\n        /* \"#utility.yul\":25492:25623   */\n      tag_560\n      jump\t// in\n    tag_651:\n        /* \"#utility.yul\":25484:25623   */\n      swap1\n      pop\n        /* \"#utility.yul\":25382:25630   */\n      swap2\n      swap1\n      pop\n      jump\t// out\n        /* \"#utility.yul\":25636:26055   */\n    tag_350:\n      0x00\n        /* \"#utility.yul\":25840:25842   */\n      0x20\n        /* \"#utility.yul\":25829:25838   */\n      dup3\n        /* \"#utility.yul\":25825:25843   */\n      add\n        /* \"#utility.yul\":25817:25843   */\n      swap1\n      pop\n        /* \"#utility.yul\":25889:25898   */\n      dup2\n        /* \"#utility.yul\":25883:25887   */\n      dup2\n        /* \"#utility.yul\":25879:25899   */\n      sub\n        /* \"#utility.yul\":25875:25876   */\n      0x00\n        /* \"#utility.yul\":25864:25873   */\n      dup4\n        /* \"#utility.yul\":25860:25877   */\n      add\n        /* \"#utility.yul\":25853:25900   */\n      mstore\n        /* \"#utility.yul\":25917:26048   */\n      tag_653\n        /* \"#utility.yul\":26043:26047   */\n      dup2\n        /* \"#utility.yul\":25917:26048   */\n      tag_563\n      jump\t// in\n    tag_653:\n        /* \"#utility.yul\":25909:26048   */\n      swap1\n      pop\n        /* \"#utility.yul\":25807:26055   */\n      swap2\n      swap1\n      pop\n      jump\t// out\n        /* \"#utility.yul\":26061:26480   */\n    tag_156:\n      0x00\n        /* \"#utility.yul\":26265:26267   */\n      0x20\n        /* \"#utility.yul\":26254:26263   */\n      dup3\n        /* \"#utility.yul\":26250:26268   */\n      add\n        /* \"#utility.yul\":26242:26268   */\n      swap1\n      pop\n        /* \"#utility.yul\":26314:26323   */\n      dup2\n        /* \"#utility.yul\":26308:26312   */\n      dup2\n        /* \"#utility.yul\":26304:26324   */\n      sub\n        /* \"#utility.yul\":26300:26301   */\n      0x00\n        /* \"#utility.yul\":26289:26298   */\n      dup4\n        /* \"#utility.yul\":26285:26302   */\n      add\n        /* \"#utility.yul\":26278:26325   */\n      mstore\n        /* \"#utility.yul\":26342:26473   */\n      tag_655\n        /* \"#utility.yul\":26468:26472   */\n      dup2\n        /* \"#utility.yul\":26342:26473   */\n      tag_566\n      jump\t// in\n    tag_655:\n        /* \"#utility.yul\":26334:26473   */\n      swap1\n      pop\n        /* \"#utility.yul\":26232:26480   */\n      swap2\n      swap1\n      pop\n      jump\t// out\n        /* \"#utility.yul\":26486:26905   */\n    tag_250:\n      0x00\n        /* \"#utility.yul\":26690:26692   */\n      0x20\n        /* \"#utility.yul\":26679:26688   */\n      dup3\n        /* \"#utility.yul\":26675:26693   */\n      add\n        /* \"#utility.yul\":26667:26693   */\n      swap1\n      pop\n        /* \"#utility.yul\":26739:26748   */\n      dup2\n        /* \"#utility.yul\":26733:26737   */\n      dup2\n        /* \"#utility.yul\":26729:26749   */\n      sub\n        /* \"#utility.yul\":26725:26726   */\n      0x00\n        /* \"#utility.yul\":26714:26723   */\n      dup4\n        /* \"#utility.yul\":26710:26727   */\n      add\n        /* \"#utility.yul\":26703:26750   */\n      mstore\n        /* \"#utility.yul\":26767:26898   */\n      tag_657\n        /* \"#utility.yul\":26893:26897   */\n      dup2\n        /* \"#utility.yul\":26767:26898   */\n      tag_569\n      jump\t// in\n    tag_657:\n        /* \"#utility.yul\":26759:26898   */\n      swap1\n      pop\n        /* \"#utility.yul\":26657:26905   */\n      swap2\n      swap1\n      pop\n      jump\t// out\n        /* \"#utility.yul\":26911:27330   */\n    tag_142:\n      0x00\n        /* \"#utility.yul\":27115:27117   */\n      0x20\n        /* \"#utility.yul\":27104:27113   */\n      dup3\n        /* \"#utility.yul\":27100:27118   */\n      add\n        /* \"#utility.yul\":27092:27118   */\n      swap1\n      pop\n        /* \"#utility.yul\":27164:27173   */\n      dup2\n        /* \"#utility.yul\":27158:27162   */\n      dup2\n        /* \"#utility.yul\":27154:27174   */\n      sub\n        /* \"#utility.yul\":27150:27151   */\n      0x00\n        /* \"#utility.yul\":27139:27148   */\n      dup4\n        /* \"#utility.yul\":27135:27152   */\n      add\n        /* \"#utility.yul\":27128:27175   */\n      mstore\n        /* \"#utility.yul\":27192:27323   */\n      tag_659\n        /* \"#utility.yul\":27318:27322   */\n      dup2\n        /* \"#utility.yul\":27192:27323   */\n      tag_572\n      jump\t// in\n    tag_659:\n        /* \"#utility.yul\":27184:27323   */\n      swap1\n      pop\n        /* \"#utility.yul\":27082:27330   */\n      swap2\n      swap1\n      pop\n      jump\t// out\n        /* \"#utility.yul\":27336:27755   */\n    tag_347:\n      0x00\n        /* \"#utility.yul\":27540:27542   */\n      0x20\n        /* \"#utility.yul\":27529:27538   */\n      dup3\n        /* \"#utility.yul\":27525:27543   */\n      add\n        /* \"#utility.yul\":27517:27543   */\n      swap1\n      pop\n        /* \"#utility.yul\":27589:27598   */\n      dup2\n        /* \"#utility.yul\":27583:27587   */\n      dup2\n        /* \"#utility.yul\":27579:27599   */\n      sub\n        /* \"#utility.yul\":27575:27576   */\n      0x00\n        /* \"#utility.yul\":27564:27573   */\n      dup4\n        /* \"#utility.yul\":27560:27577   */\n      add\n        /* \"#utility.yul\":27553:27600   */\n      mstore\n        /* \"#utility.yul\":27617:27748   */\n      tag_661\n        /* \"#utility.yul\":27743:27747   */\n      dup2\n        /* \"#utility.yul\":27617:27748   */\n      tag_575\n      jump\t// in\n    tag_661:\n        /* \"#utility.yul\":27609:27748   */\n      swap1\n      pop\n        /* \"#utility.yul\":27507:27755   */\n      swap2\n      swap1\n      pop\n      jump\t// out\n        /* \"#utility.yul\":27761:28180   */\n    tag_126:\n      0x00\n        /* \"#utility.yul\":27965:27967   */\n      0x20\n        /* \"#utility.yul\":27954:27963   */\n      dup3\n        /* \"#utility.yul\":27950:27968   */\n      add\n        /* \"#utility.yul\":27942:27968   */\n      swap1\n      pop\n        /* \"#utility.yul\":28014:28023   */\n      dup2\n        /* \"#utility.yul\":28008:28012   */\n      dup2\n        /* \"#utility.yul\":28004:28024   */\n      sub\n        /* \"#utility.yul\":28000:28001   */\n      0x00\n        /* \"#utility.yul\":27989:27998   */\n      dup4\n        /* \"#utility.yul\":27985:28002   */\n      add\n        /* \"#utility.yul\":27978:28025   */\n      mstore\n        /* \"#utility.yul\":28042:28173   */\n      tag_663\n        /* \"#utility.yul\":28168:28172   */\n      dup2\n        /* \"#utility.yul\":28042:28173   */\n      tag_578\n      jump\t// in\n    tag_663:\n        /* \"#utility.yul\":28034:28173   */\n      swap1\n      pop\n        /* \"#utility.yul\":27932:28180   */\n      swap2\n      swap1\n      pop\n      jump\t// out\n        /* \"#utility.yul\":28186:28605   */\n    tag_363:\n      0x00\n        /* \"#utility.yul\":28390:28392   */\n      0x20\n        /* \"#utility.yul\":28379:28388   */\n      dup3\n        /* \"#utility.yul\":28375:28393   */\n      add\n        /* \"#utility.yul\":28367:28393   */\n      swap1\n      pop\n        /* \"#utility.yul\":28439:28448   */\n      dup2\n        /* \"#utility.yul\":28433:28437   */\n      dup2\n        /* \"#utility.yul\":28429:28449   */\n      sub\n        /* \"#utility.yul\":28425:28426   */\n      0x00\n        /* \"#utility.yul\":28414:28423   */\n      dup4\n        /* \"#utility.yul\":28410:28427   */\n      add\n        /* \"#utility.yul\":28403:28450   */\n      mstore\n        /* \"#utility.yul\":28467:28598   */\n      tag_665\n        /* \"#utility.yul\":28593:28597   */\n      dup2\n        /* \"#utility.yul\":28467:28598   */\n      tag_581\n      jump\t// in\n    tag_665:\n        /* \"#utility.yul\":28459:28598   */\n      swap1\n      pop\n        /* \"#utility.yul\":28357:28605   */\n      swap2\n      swap1\n      pop\n      jump\t// out\n        /* \"#utility.yul\":28611:29030   */\n    tag_253:\n      0x00\n        /* \"#utility.yul\":28815:28817   */\n      0x20\n        /* \"#utility.yul\":28804:28813   */\n      dup3\n        /* \"#utility.yul\":28800:28818   */\n      add\n        /* \"#utility.yul\":28792:28818   */\n      swap1\n      pop\n        /* \"#utility.yul\":28864:28873   */\n      dup2\n        /* \"#utility.yul\":28858:28862   */\n      dup2\n        /* \"#utility.yul\":28854:28874   */\n      sub\n        /* \"#utility.yul\":28850:28851   */\n      0x00\n        /* \"#utility.yul\":28839:28848   */\n      dup4\n        /* \"#utility.yul\":28835:28852   */\n      add\n        /* \"#utility.yul\":28828:28875   */\n      mstore\n        /* \"#utility.yul\":28892:29023   */\n      tag_667\n        /* \"#utility.yul\":29018:29022   */\n      dup2\n        /* \"#utility.yul\":28892:29023   */\n      tag_584\n      jump\t// in\n    tag_667:\n        /* \"#utility.yul\":28884:29023   */\n      swap1\n      pop\n        /* \"#utility.yul\":28782:29030   */\n      swap2\n      swap1\n      pop\n      jump\t// out\n        /* \"#utility.yul\":29036:29455   */\n    tag_194:\n      0x00\n        /* \"#utility.yul\":29240:29242   */\n      0x20\n        /* \"#utility.yul\":29229:29238   */\n      dup3\n        /* \"#utility.yul\":29225:29243   */\n      add\n        /* \"#utility.yul\":29217:29243   */\n      swap1\n      pop\n        /* \"#utility.yul\":29289:29298   */\n      dup2\n        /* \"#utility.yul\":29283:29287   */\n      dup2\n        /* \"#utility.yul\":29279:29299   */\n      sub\n        /* \"#utility.yul\":29275:29276   */\n      0x00\n        /* \"#utility.yul\":29264:29273   */\n      dup4\n        /* \"#utility.yul\":29260:29277   */\n      add\n        /* \"#utility.yul\":29253:29300   */\n      mstore\n        /* \"#utility.yul\":29317:29448   */\n      tag_669\n        /* \"#utility.yul\":29443:29447   */\n      dup2\n        /* \"#utility.yul\":29317:29448   */\n      tag_587\n      jump\t// in\n    tag_669:\n        /* \"#utility.yul\":29309:29448   */\n      swap1\n      pop\n        /* \"#utility.yul\":29207:29455   */\n      swap2\n      swap1\n      pop\n      jump\t// out\n        /* \"#utility.yul\":29461:29683   */\n    tag_35:\n      0x00\n        /* \"#utility.yul\":29592:29594   */\n      0x20\n        /* \"#utility.yul\":29581:29590   */\n      dup3\n        /* \"#utility.yul\":29577:29595   */\n      add\n        /* \"#utility.yul\":29569:29595   */\n      swap1\n      pop\n        /* \"#utility.yul\":29605:29676   */\n      tag_671\n        /* \"#utility.yul\":29673:29674   */\n      0x00\n        /* \"#utility.yul\":29662:29671   */\n      dup4\n        /* \"#utility.yul\":29658:29675   */\n      add\n        /* \"#utility.yul\":29649:29655   */\n      dup5\n        /* \"#utility.yul\":29605:29676   */\n      tag_590\n      jump\t// in\n    tag_671:\n        /* \"#utility.yul\":29559:29683   */\n      swap3\n      swap2\n      pop\n      pop\n      jump\t// out\n        /* \"#utility.yul\":29689:30021   */\n    tag_91:\n      0x00\n        /* \"#utility.yul\":29848:29850   */\n      0x40\n        /* \"#utility.yul\":29837:29846   */\n      dup3\n        /* \"#utility.yul\":29833:29851   */\n      add\n        /* \"#utility.yul\":29825:29851   */\n      swap1\n      pop\n        /* \"#utility.yul\":29861:29932   */\n      tag_673\n        /* \"#utility.yul\":29929:29930   */\n      0x00\n        /* \"#utility.yul\":29918:29927   */\n      dup4\n        /* \"#utility.yul\":29914:29931   */\n      add\n        /* \"#utility.yul\":29905:29911   */\n      dup6\n        /* \"#utility.yul\":29861:29932   */\n      tag_590\n      jump\t// in\n    tag_673:\n        /* \"#utility.yul\":29942:30014   */\n      tag_674\n        /* \"#utility.yul\":30010:30012   */\n      0x20\n        /* \"#utility.yul\":29999:30008   */\n      dup4\n        /* \"#utility.yul\":29995:30013   */\n      add\n        /* \"#utility.yul\":29986:29992   */\n      dup5\n        /* \"#utility.yul\":29942:30014   */\n      tag_590\n      jump\t// in\n    tag_674:\n        /* \"#utility.yul\":29815:30021   */\n      swap4\n      swap3\n      pop\n      pop\n      pop\n      jump\t// out\n        /* \"#utility.yul\":30027:30310   */\n    tag_394:\n      0x00\n        /* \"#utility.yul\":30093:30095   */\n      0x40\n        /* \"#utility.yul\":30087:30096   */\n      mload\n        /* \"#utility.yul\":30077:30096   */\n      swap1\n      pop\n        /* \"#utility.yul\":30135:30139   */\n      dup2\n        /* \"#utility.yul\":30127:30133   */\n      dup2\n        /* \"#utility.yul\":30123:30140   */\n      add\n        /* \"#utility.yul\":30242:30248   */\n      dup2\n        /* \"#utility.yul\":30230:30240   */\n      dup2\n        /* \"#utility.yul\":30227:30249   */\n      lt\n        /* \"#utility.yul\":30206:30224   */\n      0xffffffffffffffff\n        /* \"#utility.yul\":30194:30204   */\n      dup3\n        /* \"#utility.yul\":30191:30225   */\n      gt\n        /* \"#utility.yul\":30188:30250   */\n      or\n        /* \"#utility.yul\":30185:30187   */\n      iszero\n      tag_676\n      jumpi\n        /* \"#utility.yul\":30253:30271   */\n      tag_677\n      tag_678\n      jump\t// in\n    tag_677:\n        /* \"#utility.yul\":30185:30187   */\n    tag_676:\n        /* \"#utility.yul\":30293:30303   */\n      dup1\n        /* \"#utility.yul\":30289:30291   */\n      0x40\n        /* \"#utility.yul\":30282:30304   */\n      mstore\n        /* \"#utility.yul\":30067:30310   */\n      pop\n      swap2\n      swap1\n      pop\n      jump\t// out\n        /* \"#utility.yul\":30316:30648   */\n    tag_393:\n      0x00\n        /* \"#utility.yul\":30468:30486   */\n      0xffffffffffffffff\n        /* \"#utility.yul\":30460:30466   */\n      dup3\n        /* \"#utility.yul\":30457:30487   */\n      gt\n        /* \"#utility.yul\":30454:30456   */\n      iszero\n      tag_680\n      jumpi\n        /* \"#utility.yul\":30490:30508   */\n      tag_681\n      tag_678\n      jump\t// in\n    tag_681:\n        /* \"#utility.yul\":30454:30456   */\n    tag_680:\n        /* \"#utility.yul\":30575:30579   */\n      0x1f\n        /* \"#utility.yul\":30571:30580   */\n      not\n        /* \"#utility.yul\":30564:30568   */\n      0x1f\n        /* \"#utility.yul\":30556:30562   */\n      dup4\n        /* \"#utility.yul\":30552:30569   */\n      add\n        /* \"#utility.yul\":30548:30581   */\n      and\n        /* \"#utility.yul\":30540:30581   */\n      swap1\n      pop\n        /* \"#utility.yul\":30636:30640   */\n      0x20\n        /* \"#utility.yul\":30630:30634   */\n      dup2\n        /* \"#utility.yul\":30626:30641   */\n      add\n        /* \"#utility.yul\":30618:30641   */\n      swap1\n      pop\n        /* \"#utility.yul\":30383:30648   */\n      swap2\n      swap1\n      pop\n      jump\t// out\n        /* \"#utility.yul\":30654:30786   */\n    tag_484:\n      0x00\n        /* \"#utility.yul\":30744:30747   */\n      dup2\n        /* \"#utility.yul\":30736:30747   */\n      swap1\n      pop\n        /* \"#utility.yul\":30774:30778   */\n      0x20\n        /* \"#utility.yul\":30769:30772   */\n      dup3\n        /* \"#utility.yul\":30765:30779   */\n      add\n        /* \"#utility.yul\":30757:30779   */\n      swap1\n      pop\n        /* \"#utility.yul\":30726:30786   */\n      swap2\n      swap1\n      pop\n      jump\t// out\n        /* \"#utility.yul\":30792:30923   */\n    tag_498:\n      0x00\n        /* \"#utility.yul\":30881:30884   */\n      dup2\n        /* \"#utility.yul\":30873:30884   */\n      swap1\n      pop\n        /* \"#utility.yul\":30911:30915   */\n      0x20\n        /* \"#utility.yul\":30906:30909   */\n      dup3\n        /* \"#utility.yul\":30902:30916   */\n      add\n        /* \"#utility.yul\":30894:30916   */\n      swap1\n      pop\n        /* \"#utility.yul\":30863:30923   */\n      swap2\n      swap1\n      pop\n      jump\t// out\n        /* \"#utility.yul\":30929:31071   */\n    tag_512:\n      0x00\n        /* \"#utility.yul\":31029:31032   */\n      dup2\n        /* \"#utility.yul\":31021:31032   */\n      swap1\n      pop\n        /* \"#utility.yul\":31059:31063   */\n      0x20\n        /* \"#utility.yul\":31054:31057   */\n      dup3\n        /* \"#utility.yul\":31050:31064   */\n      add\n        /* \"#utility.yul\":31042:31064   */\n      swap1\n      pop\n        /* \"#utility.yul\":31011:31071   */\n      swap2\n      swap1\n      pop\n      jump\t// out\n        /* \"#utility.yul\":31077:31191   */\n    tag_480:\n      0x00\n        /* \"#utility.yul\":31178:31183   */\n      dup2\n        /* \"#utility.yul\":31172:31184   */\n      mload\n        /* \"#utility.yul\":31162:31184   */\n      swap1\n      pop\n        /* \"#utility.yul\":31151:31191   */\n      swap2\n      swap1\n      pop\n      jump\t// out\n        /* \"#utility.yul\":31197:31310   */\n    tag_494:\n      0x00\n        /* \"#utility.yul\":31297:31302   */\n      dup2\n        /* \"#utility.yul\":31291:31303   */\n      mload\n        /* \"#utility.yul\":31281:31303   */\n      swap1\n      pop\n        /* \"#utility.yul\":31270:31310   */\n      swap2\n      swap1\n      pop\n      jump\t// out\n        /* \"#utility.yul\":31316:31440   */\n    tag_508:\n      0x00\n        /* \"#utility.yul\":31427:31432   */\n      dup2\n        /* \"#utility.yul\":31421:31433   */\n      mload\n        /* \"#utility.yul\":31411:31433   */\n      swap1\n      pop\n        /* \"#utility.yul\":31400:31440   */\n      swap2\n      swap1\n      pop\n      jump\t// out\n        /* \"#utility.yul\":31446:31545   */\n    tag_531:\n      0x00\n        /* \"#utility.yul\":31532:31537   */\n      dup2\n        /* \"#utility.yul\":31526:31538   */\n      mload\n        /* \"#utility.yul\":31516:31538   */\n      swap1\n      pop\n        /* \"#utility.yul\":31505:31545   */\n      swap2\n      swap1\n      pop\n      jump\t// out\n        /* \"#utility.yul\":31551:31664   */\n    tag_490:\n      0x00\n        /* \"#utility.yul\":31653:31657   */\n      0x20\n        /* \"#utility.yul\":31648:31651   */\n      dup3\n        /* \"#utility.yul\":31644:31658   */\n      add\n        /* \"#utility.yul\":31636:31658   */\n      swap1\n      pop\n        /* \"#utility.yul\":31626:31664   */\n      swap2\n      swap1\n      pop\n      jump\t// out\n        /* \"#utility.yul\":31670:31782   */\n    tag_504:\n      0x00\n        /* \"#utility.yul\":31771:31775   */\n      0x20\n        /* \"#utility.yul\":31766:31769   */\n      dup3\n        /* \"#utility.yul\":31762:31776   */\n      add\n        /* \"#utility.yul\":31754:31776   */\n      swap1\n      pop\n        /* \"#utility.yul\":31744:31782   */\n      swap2\n      swap1\n      pop\n      jump\t// out\n        /* \"#utility.yul\":31788:31911   */\n    tag_518:\n      0x00\n        /* \"#utility.yul\":31900:31904   */\n      0x20\n        /* \"#utility.yul\":31895:31898   */\n      dup3\n        /* \"#utility.yul\":31891:31905   */\n      add\n        /* \"#utility.yul\":31883:31905   */\n      swap1\n      pop\n        /* \"#utility.yul\":31873:31911   */\n      swap2\n      swap1\n      pop\n      jump\t// out\n        /* \"#utility.yul\":31917:32101   */\n    tag_482:\n      0x00\n        /* \"#utility.yul\":32050:32056   */\n      dup3\n        /* \"#utility.yul\":32045:32048   */\n      dup3\n        /* \"#utility.yul\":32038:32057   */\n      mstore\n        /* \"#utility.yul\":32090:32094   */\n      0x20\n        /* \"#utility.yul\":32085:32088   */\n      dup3\n        /* \"#utility.yul\":32081:32095   */\n      add\n        /* \"#utility.yul\":32066:32095   */\n      swap1\n      pop\n        /* \"#utility.yul\":32028:32101   */\n      swap3\n      swap2\n      pop\n      pop\n      jump\t// out\n        /* \"#utility.yul\":32107:32290   */\n    tag_496:\n      0x00\n        /* \"#utility.yul\":32239:32245   */\n      dup3\n        /* \"#utility.yul\":32234:32237   */\n      dup3\n        /* \"#utility.yul\":32227:32246   */\n      mstore\n        /* \"#utility.yul\":32279:32283   */\n      0x20\n        /* \"#utility.yul\":32274:32277   */\n      dup3\n        /* \"#utility.yul\":32270:32284   */\n      add\n        /* \"#utility.yul\":32255:32284   */\n      swap1\n      pop\n        /* \"#utility.yul\":32217:32290   */\n      swap3\n      swap2\n      pop\n      pop\n      jump\t// out\n        /* \"#utility.yul\":32296:32490   */\n    tag_510:\n      0x00\n        /* \"#utility.yul\":32439:32445   */\n      dup3\n        /* \"#utility.yul\":32434:32437   */\n      dup3\n        /* \"#utility.yul\":32427:32446   */\n      mstore\n        /* \"#utility.yul\":32479:32483   */\n      0x20\n        /* \"#utility.yul\":32474:32477   */\n      dup3\n        /* \"#utility.yul\":32470:32484   */\n      add\n        /* \"#utility.yul\":32455:32484   */\n      swap1\n      pop\n        /* \"#utility.yul\":32417:32490   */\n      swap3\n      swap2\n      pop\n      pop\n      jump\t// out\n        /* \"#utility.yul\":32496:32655   */\n    tag_533:\n      0x00\n        /* \"#utility.yul\":32604:32610   */\n      dup3\n        /* \"#utility.yul\":32599:32602   */\n      dup3\n        /* \"#utility.yul\":32592:32611   */\n      mstore\n        /* \"#utility.yul\":32644:32648   */\n      0x20\n        /* \"#utility.yul\":32639:32642   */\n      dup3\n        /* \"#utility.yul\":32635:32649   */\n      add\n        /* \"#utility.yul\":32620:32649   */\n      swap1\n      pop\n        /* \"#utility.yul\":32582:32655   */\n      swap3\n      swap2\n      pop\n      pop\n      jump\t// out\n        /* \"#utility.yul\":32661:32830   */\n    tag_542:\n      0x00\n        /* \"#utility.yul\":32779:32785   */\n      dup3\n        /* \"#utility.yul\":32774:32777   */\n      dup3\n        /* \"#utility.yul\":32767:32786   */\n      mstore\n        /* \"#utility.yul\":32819:32823   */\n      0x20\n        /* \"#utility.yul\":32814:32817   */\n      dup3\n        /* \"#utility.yul\":32810:32824   */\n      add\n        /* \"#utility.yul\":32795:32824   */\n      swap1\n      pop\n        /* \"#utility.yul\":32757:32830   */\n      swap3\n      swap2\n      pop\n      pop\n      jump\t// out\n        /* \"#utility.yul\":32836:33141   */\n    tag_321:\n      0x00\n        /* \"#utility.yul\":32895:32915   */\n      tag_698\n        /* \"#utility.yul\":32913:32914   */\n      dup3\n        /* \"#utility.yul\":32895:32915   */\n      tag_593\n      jump\t// in\n    tag_698:\n        /* \"#utility.yul\":32890:32915   */\n      swap2\n      pop\n        /* \"#utility.yul\":32929:32949   */\n      tag_699\n        /* \"#utility.yul\":32947:32948   */\n      dup4\n        /* \"#utility.yul\":32929:32949   */\n      tag_593\n      jump\t// in\n    tag_699:\n        /* \"#utility.yul\":32924:32949   */\n      swap3\n      pop\n        /* \"#utility.yul\":33083:33084   */\n      dup3\n        /* \"#utility.yul\":33015:33081   */\n      0xffffffffffffffffffffffffffffffffffffffffffffffffffffffffffffffff\n        /* \"#utility.yul\":33011:33085   */\n      sub\n        /* \"#utility.yul\":33008:33009   */\n      dup3\n        /* \"#utility.yul\":33005:33086   */\n      gt\n        /* \"#utility.yul\":33002:33004   */\n      iszero\n      tag_700\n      jumpi\n        /* \"#utility.yul\":33089:33107   */\n      tag_701\n      tag_702\n      jump\t// in\n    tag_701:\n        /* \"#utility.yul\":33002:33004   */\n    tag_700:\n        /* \"#utility.yul\":33133:33134   */\n      dup3\n        /* \"#utility.yul\":33130:33131   */\n      dup3\n        /* \"#utility.yul\":33126:33135   */\n      add\n        /* \"#utility.yul\":33119:33135   */\n      swap1\n      pop\n        /* \"#utility.yul\":32880:33141   */\n      swap3\n      swap2\n      pop\n      pop\n      jump\t// out\n        /* \"#utility.yul\":33147:33243   */\n    tag_473:\n      0x00\n        /* \"#utility.yul\":33213:33237   */\n      tag_704\n        /* \"#utility.yul\":33231:33236   */\n      dup3\n        /* \"#utility.yul\":33213:33237   */\n      tag_705\n      jump\t// in\n    tag_704:\n        /* \"#utility.yul\":33202:33237   */\n      swap1\n      pop\n        /* \"#utility.yul\":33192:33243   */\n      swap2\n      swap1\n      pop\n      jump\t// out\n        /* \"#utility.yul\":33249:33339   */\n    tag_522:\n      0x00\n        /* \"#utility.yul\":33326:33331   */\n      dup2\n        /* \"#utility.yul\":33319:33332   */\n      iszero\n        /* \"#utility.yul\":33312:33333   */\n      iszero\n        /* \"#utility.yul\":33301:33333   */\n      swap1\n      pop\n        /* \"#utility.yul\":33291:33339   */\n      swap2\n      swap1\n      pop\n      jump\t// out\n        /* \"#utility.yul\":33345:33421   */\n    tag_525:\n      0x00\n        /* \"#utility.yul\":33410:33415   */\n      dup2\n        /* \"#utility.yul\":33399:33415   */\n      swap1\n      pop\n        /* \"#utility.yul\":33389:33421   */\n      swap2\n      swap1\n      pop\n      jump\t// out\n        /* \"#utility.yul\":33427:33553   */\n    tag_705:\n      0x00\n        /* \"#utility.yul\":33504:33546   */\n      0xffffffffffffffffffffffffffffffffffffffff\n        /* \"#utility.yul\":33497:33502   */\n      dup3\n        /* \"#utility.yul\":33493:33547   */\n      and\n        /* \"#utility.yul\":33482:33547   */\n      swap1\n      pop\n        /* \"#utility.yul\":33472:33553   */\n      swap2\n      swap1\n      pop\n      jump\t// out\n        /* \"#utility.yul\":33559:33636   */\n    tag_593:\n      0x00\n        /* \"#utility.yul\":33625:33630   */\n      dup2\n        /* \"#utility.yul\":33614:33630   */\n      swap1\n      pop\n        /* \"#utility.yul\":33604:33636   */\n      swap2\n      swap1\n      pop\n      jump\t// out\n        /* \"#utility.yul\":33642:33796   */\n    tag_397:\n        /* \"#utility.yul\":33726:33732   */\n      dup3\n        /* \"#utility.yul\":33721:33724   */\n      dup2\n        /* \"#utility.yul\":33716:33719   */\n      dup4\n        /* \"#utility.yul\":33703:33733   */\n      calldatacopy\n        /* \"#utility.yul\":33788:33789   */\n      0x00\n        /* \"#utility.yul\":33779:33785   */\n      dup4\n        /* \"#utility.yul\":33774:33777   */\n      dup4\n        /* \"#utility.yul\":33770:33786   */\n      add\n        /* \"#utility.yul\":33763:33790   */\n      mstore\n        /* \"#utility.yul\":33693:33796   */\n      pop\n      pop\n      pop\n      jump\t// out\n        /* \"#utility.yul\":33802:34109   */\n    tag_535:\n        /* \"#utility.yul\":33870:33871   */\n      0x00\n        /* \"#utility.yul\":33880:33993   */\n    tag_712:\n        /* \"#utility.yul\":33894:33900   */\n      dup4\n        /* \"#utility.yul\":33891:33892   */\n      dup2\n        /* \"#utility.yul\":33888:33901   */\n      lt\n        /* \"#utility.yul\":33880:33993   */\n      iszero\n      tag_714\n      jumpi\n        /* \"#utility.yul\":33979:33980   */\n      dup1\n        /* \"#utility.yul\":33974:33977   */\n      dup3\n        /* \"#utility.yul\":33970:33981   */\n      add\n        /* \"#utility.yul\":33964:33982   */\n      mload\n        /* \"#utility.yul\":33960:33961   */\n      dup2\n        /* \"#utility.yul\":33955:33958   */\n      dup5\n        /* \"#utility.yul\":33951:33962   */\n      add\n        /* \"#utility.yul\":33944:33983   */\n      mstore\n        /* \"#utility.yul\":33916:33918   */\n      0x20\n        /* \"#utility.yul\":33913:33914   */\n      dup2\n        /* \"#utility.yul\":33909:33919   */\n      add\n        /* \"#utility.yul\":33904:33919   */\n      swap1\n      pop\n        /* \"#utility.yul\":33880:33993   */\n      jump(tag_712)\n    tag_714:\n        /* \"#utility.yul\":34011:34017   */\n      dup4\n        /* \"#utility.yul\":34008:34009   */\n      dup2\n        /* \"#utility.yul\":34005:34018   */\n      gt\n        /* \"#utility.yul\":34002:34004   */\n      iszero\n      tag_715\n      jumpi\n        /* \"#utility.yul\":34091:34092   */\n      0x00\n        /* \"#utility.yul\":34082:34088   */\n      dup5\n        /* \"#utility.yul\":34077:34080   */\n      dup5\n        /* \"#utility.yul\":34073:34089   */\n      add\n        /* \"#utility.yul\":34066:34093   */\n      mstore\n        /* \"#utility.yul\":34002:34004   */\n    tag_715:\n        /* \"#utility.yul\":33851:34109   */\n      pop\n      pop\n      pop\n      pop\n      jump\t// out\n        /* \"#utility.yul\":34115:34435   */\n    tag_173:\n      0x00\n        /* \"#utility.yul\":34196:34197   */\n      0x02\n        /* \"#utility.yul\":34190:34194   */\n      dup3\n        /* \"#utility.yul\":34186:34198   */\n      div\n        /* \"#utility.yul\":34176:34198   */\n      swap1\n      pop\n        /* \"#utility.yul\":34243:34244   */\n      0x01\n        /* \"#utility.yul\":34237:34241   */\n      dup3\n        /* \"#utility.yul\":34233:34245   */\n      and\n        /* \"#utility.yul\":34264:34282   */\n      dup1\n        /* \"#utility.yul\":34254:34256   */\n      tag_717\n      jumpi\n        /* \"#utility.yul\":34320:34324   */\n      0x7f\n        /* \"#utility.yul\":34312:34318   */\n      dup3\n        /* \"#utility.yul\":34308:34325   */\n      and\n        /* \"#utility.yul\":34298:34325   */\n      swap2\n      pop\n        /* \"#utility.yul\":34254:34256   */\n    tag_717:\n        /* \"#utility.yul\":34382:34384   */\n      0x20\n        /* \"#utility.yul\":34374:34380   */\n      dup3\n        /* \"#utility.yul\":34371:34385   */\n      lt\n        /* \"#utility.yul\":34351:34369   */\n      dup2\n        /* \"#utility.yul\":34348:34386   */\n      eq\n        /* \"#utility.yul\":34345:34347   */\n      iszero\n      tag_718\n      jumpi\n        /* \"#utility.yul\":34401:34419   */\n      tag_719\n      tag_720\n      jump\t// in\n    tag_719:\n        /* \"#utility.yul\":34345:34347   */\n    tag_718:\n        /* \"#utility.yul\":34166:34435   */\n      pop\n      swap2\n      swap1\n      pop\n      jump\t// out\n        /* \"#utility.yul\":34441:34672   */\n    tag_131:\n      0x00\n        /* \"#utility.yul\":34502:34525   */\n      tag_722\n        /* \"#utility.yul\":34519:34524   */\n      dup3\n        /* \"#utility.yul\":34502:34525   */\n      tag_525\n      jump\t// in\n    tag_722:\n        /* \"#utility.yul\":34493:34525   */\n      swap2\n      pop\n        /* \"#utility.yul\":34547:34613   */\n      0x7fffffffffffffffffffffffffffffffffffffffffffffffffffffffffffffff\n        /* \"#utility.yul\":34540:34545   */\n      dup3\n        /* \"#utility.yul\":34537:34614   */\n      eq\n        /* \"#utility.yul\":34534:34536   */\n      iszero\n      tag_723\n      jumpi\n        /* \"#utility.yul\":34617:34635   */\n      tag_724\n      tag_702\n      jump\t// in\n    tag_724:\n        /* \"#utility.yul\":34534:34536   */\n    tag_723:\n        /* \"#utility.yul\":34664:34665   */\n      0x01\n        /* \"#utility.yul\":34657:34662   */\n      dup3\n        /* \"#utility.yul\":34653:34666   */\n      add\n        /* \"#utility.yul\":34646:34666   */\n      swap1\n      pop\n        /* \"#utility.yul\":34483:34672   */\n      swap2\n      swap1\n      pop\n      jump\t// out\n        /* \"#utility.yul\":34678:34911   */\n    tag_153:\n      0x00\n        /* \"#utility.yul\":34740:34764   */\n      tag_726\n        /* \"#utility.yul\":34758:34763   */\n      dup3\n        /* \"#utility.yul\":34740:34764   */\n      tag_593\n      jump\t// in\n    tag_726:\n        /* \"#utility.yul\":34731:34764   */\n      swap2\n      pop\n        /* \"#utility.yul\":34786:34852   */\n      0xffffffffffffffffffffffffffffffffffffffffffffffffffffffffffffffff\n        /* \"#utility.yul\":34779:34784   */\n      dup3\n        /* \"#utility.yul\":34776:34853   */\n      eq\n        /* \"#utility.yul\":34773:34775   */\n      iszero\n      tag_727\n      jumpi\n        /* \"#utility.yul\":34856:34874   */\n      tag_728\n      tag_702\n      jump\t// in\n    tag_728:\n        /* \"#utility.yul\":34773:34775   */\n    tag_727:\n        /* \"#utility.yul\":34903:34904   */\n      0x01\n        /* \"#utility.yul\":34896:34901   */\n      dup3\n        /* \"#utility.yul\":34892:34905   */\n      add\n        /* \"#utility.yul\":34885:34905   */\n      swap1\n      pop\n        /* \"#utility.yul\":34721:34911   */\n      swap2\n      swap1\n      pop\n      jump\t// out\n        /* \"#utility.yul\":34917:35097   */\n    tag_702:\n        /* \"#utility.yul\":34965:35042   */\n      0x4e487b7100000000000000000000000000000000000000000000000000000000\n        /* \"#utility.yul\":34962:34963   */\n      0x00\n        /* \"#utility.yul\":34955:35043   */\n      mstore\n        /* \"#utility.yul\":35062:35066   */\n      0x11\n        /* \"#utility.yul\":35059:35060   */\n      0x04\n        /* \"#utility.yul\":35052:35067   */\n      mstore\n        /* \"#utility.yul\":35086:35090   */\n      0x24\n        /* \"#utility.yul\":35083:35084   */\n      0x00\n        /* \"#utility.yul\":35076:35091   */\n      revert\n        /* \"#utility.yul\":35103:35283   */\n    tag_720:\n        /* \"#utility.yul\":35151:35228   */\n      0x4e487b7100000000000000000000000000000000000000000000000000000000\n        /* \"#utility.yul\":35148:35149   */\n      0x00\n        /* \"#utility.yul\":35141:35229   */\n      mstore\n        /* \"#utility.yul\":35248:35252   */\n      0x22\n        /* \"#utility.yul\":35245:35246   */\n      0x04\n        /* \"#utility.yul\":35238:35253   */\n      mstore\n        /* \"#utility.yul\":35272:35276   */\n      0x24\n        /* \"#utility.yul\":35269:35270   */\n      0x00\n        /* \"#utility.yul\":35262:35277   */\n      revert\n        /* \"#utility.yul\":35289:35469   */\n    tag_678:\n        /* \"#utility.yul\":35337:35414   */\n      0x4e487b7100000000000000000000000000000000000000000000000000000000\n        /* \"#utility.yul\":35334:35335   */\n      0x00\n        /* \"#utility.yul\":35327:35415   */\n      mstore\n        /* \"#utility.yul\":35434:35438   */\n      0x41\n        /* \"#utility.yul\":35431:35432   */\n      0x04\n        /* \"#utility.yul\":35424:35439   */\n      mstore\n        /* \"#utility.yul\":35458:35462   */\n      0x24\n        /* \"#utility.yul\":35455:35456   */\n      0x00\n        /* \"#utility.yul\":35448:35463   */\n      revert\n        /* \"#utility.yul\":35475:35577   */\n    tag_537:\n      0x00\n        /* \"#utility.yul\":35567:35569   */\n      0x1f\n        /* \"#utility.yul\":35563:35570   */\n      not\n        /* \"#utility.yul\":35558:35560   */\n      0x1f\n        /* \"#utility.yul\":35551:35556   */\n      dup4\n        /* \"#utility.yul\":35547:35561   */\n      add\n        /* \"#utility.yul\":35543:35571   */\n      and\n        /* \"#utility.yul\":35533:35571   */\n      swap1\n      pop\n        /* \"#utility.yul\":35523:35577   */\n      swap2\n      swap1\n      pop\n      jump\t// out\n        /* \"#utility.yul\":35583:35705   */\n    tag_401:\n        /* \"#utility.yul\":35656:35680   */\n      tag_734\n        /* \"#utility.yul\":35674:35679   */\n      dup2\n        /* \"#utility.yul\":35656:35680   */\n      tag_473\n      jump\t// in\n    tag_734:\n        /* \"#utility.yul\":35649:35654   */\n      dup2\n        /* \"#utility.yul\":35646:35681   */\n      eq\n        /* \"#utility.yul\":35636:35638   */\n      tag_735\n      jumpi\n        /* \"#utility.yul\":35695:35696   */\n      0x00\n        /* \"#utility.yul\":35692:35693   */\n      dup1\n        /* \"#utility.yul\":35685:35697   */\n      revert\n        /* \"#utility.yul\":35636:35638   */\n    tag_735:\n        /* \"#utility.yul\":35626:35705   */\n      pop\n      jump\t// out\n        /* \"#utility.yul\":35711:35827   */\n    tag_405:\n        /* \"#utility.yul\":35781:35802   */\n      tag_737\n        /* \"#utility.yul\":35796:35801   */\n      dup2\n        /* \"#utility.yul\":35781:35802   */\n      tag_522\n      jump\t// in\n    tag_737:\n        /* \"#utility.yul\":35774:35779   */\n      dup2\n        /* \"#utility.yul\":35771:35803   */\n      eq\n        /* \"#utility.yul\":35761:35763   */\n      tag_738\n      jumpi\n        /* \"#utility.yul\":35817:35818   */\n      0x00\n        /* \"#utility.yul\":35814:35815   */\n      dup1\n        /* \"#utility.yul\":35807:35819   */\n      revert\n        /* \"#utility.yul\":35761:35763   */\n    tag_738:\n        /* \"#utility.yul\":35751:35827   */\n      pop\n      jump\t// out\n        /* \"#utility.yul\":35833:35953   */\n    tag_409:\n        /* \"#utility.yul\":35905:35928   */\n      tag_740\n        /* \"#utility.yul\":35922:35927   */\n      dup2\n        /* \"#utility.yul\":35905:35928   */\n      tag_525\n      jump\t// in\n    tag_740:\n        /* \"#utility.yul\":35898:35903   */\n      dup2\n        /* \"#utility.yul\":35895:35929   */\n      eq\n        /* \"#utility.yul\":35885:35887   */\n      tag_741\n      jumpi\n        /* \"#utility.yul\":35943:35944   */\n      0x00\n        /* \"#utility.yul\":35940:35941   */\n      dup1\n        /* \"#utility.yul\":35933:35945   */\n      revert\n        /* \"#utility.yul\":35885:35887   */\n    tag_741:\n        /* \"#utility.yul\":35875:35953   */\n      pop\n      jump\t// out\n        /* \"#utility.yul\":35959:36081   */\n    tag_417:\n        /* \"#utility.yul\":36032:36056   */\n      tag_743\n        /* \"#utility.yul\":36050:36055   */\n      dup2\n        /* \"#utility.yul\":36032:36056   */\n      tag_593\n      jump\t// in\n    tag_743:\n        /* \"#utility.yul\":36025:36030   */\n      dup2\n        /* \"#utility.yul\":36022:36057   */\n      eq\n        /* \"#utility.yul\":36012:36014   */\n      tag_744\n      jumpi\n        /* \"#utility.yul\":36071:36072   */\n      0x00\n        /* \"#utility.yul\":36068:36069   */\n      dup1\n        /* \"#utility.yul\":36061:36073   */\n      revert\n        /* \"#utility.yul\":36012:36014   */\n    tag_744:\n        /* \"#utility.yul\":36002:36081   */\n      pop\n      jump\t// out\n\n    auxdata: 0xa2646970667358221220eb7f9b01f81630328e2a6f39729e128b5a028e477ae43ded8f0cfc4e755d305764736f6c63430008000033\n}\n",
				"bytecode": {
					"linkReferences": {},
					"object": "608060405234801561001057600080fd5b506001600681905550614506806100286000396000f3fe608060405234801561001057600080fd5b50600436106101415760003560e01c806370acd52a116100b85780639c3861741161007c5780639c386174146103785780639f4216e8146103ab578063a87430ba146103db578063adba83781461040d578063ae23d55314610429578063c9dda6fe1461044557610141565b806370acd52a146102a05780637e69e912146102d55780638927a106146103085780638ad257b71461033b578063919099801461035a57610141565b80633317e3961161010a5780633317e396146101d857806333625e78146101f457806340ec27f314610214578063503015bf146102305780636233775c14610251578063635758771461026d57610141565b8062d8903314610146578063065520911461016457806307460b66146101825780631307430a1461019e57806316ef034c146101bc575b600080fd5b61014e610461565b60405161015b9190613e03565b60405180910390f35b61016c610467565b60405161017991906140ab565b60405180910390f35b61019c60048036038101906101979190613375565b61046d565b005b6101a6610680565b6040516101b391906140ab565b60405180910390f35b6101d660048036038101906101d1919061330e565b610686565b005b6101f260048036038101906101ed9190613255565b610892565b005b6101fc610b69565b60405161020b93929190613cf5565b60405180910390f35b61022e6004803603810190610229919061327e565b61103c565b005b6102386112e0565b6040516102489493929190613da2565b60405180910390f35b61026b600480360381019061026691906132ba565b6119cc565b005b610287600480360381019061028291906133e1565b611c00565b6040516102979493929190613c49565b60405180910390f35b6102ba60048036038101906102b59190613255565b611c6d565b6040516102cc96959493929190613e1e565b60405180910390f35b6102ef60048036038101906102ea91906133e1565b611e06565b6040516102ff9493929190613bf6565b60405180910390f35b610322600480360381019061031d91906133e1565b611f76565b6040516103329493929190613c8e565b60405180910390f35b610343611fd6565b6040516103519291906140c6565b60405180910390f35b61036261218f565b60405161036f9190613cd3565b60405180910390f35b610392600480360381019061038d91906133e1565b612329565b6040516103a29493929190613d41565b60405180910390f35b6103c560048036038101906103c091906133e1565b6128ce565b6040516103d29190613bdb565b60405180910390f35b6103f560048036038101906103f091906131c9565b61290d565b60405161040493929190613e8d565b60405180910390f35b6104276004803603810190610422919061340a565b6129d9565b005b610443600480360381019061043e91906133e1565b612bc0565b005b61045f600480360381019061045a91906131f2565b612e0e565b005b60065481565b60085481565b6000803373ffffffffffffffffffffffffffffffffffffffff1673ffffffffffffffffffffffffffffffffffffffff16815260200190815260200160002060010160019054906101000a900460ff166104fb576040517f08c379a00000000000000000000000000000000000000000000000000000000081526004016104f29061402b565b60405180910390fd5b6040518060c0016040528060065481526020018381526020018281526020013373ffffffffffffffffffffffffffffffffffffffff168152602001600115158152602001600073ffffffffffffffffffffffffffffffffffffffff1681525060016000600654815260200190815260200160002060008201518160000155602082015181600101908051906020019061059592919061306a565b5060408201518160020190805190602001906105b292919061306a565b5060608201518160030160006101000a81548173ffffffffffffffffffffffffffffffffffffffff021916908373ffffffffffffffffffffffffffffffffffffffff16021790555060808201518160030160146101000a81548160ff02191690831515021790555060a08201518160040160006101000a81548173ffffffffffffffffffffffffffffffffffffffff021916908373ffffffffffffffffffffffffffffffffffffffff1602179055509050506006600081548092919061067790614344565b91905055505050565b60075481565b6000803373ffffffffffffffffffffffffffffffffffffffff1673ffffffffffffffffffffffffffffffffffffffff16815260200190815260200160002060010160009054906101000a900460ff1615801561072e57506000803373ffffffffffffffffffffffffffffffffffffffff1673ffffffffffffffffffffffffffffffffffffffff16815260200190815260200160002060010160019054906101000a900460ff16155b61076d576040517f08c379a000000000000000000000000000000000000000000000000000000000815260040161076490613f6b565b60405180910390fd5b604051806060016040528084815260200183151581526020018215158152506000803373ffffffffffffffffffffffffffffffffffffffff1673ffffffffffffffffffffffffffffffffffffffff16815260200190815260200160002060008201518160000190805190602001906107e692919061306a565b5060208201518160010160006101000a81548160ff02191690831515021790555060408201518160010160016101000a81548160ff0219169083151502179055509050506005339080600181540180825580915050600190039060005260206000200160009091909190916101000a81548173ffffffffffffffffffffffffffffffffffffffff021916908373ffffffffffffffffffffffffffffffffffffffff160217905550505050565b6000803373ffffffffffffffffffffffffffffffffffffffff1673ffffffffffffffffffffffffffffffffffffffff16815260200190815260200160002060010160009054906101000a900460ff16610920576040517f08c379a000000000000000000000000000000000000000000000000000000000815260040161091790613feb565b60405180910390fd5b6000805b600280549050811015610a4257826002828154811061096c577f4e487b7100000000000000000000000000000000000000000000000000000000600052603260045260246000fd5b906000526020600020906004020160010154148015610a2157503373ffffffffffffffffffffffffffffffffffffffff16600282815481106109d7577f4e487b7100000000000000000000000000000000000000000000000000000000600052603260045260246000fd5b906000526020600020906004020160000160009054906101000a900473ffffffffffffffffffffffffffffffffffffffff1673ffffffffffffffffffffffffffffffffffffffff16145b15610a2f5760019150610a42565b8080610a3a9061438d565b915050610924565b5080610a83576040517f08c379a0000000000000000000000000000000000000000000000000000000008152600401610a7a90613fab565b60405180910390fd5b600460405180608001604052803373ffffffffffffffffffffffffffffffffffffffff16815260200184815260200142815260200160001515815250908060018154018082558091505060019003906000526020600020906004020160009091909190915060008201518160000160006101000a81548173ffffffffffffffffffffffffffffffffffffffff021916908373ffffffffffffffffffffffffffffffffffffffff160217905550602082015181600101556040820151816002015560608201518160030160006101000a81548160ff02191690831515021790555050505050565b6060806060600060038054905067ffffffffffffffff811115610bb5577f4e487b7100000000000000000000000000000000000000000000000000000000600052604160045260246000fd5b604051908082528060200260200182016040528015610be35781602001602082028036833780820191505090505b509050600060038054905067ffffffffffffffff811115610c2d577f4e487b7100000000000000000000000000000000000000000000000000000000600052604160045260246000fd5b604051908082528060200260200182016040528015610c6057816020015b6060815260200190600190039081610c4b5790505b509050600060038054905067ffffffffffffffff811115610caa577f4e487b7100000000000000000000000000000000000000000000000000000000600052604160045260246000fd5b604051908082528060200260200182016040528015610cdd57816020015b6060815260200190600190039081610cc85790505b50905060005b60038054905081101561102a57600060038281548110610d2c577f4e487b7100000000000000000000000000000000000000000000000000000000600052603260045260246000fd5b90600052602060002090600402016040518060800160405290816000820160009054906101000a900473ffffffffffffffffffffffffffffffffffffffff1673ffffffffffffffffffffffffffffffffffffffff1673ffffffffffffffffffffffffffffffffffffffff16815260200160018201548152602001600282018054610db590614312565b80601f0160208091040260200160405190810160405280929190818152602001828054610de190614312565b8015610e2e5780601f10610e0357610100808354040283529160200191610e2e565b820191906000526020600020905b815481529060010190602001808311610e1157829003601f168201915b50505050508152602001600382018054610e4790614312565b80601f0160208091040260200160405190810160405280929190818152602001828054610e7390614312565b8015610ec05780601f10610e9557610100808354040283529160200191610ec0565b820191906000526020600020905b815481529060010190602001808311610ea357829003601f168201915b50505050508152505090503373ffffffffffffffffffffffffffffffffffffffff16600160008360200151815260200190815260200160002060030160009054906101000a900473ffffffffffffffffffffffffffffffffffffffff1673ffffffffffffffffffffffffffffffffffffffff161415611016578060200151858381518110610f77577f4e487b7100000000000000000000000000000000000000000000000000000000600052603260045260246000fd5b6020026020010181815250508060400151848381518110610fc1577f4e487b7100000000000000000000000000000000000000000000000000000000600052603260045260246000fd5b6020026020010181905250806060015183838151811061100a577f4e487b7100000000000000000000000000000000000000000000000000000000600052603260045260246000fd5b60200260200101819052505b5080806110229061438d565b915050610ce3565b50828282955095509550505050909192565b6000803373ffffffffffffffffffffffffffffffffffffffff1673ffffffffffffffffffffffffffffffffffffffff16815260200190815260200160002060010160019054906101000a900460ff166110ca576040517f08c379a00000000000000000000000000000000000000000000000000000000081526004016110c190613f0b565b60405180910390fd5b3373ffffffffffffffffffffffffffffffffffffffff166001600084815260200190815260200160002060030160009054906101000a900473ffffffffffffffffffffffffffffffffffffffff1673ffffffffffffffffffffffffffffffffffffffff161461116e576040517f08c379a00000000000000000000000000000000000000000000000000000000081526004016111659061408b565b60405180910390fd5b60005b6002805490508110156112db5782600282815481106111b9577f4e487b7100000000000000000000000000000000000000000000000000000000600052603260045260246000fd5b90600052602060002090600402016001015414801561126e57508173ffffffffffffffffffffffffffffffffffffffff1660028281548110611224577f4e487b7100000000000000000000000000000000000000000000000000000000600052603260045260246000fd5b906000526020600020906004020160000160009054906101000a900473ffffffffffffffffffffffffffffffffffffffff1673ffffffffffffffffffffffffffffffffffffffff16145b156112c85742600282815481106112ae577f4e487b7100000000000000000000000000000000000000000000000000000000600052603260045260246000fd5b9060005260206000209060040201600301819055506112db565b80806112d39061438d565b915050611171565b505050565b606080606080600060038054905067ffffffffffffffff81111561132d577f4e487b7100000000000000000000000000000000000000000000000000000000600052604160045260246000fd5b60405190808252806020026020018201604052801561135b5781602001602082028036833780820191505090505b509050600060038054905067ffffffffffffffff8111156113a5577f4e487b7100000000000000000000000000000000000000000000000000000000600052604160045260246000fd5b6040519080825280602002602001820160405280156113d857816020015b60608152602001906001900390816113c35790505b509050600060038054905067ffffffffffffffff811115611422577f4e487b7100000000000000000000000000000000000000000000000000000000600052604160045260246000fd5b60405190808252806020026020018201604052801561145557816020015b60608152602001906001900390816114405790505b509050600060038054905067ffffffffffffffff81111561149f577f4e487b7100000000000000000000000000000000000000000000000000000000600052604160045260246000fd5b6040519080825280602002602001820160405280156114d257816020015b60608152602001906001900390816114bd5790505b50905060005b6003805490508110156119b557600060038281548110611521577f4e487b7100000000000000000000000000000000000000000000000000000000600052603260045260246000fd5b90600052602060002090600402016040518060800160405290816000820160009054906101000a900473ffffffffffffffffffffffffffffffffffffffff1673ffffffffffffffffffffffffffffffffffffffff1673ffffffffffffffffffffffffffffffffffffffff168152602001600182015481526020016002820180546115aa90614312565b80601f01602080910402602001604051908101604052809291908181526020018280546115d690614312565b80156116235780601f106115f857610100808354040283529160200191611623565b820191906000526020600020905b81548152906001019060200180831161160657829003601f168201915b5050505050815260200160038201805461163c90614312565b80601f016020809104026020016040519081016040528092919081815260200182805461166890614312565b80156116b55780601f1061168a576101008083540402835291602001916116b5565b820191906000526020600020905b81548152906001019060200180831161169857829003601f168201915b50505050508152505090503373ffffffffffffffffffffffffffffffffffffffff16816000015173ffffffffffffffffffffffffffffffffffffffff1614156119a1578060200151868381518110611736577f4e487b7100000000000000000000000000000000000000000000000000000000600052603260045260246000fd5b6020026020010181815250508060400151858381518110611780577f4e487b7100000000000000000000000000000000000000000000000000000000600052603260045260246000fd5b602002602001018190525080606001518483815181106117c9577f4e487b7100000000000000000000000000000000000000000000000000000000600052603260045260246000fd5b6020026020010181905250600073ffffffffffffffffffffffffffffffffffffffff16600160008360200151815260200190815260200160002060030160009054906101000a900473ffffffffffffffffffffffffffffffffffffffff1673ffffffffffffffffffffffffffffffffffffffff161461194b57600080600160008460200151815260200190815260200160002060030160009054906101000a900473ffffffffffffffffffffffffffffffffffffffff1673ffffffffffffffffffffffffffffffffffffffff1673ffffffffffffffffffffffffffffffffffffffff16815260200190815260200160002060000180546118c890614312565b80601f01602080910402602001604051908101604052809291908181526020018280546118f490614312565b80156119415780601f1061191657610100808354040283529160200191611941565b820191906000526020600020905b81548152906001019060200180831161192457829003601f168201915b505050505061195c565b604051806020016040528060008152505b838381518110611995577f4e487b7100000000000000000000000000000000000000000000000000000000600052603260045260246000fd5b60200260200101819052505b5080806119ad9061438d565b9150506114d8565b508383838397509750975097505050505090919293565b6000803373ffffffffffffffffffffffffffffffffffffffff1673ffffffffffffffffffffffffffffffffffffffff16815260200190815260200160002060010160009054906101000a900460ff16611a5a576040517f08c379a0000000000000000000000000000000000000000000000000000000008152600401611a5190613fcb565b60405180910390fd5b3373ffffffffffffffffffffffffffffffffffffffff166001600084815260200190815260200160002060040160009054906101000a900473ffffffffffffffffffffffffffffffffffffffff1673ffffffffffffffffffffffffffffffffffffffff1614611afe576040517f08c379a0000000000000000000000000000000000000000000000000000000008152600401611af59061406b565b60405180910390fd5b600360405180608001604052803373ffffffffffffffffffffffffffffffffffffffff16815260200184815260200183815260200160405180602001604052806000815250815250908060018154018082558091505060019003906000526020600020906004020160009091909190915060008201518160000160006101000a81548173ffffffffffffffffffffffffffffffffffffffff021916908373ffffffffffffffffffffffffffffffffffffffff160217905550602082015181600101556040820151816002019080519060200190611bdc92919061306a565b506060820151816003019080519060200190611bf992919061306a565b5050505050565b60048181548110611c1057600080fd5b90600052602060002090600402016000915090508060000160009054906101000a900473ffffffffffffffffffffffffffffffffffffffff16908060010154908060020154908060030160009054906101000a900460ff16905084565b6001602052806000526040600020600091509050806000015490806001018054611c9690614312565b80601f0160208091040260200160405190810160405280929190818152602001828054611cc290614312565b8015611d0f5780601f10611ce457610100808354040283529160200191611d0f565b820191906000526020600020905b815481529060010190602001808311611cf257829003601f168201915b505050505090806002018054611d2490614312565b80601f0160208091040260200160405190810160405280929190818152602001828054611d5090614312565b8015611d9d5780601f10611d7257610100808354040283529160200191611d9d565b820191906000526020600020905b815481529060010190602001808311611d8057829003601f168201915b5050505050908060030160009054906101000a900473ffffffffffffffffffffffffffffffffffffffff16908060030160149054906101000a900460ff16908060040160009054906101000a900473ffffffffffffffffffffffffffffffffffffffff16905086565b60038181548110611e1657600080fd5b90600052602060002090600402016000915090508060000160009054906101000a900473ffffffffffffffffffffffffffffffffffffffff1690806001015490806002018054611e6590614312565b80601f0160208091040260200160405190810160405280929190818152602001828054611e9190614312565b8015611ede5780601f10611eb357610100808354040283529160200191611ede565b820191906000526020600020905b815481529060010190602001808311611ec157829003601f168201915b505050505090806003018054611ef390614312565b80601f0160208091040260200160405190810160405280929190818152602001828054611f1f90614312565b8015611f6c5780601f10611f4157610100808354040283529160200191611f6c565b820191906000526020600020905b815481529060010190602001808311611f4f57829003601f168201915b5050505050905084565b60028181548110611f8657600080fd5b90600052602060002090600402016000915090508060000160009054906101000a900473ffffffffffffffffffffffffffffffffffffffff16908060010154908060020154908060030154905084565b60008060005b60058054905081101561218a5760008060058381548110612026577f4e487b7100000000000000000000000000000000000000000000000000000000600052603260045260246000fd5b9060005260206000200160009054906101000a900473ffffffffffffffffffffffffffffffffffffffff1673ffffffffffffffffffffffffffffffffffffffff1673ffffffffffffffffffffffffffffffffffffffff16815260200190815260200160002060010160009054906101000a900460ff16156120b05782806120ac9061438d565b9350505b600080600583815481106120ed577f4e487b7100000000000000000000000000000000000000000000000000000000600052603260045260246000fd5b9060005260206000200160009054906101000a900473ffffffffffffffffffffffffffffffffffffffff1673ffffffffffffffffffffffffffffffffffffffff1673ffffffffffffffffffffffffffffffffffffffff16815260200190815260200160002060010160019054906101000a900460ff16156121775781806121739061438d565b9250505b80806121829061438d565b915050611fdc565b509091565b6060600060028054905067ffffffffffffffff8111156121d8577f4e487b7100000000000000000000000000000000000000000000000000000000600052604160045260246000fd5b6040519080825280602002602001820160405280156122065781602001602082028036833780820191505090505b50905060005b600280549050811015612321576001600060028381548110612257577f4e487b7100000000000000000000000000000000000000000000000000000000600052603260045260246000fd5b906000526020600020906004020160010154815260200190815260200160002060030160009054906101000a900473ffffffffffffffffffffffffffffffffffffffff168282815181106122d4577f4e487b7100000000000000000000000000000000000000000000000000000000600052603260045260246000fd5b602002602001019073ffffffffffffffffffffffffffffffffffffffff16908173ffffffffffffffffffffffffffffffffffffffff168152505080806123199061438d565b91505061220c565b508091505090565b606080606080600060058054905067ffffffffffffffff811115612376577f4e487b7100000000000000000000000000000000000000000000000000000000600052604160045260246000fd5b6040519080825280602002602001820160405280156123a45781602001602082028036833780820191505090505b509050600060058054905067ffffffffffffffff8111156123ee577f4e487b7100000000000000000000000000000000000000000000000000000000600052604160045260246000fd5b60405190808252806020026020018201604052801561242157816020015b606081526020019060019003908161240c5790505b509050600060058054905067ffffffffffffffff81111561246b577f4e487b7100000000000000000000000000000000000000000000000000000000600052604160045260246000fd5b60405190808252806020026020018201604052801561249e57816020015b60608152602001906001900390816124895790505b509050600060058054905067ffffffffffffffff8111156124e8577f4e487b7100000000000000000000000000000000000000000000000000000000600052604160045260246000fd5b6040519080825280602002602001820160405280156125165781602001602082028036833780820191505090505b50905060005b6005805490508110156128b65760006001826125389190614228565b90506000600160008381526020019081526020016000206040518060c00160405290816000820154815260200160018201805461257490614312565b80601f01602080910402602001604051908101604052809291908181526020018280546125a090614312565b80156125ed5780601f106125c2576101008083540402835291602001916125ed565b820191906000526020600020905b8154815290600101906020018083116125d057829003601f168201915b5050505050815260200160028201805461260690614312565b80601f016020809104026020016040519081016040528092919081815260200182805461263290614312565b801561267f5780601f106126545761010080835404028352916020019161267f565b820191906000526020600020905b81548152906001019060200180831161266257829003601f168201915b505050505081526020016003820160009054906101000a900473ffffffffffffffffffffffffffffffffffffffff1673ffffffffffffffffffffffffffffffffffffffff1673ffffffffffffffffffffffffffffffffffffffff1681526020016003820160149054906101000a900460ff161515151581526020016004820160009054906101000a900473ffffffffffffffffffffffffffffffffffffffff1673ffffffffffffffffffffffffffffffffffffffff1673ffffffffffffffffffffffffffffffffffffffff168152505090508187848151811061278b577f4e487b7100000000000000000000000000000000000000000000000000000000600052603260045260246000fd5b60200260200101818152505080602001518684815181106127d5577f4e487b7100000000000000000000000000000000000000000000000000000000600052603260045260246000fd5b6020026020010181905250806040015185848151811061281e577f4e487b7100000000000000000000000000000000000000000000000000000000600052603260045260246000fd5b60200260200101819052508060600151848481518110612867577f4e487b7100000000000000000000000000000000000000000000000000000000600052603260045260246000fd5b602002602001019073ffffffffffffffffffffffffffffffffffffffff16908173ffffffffffffffffffffffffffffffffffffffff1681525050505080806128ae9061438d565b91505061251c565b50838383839750975097509750505050509193509193565b600581815481106128de57600080fd5b906000526020600020016000915054906101000a900473ffffffffffffffffffffffffffffffffffffffff1681565b600060205280600052604060002060009150905080600001805461293090614312565b80601f016020809104026020016040519081016040528092919081815260200182805461295c90614312565b80156129a95780601f1061297e576101008083540402835291602001916129a9565b820191906000526020600020905b81548152906001019060200180831161298c57829003601f168201915b5050505050908060010160009054906101000a900460ff16908060010160019054906101000a900460ff16905083565b6000803373ffffffffffffffffffffffffffffffffffffffff1673ffffffffffffffffffffffffffffffffffffffff16815260200190815260200160002060010160019054906101000a900460ff16612a67576040517f08c379a0000000000000000000000000000000000000000000000000000000008152600401612a5e9061400b565b60405180910390fd5b6003805490508210612aae576040517f08c379a0000000000000000000000000000000000000000000000000000000008152600401612aa590613f8b565b60405180910390fd5b600060038381548110612aea577f4e487b7100000000000000000000000000000000000000000000000000000000600052603260045260246000fd5b906000526020600020906004020190503373ffffffffffffffffffffffffffffffffffffffff16600160008360010154815260200190815260200160002060030160009054906101000a900473ffffffffffffffffffffffffffffffffffffffff1673ffffffffffffffffffffffffffffffffffffffff1614612ba2576040517f08c379a0000000000000000000000000000000000000000000000000000000008152600401612b9990613eeb565b60405180910390fd5b81816003019080519060200190612bba92919061306a565b50505050565b6000803373ffffffffffffffffffffffffffffffffffffffff1673ffffffffffffffffffffffffffffffffffffffff16815260200190815260200160002060010160019054906101000a900460ff16612c4e576040517f08c379a0000000000000000000000000000000000000000000000000000000008152600401612c4590613ecb565b60405180910390fd5b6004805490508110612c95576040517f08c379a0000000000000000000000000000000000000000000000000000000008152600401612c8c9061404b565b60405180910390fd5b600060048281548110612cd1577f4e487b7100000000000000000000000000000000000000000000000000000000600052603260045260246000fd5b906000526020600020906004020190503373ffffffffffffffffffffffffffffffffffffffff16600160008360010154815260200190815260200160002060030160009054906101000a900473ffffffffffffffffffffffffffffffffffffffff1673ffffffffffffffffffffffffffffffffffffffff1614612d89576040517f08c379a0000000000000000000000000000000000000000000000000000000008152600401612d809061408b565b60405180910390fd5b612dbb81600101548260000160009054906101000a900473ffffffffffffffffffffffffffffffffffffffff1661103c565b60018160030160006101000a81548160ff02191690831515021790555060018060008360010154815260200190815260200160002060030160146101000a81548160ff0219169083151502179055505050565b6000808573ffffffffffffffffffffffffffffffffffffffff1673ffffffffffffffffffffffffffffffffffffffff16815260200190815260200160002060010160009054906101000a900460ff168015612eca57503373ffffffffffffffffffffffffffffffffffffffff166001600085815260200190815260200160002060030160009054906101000a900473ffffffffffffffffffffffffffffffffffffffff1673ffffffffffffffffffffffffffffffffffffffff16145b612f09576040517f08c379a0000000000000000000000000000000000000000000000000000000008152600401612f0090613f4b565b60405180910390fd5b6001600084815260200190815260200160002060030160149054906101000a900460ff16612f6c576040517f08c379a0000000000000000000000000000000000000000000000000000000008152600401612f6390613f2b565b60405180910390fd5b600260405180608001604052808673ffffffffffffffffffffffffffffffffffffffff16815260200185815260200184815260200183815250908060018154018082558091505060019003906000526020600020906004020160009091909190915060008201518160000160006101000a81548173ffffffffffffffffffffffffffffffffffffffff021916908373ffffffffffffffffffffffffffffffffffffffff160217905550602082015181600101556040820151816002015560608201518160030155505060006001600085815260200190815260200160002060030160146101000a81548160ff02191690831515021790555050505050565b82805461307690614312565b90600052602060002090601f01602090048101928261309857600085556130df565b82601f106130b157805160ff19168380011785556130df565b828001600101855582156130df579182015b828111156130de5782518255916020019190600101906130c3565b5b5090506130ec91906130f0565b5090565b5b808211156131095760008160009055506001016130f1565b5090565b600061312061311b84614120565b6140ef565b90508281526020810184848401111561313857600080fd5b6131438482856142d0565b509392505050565b60008135905061315a81614474565b92915050565b60008135905061316f8161448b565b92915050565b600081359050613184816144a2565b92915050565b600082601f83011261319b57600080fd5b81356131ab84826020860161310d565b91505092915050565b6000813590506131c3816144b9565b92915050565b6000602082840312156131db57600080fd5b60006131e98482850161314b565b91505092915050565b6000806000806080858703121561320857600080fd5b60006132168782880161314b565b945050602061322787828801613175565b9350506040613238878288016131b4565b9250506060613249878288016131b4565b91505092959194509250565b60006020828403121561326757600080fd5b600061327584828501613175565b91505092915050565b6000806040838503121561329157600080fd5b600061329f85828601613175565b92505060206132b08582860161314b565b9150509250929050565b600080604083850312156132cd57600080fd5b60006132db85828601613175565b925050602083013567ffffffffffffffff8111156132f857600080fd5b6133048582860161318a565b9150509250929050565b60008060006060848603121561332357600080fd5b600084013567ffffffffffffffff81111561333d57600080fd5b6133498682870161318a565b935050602061335a86828701613160565b925050604061336b86828701613160565b9150509250925092565b6000806040838503121561338857600080fd5b600083013567ffffffffffffffff8111156133a257600080fd5b6133ae8582860161318a565b925050602083013567ffffffffffffffff8111156133cb57600080fd5b6133d78582860161318a565b9150509250929050565b6000602082840312156133f357600080fd5b6000613401848285016131b4565b91505092915050565b6000806040838503121561341d57600080fd5b600061342b858286016131b4565b925050602083013567ffffffffffffffff81111561344857600080fd5b6134548582860161318a565b9150509250929050565b600061346a83836134a2565b60208301905092915050565b60006134828383613600565b60208301905092915050565b600061349a838361361e565b905092915050565b6134ab8161427e565b82525050565b6134ba8161427e565b82525050565b60006134cb82614180565b6134d581856141d3565b93506134e083614150565b8060005b838110156135115781516134f8888261345e565b9750613503836141ac565b9250506001810190506134e4565b5085935050505092915050565b60006135298261418b565b61353381856141e4565b935061353e83614160565b8060005b8381101561356f5781516135568882613476565b9750613561836141b9565b925050600181019050613542565b5085935050505092915050565b600061358782614196565b61359181856141f5565b9350836020820285016135a385614170565b8060005b858110156135df57848403895281516135c0858261348e565b94506135cb836141c6565b925060208a019950506001810190506135a7565b50829750879550505050505092915050565b6135fa81614290565b82525050565b6136098161429c565b82525050565b6136188161429c565b82525050565b6000613629826141a1565b6136338185614206565b93506136438185602086016142df565b61364c81614463565b840191505092915050565b6000613662826141a1565b61366c8185614217565b935061367c8185602086016142df565b61368581614463565b840191505092915050565b600061369d602c83614217565b91507f4f6e6c79206c616e646c6f7264732063616e20617070726f7665206561726c7960008301527f207465726d696e6174696f6e00000000000000000000000000000000000000006020830152604082019050919050565b6000613703603f83614217565b91507f596f7520617265206e6f7420746865206f776e6572206f66207468652070726f60008301527f70657274792072656c6174656420746f207468697320636f6d706c61696e74006020830152604082019050919050565b6000613769602383614217565b91507f4f6e6c79206c616e646c6f7264732063616e207465726d696e617465206c656160008301527f73657300000000000000000000000000000000000000000000000000000000006020830152604082019050919050565b60006137cf601883614217565b91507f50726f7065727479206973206e6f742072656e7461626c6500000000000000006000830152602082019050919050565b600061380f601a83614217565b91507f496e76616c69642074656e616e74206f722070726f70657274790000000000006000830152602082019050919050565b600061384f601383614217565b91507f5573657220616c726561647920657869737473000000000000000000000000006000830152602082019050919050565b600061388f601783614217565b91507f496e76616c696420636f6d706c61696e7420696e6465780000000000000000006000830152602082019050919050565b60006138cf602983614217565b91507f596f7520646f206e6f7420686176652061206c6561736520666f72207468697360008301527f2070726f706572747900000000000000000000000000000000000000000000006020830152604082019050919050565b6000613935602283614217565b91507f4f6e6c792074656e616e74732063616e2063726561746520636f6d706c61696e60008301527f74730000000000000000000000000000000000000000000000000000000000006020830152604082019050919050565b600061399b602a83614217565b91507f4f6e6c792074656e616e74732063616e2072657175657374206561726c79207460008301527f65726d696e6174696f6e000000000000000000000000000000000000000000006020830152604082019050919050565b6000613a01602883614217565b91507f4f6e6c79206c616e646c6f7264732063616e20726573706f6e6420746f20636f60008301527f6d706c61696e74730000000000000000000000000000000000000000000000006020830152604082019050919050565b6000613a67602483614217565b91507f4f6e6c79206c616e646c6f7264732063616e206372656174652070726f70657260008301527f74696573000000000000000000000000000000000000000000000000000000006020830152604082019050919050565b6000613acd601583614217565b91507f496e76616c6964207265717565737420696e64657800000000000000000000006000830152602082019050919050565b6000613b0d602d83614217565b91507f596f752063616e206f6e6c7920636f6d706c61696e2061626f7574206120726560008301527f6e7465642070726f7065727479000000000000000000000000000000000000006020830152604082019050919050565b6000613b73602583614217565b91507f596f7520617265206e6f7420746865206f776e6572206f66207468652070726f60008301527f70657274790000000000000000000000000000000000000000000000000000006020830152604082019050919050565b613bd5816142c6565b82525050565b6000602082019050613bf060008301846134b1565b92915050565b6000608082019050613c0b60008301876134b1565b613c18602083018661360f565b8181036040830152613c2a8185613657565b90508181036060830152613c3e8184613657565b905095945050505050565b6000608082019050613c5e60008301876134b1565b613c6b602083018661360f565b613c786040830185613bcc565b613c8560608301846135f1565b95945050505050565b6000608082019050613ca360008301876134b1565b613cb0602083018661360f565b613cbd6040830185613bcc565b613cca6060830184613bcc565b95945050505050565b60006020820190508181036000830152613ced81846134c0565b905092915050565b60006060820190508181036000830152613d0f818661351e565b90508181036020830152613d23818561357c565b90508181036040830152613d37818461357c565b9050949350505050565b60006080820190508181036000830152613d5b818761351e565b90508181036020830152613d6f818661357c565b90508181036040830152613d83818561357c565b90508181036060830152613d9781846134c0565b905095945050505050565b60006080820190508181036000830152613dbc818761351e565b90508181036020830152613dd0818661357c565b90508181036040830152613de4818561357c565b90508181036060830152613df8818461357c565b905095945050505050565b6000602082019050613e18600083018461360f565b92915050565b600060c082019050613e33600083018961360f565b8181036020830152613e458188613657565b90508181036040830152613e598187613657565b9050613e6860608301866134b1565b613e7560808301856135f1565b613e8260a08301846134b1565b979650505050505050565b60006060820190508181036000830152613ea78186613657565b9050613eb660208301856135f1565b613ec360408301846135f1565b949350505050565b60006020820190508181036000830152613ee481613690565b9050919050565b60006020820190508181036000830152613f04816136f6565b9050919050565b60006020820190508181036000830152613f248161375c565b9050919050565b60006020820190508181036000830152613f44816137c2565b9050919050565b60006020820190508181036000830152613f6481613802565b9050919050565b60006020820190508181036000830152613f8481613842565b9050919050565b60006020820190508181036000830152613fa481613882565b9050919050565b60006020820190508181036000830152613fc4816138c2565b9050919050565b60006020820190508181036000830152613fe481613928565b9050919050565b600060208201905081810360008301526140048161398e565b9050919050565b60006020820190508181036000830152614024816139f4565b9050919050565b6000602082019050818103600083015261404481613a5a565b9050919050565b6000602082019050818103600083015261406481613ac0565b9050919050565b6000602082019050818103600083015261408481613b00565b9050919050565b600060208201905081810360008301526140a481613b66565b9050919050565b60006020820190506140c06000830184613bcc565b92915050565b60006040820190506140db6000830185613bcc565b6140e86020830184613bcc565b9392505050565b6000604051905081810181811067ffffffffffffffff8211171561411657614115614434565b5b8060405250919050565b600067ffffffffffffffff82111561413b5761413a614434565b5b601f19601f8301169050602081019050919050565b6000819050602082019050919050565b6000819050602082019050919050565b6000819050602082019050919050565b600081519050919050565b600081519050919050565b600081519050919050565b600081519050919050565b6000602082019050919050565b6000602082019050919050565b6000602082019050919050565b600082825260208201905092915050565b600082825260208201905092915050565b600082825260208201905092915050565b600082825260208201905092915050565b600082825260208201905092915050565b6000614233826142c6565b915061423e836142c6565b9250827fffffffffffffffffffffffffffffffffffffffffffffffffffffffffffffffff03821115614273576142726143d6565b5b828201905092915050565b6000614289826142a6565b9050919050565b60008115159050919050565b6000819050919050565b600073ffffffffffffffffffffffffffffffffffffffff82169050919050565b6000819050919050565b82818337600083830152505050565b60005b838110156142fd5780820151818401526020810190506142e2565b8381111561430c576000848401525b50505050565b6000600282049050600182168061432a57607f821691505b6020821081141561433e5761433d614405565b5b50919050565b600061434f8261429c565b91507f7fffffffffffffffffffffffffffffffffffffffffffffffffffffffffffffff821415614382576143816143d6565b5b600182019050919050565b6000614398826142c6565b91507fffffffffffffffffffffffffffffffffffffffffffffffffffffffffffffffff8214156143cb576143ca6143d6565b5b600182019050919050565b7f4e487b7100000000000000000000000000000000000000000000000000000000600052601160045260246000fd5b7f4e487b7100000000000000000000000000000000000000000000000000000000600052602260045260246000fd5b7f4e487b7100000000000000000000000000000000000000000000000000000000600052604160045260246000fd5b6000601f19601f8301169050919050565b61447d8161427e565b811461448857600080fd5b50565b61449481614290565b811461449f57600080fd5b50565b6144ab8161429c565b81146144b657600080fd5b50565b6144c2816142c6565b81146144cd57600080fd5b5056fea2646970667358221220eb7f9b01f81630328e2a6f39729e128b5a028e477ae43ded8f0cfc4e755d305764736f6c63430008000033",
					"opcodes": "PUSH1 0x80 PUSH1 0x40 MSTORE CALLVALUE DUP1 ISZERO PUSH2 0x10 JUMPI PUSH1 0x0 DUP1 REVERT JUMPDEST POP PUSH1 0x1 PUSH1 0x6 DUP2 SWAP1 SSTORE POP PUSH2 0x4506 DUP1 PUSH2 0x28 PUSH1 0x0 CODECOPY PUSH1 0x0 RETURN INVALID PUSH1 0x80 PUSH1 0x40 MSTORE CALLVALUE DUP1 ISZERO PUSH2 0x10 JUMPI PUSH1 0x0 DUP1 REVERT JUMPDEST POP PUSH1 0x4 CALLDATASIZE LT PUSH2 0x141 JUMPI PUSH1 0x0 CALLDATALOAD PUSH1 0xE0 SHR DUP1 PUSH4 0x70ACD52A GT PUSH2 0xB8 JUMPI DUP1 PUSH4 0x9C386174 GT PUSH2 0x7C JUMPI DUP1 PUSH4 0x9C386174 EQ PUSH2 0x378 JUMPI DUP1 PUSH4 0x9F4216E8 EQ PUSH2 0x3AB JUMPI DUP1 PUSH4 0xA87430BA EQ PUSH2 0x3DB JUMPI DUP1 PUSH4 0xADBA8378 EQ PUSH2 0x40D JUMPI DUP1 PUSH4 0xAE23D553 EQ PUSH2 0x429 JUMPI DUP1 PUSH4 0xC9DDA6FE EQ PUSH2 0x445 JUMPI PUSH2 0x141 JUMP JUMPDEST DUP1 PUSH4 0x70ACD52A EQ PUSH2 0x2A0 JUMPI DUP1 PUSH4 0x7E69E912 EQ PUSH2 0x2D5 JUMPI DUP1 PUSH4 0x8927A106 EQ PUSH2 0x308 JUMPI DUP1 PUSH4 0x8AD257B7 EQ PUSH2 0x33B JUMPI DUP1 PUSH4 0x91909980 EQ PUSH2 0x35A JUMPI PUSH2 0x141 JUMP JUMPDEST DUP1 PUSH4 0x3317E396 GT PUSH2 0x10A JUMPI DUP1 PUSH4 0x3317E396 EQ PUSH2 0x1D8 JUMPI DUP1 PUSH4 0x33625E78 EQ PUSH2 0x1F4 JUMPI DUP1 PUSH4 0x40EC27F3 EQ PUSH2 0x214 JUMPI DUP1 PUSH4 0x503015BF EQ PUSH2 0x230 JUMPI DUP1 PUSH4 0x6233775C EQ PUSH2 0x251 JUMPI DUP1 PUSH4 0x63575877 EQ PUSH2 0x26D JUMPI PUSH2 0x141 JUMP JUMPDEST DUP1 PUSH3 0xD89033 EQ PUSH2 0x146 JUMPI DUP1 PUSH4 0x6552091 EQ PUSH2 0x164 JUMPI DUP1 PUSH4 0x7460B66 EQ PUSH2 0x182 JUMPI DUP1 PUSH4 0x1307430A EQ PUSH2 0x19E JUMPI DUP1 PUSH4 0x16EF034C EQ PUSH2 0x1BC JUMPI JUMPDEST PUSH1 0x0 DUP1 REVERT JUMPDEST PUSH2 0x14E PUSH2 0x461 JUMP JUMPDEST PUSH1 0x40 MLOAD PUSH2 0x15B SWAP2 SWAP1 PUSH2 0x3E03 JUMP JUMPDEST PUSH1 0x40 MLOAD DUP1 SWAP2 SUB SWAP1 RETURN JUMPDEST PUSH2 0x16C PUSH2 0x467 JUMP JUMPDEST PUSH1 0x40 MLOAD PUSH2 0x179 SWAP2 SWAP1 PUSH2 0x40AB JUMP JUMPDEST PUSH1 0x40 MLOAD DUP1 SWAP2 SUB SWAP1 RETURN JUMPDEST PUSH2 0x19C PUSH1 0x4 DUP1 CALLDATASIZE SUB DUP2 ADD SWAP1 PUSH2 0x197 SWAP2 SWAP1 PUSH2 0x3375 JUMP JUMPDEST PUSH2 0x46D JUMP JUMPDEST STOP JUMPDEST PUSH2 0x1A6 PUSH2 0x680 JUMP JUMPDEST PUSH1 0x40 MLOAD PUSH2 0x1B3 SWAP2 SWAP1 PUSH2 0x40AB JUMP JUMPDEST PUSH1 0x40 MLOAD DUP1 SWAP2 SUB SWAP1 RETURN JUMPDEST PUSH2 0x1D6 PUSH1 0x4 DUP1 CALLDATASIZE SUB DUP2 ADD SWAP1 PUSH2 0x1D1 SWAP2 SWAP1 PUSH2 0x330E JUMP JUMPDEST PUSH2 0x686 JUMP JUMPDEST STOP JUMPDEST PUSH2 0x1F2 PUSH1 0x4 DUP1 CALLDATASIZE SUB DUP2 ADD SWAP1 PUSH2 0x1ED SWAP2 SWAP1 PUSH2 0x3255 JUMP JUMPDEST PUSH2 0x892 JUMP JUMPDEST STOP JUMPDEST PUSH2 0x1FC PUSH2 0xB69 JUMP JUMPDEST PUSH1 0x40 MLOAD PUSH2 0x20B SWAP4 SWAP3 SWAP2 SWAP1 PUSH2 0x3CF5 JUMP JUMPDEST PUSH1 0x40 MLOAD DUP1 SWAP2 SUB SWAP1 RETURN JUMPDEST PUSH2 0x22E PUSH1 0x4 DUP1 CALLDATASIZE SUB DUP2 ADD SWAP1 PUSH2 0x229 SWAP2 SWAP1 PUSH2 0x327E JUMP JUMPDEST PUSH2 0x103C JUMP JUMPDEST STOP JUMPDEST PUSH2 0x238 PUSH2 0x12E0 JUMP JUMPDEST PUSH1 0x40 MLOAD PUSH2 0x248 SWAP5 SWAP4 SWAP3 SWAP2 SWAP1 PUSH2 0x3DA2 JUMP JUMPDEST PUSH1 0x40 MLOAD DUP1 SWAP2 SUB SWAP1 RETURN JUMPDEST PUSH2 0x26B PUSH1 0x4 DUP1 CALLDATASIZE SUB DUP2 ADD SWAP1 PUSH2 0x266 SWAP2 SWAP1 PUSH2 0x32BA JUMP JUMPDEST PUSH2 0x19CC JUMP JUMPDEST STOP JUMPDEST PUSH2 0x287 PUSH1 0x4 DUP1 CALLDATASIZE SUB DUP2 ADD SWAP1 PUSH2 0x282 SWAP2 SWAP1 PUSH2 0x33E1 JUMP JUMPDEST PUSH2 0x1C00 JUMP JUMPDEST PUSH1 0x40 MLOAD PUSH2 0x297 SWAP5 SWAP4 SWAP3 SWAP2 SWAP1 PUSH2 0x3C49 JUMP JUMPDEST PUSH1 0x40 MLOAD DUP1 SWAP2 SUB SWAP1 RETURN JUMPDEST PUSH2 0x2BA PUSH1 0x4 DUP1 CALLDATASIZE SUB DUP2 ADD SWAP1 PUSH2 0x2B5 SWAP2 SWAP1 PUSH2 0x3255 JUMP JUMPDEST PUSH2 0x1C6D JUMP JUMPDEST PUSH1 0x40 MLOAD PUSH2 0x2CC SWAP7 SWAP6 SWAP5 SWAP4 SWAP3 SWAP2 SWAP1 PUSH2 0x3E1E JUMP JUMPDEST PUSH1 0x40 MLOAD DUP1 SWAP2 SUB SWAP1 RETURN JUMPDEST PUSH2 0x2EF PUSH1 0x4 DUP1 CALLDATASIZE SUB DUP2 ADD SWAP1 PUSH2 0x2EA SWAP2 SWAP1 PUSH2 0x33E1 JUMP JUMPDEST PUSH2 0x1E06 JUMP JUMPDEST PUSH1 0x40 MLOAD PUSH2 0x2FF SWAP5 SWAP4 SWAP3 SWAP2 SWAP1 PUSH2 0x3BF6 JUMP JUMPDEST PUSH1 0x40 MLOAD DUP1 SWAP2 SUB SWAP1 RETURN JUMPDEST PUSH2 0x322 PUSH1 0x4 DUP1 CALLDATASIZE SUB DUP2 ADD SWAP1 PUSH2 0x31D SWAP2 SWAP1 PUSH2 0x33E1 JUMP JUMPDEST PUSH2 0x1F76 JUMP JUMPDEST PUSH1 0x40 MLOAD PUSH2 0x332 SWAP5 SWAP4 SWAP3 SWAP2 SWAP1 PUSH2 0x3C8E JUMP JUMPDEST PUSH1 0x40 MLOAD DUP1 SWAP2 SUB SWAP1 RETURN JUMPDEST PUSH2 0x343 PUSH2 0x1FD6 JUMP JUMPDEST PUSH1 0x40 MLOAD PUSH2 0x351 SWAP3 SWAP2 SWAP1 PUSH2 0x40C6 JUMP JUMPDEST PUSH1 0x40 MLOAD DUP1 SWAP2 SUB SWAP1 RETURN JUMPDEST PUSH2 0x362 PUSH2 0x218F JUMP JUMPDEST PUSH1 0x40 MLOAD PUSH2 0x36F SWAP2 SWAP1 PUSH2 0x3CD3 JUMP JUMPDEST PUSH1 0x40 MLOAD DUP1 SWAP2 SUB SWAP1 RETURN JUMPDEST PUSH2 0x392 PUSH1 0x4 DUP1 CALLDATASIZE SUB DUP2 ADD SWAP1 PUSH2 0x38D SWAP2 SWAP1 PUSH2 0x33E1 JUMP JUMPDEST PUSH2 0x2329 JUMP JUMPDEST PUSH1 0x40 MLOAD PUSH2 0x3A2 SWAP5 SWAP4 SWAP3 SWAP2 SWAP1 PUSH2 0x3D41 JUMP JUMPDEST PUSH1 0x40 MLOAD DUP1 SWAP2 SUB SWAP1 RETURN JUMPDEST PUSH2 0x3C5 PUSH1 0x4 DUP1 CALLDATASIZE SUB DUP2 ADD SWAP1 PUSH2 0x3C0 SWAP2 SWAP1 PUSH2 0x33E1 JUMP JUMPDEST PUSH2 0x28CE JUMP JUMPDEST PUSH1 0x40 MLOAD PUSH2 0x3D2 SWAP2 SWAP1 PUSH2 0x3BDB JUMP JUMPDEST PUSH1 0x40 MLOAD DUP1 SWAP2 SUB SWAP1 RETURN JUMPDEST PUSH2 0x3F5 PUSH1 0x4 DUP1 CALLDATASIZE SUB DUP2 ADD SWAP1 PUSH2 0x3F0 SWAP2 SWAP1 PUSH2 0x31C9 JUMP JUMPDEST PUSH2 0x290D JUMP JUMPDEST PUSH1 0x40 MLOAD PUSH2 0x404 SWAP4 SWAP3 SWAP2 SWAP1 PUSH2 0x3E8D JUMP JUMPDEST PUSH1 0x40 MLOAD DUP1 SWAP2 SUB SWAP1 RETURN JUMPDEST PUSH2 0x427 PUSH1 0x4 DUP1 CALLDATASIZE SUB DUP2 ADD SWAP1 PUSH2 0x422 SWAP2 SWAP1 PUSH2 0x340A JUMP JUMPDEST PUSH2 0x29D9 JUMP JUMPDEST STOP JUMPDEST PUSH2 0x443 PUSH1 0x4 DUP1 CALLDATASIZE SUB DUP2 ADD SWAP1 PUSH2 0x43E SWAP2 SWAP1 PUSH2 0x33E1 JUMP JUMPDEST PUSH2 0x2BC0 JUMP JUMPDEST STOP JUMPDEST PUSH2 0x45F PUSH1 0x4 DUP1 CALLDATASIZE SUB DUP2 ADD SWAP1 PUSH2 0x45A SWAP2 SWAP1 PUSH2 0x31F2 JUMP JUMPDEST PUSH2 0x2E0E JUMP JUMPDEST STOP JUMPDEST PUSH1 0x6 SLOAD DUP2 JUMP JUMPDEST PUSH1 0x8 SLOAD DUP2 JUMP JUMPDEST PUSH1 0x0 DUP1 CALLER PUSH20 0xFFFFFFFFFFFFFFFFFFFFFFFFFFFFFFFFFFFFFFFF AND PUSH20 0xFFFFFFFFFFFFFFFFFFFFFFFFFFFFFFFFFFFFFFFF AND DUP2 MSTORE PUSH1 0x20 ADD SWAP1 DUP2 MSTORE PUSH1 0x20 ADD PUSH1 0x0 KECCAK256 PUSH1 0x1 ADD PUSH1 0x1 SWAP1 SLOAD SWAP1 PUSH2 0x100 EXP SWAP1 DIV PUSH1 0xFF AND PUSH2 0x4FB JUMPI PUSH1 0x40 MLOAD PUSH32 0x8C379A000000000000000000000000000000000000000000000000000000000 DUP2 MSTORE PUSH1 0x4 ADD PUSH2 0x4F2 SWAP1 PUSH2 0x402B JUMP JUMPDEST PUSH1 0x40 MLOAD DUP1 SWAP2 SUB SWAP1 REVERT JUMPDEST PUSH1 0x40 MLOAD DUP1 PUSH1 0xC0 ADD PUSH1 0x40 MSTORE DUP1 PUSH1 0x6 SLOAD DUP2 MSTORE PUSH1 0x20 ADD DUP4 DUP2 MSTORE PUSH1 0x20 ADD DUP3 DUP2 MSTORE PUSH1 0x20 ADD CALLER PUSH20 0xFFFFFFFFFFFFFFFFFFFFFFFFFFFFFFFFFFFFFFFF AND DUP2 MSTORE PUSH1 0x20 ADD PUSH1 0x1 ISZERO ISZERO DUP2 MSTORE PUSH1 0x20 ADD PUSH1 0x0 PUSH20 0xFFFFFFFFFFFFFFFFFFFFFFFFFFFFFFFFFFFFFFFF AND DUP2 MSTORE POP PUSH1 0x1 PUSH1 0x0 PUSH1 0x6 SLOAD DUP2 MSTORE PUSH1 0x20 ADD SWAP1 DUP2 MSTORE PUSH1 0x20 ADD PUSH1 0x0 KECCAK256 PUSH1 0x0 DUP3 ADD MLOAD DUP2 PUSH1 0x0 ADD SSTORE PUSH1 0x20 DUP3 ADD MLOAD DUP2 PUSH1 0x1 ADD SWAP1 DUP1 MLOAD SWAP1 PUSH1 0x20 ADD SWAP1 PUSH2 0x595 SWAP3 SWAP2 SWAP1 PUSH2 0x306A JUMP JUMPDEST POP PUSH1 0x40 DUP3 ADD MLOAD DUP2 PUSH1 0x2 ADD SWAP1 DUP1 MLOAD SWAP1 PUSH1 0x20 ADD SWAP1 PUSH2 0x5B2 SWAP3 SWAP2 SWAP1 PUSH2 0x306A JUMP JUMPDEST POP PUSH1 0x60 DUP3 ADD MLOAD DUP2 PUSH1 0x3 ADD PUSH1 0x0 PUSH2 0x100 EXP DUP2 SLOAD DUP2 PUSH20 0xFFFFFFFFFFFFFFFFFFFFFFFFFFFFFFFFFFFFFFFF MUL NOT AND SWAP1 DUP4 PUSH20 0xFFFFFFFFFFFFFFFFFFFFFFFFFFFFFFFFFFFFFFFF AND MUL OR SWAP1 SSTORE POP PUSH1 0x80 DUP3 ADD MLOAD DUP2 PUSH1 0x3 ADD PUSH1 0x14 PUSH2 0x100 EXP DUP2 SLOAD DUP2 PUSH1 0xFF MUL NOT AND SWAP1 DUP4 ISZERO ISZERO MUL OR SWAP1 SSTORE POP PUSH1 0xA0 DUP3 ADD MLOAD DUP2 PUSH1 0x4 ADD PUSH1 0x0 PUSH2 0x100 EXP DUP2 SLOAD DUP2 PUSH20 0xFFFFFFFFFFFFFFFFFFFFFFFFFFFFFFFFFFFFFFFF MUL NOT AND SWAP1 DUP4 PUSH20 0xFFFFFFFFFFFFFFFFFFFFFFFFFFFFFFFFFFFFFFFF AND MUL OR SWAP1 SSTORE POP SWAP1 POP POP PUSH1 0x6 PUSH1 0x0 DUP2 SLOAD DUP1 SWAP3 SWAP2 SWAP1 PUSH2 0x677 SWAP1 PUSH2 0x4344 JUMP JUMPDEST SWAP2 SWAP1 POP SSTORE POP POP POP JUMP JUMPDEST PUSH1 0x7 SLOAD DUP2 JUMP JUMPDEST PUSH1 0x0 DUP1 CALLER PUSH20 0xFFFFFFFFFFFFFFFFFFFFFFFFFFFFFFFFFFFFFFFF AND PUSH20 0xFFFFFFFFFFFFFFFFFFFFFFFFFFFFFFFFFFFFFFFF AND DUP2 MSTORE PUSH1 0x20 ADD SWAP1 DUP2 MSTORE PUSH1 0x20 ADD PUSH1 0x0 KECCAK256 PUSH1 0x1 ADD PUSH1 0x0 SWAP1 SLOAD SWAP1 PUSH2 0x100 EXP SWAP1 DIV PUSH1 0xFF AND ISZERO DUP1 ISZERO PUSH2 0x72E JUMPI POP PUSH1 0x0 DUP1 CALLER PUSH20 0xFFFFFFFFFFFFFFFFFFFFFFFFFFFFFFFFFFFFFFFF AND PUSH20 0xFFFFFFFFFFFFFFFFFFFFFFFFFFFFFFFFFFFFFFFF AND DUP2 MSTORE PUSH1 0x20 ADD SWAP1 DUP2 MSTORE PUSH1 0x20 ADD PUSH1 0x0 KECCAK256 PUSH1 0x1 ADD PUSH1 0x1 SWAP1 SLOAD SWAP1 PUSH2 0x100 EXP SWAP1 DIV PUSH1 0xFF AND ISZERO JUMPDEST PUSH2 0x76D JUMPI PUSH1 0x40 MLOAD PUSH32 0x8C379A000000000000000000000000000000000000000000000000000000000 DUP2 MSTORE PUSH1 0x4 ADD PUSH2 0x764 SWAP1 PUSH2 0x3F6B JUMP JUMPDEST PUSH1 0x40 MLOAD DUP1 SWAP2 SUB SWAP1 REVERT JUMPDEST PUSH1 0x40 MLOAD DUP1 PUSH1 0x60 ADD PUSH1 0x40 MSTORE DUP1 DUP5 DUP2 MSTORE PUSH1 0x20 ADD DUP4 ISZERO ISZERO DUP2 MSTORE PUSH1 0x20 ADD DUP3 ISZERO ISZERO DUP2 MSTORE POP PUSH1 0x0 DUP1 CALLER PUSH20 0xFFFFFFFFFFFFFFFFFFFFFFFFFFFFFFFFFFFFFFFF AND PUSH20 0xFFFFFFFFFFFFFFFFFFFFFFFFFFFFFFFFFFFFFFFF AND DUP2 MSTORE PUSH1 0x20 ADD SWAP1 DUP2 MSTORE PUSH1 0x20 ADD PUSH1 0x0 KECCAK256 PUSH1 0x0 DUP3 ADD MLOAD DUP2 PUSH1 0x0 ADD SWAP1 DUP1 MLOAD SWAP1 PUSH1 0x20 ADD SWAP1 PUSH2 0x7E6 SWAP3 SWAP2 SWAP1 PUSH2 0x306A JUMP JUMPDEST POP PUSH1 0x20 DUP3 ADD MLOAD DUP2 PUSH1 0x1 ADD PUSH1 0x0 PUSH2 0x100 EXP DUP2 SLOAD DUP2 PUSH1 0xFF MUL NOT AND SWAP1 DUP4 ISZERO ISZERO MUL OR SWAP1 SSTORE POP PUSH1 0x40 DUP3 ADD MLOAD DUP2 PUSH1 0x1 ADD PUSH1 0x1 PUSH2 0x100 EXP DUP2 SLOAD DUP2 PUSH1 0xFF MUL NOT AND SWAP1 DUP4 ISZERO ISZERO MUL OR SWAP1 SSTORE POP SWAP1 POP POP PUSH1 0x5 CALLER SWAP1 DUP1 PUSH1 0x1 DUP2 SLOAD ADD DUP1 DUP3 SSTORE DUP1 SWAP2 POP POP PUSH1 0x1 SWAP1 SUB SWAP1 PUSH1 0x0 MSTORE PUSH1 0x20 PUSH1 0x0 KECCAK256 ADD PUSH1 0x0 SWAP1 SWAP2 SWAP1 SWAP2 SWAP1 SWAP2 PUSH2 0x100 EXP DUP2 SLOAD DUP2 PUSH20 0xFFFFFFFFFFFFFFFFFFFFFFFFFFFFFFFFFFFFFFFF MUL NOT AND SWAP1 DUP4 PUSH20 0xFFFFFFFFFFFFFFFFFFFFFFFFFFFFFFFFFFFFFFFF AND MUL OR SWAP1 SSTORE POP POP POP POP JUMP JUMPDEST PUSH1 0x0 DUP1 CALLER PUSH20 0xFFFFFFFFFFFFFFFFFFFFFFFFFFFFFFFFFFFFFFFF AND PUSH20 0xFFFFFFFFFFFFFFFFFFFFFFFFFFFFFFFFFFFFFFFF AND DUP2 MSTORE PUSH1 0x20 ADD SWAP1 DUP2 MSTORE PUSH1 0x20 ADD PUSH1 0x0 KECCAK256 PUSH1 0x1 ADD PUSH1 0x0 SWAP1 SLOAD SWAP1 PUSH2 0x100 EXP SWAP1 DIV PUSH1 0xFF AND PUSH2 0x920 JUMPI PUSH1 0x40 MLOAD PUSH32 0x8C379A000000000000000000000000000000000000000000000000000000000 DUP2 MSTORE PUSH1 0x4 ADD PUSH2 0x917 SWAP1 PUSH2 0x3FEB JUMP JUMPDEST PUSH1 0x40 MLOAD DUP1 SWAP2 SUB SWAP1 REVERT JUMPDEST PUSH1 0x0 DUP1 JUMPDEST PUSH1 0x2 DUP1 SLOAD SWAP1 POP DUP2 LT ISZERO PUSH2 0xA42 JUMPI DUP3 PUSH1 0x2 DUP3 DUP2 SLOAD DUP2 LT PUSH2 0x96C JUMPI PUSH32 0x4E487B7100000000000000000000000000000000000000000000000000000000 PUSH1 0x0 MSTORE PUSH1 0x32 PUSH1 0x4 MSTORE PUSH1 0x24 PUSH1 0x0 REVERT JUMPDEST SWAP1 PUSH1 0x0 MSTORE PUSH1 0x20 PUSH1 0x0 KECCAK256 SWAP1 PUSH1 0x4 MUL ADD PUSH1 0x1 ADD SLOAD EQ DUP1 ISZERO PUSH2 0xA21 JUMPI POP CALLER PUSH20 0xFFFFFFFFFFFFFFFFFFFFFFFFFFFFFFFFFFFFFFFF AND PUSH1 0x2 DUP3 DUP2 SLOAD DUP2 LT PUSH2 0x9D7 JUMPI PUSH32 0x4E487B7100000000000000000000000000000000000000000000000000000000 PUSH1 0x0 MSTORE PUSH1 0x32 PUSH1 0x4 MSTORE PUSH1 0x24 PUSH1 0x0 REVERT JUMPDEST SWAP1 PUSH1 0x0 MSTORE PUSH1 0x20 PUSH1 0x0 KECCAK256 SWAP1 PUSH1 0x4 MUL ADD PUSH1 0x0 ADD PUSH1 0x0 SWAP1 SLOAD SWAP1 PUSH2 0x100 EXP SWAP1 DIV PUSH20 0xFFFFFFFFFFFFFFFFFFFFFFFFFFFFFFFFFFFFFFFF AND PUSH20 0xFFFFFFFFFFFFFFFFFFFFFFFFFFFFFFFFFFFFFFFF AND EQ JUMPDEST ISZERO PUSH2 0xA2F JUMPI PUSH1 0x1 SWAP2 POP PUSH2 0xA42 JUMP JUMPDEST DUP1 DUP1 PUSH2 0xA3A SWAP1 PUSH2 0x438D JUMP JUMPDEST SWAP2 POP POP PUSH2 0x924 JUMP JUMPDEST POP DUP1 PUSH2 0xA83 JUMPI PUSH1 0x40 MLOAD PUSH32 0x8C379A000000000000000000000000000000000000000000000000000000000 DUP2 MSTORE PUSH1 0x4 ADD PUSH2 0xA7A SWAP1 PUSH2 0x3FAB JUMP JUMPDEST PUSH1 0x40 MLOAD DUP1 SWAP2 SUB SWAP1 REVERT JUMPDEST PUSH1 0x4 PUSH1 0x40 MLOAD DUP1 PUSH1 0x80 ADD PUSH1 0x40 MSTORE DUP1 CALLER PUSH20 0xFFFFFFFFFFFFFFFFFFFFFFFFFFFFFFFFFFFFFFFF AND DUP2 MSTORE PUSH1 0x20 ADD DUP5 DUP2 MSTORE PUSH1 0x20 ADD TIMESTAMP DUP2 MSTORE PUSH1 0x20 ADD PUSH1 0x0 ISZERO ISZERO DUP2 MSTORE POP SWAP1 DUP1 PUSH1 0x1 DUP2 SLOAD ADD DUP1 DUP3 SSTORE DUP1 SWAP2 POP POP PUSH1 0x1 SWAP1 SUB SWAP1 PUSH1 0x0 MSTORE PUSH1 0x20 PUSH1 0x0 KECCAK256 SWAP1 PUSH1 0x4 MUL ADD PUSH1 0x0 SWAP1 SWAP2 SWAP1 SWAP2 SWAP1 SWAP2 POP PUSH1 0x0 DUP3 ADD MLOAD DUP2 PUSH1 0x0 ADD PUSH1 0x0 PUSH2 0x100 EXP DUP2 SLOAD DUP2 PUSH20 0xFFFFFFFFFFFFFFFFFFFFFFFFFFFFFFFFFFFFFFFF MUL NOT AND SWAP1 DUP4 PUSH20 0xFFFFFFFFFFFFFFFFFFFFFFFFFFFFFFFFFFFFFFFF AND MUL OR SWAP1 SSTORE POP PUSH1 0x20 DUP3 ADD MLOAD DUP2 PUSH1 0x1 ADD SSTORE PUSH1 0x40 DUP3 ADD MLOAD DUP2 PUSH1 0x2 ADD SSTORE PUSH1 0x60 DUP3 ADD MLOAD DUP2 PUSH1 0x3 ADD PUSH1 0x0 PUSH2 0x100 EXP DUP2 SLOAD DUP2 PUSH1 0xFF MUL NOT AND SWAP1 DUP4 ISZERO ISZERO MUL OR SWAP1 SSTORE POP POP POP POP POP JUMP JUMPDEST PUSH1 0x60 DUP1 PUSH1 0x60 PUSH1 0x0 PUSH1 0x3 DUP1 SLOAD SWAP1 POP PUSH8 0xFFFFFFFFFFFFFFFF DUP2 GT ISZERO PUSH2 0xBB5 JUMPI PUSH32 0x4E487B7100000000000000000000000000000000000000000000000000000000 PUSH1 0x0 MSTORE PUSH1 0x41 PUSH1 0x4 MSTORE PUSH1 0x24 PUSH1 0x0 REVERT JUMPDEST PUSH1 0x40 MLOAD SWAP1 DUP1 DUP3 MSTORE DUP1 PUSH1 0x20 MUL PUSH1 0x20 ADD DUP3 ADD PUSH1 0x40 MSTORE DUP1 ISZERO PUSH2 0xBE3 JUMPI DUP2 PUSH1 0x20 ADD PUSH1 0x20 DUP3 MUL DUP1 CALLDATASIZE DUP4 CALLDATACOPY DUP1 DUP3 ADD SWAP2 POP POP SWAP1 POP JUMPDEST POP SWAP1 POP PUSH1 0x0 PUSH1 0x3 DUP1 SLOAD SWAP1 POP PUSH8 0xFFFFFFFFFFFFFFFF DUP2 GT ISZERO PUSH2 0xC2D JUMPI PUSH32 0x4E487B7100000000000000000000000000000000000000000000000000000000 PUSH1 0x0 MSTORE PUSH1 0x41 PUSH1 0x4 MSTORE PUSH1 0x24 PUSH1 0x0 REVERT JUMPDEST PUSH1 0x40 MLOAD SWAP1 DUP1 DUP3 MSTORE DUP1 PUSH1 0x20 MUL PUSH1 0x20 ADD DUP3 ADD PUSH1 0x40 MSTORE DUP1 ISZERO PUSH2 0xC60 JUMPI DUP2 PUSH1 0x20 ADD JUMPDEST PUSH1 0x60 DUP2 MSTORE PUSH1 0x20 ADD SWAP1 PUSH1 0x1 SWAP1 SUB SWAP1 DUP2 PUSH2 0xC4B JUMPI SWAP1 POP JUMPDEST POP SWAP1 POP PUSH1 0x0 PUSH1 0x3 DUP1 SLOAD SWAP1 POP PUSH8 0xFFFFFFFFFFFFFFFF DUP2 GT ISZERO PUSH2 0xCAA JUMPI PUSH32 0x4E487B7100000000000000000000000000000000000000000000000000000000 PUSH1 0x0 MSTORE PUSH1 0x41 PUSH1 0x4 MSTORE PUSH1 0x24 PUSH1 0x0 REVERT JUMPDEST PUSH1 0x40 MLOAD SWAP1 DUP1 DUP3 MSTORE DUP1 PUSH1 0x20 MUL PUSH1 0x20 ADD DUP3 ADD PUSH1 0x40 MSTORE DUP1 ISZERO PUSH2 0xCDD JUMPI DUP2 PUSH1 0x20 ADD JUMPDEST PUSH1 0x60 DUP2 MSTORE PUSH1 0x20 ADD SWAP1 PUSH1 0x1 SWAP1 SUB SWAP1 DUP2 PUSH2 0xCC8 JUMPI SWAP1 POP JUMPDEST POP SWAP1 POP PUSH1 0x0 JUMPDEST PUSH1 0x3 DUP1 SLOAD SWAP1 POP DUP2 LT ISZERO PUSH2 0x102A JUMPI PUSH1 0x0 PUSH1 0x3 DUP3 DUP2 SLOAD DUP2 LT PUSH2 0xD2C JUMPI PUSH32 0x4E487B7100000000000000000000000000000000000000000000000000000000 PUSH1 0x0 MSTORE PUSH1 0x32 PUSH1 0x4 MSTORE PUSH1 0x24 PUSH1 0x0 REVERT JUMPDEST SWAP1 PUSH1 0x0 MSTORE PUSH1 0x20 PUSH1 0x0 KECCAK256 SWAP1 PUSH1 0x4 MUL ADD PUSH1 0x40 MLOAD DUP1 PUSH1 0x80 ADD PUSH1 0x40 MSTORE SWAP1 DUP2 PUSH1 0x0 DUP3 ADD PUSH1 0x0 SWAP1 SLOAD SWAP1 PUSH2 0x100 EXP SWAP1 DIV PUSH20 0xFFFFFFFFFFFFFFFFFFFFFFFFFFFFFFFFFFFFFFFF AND PUSH20 0xFFFFFFFFFFFFFFFFFFFFFFFFFFFFFFFFFFFFFFFF AND PUSH20 0xFFFFFFFFFFFFFFFFFFFFFFFFFFFFFFFFFFFFFFFF AND DUP2 MSTORE PUSH1 0x20 ADD PUSH1 0x1 DUP3 ADD SLOAD DUP2 MSTORE PUSH1 0x20 ADD PUSH1 0x2 DUP3 ADD DUP1 SLOAD PUSH2 0xDB5 SWAP1 PUSH2 0x4312 JUMP JUMPDEST DUP1 PUSH1 0x1F ADD PUSH1 0x20 DUP1 SWAP2 DIV MUL PUSH1 0x20 ADD PUSH1 0x40 MLOAD SWAP1 DUP2 ADD PUSH1 0x40 MSTORE DUP1 SWAP3 SWAP2 SWAP1 DUP2 DUP2 MSTORE PUSH1 0x20 ADD DUP3 DUP1 SLOAD PUSH2 0xDE1 SWAP1 PUSH2 0x4312 JUMP JUMPDEST DUP1 ISZERO PUSH2 0xE2E JUMPI DUP1 PUSH1 0x1F LT PUSH2 0xE03 JUMPI PUSH2 0x100 DUP1 DUP4 SLOAD DIV MUL DUP4 MSTORE SWAP2 PUSH1 0x20 ADD SWAP2 PUSH2 0xE2E JUMP JUMPDEST DUP3 ADD SWAP2 SWAP1 PUSH1 0x0 MSTORE PUSH1 0x20 PUSH1 0x0 KECCAK256 SWAP1 JUMPDEST DUP2 SLOAD DUP2 MSTORE SWAP1 PUSH1 0x1 ADD SWAP1 PUSH1 0x20 ADD DUP1 DUP4 GT PUSH2 0xE11 JUMPI DUP3 SWAP1 SUB PUSH1 0x1F AND DUP3 ADD SWAP2 JUMPDEST POP POP POP POP POP DUP2 MSTORE PUSH1 0x20 ADD PUSH1 0x3 DUP3 ADD DUP1 SLOAD PUSH2 0xE47 SWAP1 PUSH2 0x4312 JUMP JUMPDEST DUP1 PUSH1 0x1F ADD PUSH1 0x20 DUP1 SWAP2 DIV MUL PUSH1 0x20 ADD PUSH1 0x40 MLOAD SWAP1 DUP2 ADD PUSH1 0x40 MSTORE DUP1 SWAP3 SWAP2 SWAP1 DUP2 DUP2 MSTORE PUSH1 0x20 ADD DUP3 DUP1 SLOAD PUSH2 0xE73 SWAP1 PUSH2 0x4312 JUMP JUMPDEST DUP1 ISZERO PUSH2 0xEC0 JUMPI DUP1 PUSH1 0x1F LT PUSH2 0xE95 JUMPI PUSH2 0x100 DUP1 DUP4 SLOAD DIV MUL DUP4 MSTORE SWAP2 PUSH1 0x20 ADD SWAP2 PUSH2 0xEC0 JUMP JUMPDEST DUP3 ADD SWAP2 SWAP1 PUSH1 0x0 MSTORE PUSH1 0x20 PUSH1 0x0 KECCAK256 SWAP1 JUMPDEST DUP2 SLOAD DUP2 MSTORE SWAP1 PUSH1 0x1 ADD SWAP1 PUSH1 0x20 ADD DUP1 DUP4 GT PUSH2 0xEA3 JUMPI DUP3 SWAP1 SUB PUSH1 0x1F AND DUP3 ADD SWAP2 JUMPDEST POP POP POP POP POP DUP2 MSTORE POP POP SWAP1 POP CALLER PUSH20 0xFFFFFFFFFFFFFFFFFFFFFFFFFFFFFFFFFFFFFFFF AND PUSH1 0x1 PUSH1 0x0 DUP4 PUSH1 0x20 ADD MLOAD DUP2 MSTORE PUSH1 0x20 ADD SWAP1 DUP2 MSTORE PUSH1 0x20 ADD PUSH1 0x0 KECCAK256 PUSH1 0x3 ADD PUSH1 0x0 SWAP1 SLOAD SWAP1 PUSH2 0x100 EXP SWAP1 DIV PUSH20 0xFFFFFFFFFFFFFFFFFFFFFFFFFFFFFFFFFFFFFFFF AND PUSH20 0xFFFFFFFFFFFFFFFFFFFFFFFFFFFFFFFFFFFFFFFF AND EQ ISZERO PUSH2 0x1016 JUMPI DUP1 PUSH1 0x20 ADD MLOAD DUP6 DUP4 DUP2 MLOAD DUP2 LT PUSH2 0xF77 JUMPI PUSH32 0x4E487B7100000000000000000000000000000000000000000000000000000000 PUSH1 0x0 MSTORE PUSH1 0x32 PUSH1 0x4 MSTORE PUSH1 0x24 PUSH1 0x0 REVERT JUMPDEST PUSH1 0x20 MUL PUSH1 0x20 ADD ADD DUP2 DUP2 MSTORE POP POP DUP1 PUSH1 0x40 ADD MLOAD DUP5 DUP4 DUP2 MLOAD DUP2 LT PUSH2 0xFC1 JUMPI PUSH32 0x4E487B7100000000000000000000000000000000000000000000000000000000 PUSH1 0x0 MSTORE PUSH1 0x32 PUSH1 0x4 MSTORE PUSH1 0x24 PUSH1 0x0 REVERT JUMPDEST PUSH1 0x20 MUL PUSH1 0x20 ADD ADD DUP2 SWAP1 MSTORE POP DUP1 PUSH1 0x60 ADD MLOAD DUP4 DUP4 DUP2 MLOAD DUP2 LT PUSH2 0x100A JUMPI PUSH32 0x4E487B7100000000000000000000000000000000000000000000000000000000 PUSH1 0x0 MSTORE PUSH1 0x32 PUSH1 0x4 MSTORE PUSH1 0x24 PUSH1 0x0 REVERT JUMPDEST PUSH1 0x20 MUL PUSH1 0x20 ADD ADD DUP2 SWAP1 MSTORE POP JUMPDEST POP DUP1 DUP1 PUSH2 0x1022 SWAP1 PUSH2 0x438D JUMP JUMPDEST SWAP2 POP POP PUSH2 0xCE3 JUMP JUMPDEST POP DUP3 DUP3 DUP3 SWAP6 POP SWAP6 POP SWAP6 POP POP POP POP SWAP1 SWAP2 SWAP3 JUMP JUMPDEST PUSH1 0x0 DUP1 CALLER PUSH20 0xFFFFFFFFFFFFFFFFFFFFFFFFFFFFFFFFFFFFFFFF AND PUSH20 0xFFFFFFFFFFFFFFFFFFFFFFFFFFFFFFFFFFFFFFFF AND DUP2 MSTORE PUSH1 0x20 ADD SWAP1 DUP2 MSTORE PUSH1 0x20 ADD PUSH1 0x0 KECCAK256 PUSH1 0x1 ADD PUSH1 0x1 SWAP1 SLOAD SWAP1 PUSH2 0x100 EXP SWAP1 DIV PUSH1 0xFF AND PUSH2 0x10CA JUMPI PUSH1 0x40 MLOAD PUSH32 0x8C379A000000000000000000000000000000000000000000000000000000000 DUP2 MSTORE PUSH1 0x4 ADD PUSH2 0x10C1 SWAP1 PUSH2 0x3F0B JUMP JUMPDEST PUSH1 0x40 MLOAD DUP1 SWAP2 SUB SWAP1 REVERT JUMPDEST CALLER PUSH20 0xFFFFFFFFFFFFFFFFFFFFFFFFFFFFFFFFFFFFFFFF AND PUSH1 0x1 PUSH1 0x0 DUP5 DUP2 MSTORE PUSH1 0x20 ADD SWAP1 DUP2 MSTORE PUSH1 0x20 ADD PUSH1 0x0 KECCAK256 PUSH1 0x3 ADD PUSH1 0x0 SWAP1 SLOAD SWAP1 PUSH2 0x100 EXP SWAP1 DIV PUSH20 0xFFFFFFFFFFFFFFFFFFFFFFFFFFFFFFFFFFFFFFFF AND PUSH20 0xFFFFFFFFFFFFFFFFFFFFFFFFFFFFFFFFFFFFFFFF AND EQ PUSH2 0x116E JUMPI PUSH1 0x40 MLOAD PUSH32 0x8C379A000000000000000000000000000000000000000000000000000000000 DUP2 MSTORE PUSH1 0x4 ADD PUSH2 0x1165 SWAP1 PUSH2 0x408B JUMP JUMPDEST PUSH1 0x40 MLOAD DUP1 SWAP2 SUB SWAP1 REVERT JUMPDEST PUSH1 0x0 JUMPDEST PUSH1 0x2 DUP1 SLOAD SWAP1 POP DUP2 LT ISZERO PUSH2 0x12DB JUMPI DUP3 PUSH1 0x2 DUP3 DUP2 SLOAD DUP2 LT PUSH2 0x11B9 JUMPI PUSH32 0x4E487B7100000000000000000000000000000000000000000000000000000000 PUSH1 0x0 MSTORE PUSH1 0x32 PUSH1 0x4 MSTORE PUSH1 0x24 PUSH1 0x0 REVERT JUMPDEST SWAP1 PUSH1 0x0 MSTORE PUSH1 0x20 PUSH1 0x0 KECCAK256 SWAP1 PUSH1 0x4 MUL ADD PUSH1 0x1 ADD SLOAD EQ DUP1 ISZERO PUSH2 0x126E JUMPI POP DUP2 PUSH20 0xFFFFFFFFFFFFFFFFFFFFFFFFFFFFFFFFFFFFFFFF AND PUSH1 0x2 DUP3 DUP2 SLOAD DUP2 LT PUSH2 0x1224 JUMPI PUSH32 0x4E487B7100000000000000000000000000000000000000000000000000000000 PUSH1 0x0 MSTORE PUSH1 0x32 PUSH1 0x4 MSTORE PUSH1 0x24 PUSH1 0x0 REVERT JUMPDEST SWAP1 PUSH1 0x0 MSTORE PUSH1 0x20 PUSH1 0x0 KECCAK256 SWAP1 PUSH1 0x4 MUL ADD PUSH1 0x0 ADD PUSH1 0x0 SWAP1 SLOAD SWAP1 PUSH2 0x100 EXP SWAP1 DIV PUSH20 0xFFFFFFFFFFFFFFFFFFFFFFFFFFFFFFFFFFFFFFFF AND PUSH20 0xFFFFFFFFFFFFFFFFFFFFFFFFFFFFFFFFFFFFFFFF AND EQ JUMPDEST ISZERO PUSH2 0x12C8 JUMPI TIMESTAMP PUSH1 0x2 DUP3 DUP2 SLOAD DUP2 LT PUSH2 0x12AE JUMPI PUSH32 0x4E487B7100000000000000000000000000000000000000000000000000000000 PUSH1 0x0 MSTORE PUSH1 0x32 PUSH1 0x4 MSTORE PUSH1 0x24 PUSH1 0x0 REVERT JUMPDEST SWAP1 PUSH1 0x0 MSTORE PUSH1 0x20 PUSH1 0x0 KECCAK256 SWAP1 PUSH1 0x4 MUL ADD PUSH1 0x3 ADD DUP2 SWAP1 SSTORE POP PUSH2 0x12DB JUMP JUMPDEST DUP1 DUP1 PUSH2 0x12D3 SWAP1 PUSH2 0x438D JUMP JUMPDEST SWAP2 POP POP PUSH2 0x1171 JUMP JUMPDEST POP POP POP JUMP JUMPDEST PUSH1 0x60 DUP1 PUSH1 0x60 DUP1 PUSH1 0x0 PUSH1 0x3 DUP1 SLOAD SWAP1 POP PUSH8 0xFFFFFFFFFFFFFFFF DUP2 GT ISZERO PUSH2 0x132D JUMPI PUSH32 0x4E487B7100000000000000000000000000000000000000000000000000000000 PUSH1 0x0 MSTORE PUSH1 0x41 PUSH1 0x4 MSTORE PUSH1 0x24 PUSH1 0x0 REVERT JUMPDEST PUSH1 0x40 MLOAD SWAP1 DUP1 DUP3 MSTORE DUP1 PUSH1 0x20 MUL PUSH1 0x20 ADD DUP3 ADD PUSH1 0x40 MSTORE DUP1 ISZERO PUSH2 0x135B JUMPI DUP2 PUSH1 0x20 ADD PUSH1 0x20 DUP3 MUL DUP1 CALLDATASIZE DUP4 CALLDATACOPY DUP1 DUP3 ADD SWAP2 POP POP SWAP1 POP JUMPDEST POP SWAP1 POP PUSH1 0x0 PUSH1 0x3 DUP1 SLOAD SWAP1 POP PUSH8 0xFFFFFFFFFFFFFFFF DUP2 GT ISZERO PUSH2 0x13A5 JUMPI PUSH32 0x4E487B7100000000000000000000000000000000000000000000000000000000 PUSH1 0x0 MSTORE PUSH1 0x41 PUSH1 0x4 MSTORE PUSH1 0x24 PUSH1 0x0 REVERT JUMPDEST PUSH1 0x40 MLOAD SWAP1 DUP1 DUP3 MSTORE DUP1 PUSH1 0x20 MUL PUSH1 0x20 ADD DUP3 ADD PUSH1 0x40 MSTORE DUP1 ISZERO PUSH2 0x13D8 JUMPI DUP2 PUSH1 0x20 ADD JUMPDEST PUSH1 0x60 DUP2 MSTORE PUSH1 0x20 ADD SWAP1 PUSH1 0x1 SWAP1 SUB SWAP1 DUP2 PUSH2 0x13C3 JUMPI SWAP1 POP JUMPDEST POP SWAP1 POP PUSH1 0x0 PUSH1 0x3 DUP1 SLOAD SWAP1 POP PUSH8 0xFFFFFFFFFFFFFFFF DUP2 GT ISZERO PUSH2 0x1422 JUMPI PUSH32 0x4E487B7100000000000000000000000000000000000000000000000000000000 PUSH1 0x0 MSTORE PUSH1 0x41 PUSH1 0x4 MSTORE PUSH1 0x24 PUSH1 0x0 REVERT JUMPDEST PUSH1 0x40 MLOAD SWAP1 DUP1 DUP3 MSTORE DUP1 PUSH1 0x20 MUL PUSH1 0x20 ADD DUP3 ADD PUSH1 0x40 MSTORE DUP1 ISZERO PUSH2 0x1455 JUMPI DUP2 PUSH1 0x20 ADD JUMPDEST PUSH1 0x60 DUP2 MSTORE PUSH1 0x20 ADD SWAP1 PUSH1 0x1 SWAP1 SUB SWAP1 DUP2 PUSH2 0x1440 JUMPI SWAP1 POP JUMPDEST POP SWAP1 POP PUSH1 0x0 PUSH1 0x3 DUP1 SLOAD SWAP1 POP PUSH8 0xFFFFFFFFFFFFFFFF DUP2 GT ISZERO PUSH2 0x149F JUMPI PUSH32 0x4E487B7100000000000000000000000000000000000000000000000000000000 PUSH1 0x0 MSTORE PUSH1 0x41 PUSH1 0x4 MSTORE PUSH1 0x24 PUSH1 0x0 REVERT JUMPDEST PUSH1 0x40 MLOAD SWAP1 DUP1 DUP3 MSTORE DUP1 PUSH1 0x20 MUL PUSH1 0x20 ADD DUP3 ADD PUSH1 0x40 MSTORE DUP1 ISZERO PUSH2 0x14D2 JUMPI DUP2 PUSH1 0x20 ADD JUMPDEST PUSH1 0x60 DUP2 MSTORE PUSH1 0x20 ADD SWAP1 PUSH1 0x1 SWAP1 SUB SWAP1 DUP2 PUSH2 0x14BD JUMPI SWAP1 POP JUMPDEST POP SWAP1 POP PUSH1 0x0 JUMPDEST PUSH1 0x3 DUP1 SLOAD SWAP1 POP DUP2 LT ISZERO PUSH2 0x19B5 JUMPI PUSH1 0x0 PUSH1 0x3 DUP3 DUP2 SLOAD DUP2 LT PUSH2 0x1521 JUMPI PUSH32 0x4E487B7100000000000000000000000000000000000000000000000000000000 PUSH1 0x0 MSTORE PUSH1 0x32 PUSH1 0x4 MSTORE PUSH1 0x24 PUSH1 0x0 REVERT JUMPDEST SWAP1 PUSH1 0x0 MSTORE PUSH1 0x20 PUSH1 0x0 KECCAK256 SWAP1 PUSH1 0x4 MUL ADD PUSH1 0x40 MLOAD DUP1 PUSH1 0x80 ADD PUSH1 0x40 MSTORE SWAP1 DUP2 PUSH1 0x0 DUP3 ADD PUSH1 0x0 SWAP1 SLOAD SWAP1 PUSH2 0x100 EXP SWAP1 DIV PUSH20 0xFFFFFFFFFFFFFFFFFFFFFFFFFFFFFFFFFFFFFFFF AND PUSH20 0xFFFFFFFFFFFFFFFFFFFFFFFFFFFFFFFFFFFFFFFF AND PUSH20 0xFFFFFFFFFFFFFFFFFFFFFFFFFFFFFFFFFFFFFFFF AND DUP2 MSTORE PUSH1 0x20 ADD PUSH1 0x1 DUP3 ADD SLOAD DUP2 MSTORE PUSH1 0x20 ADD PUSH1 0x2 DUP3 ADD DUP1 SLOAD PUSH2 0x15AA SWAP1 PUSH2 0x4312 JUMP JUMPDEST DUP1 PUSH1 0x1F ADD PUSH1 0x20 DUP1 SWAP2 DIV MUL PUSH1 0x20 ADD PUSH1 0x40 MLOAD SWAP1 DUP2 ADD PUSH1 0x40 MSTORE DUP1 SWAP3 SWAP2 SWAP1 DUP2 DUP2 MSTORE PUSH1 0x20 ADD DUP3 DUP1 SLOAD PUSH2 0x15D6 SWAP1 PUSH2 0x4312 JUMP JUMPDEST DUP1 ISZERO PUSH2 0x1623 JUMPI DUP1 PUSH1 0x1F LT PUSH2 0x15F8 JUMPI PUSH2 0x100 DUP1 DUP4 SLOAD DIV MUL DUP4 MSTORE SWAP2 PUSH1 0x20 ADD SWAP2 PUSH2 0x1623 JUMP JUMPDEST DUP3 ADD SWAP2 SWAP1 PUSH1 0x0 MSTORE PUSH1 0x20 PUSH1 0x0 KECCAK256 SWAP1 JUMPDEST DUP2 SLOAD DUP2 MSTORE SWAP1 PUSH1 0x1 ADD SWAP1 PUSH1 0x20 ADD DUP1 DUP4 GT PUSH2 0x1606 JUMPI DUP3 SWAP1 SUB PUSH1 0x1F AND DUP3 ADD SWAP2 JUMPDEST POP POP POP POP POP DUP2 MSTORE PUSH1 0x20 ADD PUSH1 0x3 DUP3 ADD DUP1 SLOAD PUSH2 0x163C SWAP1 PUSH2 0x4312 JUMP JUMPDEST DUP1 PUSH1 0x1F ADD PUSH1 0x20 DUP1 SWAP2 DIV MUL PUSH1 0x20 ADD PUSH1 0x40 MLOAD SWAP1 DUP2 ADD PUSH1 0x40 MSTORE DUP1 SWAP3 SWAP2 SWAP1 DUP2 DUP2 MSTORE PUSH1 0x20 ADD DUP3 DUP1 SLOAD PUSH2 0x1668 SWAP1 PUSH2 0x4312 JUMP JUMPDEST DUP1 ISZERO PUSH2 0x16B5 JUMPI DUP1 PUSH1 0x1F LT PUSH2 0x168A JUMPI PUSH2 0x100 DUP1 DUP4 SLOAD DIV MUL DUP4 MSTORE SWAP2 PUSH1 0x20 ADD SWAP2 PUSH2 0x16B5 JUMP JUMPDEST DUP3 ADD SWAP2 SWAP1 PUSH1 0x0 MSTORE PUSH1 0x20 PUSH1 0x0 KECCAK256 SWAP1 JUMPDEST DUP2 SLOAD DUP2 MSTORE SWAP1 PUSH1 0x1 ADD SWAP1 PUSH1 0x20 ADD DUP1 DUP4 GT PUSH2 0x1698 JUMPI DUP3 SWAP1 SUB PUSH1 0x1F AND DUP3 ADD SWAP2 JUMPDEST POP POP POP POP POP DUP2 MSTORE POP POP SWAP1 POP CALLER PUSH20 0xFFFFFFFFFFFFFFFFFFFFFFFFFFFFFFFFFFFFFFFF AND DUP2 PUSH1 0x0 ADD MLOAD PUSH20 0xFFFFFFFFFFFFFFFFFFFFFFFFFFFFFFFFFFFFFFFF AND EQ ISZERO PUSH2 0x19A1 JUMPI DUP1 PUSH1 0x20 ADD MLOAD DUP7 DUP4 DUP2 MLOAD DUP2 LT PUSH2 0x1736 JUMPI PUSH32 0x4E487B7100000000000000000000000000000000000000000000000000000000 PUSH1 0x0 MSTORE PUSH1 0x32 PUSH1 0x4 MSTORE PUSH1 0x24 PUSH1 0x0 REVERT JUMPDEST PUSH1 0x20 MUL PUSH1 0x20 ADD ADD DUP2 DUP2 MSTORE POP POP DUP1 PUSH1 0x40 ADD MLOAD DUP6 DUP4 DUP2 MLOAD DUP2 LT PUSH2 0x1780 JUMPI PUSH32 0x4E487B7100000000000000000000000000000000000000000000000000000000 PUSH1 0x0 MSTORE PUSH1 0x32 PUSH1 0x4 MSTORE PUSH1 0x24 PUSH1 0x0 REVERT JUMPDEST PUSH1 0x20 MUL PUSH1 0x20 ADD ADD DUP2 SWAP1 MSTORE POP DUP1 PUSH1 0x60 ADD MLOAD DUP5 DUP4 DUP2 MLOAD DUP2 LT PUSH2 0x17C9 JUMPI PUSH32 0x4E487B7100000000000000000000000000000000000000000000000000000000 PUSH1 0x0 MSTORE PUSH1 0x32 PUSH1 0x4 MSTORE PUSH1 0x24 PUSH1 0x0 REVERT JUMPDEST PUSH1 0x20 MUL PUSH1 0x20 ADD ADD DUP2 SWAP1 MSTORE POP PUSH1 0x0 PUSH20 0xFFFFFFFFFFFFFFFFFFFFFFFFFFFFFFFFFFFFFFFF AND PUSH1 0x1 PUSH1 0x0 DUP4 PUSH1 0x20 ADD MLOAD DUP2 MSTORE PUSH1 0x20 ADD SWAP1 DUP2 MSTORE PUSH1 0x20 ADD PUSH1 0x0 KECCAK256 PUSH1 0x3 ADD PUSH1 0x0 SWAP1 SLOAD SWAP1 PUSH2 0x100 EXP SWAP1 DIV PUSH20 0xFFFFFFFFFFFFFFFFFFFFFFFFFFFFFFFFFFFFFFFF AND PUSH20 0xFFFFFFFFFFFFFFFFFFFFFFFFFFFFFFFFFFFFFFFF AND EQ PUSH2 0x194B JUMPI PUSH1 0x0 DUP1 PUSH1 0x1 PUSH1 0x0 DUP5 PUSH1 0x20 ADD MLOAD DUP2 MSTORE PUSH1 0x20 ADD SWAP1 DUP2 MSTORE PUSH1 0x20 ADD PUSH1 0x0 KECCAK256 PUSH1 0x3 ADD PUSH1 0x0 SWAP1 SLOAD SWAP1 PUSH2 0x100 EXP SWAP1 DIV PUSH20 0xFFFFFFFFFFFFFFFFFFFFFFFFFFFFFFFFFFFFFFFF AND PUSH20 0xFFFFFFFFFFFFFFFFFFFFFFFFFFFFFFFFFFFFFFFF AND PUSH20 0xFFFFFFFFFFFFFFFFFFFFFFFFFFFFFFFFFFFFFFFF AND DUP2 MSTORE PUSH1 0x20 ADD SWAP1 DUP2 MSTORE PUSH1 0x20 ADD PUSH1 0x0 KECCAK256 PUSH1 0x0 ADD DUP1 SLOAD PUSH2 0x18C8 SWAP1 PUSH2 0x4312 JUMP JUMPDEST DUP1 PUSH1 0x1F ADD PUSH1 0x20 DUP1 SWAP2 DIV MUL PUSH1 0x20 ADD PUSH1 0x40 MLOAD SWAP1 DUP2 ADD PUSH1 0x40 MSTORE DUP1 SWAP3 SWAP2 SWAP1 DUP2 DUP2 MSTORE PUSH1 0x20 ADD DUP3 DUP1 SLOAD PUSH2 0x18F4 SWAP1 PUSH2 0x4312 JUMP JUMPDEST DUP1 ISZERO PUSH2 0x1941 JUMPI DUP1 PUSH1 0x1F LT PUSH2 0x1916 JUMPI PUSH2 0x100 DUP1 DUP4 SLOAD DIV MUL DUP4 MSTORE SWAP2 PUSH1 0x20 ADD SWAP2 PUSH2 0x1941 JUMP JUMPDEST DUP3 ADD SWAP2 SWAP1 PUSH1 0x0 MSTORE PUSH1 0x20 PUSH1 0x0 KECCAK256 SWAP1 JUMPDEST DUP2 SLOAD DUP2 MSTORE SWAP1 PUSH1 0x1 ADD SWAP1 PUSH1 0x20 ADD DUP1 DUP4 GT PUSH2 0x1924 JUMPI DUP3 SWAP1 SUB PUSH1 0x1F AND DUP3 ADD SWAP2 JUMPDEST POP POP POP POP POP PUSH2 0x195C JUMP JUMPDEST PUSH1 0x40 MLOAD DUP1 PUSH1 0x20 ADD PUSH1 0x40 MSTORE DUP1 PUSH1 0x0 DUP2 MSTORE POP JUMPDEST DUP4 DUP4 DUP2 MLOAD DUP2 LT PUSH2 0x1995 JUMPI PUSH32 0x4E487B7100000000000000000000000000000000000000000000000000000000 PUSH1 0x0 MSTORE PUSH1 0x32 PUSH1 0x4 MSTORE PUSH1 0x24 PUSH1 0x0 REVERT JUMPDEST PUSH1 0x20 MUL PUSH1 0x20 ADD ADD DUP2 SWAP1 MSTORE POP JUMPDEST POP DUP1 DUP1 PUSH2 0x19AD SWAP1 PUSH2 0x438D JUMP JUMPDEST SWAP2 POP POP PUSH2 0x14D8 JUMP JUMPDEST POP DUP4 DUP4 DUP4 DUP4 SWAP8 POP SWAP8 POP SWAP8 POP SWAP8 POP POP POP POP POP SWAP1 SWAP2 SWAP3 SWAP4 JUMP JUMPDEST PUSH1 0x0 DUP1 CALLER PUSH20 0xFFFFFFFFFFFFFFFFFFFFFFFFFFFFFFFFFFFFFFFF AND PUSH20 0xFFFFFFFFFFFFFFFFFFFFFFFFFFFFFFFFFFFFFFFF AND DUP2 MSTORE PUSH1 0x20 ADD SWAP1 DUP2 MSTORE PUSH1 0x20 ADD PUSH1 0x0 KECCAK256 PUSH1 0x1 ADD PUSH1 0x0 SWAP1 SLOAD SWAP1 PUSH2 0x100 EXP SWAP1 DIV PUSH1 0xFF AND PUSH2 0x1A5A JUMPI PUSH1 0x40 MLOAD PUSH32 0x8C379A000000000000000000000000000000000000000000000000000000000 DUP2 MSTORE PUSH1 0x4 ADD PUSH2 0x1A51 SWAP1 PUSH2 0x3FCB JUMP JUMPDEST PUSH1 0x40 MLOAD DUP1 SWAP2 SUB SWAP1 REVERT JUMPDEST CALLER PUSH20 0xFFFFFFFFFFFFFFFFFFFFFFFFFFFFFFFFFFFFFFFF AND PUSH1 0x1 PUSH1 0x0 DUP5 DUP2 MSTORE PUSH1 0x20 ADD SWAP1 DUP2 MSTORE PUSH1 0x20 ADD PUSH1 0x0 KECCAK256 PUSH1 0x4 ADD PUSH1 0x0 SWAP1 SLOAD SWAP1 PUSH2 0x100 EXP SWAP1 DIV PUSH20 0xFFFFFFFFFFFFFFFFFFFFFFFFFFFFFFFFFFFFFFFF AND PUSH20 0xFFFFFFFFFFFFFFFFFFFFFFFFFFFFFFFFFFFFFFFF AND EQ PUSH2 0x1AFE JUMPI PUSH1 0x40 MLOAD PUSH32 0x8C379A000000000000000000000000000000000000000000000000000000000 DUP2 MSTORE PUSH1 0x4 ADD PUSH2 0x1AF5 SWAP1 PUSH2 0x406B JUMP JUMPDEST PUSH1 0x40 MLOAD DUP1 SWAP2 SUB SWAP1 REVERT JUMPDEST PUSH1 0x3 PUSH1 0x40 MLOAD DUP1 PUSH1 0x80 ADD PUSH1 0x40 MSTORE DUP1 CALLER PUSH20 0xFFFFFFFFFFFFFFFFFFFFFFFFFFFFFFFFFFFFFFFF AND DUP2 MSTORE PUSH1 0x20 ADD DUP5 DUP2 MSTORE PUSH1 0x20 ADD DUP4 DUP2 MSTORE PUSH1 0x20 ADD PUSH1 0x40 MLOAD DUP1 PUSH1 0x20 ADD PUSH1 0x40 MSTORE DUP1 PUSH1 0x0 DUP2 MSTORE POP DUP2 MSTORE POP SWAP1 DUP1 PUSH1 0x1 DUP2 SLOAD ADD DUP1 DUP3 SSTORE DUP1 SWAP2 POP POP PUSH1 0x1 SWAP1 SUB SWAP1 PUSH1 0x0 MSTORE PUSH1 0x20 PUSH1 0x0 KECCAK256 SWAP1 PUSH1 0x4 MUL ADD PUSH1 0x0 SWAP1 SWAP2 SWAP1 SWAP2 SWAP1 SWAP2 POP PUSH1 0x0 DUP3 ADD MLOAD DUP2 PUSH1 0x0 ADD PUSH1 0x0 PUSH2 0x100 EXP DUP2 SLOAD DUP2 PUSH20 0xFFFFFFFFFFFFFFFFFFFFFFFFFFFFFFFFFFFFFFFF MUL NOT AND SWAP1 DUP4 PUSH20 0xFFFFFFFFFFFFFFFFFFFFFFFFFFFFFFFFFFFFFFFF AND MUL OR SWAP1 SSTORE POP PUSH1 0x20 DUP3 ADD MLOAD DUP2 PUSH1 0x1 ADD SSTORE PUSH1 0x40 DUP3 ADD MLOAD DUP2 PUSH1 0x2 ADD SWAP1 DUP1 MLOAD SWAP1 PUSH1 0x20 ADD SWAP1 PUSH2 0x1BDC SWAP3 SWAP2 SWAP1 PUSH2 0x306A JUMP JUMPDEST POP PUSH1 0x60 DUP3 ADD MLOAD DUP2 PUSH1 0x3 ADD SWAP1 DUP1 MLOAD SWAP1 PUSH1 0x20 ADD SWAP1 PUSH2 0x1BF9 SWAP3 SWAP2 SWAP1 PUSH2 0x306A JUMP JUMPDEST POP POP POP POP POP JUMP JUMPDEST PUSH1 0x4 DUP2 DUP2 SLOAD DUP2 LT PUSH2 0x1C10 JUMPI PUSH1 0x0 DUP1 REVERT JUMPDEST SWAP1 PUSH1 0x0 MSTORE PUSH1 0x20 PUSH1 0x0 KECCAK256 SWAP1 PUSH1 0x4 MUL ADD PUSH1 0x0 SWAP2 POP SWAP1 POP DUP1 PUSH1 0x0 ADD PUSH1 0x0 SWAP1 SLOAD SWAP1 PUSH2 0x100 EXP SWAP1 DIV PUSH20 0xFFFFFFFFFFFFFFFFFFFFFFFFFFFFFFFFFFFFFFFF AND SWAP1 DUP1 PUSH1 0x1 ADD SLOAD SWAP1 DUP1 PUSH1 0x2 ADD SLOAD SWAP1 DUP1 PUSH1 0x3 ADD PUSH1 0x0 SWAP1 SLOAD SWAP1 PUSH2 0x100 EXP SWAP1 DIV PUSH1 0xFF AND SWAP1 POP DUP5 JUMP JUMPDEST PUSH1 0x1 PUSH1 0x20 MSTORE DUP1 PUSH1 0x0 MSTORE PUSH1 0x40 PUSH1 0x0 KECCAK256 PUSH1 0x0 SWAP2 POP SWAP1 POP DUP1 PUSH1 0x0 ADD SLOAD SWAP1 DUP1 PUSH1 0x1 ADD DUP1 SLOAD PUSH2 0x1C96 SWAP1 PUSH2 0x4312 JUMP JUMPDEST DUP1 PUSH1 0x1F ADD PUSH1 0x20 DUP1 SWAP2 DIV MUL PUSH1 0x20 ADD PUSH1 0x40 MLOAD SWAP1 DUP2 ADD PUSH1 0x40 MSTORE DUP1 SWAP3 SWAP2 SWAP1 DUP2 DUP2 MSTORE PUSH1 0x20 ADD DUP3 DUP1 SLOAD PUSH2 0x1CC2 SWAP1 PUSH2 0x4312 JUMP JUMPDEST DUP1 ISZERO PUSH2 0x1D0F JUMPI DUP1 PUSH1 0x1F LT PUSH2 0x1CE4 JUMPI PUSH2 0x100 DUP1 DUP4 SLOAD DIV MUL DUP4 MSTORE SWAP2 PUSH1 0x20 ADD SWAP2 PUSH2 0x1D0F JUMP JUMPDEST DUP3 ADD SWAP2 SWAP1 PUSH1 0x0 MSTORE PUSH1 0x20 PUSH1 0x0 KECCAK256 SWAP1 JUMPDEST DUP2 SLOAD DUP2 MSTORE SWAP1 PUSH1 0x1 ADD SWAP1 PUSH1 0x20 ADD DUP1 DUP4 GT PUSH2 0x1CF2 JUMPI DUP3 SWAP1 SUB PUSH1 0x1F AND DUP3 ADD SWAP2 JUMPDEST POP POP POP POP POP SWAP1 DUP1 PUSH1 0x2 ADD DUP1 SLOAD PUSH2 0x1D24 SWAP1 PUSH2 0x4312 JUMP JUMPDEST DUP1 PUSH1 0x1F ADD PUSH1 0x20 DUP1 SWAP2 DIV MUL PUSH1 0x20 ADD PUSH1 0x40 MLOAD SWAP1 DUP2 ADD PUSH1 0x40 MSTORE DUP1 SWAP3 SWAP2 SWAP1 DUP2 DUP2 MSTORE PUSH1 0x20 ADD DUP3 DUP1 SLOAD PUSH2 0x1D50 SWAP1 PUSH2 0x4312 JUMP JUMPDEST DUP1 ISZERO PUSH2 0x1D9D JUMPI DUP1 PUSH1 0x1F LT PUSH2 0x1D72 JUMPI PUSH2 0x100 DUP1 DUP4 SLOAD DIV MUL DUP4 MSTORE SWAP2 PUSH1 0x20 ADD SWAP2 PUSH2 0x1D9D JUMP JUMPDEST DUP3 ADD SWAP2 SWAP1 PUSH1 0x0 MSTORE PUSH1 0x20 PUSH1 0x0 KECCAK256 SWAP1 JUMPDEST DUP2 SLOAD DUP2 MSTORE SWAP1 PUSH1 0x1 ADD SWAP1 PUSH1 0x20 ADD DUP1 DUP4 GT PUSH2 0x1D80 JUMPI DUP3 SWAP1 SUB PUSH1 0x1F AND DUP3 ADD SWAP2 JUMPDEST POP POP POP POP POP SWAP1 DUP1 PUSH1 0x3 ADD PUSH1 0x0 SWAP1 SLOAD SWAP1 PUSH2 0x100 EXP SWAP1 DIV PUSH20 0xFFFFFFFFFFFFFFFFFFFFFFFFFFFFFFFFFFFFFFFF AND SWAP1 DUP1 PUSH1 0x3 ADD PUSH1 0x14 SWAP1 SLOAD SWAP1 PUSH2 0x100 EXP SWAP1 DIV PUSH1 0xFF AND SWAP1 DUP1 PUSH1 0x4 ADD PUSH1 0x0 SWAP1 SLOAD SWAP1 PUSH2 0x100 EXP SWAP1 DIV PUSH20 0xFFFFFFFFFFFFFFFFFFFFFFFFFFFFFFFFFFFFFFFF AND SWAP1 POP DUP7 JUMP JUMPDEST PUSH1 0x3 DUP2 DUP2 SLOAD DUP2 LT PUSH2 0x1E16 JUMPI PUSH1 0x0 DUP1 REVERT JUMPDEST SWAP1 PUSH1 0x0 MSTORE PUSH1 0x20 PUSH1 0x0 KECCAK256 SWAP1 PUSH1 0x4 MUL ADD PUSH1 0x0 SWAP2 POP SWAP1 POP DUP1 PUSH1 0x0 ADD PUSH1 0x0 SWAP1 SLOAD SWAP1 PUSH2 0x100 EXP SWAP1 DIV PUSH20 0xFFFFFFFFFFFFFFFFFFFFFFFFFFFFFFFFFFFFFFFF AND SWAP1 DUP1 PUSH1 0x1 ADD SLOAD SWAP1 DUP1 PUSH1 0x2 ADD DUP1 SLOAD PUSH2 0x1E65 SWAP1 PUSH2 0x4312 JUMP JUMPDEST DUP1 PUSH1 0x1F ADD PUSH1 0x20 DUP1 SWAP2 DIV MUL PUSH1 0x20 ADD PUSH1 0x40 MLOAD SWAP1 DUP2 ADD PUSH1 0x40 MSTORE DUP1 SWAP3 SWAP2 SWAP1 DUP2 DUP2 MSTORE PUSH1 0x20 ADD DUP3 DUP1 SLOAD PUSH2 0x1E91 SWAP1 PUSH2 0x4312 JUMP JUMPDEST DUP1 ISZERO PUSH2 0x1EDE JUMPI DUP1 PUSH1 0x1F LT PUSH2 0x1EB3 JUMPI PUSH2 0x100 DUP1 DUP4 SLOAD DIV MUL DUP4 MSTORE SWAP2 PUSH1 0x20 ADD SWAP2 PUSH2 0x1EDE JUMP JUMPDEST DUP3 ADD SWAP2 SWAP1 PUSH1 0x0 MSTORE PUSH1 0x20 PUSH1 0x0 KECCAK256 SWAP1 JUMPDEST DUP2 SLOAD DUP2 MSTORE SWAP1 PUSH1 0x1 ADD SWAP1 PUSH1 0x20 ADD DUP1 DUP4 GT PUSH2 0x1EC1 JUMPI DUP3 SWAP1 SUB PUSH1 0x1F AND DUP3 ADD SWAP2 JUMPDEST POP POP POP POP POP SWAP1 DUP1 PUSH1 0x3 ADD DUP1 SLOAD PUSH2 0x1EF3 SWAP1 PUSH2 0x4312 JUMP JUMPDEST DUP1 PUSH1 0x1F ADD PUSH1 0x20 DUP1 SWAP2 DIV MUL PUSH1 0x20 ADD PUSH1 0x40 MLOAD SWAP1 DUP2 ADD PUSH1 0x40 MSTORE DUP1 SWAP3 SWAP2 SWAP1 DUP2 DUP2 MSTORE PUSH1 0x20 ADD DUP3 DUP1 SLOAD PUSH2 0x1F1F SWAP1 PUSH2 0x4312 JUMP JUMPDEST DUP1 ISZERO PUSH2 0x1F6C JUMPI DUP1 PUSH1 0x1F LT PUSH2 0x1F41 JUMPI PUSH2 0x100 DUP1 DUP4 SLOAD DIV MUL DUP4 MSTORE SWAP2 PUSH1 0x20 ADD SWAP2 PUSH2 0x1F6C JUMP JUMPDEST DUP3 ADD SWAP2 SWAP1 PUSH1 0x0 MSTORE PUSH1 0x20 PUSH1 0x0 KECCAK256 SWAP1 JUMPDEST DUP2 SLOAD DUP2 MSTORE SWAP1 PUSH1 0x1 ADD SWAP1 PUSH1 0x20 ADD DUP1 DUP4 GT PUSH2 0x1F4F JUMPI DUP3 SWAP1 SUB PUSH1 0x1F AND DUP3 ADD SWAP2 JUMPDEST POP POP POP POP POP SWAP1 POP DUP5 JUMP JUMPDEST PUSH1 0x2 DUP2 DUP2 SLOAD DUP2 LT PUSH2 0x1F86 JUMPI PUSH1 0x0 DUP1 REVERT JUMPDEST SWAP1 PUSH1 0x0 MSTORE PUSH1 0x20 PUSH1 0x0 KECCAK256 SWAP1 PUSH1 0x4 MUL ADD PUSH1 0x0 SWAP2 POP SWAP1 POP DUP1 PUSH1 0x0 ADD PUSH1 0x0 SWAP1 SLOAD SWAP1 PUSH2 0x100 EXP SWAP1 DIV PUSH20 0xFFFFFFFFFFFFFFFFFFFFFFFFFFFFFFFFFFFFFFFF AND SWAP1 DUP1 PUSH1 0x1 ADD SLOAD SWAP1 DUP1 PUSH1 0x2 ADD SLOAD SWAP1 DUP1 PUSH1 0x3 ADD SLOAD SWAP1 POP DUP5 JUMP JUMPDEST PUSH1 0x0 DUP1 PUSH1 0x0 JUMPDEST PUSH1 0x5 DUP1 SLOAD SWAP1 POP DUP2 LT ISZERO PUSH2 0x218A JUMPI PUSH1 0x0 DUP1 PUSH1 0x5 DUP4 DUP2 SLOAD DUP2 LT PUSH2 0x2026 JUMPI PUSH32 0x4E487B7100000000000000000000000000000000000000000000000000000000 PUSH1 0x0 MSTORE PUSH1 0x32 PUSH1 0x4 MSTORE PUSH1 0x24 PUSH1 0x0 REVERT JUMPDEST SWAP1 PUSH1 0x0 MSTORE PUSH1 0x20 PUSH1 0x0 KECCAK256 ADD PUSH1 0x0 SWAP1 SLOAD SWAP1 PUSH2 0x100 EXP SWAP1 DIV PUSH20 0xFFFFFFFFFFFFFFFFFFFFFFFFFFFFFFFFFFFFFFFF AND PUSH20 0xFFFFFFFFFFFFFFFFFFFFFFFFFFFFFFFFFFFFFFFF AND PUSH20 0xFFFFFFFFFFFFFFFFFFFFFFFFFFFFFFFFFFFFFFFF AND DUP2 MSTORE PUSH1 0x20 ADD SWAP1 DUP2 MSTORE PUSH1 0x20 ADD PUSH1 0x0 KECCAK256 PUSH1 0x1 ADD PUSH1 0x0 SWAP1 SLOAD SWAP1 PUSH2 0x100 EXP SWAP1 DIV PUSH1 0xFF AND ISZERO PUSH2 0x20B0 JUMPI DUP3 DUP1 PUSH2 0x20AC SWAP1 PUSH2 0x438D JUMP JUMPDEST SWAP4 POP POP JUMPDEST PUSH1 0x0 DUP1 PUSH1 0x5 DUP4 DUP2 SLOAD DUP2 LT PUSH2 0x20ED JUMPI PUSH32 0x4E487B7100000000000000000000000000000000000000000000000000000000 PUSH1 0x0 MSTORE PUSH1 0x32 PUSH1 0x4 MSTORE PUSH1 0x24 PUSH1 0x0 REVERT JUMPDEST SWAP1 PUSH1 0x0 MSTORE PUSH1 0x20 PUSH1 0x0 KECCAK256 ADD PUSH1 0x0 SWAP1 SLOAD SWAP1 PUSH2 0x100 EXP SWAP1 DIV PUSH20 0xFFFFFFFFFFFFFFFFFFFFFFFFFFFFFFFFFFFFFFFF AND PUSH20 0xFFFFFFFFFFFFFFFFFFFFFFFFFFFFFFFFFFFFFFFF AND PUSH20 0xFFFFFFFFFFFFFFFFFFFFFFFFFFFFFFFFFFFFFFFF AND DUP2 MSTORE PUSH1 0x20 ADD SWAP1 DUP2 MSTORE PUSH1 0x20 ADD PUSH1 0x0 KECCAK256 PUSH1 0x1 ADD PUSH1 0x1 SWAP1 SLOAD SWAP1 PUSH2 0x100 EXP SWAP1 DIV PUSH1 0xFF AND ISZERO PUSH2 0x2177 JUMPI DUP2 DUP1 PUSH2 0x2173 SWAP1 PUSH2 0x438D JUMP JUMPDEST SWAP3 POP POP JUMPDEST DUP1 DUP1 PUSH2 0x2182 SWAP1 PUSH2 0x438D JUMP JUMPDEST SWAP2 POP POP PUSH2 0x1FDC JUMP JUMPDEST POP SWAP1 SWAP2 JUMP JUMPDEST PUSH1 0x60 PUSH1 0x0 PUSH1 0x2 DUP1 SLOAD SWAP1 POP PUSH8 0xFFFFFFFFFFFFFFFF DUP2 GT ISZERO PUSH2 0x21D8 JUMPI PUSH32 0x4E487B7100000000000000000000000000000000000000000000000000000000 PUSH1 0x0 MSTORE PUSH1 0x41 PUSH1 0x4 MSTORE PUSH1 0x24 PUSH1 0x0 REVERT JUMPDEST PUSH1 0x40 MLOAD SWAP1 DUP1 DUP3 MSTORE DUP1 PUSH1 0x20 MUL PUSH1 0x20 ADD DUP3 ADD PUSH1 0x40 MSTORE DUP1 ISZERO PUSH2 0x2206 JUMPI DUP2 PUSH1 0x20 ADD PUSH1 0x20 DUP3 MUL DUP1 CALLDATASIZE DUP4 CALLDATACOPY DUP1 DUP3 ADD SWAP2 POP POP SWAP1 POP JUMPDEST POP SWAP1 POP PUSH1 0x0 JUMPDEST PUSH1 0x2 DUP1 SLOAD SWAP1 POP DUP2 LT ISZERO PUSH2 0x2321 JUMPI PUSH1 0x1 PUSH1 0x0 PUSH1 0x2 DUP4 DUP2 SLOAD DUP2 LT PUSH2 0x2257 JUMPI PUSH32 0x4E487B7100000000000000000000000000000000000000000000000000000000 PUSH1 0x0 MSTORE PUSH1 0x32 PUSH1 0x4 MSTORE PUSH1 0x24 PUSH1 0x0 REVERT JUMPDEST SWAP1 PUSH1 0x0 MSTORE PUSH1 0x20 PUSH1 0x0 KECCAK256 SWAP1 PUSH1 0x4 MUL ADD PUSH1 0x1 ADD SLOAD DUP2 MSTORE PUSH1 0x20 ADD SWAP1 DUP2 MSTORE PUSH1 0x20 ADD PUSH1 0x0 KECCAK256 PUSH1 0x3 ADD PUSH1 0x0 SWAP1 SLOAD SWAP1 PUSH2 0x100 EXP SWAP1 DIV PUSH20 0xFFFFFFFFFFFFFFFFFFFFFFFFFFFFFFFFFFFFFFFF AND DUP3 DUP3 DUP2 MLOAD DUP2 LT PUSH2 0x22D4 JUMPI PUSH32 0x4E487B7100000000000000000000000000000000000000000000000000000000 PUSH1 0x0 MSTORE PUSH1 0x32 PUSH1 0x4 MSTORE PUSH1 0x24 PUSH1 0x0 REVERT JUMPDEST PUSH1 0x20 MUL PUSH1 0x20 ADD ADD SWAP1 PUSH20 0xFFFFFFFFFFFFFFFFFFFFFFFFFFFFFFFFFFFFFFFF AND SWAP1 DUP2 PUSH20 0xFFFFFFFFFFFFFFFFFFFFFFFFFFFFFFFFFFFFFFFF AND DUP2 MSTORE POP POP DUP1 DUP1 PUSH2 0x2319 SWAP1 PUSH2 0x438D JUMP JUMPDEST SWAP2 POP POP PUSH2 0x220C JUMP JUMPDEST POP DUP1 SWAP2 POP POP SWAP1 JUMP JUMPDEST PUSH1 0x60 DUP1 PUSH1 0x60 DUP1 PUSH1 0x0 PUSH1 0x5 DUP1 SLOAD SWAP1 POP PUSH8 0xFFFFFFFFFFFFFFFF DUP2 GT ISZERO PUSH2 0x2376 JUMPI PUSH32 0x4E487B7100000000000000000000000000000000000000000000000000000000 PUSH1 0x0 MSTORE PUSH1 0x41 PUSH1 0x4 MSTORE PUSH1 0x24 PUSH1 0x0 REVERT JUMPDEST PUSH1 0x40 MLOAD SWAP1 DUP1 DUP3 MSTORE DUP1 PUSH1 0x20 MUL PUSH1 0x20 ADD DUP3 ADD PUSH1 0x40 MSTORE DUP1 ISZERO PUSH2 0x23A4 JUMPI DUP2 PUSH1 0x20 ADD PUSH1 0x20 DUP3 MUL DUP1 CALLDATASIZE DUP4 CALLDATACOPY DUP1 DUP3 ADD SWAP2 POP POP SWAP1 POP JUMPDEST POP SWAP1 POP PUSH1 0x0 PUSH1 0x5 DUP1 SLOAD SWAP1 POP PUSH8 0xFFFFFFFFFFFFFFFF DUP2 GT ISZERO PUSH2 0x23EE JUMPI PUSH32 0x4E487B7100000000000000000000000000000000000000000000000000000000 PUSH1 0x0 MSTORE PUSH1 0x41 PUSH1 0x4 MSTORE PUSH1 0x24 PUSH1 0x0 REVERT JUMPDEST PUSH1 0x40 MLOAD SWAP1 DUP1 DUP3 MSTORE DUP1 PUSH1 0x20 MUL PUSH1 0x20 ADD DUP3 ADD PUSH1 0x40 MSTORE DUP1 ISZERO PUSH2 0x2421 JUMPI DUP2 PUSH1 0x20 ADD JUMPDEST PUSH1 0x60 DUP2 MSTORE PUSH1 0x20 ADD SWAP1 PUSH1 0x1 SWAP1 SUB SWAP1 DUP2 PUSH2 0x240C JUMPI SWAP1 POP JUMPDEST POP SWAP1 POP PUSH1 0x0 PUSH1 0x5 DUP1 SLOAD SWAP1 POP PUSH8 0xFFFFFFFFFFFFFFFF DUP2 GT ISZERO PUSH2 0x246B JUMPI PUSH32 0x4E487B7100000000000000000000000000000000000000000000000000000000 PUSH1 0x0 MSTORE PUSH1 0x41 PUSH1 0x4 MSTORE PUSH1 0x24 PUSH1 0x0 REVERT JUMPDEST PUSH1 0x40 MLOAD SWAP1 DUP1 DUP3 MSTORE DUP1 PUSH1 0x20 MUL PUSH1 0x20 ADD DUP3 ADD PUSH1 0x40 MSTORE DUP1 ISZERO PUSH2 0x249E JUMPI DUP2 PUSH1 0x20 ADD JUMPDEST PUSH1 0x60 DUP2 MSTORE PUSH1 0x20 ADD SWAP1 PUSH1 0x1 SWAP1 SUB SWAP1 DUP2 PUSH2 0x2489 JUMPI SWAP1 POP JUMPDEST POP SWAP1 POP PUSH1 0x0 PUSH1 0x5 DUP1 SLOAD SWAP1 POP PUSH8 0xFFFFFFFFFFFFFFFF DUP2 GT ISZERO PUSH2 0x24E8 JUMPI PUSH32 0x4E487B7100000000000000000000000000000000000000000000000000000000 PUSH1 0x0 MSTORE PUSH1 0x41 PUSH1 0x4 MSTORE PUSH1 0x24 PUSH1 0x0 REVERT JUMPDEST PUSH1 0x40 MLOAD SWAP1 DUP1 DUP3 MSTORE DUP1 PUSH1 0x20 MUL PUSH1 0x20 ADD DUP3 ADD PUSH1 0x40 MSTORE DUP1 ISZERO PUSH2 0x2516 JUMPI DUP2 PUSH1 0x20 ADD PUSH1 0x20 DUP3 MUL DUP1 CALLDATASIZE DUP4 CALLDATACOPY DUP1 DUP3 ADD SWAP2 POP POP SWAP1 POP JUMPDEST POP SWAP1 POP PUSH1 0x0 JUMPDEST PUSH1 0x5 DUP1 SLOAD SWAP1 POP DUP2 LT ISZERO PUSH2 0x28B6 JUMPI PUSH1 0x0 PUSH1 0x1 DUP3 PUSH2 0x2538 SWAP2 SWAP1 PUSH2 0x4228 JUMP JUMPDEST SWAP1 POP PUSH1 0x0 PUSH1 0x1 PUSH1 0x0 DUP4 DUP2 MSTORE PUSH1 0x20 ADD SWAP1 DUP2 MSTORE PUSH1 0x20 ADD PUSH1 0x0 KECCAK256 PUSH1 0x40 MLOAD DUP1 PUSH1 0xC0 ADD PUSH1 0x40 MSTORE SWAP1 DUP2 PUSH1 0x0 DUP3 ADD SLOAD DUP2 MSTORE PUSH1 0x20 ADD PUSH1 0x1 DUP3 ADD DUP1 SLOAD PUSH2 0x2574 SWAP1 PUSH2 0x4312 JUMP JUMPDEST DUP1 PUSH1 0x1F ADD PUSH1 0x20 DUP1 SWAP2 DIV MUL PUSH1 0x20 ADD PUSH1 0x40 MLOAD SWAP1 DUP2 ADD PUSH1 0x40 MSTORE DUP1 SWAP3 SWAP2 SWAP1 DUP2 DUP2 MSTORE PUSH1 0x20 ADD DUP3 DUP1 SLOAD PUSH2 0x25A0 SWAP1 PUSH2 0x4312 JUMP JUMPDEST DUP1 ISZERO PUSH2 0x25ED JUMPI DUP1 PUSH1 0x1F LT PUSH2 0x25C2 JUMPI PUSH2 0x100 DUP1 DUP4 SLOAD DIV MUL DUP4 MSTORE SWAP2 PUSH1 0x20 ADD SWAP2 PUSH2 0x25ED JUMP JUMPDEST DUP3 ADD SWAP2 SWAP1 PUSH1 0x0 MSTORE PUSH1 0x20 PUSH1 0x0 KECCAK256 SWAP1 JUMPDEST DUP2 SLOAD DUP2 MSTORE SWAP1 PUSH1 0x1 ADD SWAP1 PUSH1 0x20 ADD DUP1 DUP4 GT PUSH2 0x25D0 JUMPI DUP3 SWAP1 SUB PUSH1 0x1F AND DUP3 ADD SWAP2 JUMPDEST POP POP POP POP POP DUP2 MSTORE PUSH1 0x20 ADD PUSH1 0x2 DUP3 ADD DUP1 SLOAD PUSH2 0x2606 SWAP1 PUSH2 0x4312 JUMP JUMPDEST DUP1 PUSH1 0x1F ADD PUSH1 0x20 DUP1 SWAP2 DIV MUL PUSH1 0x20 ADD PUSH1 0x40 MLOAD SWAP1 DUP2 ADD PUSH1 0x40 MSTORE DUP1 SWAP3 SWAP2 SWAP1 DUP2 DUP2 MSTORE PUSH1 0x20 ADD DUP3 DUP1 SLOAD PUSH2 0x2632 SWAP1 PUSH2 0x4312 JUMP JUMPDEST DUP1 ISZERO PUSH2 0x267F JUMPI DUP1 PUSH1 0x1F LT PUSH2 0x2654 JUMPI PUSH2 0x100 DUP1 DUP4 SLOAD DIV MUL DUP4 MSTORE SWAP2 PUSH1 0x20 ADD SWAP2 PUSH2 0x267F JUMP JUMPDEST DUP3 ADD SWAP2 SWAP1 PUSH1 0x0 MSTORE PUSH1 0x20 PUSH1 0x0 KECCAK256 SWAP1 JUMPDEST DUP2 SLOAD DUP2 MSTORE SWAP1 PUSH1 0x1 ADD SWAP1 PUSH1 0x20 ADD DUP1 DUP4 GT PUSH2 0x2662 JUMPI DUP3 SWAP1 SUB PUSH1 0x1F AND DUP3 ADD SWAP2 JUMPDEST POP POP POP POP POP DUP2 MSTORE PUSH1 0x20 ADD PUSH1 0x3 DUP3 ADD PUSH1 0x0 SWAP1 SLOAD SWAP1 PUSH2 0x100 EXP SWAP1 DIV PUSH20 0xFFFFFFFFFFFFFFFFFFFFFFFFFFFFFFFFFFFFFFFF AND PUSH20 0xFFFFFFFFFFFFFFFFFFFFFFFFFFFFFFFFFFFFFFFF AND PUSH20 0xFFFFFFFFFFFFFFFFFFFFFFFFFFFFFFFFFFFFFFFF AND DUP2 MSTORE PUSH1 0x20 ADD PUSH1 0x3 DUP3 ADD PUSH1 0x14 SWAP1 SLOAD SWAP1 PUSH2 0x100 EXP SWAP1 DIV PUSH1 0xFF AND ISZERO ISZERO ISZERO ISZERO DUP2 MSTORE PUSH1 0x20 ADD PUSH1 0x4 DUP3 ADD PUSH1 0x0 SWAP1 SLOAD SWAP1 PUSH2 0x100 EXP SWAP1 DIV PUSH20 0xFFFFFFFFFFFFFFFFFFFFFFFFFFFFFFFFFFFFFFFF AND PUSH20 0xFFFFFFFFFFFFFFFFFFFFFFFFFFFFFFFFFFFFFFFF AND PUSH20 0xFFFFFFFFFFFFFFFFFFFFFFFFFFFFFFFFFFFFFFFF AND DUP2 MSTORE POP POP SWAP1 POP DUP2 DUP8 DUP5 DUP2 MLOAD DUP2 LT PUSH2 0x278B JUMPI PUSH32 0x4E487B7100000000000000000000000000000000000000000000000000000000 PUSH1 0x0 MSTORE PUSH1 0x32 PUSH1 0x4 MSTORE PUSH1 0x24 PUSH1 0x0 REVERT JUMPDEST PUSH1 0x20 MUL PUSH1 0x20 ADD ADD DUP2 DUP2 MSTORE POP POP DUP1 PUSH1 0x20 ADD MLOAD DUP7 DUP5 DUP2 MLOAD DUP2 LT PUSH2 0x27D5 JUMPI PUSH32 0x4E487B7100000000000000000000000000000000000000000000000000000000 PUSH1 0x0 MSTORE PUSH1 0x32 PUSH1 0x4 MSTORE PUSH1 0x24 PUSH1 0x0 REVERT JUMPDEST PUSH1 0x20 MUL PUSH1 0x20 ADD ADD DUP2 SWAP1 MSTORE POP DUP1 PUSH1 0x40 ADD MLOAD DUP6 DUP5 DUP2 MLOAD DUP2 LT PUSH2 0x281E JUMPI PUSH32 0x4E487B7100000000000000000000000000000000000000000000000000000000 PUSH1 0x0 MSTORE PUSH1 0x32 PUSH1 0x4 MSTORE PUSH1 0x24 PUSH1 0x0 REVERT JUMPDEST PUSH1 0x20 MUL PUSH1 0x20 ADD ADD DUP2 SWAP1 MSTORE POP DUP1 PUSH1 0x60 ADD MLOAD DUP5 DUP5 DUP2 MLOAD DUP2 LT PUSH2 0x2867 JUMPI PUSH32 0x4E487B7100000000000000000000000000000000000000000000000000000000 PUSH1 0x0 MSTORE PUSH1 0x32 PUSH1 0x4 MSTORE PUSH1 0x24 PUSH1 0x0 REVERT JUMPDEST PUSH1 0x20 MUL PUSH1 0x20 ADD ADD SWAP1 PUSH20 0xFFFFFFFFFFFFFFFFFFFFFFFFFFFFFFFFFFFFFFFF AND SWAP1 DUP2 PUSH20 0xFFFFFFFFFFFFFFFFFFFFFFFFFFFFFFFFFFFFFFFF AND DUP2 MSTORE POP POP POP POP DUP1 DUP1 PUSH2 0x28AE SWAP1 PUSH2 0x438D JUMP JUMPDEST SWAP2 POP POP PUSH2 0x251C JUMP JUMPDEST POP DUP4 DUP4 DUP4 DUP4 SWAP8 POP SWAP8 POP SWAP8 POP SWAP8 POP POP POP POP POP SWAP2 SWAP4 POP SWAP2 SWAP4 JUMP JUMPDEST PUSH1 0x5 DUP2 DUP2 SLOAD DUP2 LT PUSH2 0x28DE JUMPI PUSH1 0x0 DUP1 REVERT JUMPDEST SWAP1 PUSH1 0x0 MSTORE PUSH1 0x20 PUSH1 0x0 KECCAK256 ADD PUSH1 0x0 SWAP2 POP SLOAD SWAP1 PUSH2 0x100 EXP SWAP1 DIV PUSH20 0xFFFFFFFFFFFFFFFFFFFFFFFFFFFFFFFFFFFFFFFF AND DUP2 JUMP JUMPDEST PUSH1 0x0 PUSH1 0x20 MSTORE DUP1 PUSH1 0x0 MSTORE PUSH1 0x40 PUSH1 0x0 KECCAK256 PUSH1 0x0 SWAP2 POP SWAP1 POP DUP1 PUSH1 0x0 ADD DUP1 SLOAD PUSH2 0x2930 SWAP1 PUSH2 0x4312 JUMP JUMPDEST DUP1 PUSH1 0x1F ADD PUSH1 0x20 DUP1 SWAP2 DIV MUL PUSH1 0x20 ADD PUSH1 0x40 MLOAD SWAP1 DUP2 ADD PUSH1 0x40 MSTORE DUP1 SWAP3 SWAP2 SWAP1 DUP2 DUP2 MSTORE PUSH1 0x20 ADD DUP3 DUP1 SLOAD PUSH2 0x295C SWAP1 PUSH2 0x4312 JUMP JUMPDEST DUP1 ISZERO PUSH2 0x29A9 JUMPI DUP1 PUSH1 0x1F LT PUSH2 0x297E JUMPI PUSH2 0x100 DUP1 DUP4 SLOAD DIV MUL DUP4 MSTORE SWAP2 PUSH1 0x20 ADD SWAP2 PUSH2 0x29A9 JUMP JUMPDEST DUP3 ADD SWAP2 SWAP1 PUSH1 0x0 MSTORE PUSH1 0x20 PUSH1 0x0 KECCAK256 SWAP1 JUMPDEST DUP2 SLOAD DUP2 MSTORE SWAP1 PUSH1 0x1 ADD SWAP1 PUSH1 0x20 ADD DUP1 DUP4 GT PUSH2 0x298C JUMPI DUP3 SWAP1 SUB PUSH1 0x1F AND DUP3 ADD SWAP2 JUMPDEST POP POP POP POP POP SWAP1 DUP1 PUSH1 0x1 ADD PUSH1 0x0 SWAP1 SLOAD SWAP1 PUSH2 0x100 EXP SWAP1 DIV PUSH1 0xFF AND SWAP1 DUP1 PUSH1 0x1 ADD PUSH1 0x1 SWAP1 SLOAD SWAP1 PUSH2 0x100 EXP SWAP1 DIV PUSH1 0xFF AND SWAP1 POP DUP4 JUMP JUMPDEST PUSH1 0x0 DUP1 CALLER PUSH20 0xFFFFFFFFFFFFFFFFFFFFFFFFFFFFFFFFFFFFFFFF AND PUSH20 0xFFFFFFFFFFFFFFFFFFFFFFFFFFFFFFFFFFFFFFFF AND DUP2 MSTORE PUSH1 0x20 ADD SWAP1 DUP2 MSTORE PUSH1 0x20 ADD PUSH1 0x0 KECCAK256 PUSH1 0x1 ADD PUSH1 0x1 SWAP1 SLOAD SWAP1 PUSH2 0x100 EXP SWAP1 DIV PUSH1 0xFF AND PUSH2 0x2A67 JUMPI PUSH1 0x40 MLOAD PUSH32 0x8C379A000000000000000000000000000000000000000000000000000000000 DUP2 MSTORE PUSH1 0x4 ADD PUSH2 0x2A5E SWAP1 PUSH2 0x400B JUMP JUMPDEST PUSH1 0x40 MLOAD DUP1 SWAP2 SUB SWAP1 REVERT JUMPDEST PUSH1 0x3 DUP1 SLOAD SWAP1 POP DUP3 LT PUSH2 0x2AAE JUMPI PUSH1 0x40 MLOAD PUSH32 0x8C379A000000000000000000000000000000000000000000000000000000000 DUP2 MSTORE PUSH1 0x4 ADD PUSH2 0x2AA5 SWAP1 PUSH2 0x3F8B JUMP JUMPDEST PUSH1 0x40 MLOAD DUP1 SWAP2 SUB SWAP1 REVERT JUMPDEST PUSH1 0x0 PUSH1 0x3 DUP4 DUP2 SLOAD DUP2 LT PUSH2 0x2AEA JUMPI PUSH32 0x4E487B7100000000000000000000000000000000000000000000000000000000 PUSH1 0x0 MSTORE PUSH1 0x32 PUSH1 0x4 MSTORE PUSH1 0x24 PUSH1 0x0 REVERT JUMPDEST SWAP1 PUSH1 0x0 MSTORE PUSH1 0x20 PUSH1 0x0 KECCAK256 SWAP1 PUSH1 0x4 MUL ADD SWAP1 POP CALLER PUSH20 0xFFFFFFFFFFFFFFFFFFFFFFFFFFFFFFFFFFFFFFFF AND PUSH1 0x1 PUSH1 0x0 DUP4 PUSH1 0x1 ADD SLOAD DUP2 MSTORE PUSH1 0x20 ADD SWAP1 DUP2 MSTORE PUSH1 0x20 ADD PUSH1 0x0 KECCAK256 PUSH1 0x3 ADD PUSH1 0x0 SWAP1 SLOAD SWAP1 PUSH2 0x100 EXP SWAP1 DIV PUSH20 0xFFFFFFFFFFFFFFFFFFFFFFFFFFFFFFFFFFFFFFFF AND PUSH20 0xFFFFFFFFFFFFFFFFFFFFFFFFFFFFFFFFFFFFFFFF AND EQ PUSH2 0x2BA2 JUMPI PUSH1 0x40 MLOAD PUSH32 0x8C379A000000000000000000000000000000000000000000000000000000000 DUP2 MSTORE PUSH1 0x4 ADD PUSH2 0x2B99 SWAP1 PUSH2 0x3EEB JUMP JUMPDEST PUSH1 0x40 MLOAD DUP1 SWAP2 SUB SWAP1 REVERT JUMPDEST DUP2 DUP2 PUSH1 0x3 ADD SWAP1 DUP1 MLOAD SWAP1 PUSH1 0x20 ADD SWAP1 PUSH2 0x2BBA SWAP3 SWAP2 SWAP1 PUSH2 0x306A JUMP JUMPDEST POP POP POP POP JUMP JUMPDEST PUSH1 0x0 DUP1 CALLER PUSH20 0xFFFFFFFFFFFFFFFFFFFFFFFFFFFFFFFFFFFFFFFF AND PUSH20 0xFFFFFFFFFFFFFFFFFFFFFFFFFFFFFFFFFFFFFFFF AND DUP2 MSTORE PUSH1 0x20 ADD SWAP1 DUP2 MSTORE PUSH1 0x20 ADD PUSH1 0x0 KECCAK256 PUSH1 0x1 ADD PUSH1 0x1 SWAP1 SLOAD SWAP1 PUSH2 0x100 EXP SWAP1 DIV PUSH1 0xFF AND PUSH2 0x2C4E JUMPI PUSH1 0x40 MLOAD PUSH32 0x8C379A000000000000000000000000000000000000000000000000000000000 DUP2 MSTORE PUSH1 0x4 ADD PUSH2 0x2C45 SWAP1 PUSH2 0x3ECB JUMP JUMPDEST PUSH1 0x40 MLOAD DUP1 SWAP2 SUB SWAP1 REVERT JUMPDEST PUSH1 0x4 DUP1 SLOAD SWAP1 POP DUP2 LT PUSH2 0x2C95 JUMPI PUSH1 0x40 MLOAD PUSH32 0x8C379A000000000000000000000000000000000000000000000000000000000 DUP2 MSTORE PUSH1 0x4 ADD PUSH2 0x2C8C SWAP1 PUSH2 0x404B JUMP JUMPDEST PUSH1 0x40 MLOAD DUP1 SWAP2 SUB SWAP1 REVERT JUMPDEST PUSH1 0x0 PUSH1 0x4 DUP3 DUP2 SLOAD DUP2 LT PUSH2 0x2CD1 JUMPI PUSH32 0x4E487B7100000000000000000000000000000000000000000000000000000000 PUSH1 0x0 MSTORE PUSH1 0x32 PUSH1 0x4 MSTORE PUSH1 0x24 PUSH1 0x0 REVERT JUMPDEST SWAP1 PUSH1 0x0 MSTORE PUSH1 0x20 PUSH1 0x0 KECCAK256 SWAP1 PUSH1 0x4 MUL ADD SWAP1 POP CALLER PUSH20 0xFFFFFFFFFFFFFFFFFFFFFFFFFFFFFFFFFFFFFFFF AND PUSH1 0x1 PUSH1 0x0 DUP4 PUSH1 0x1 ADD SLOAD DUP2 MSTORE PUSH1 0x20 ADD SWAP1 DUP2 MSTORE PUSH1 0x20 ADD PUSH1 0x0 KECCAK256 PUSH1 0x3 ADD PUSH1 0x0 SWAP1 SLOAD SWAP1 PUSH2 0x100 EXP SWAP1 DIV PUSH20 0xFFFFFFFFFFFFFFFFFFFFFFFFFFFFFFFFFFFFFFFF AND PUSH20 0xFFFFFFFFFFFFFFFFFFFFFFFFFFFFFFFFFFFFFFFF AND EQ PUSH2 0x2D89 JUMPI PUSH1 0x40 MLOAD PUSH32 0x8C379A000000000000000000000000000000000000000000000000000000000 DUP2 MSTORE PUSH1 0x4 ADD PUSH2 0x2D80 SWAP1 PUSH2 0x408B JUMP JUMPDEST PUSH1 0x40 MLOAD DUP1 SWAP2 SUB SWAP1 REVERT JUMPDEST PUSH2 0x2DBB DUP2 PUSH1 0x1 ADD SLOAD DUP3 PUSH1 0x0 ADD PUSH1 0x0 SWAP1 SLOAD SWAP1 PUSH2 0x100 EXP SWAP1 DIV PUSH20 0xFFFFFFFFFFFFFFFFFFFFFFFFFFFFFFFFFFFFFFFF AND PUSH2 0x103C JUMP JUMPDEST PUSH1 0x1 DUP2 PUSH1 0x3 ADD PUSH1 0x0 PUSH2 0x100 EXP DUP2 SLOAD DUP2 PUSH1 0xFF MUL NOT AND SWAP1 DUP4 ISZERO ISZERO MUL OR SWAP1 SSTORE POP PUSH1 0x1 DUP1 PUSH1 0x0 DUP4 PUSH1 0x1 ADD SLOAD DUP2 MSTORE PUSH1 0x20 ADD SWAP1 DUP2 MSTORE PUSH1 0x20 ADD PUSH1 0x0 KECCAK256 PUSH1 0x3 ADD PUSH1 0x14 PUSH2 0x100 EXP DUP2 SLOAD DUP2 PUSH1 0xFF MUL NOT AND SWAP1 DUP4 ISZERO ISZERO MUL OR SWAP1 SSTORE POP POP POP JUMP JUMPDEST PUSH1 0x0 DUP1 DUP6 PUSH20 0xFFFFFFFFFFFFFFFFFFFFFFFFFFFFFFFFFFFFFFFF AND PUSH20 0xFFFFFFFFFFFFFFFFFFFFFFFFFFFFFFFFFFFFFFFF AND DUP2 MSTORE PUSH1 0x20 ADD SWAP1 DUP2 MSTORE PUSH1 0x20 ADD PUSH1 0x0 KECCAK256 PUSH1 0x1 ADD PUSH1 0x0 SWAP1 SLOAD SWAP1 PUSH2 0x100 EXP SWAP1 DIV PUSH1 0xFF AND DUP1 ISZERO PUSH2 0x2ECA JUMPI POP CALLER PUSH20 0xFFFFFFFFFFFFFFFFFFFFFFFFFFFFFFFFFFFFFFFF AND PUSH1 0x1 PUSH1 0x0 DUP6 DUP2 MSTORE PUSH1 0x20 ADD SWAP1 DUP2 MSTORE PUSH1 0x20 ADD PUSH1 0x0 KECCAK256 PUSH1 0x3 ADD PUSH1 0x0 SWAP1 SLOAD SWAP1 PUSH2 0x100 EXP SWAP1 DIV PUSH20 0xFFFFFFFFFFFFFFFFFFFFFFFFFFFFFFFFFFFFFFFF AND PUSH20 0xFFFFFFFFFFFFFFFFFFFFFFFFFFFFFFFFFFFFFFFF AND EQ JUMPDEST PUSH2 0x2F09 JUMPI PUSH1 0x40 MLOAD PUSH32 0x8C379A000000000000000000000000000000000000000000000000000000000 DUP2 MSTORE PUSH1 0x4 ADD PUSH2 0x2F00 SWAP1 PUSH2 0x3F4B JUMP JUMPDEST PUSH1 0x40 MLOAD DUP1 SWAP2 SUB SWAP1 REVERT JUMPDEST PUSH1 0x1 PUSH1 0x0 DUP5 DUP2 MSTORE PUSH1 0x20 ADD SWAP1 DUP2 MSTORE PUSH1 0x20 ADD PUSH1 0x0 KECCAK256 PUSH1 0x3 ADD PUSH1 0x14 SWAP1 SLOAD SWAP1 PUSH2 0x100 EXP SWAP1 DIV PUSH1 0xFF AND PUSH2 0x2F6C JUMPI PUSH1 0x40 MLOAD PUSH32 0x8C379A000000000000000000000000000000000000000000000000000000000 DUP2 MSTORE PUSH1 0x4 ADD PUSH2 0x2F63 SWAP1 PUSH2 0x3F2B JUMP JUMPDEST PUSH1 0x40 MLOAD DUP1 SWAP2 SUB SWAP1 REVERT JUMPDEST PUSH1 0x2 PUSH1 0x40 MLOAD DUP1 PUSH1 0x80 ADD PUSH1 0x40 MSTORE DUP1 DUP7 PUSH20 0xFFFFFFFFFFFFFFFFFFFFFFFFFFFFFFFFFFFFFFFF AND DUP2 MSTORE PUSH1 0x20 ADD DUP6 DUP2 MSTORE PUSH1 0x20 ADD DUP5 DUP2 MSTORE PUSH1 0x20 ADD DUP4 DUP2 MSTORE POP SWAP1 DUP1 PUSH1 0x1 DUP2 SLOAD ADD DUP1 DUP3 SSTORE DUP1 SWAP2 POP POP PUSH1 0x1 SWAP1 SUB SWAP1 PUSH1 0x0 MSTORE PUSH1 0x20 PUSH1 0x0 KECCAK256 SWAP1 PUSH1 0x4 MUL ADD PUSH1 0x0 SWAP1 SWAP2 SWAP1 SWAP2 SWAP1 SWAP2 POP PUSH1 0x0 DUP3 ADD MLOAD DUP2 PUSH1 0x0 ADD PUSH1 0x0 PUSH2 0x100 EXP DUP2 SLOAD DUP2 PUSH20 0xFFFFFFFFFFFFFFFFFFFFFFFFFFFFFFFFFFFFFFFF MUL NOT AND SWAP1 DUP4 PUSH20 0xFFFFFFFFFFFFFFFFFFFFFFFFFFFFFFFFFFFFFFFF AND MUL OR SWAP1 SSTORE POP PUSH1 0x20 DUP3 ADD MLOAD DUP2 PUSH1 0x1 ADD SSTORE PUSH1 0x40 DUP3 ADD MLOAD DUP2 PUSH1 0x2 ADD SSTORE PUSH1 0x60 DUP3 ADD MLOAD DUP2 PUSH1 0x3 ADD SSTORE POP POP PUSH1 0x0 PUSH1 0x1 PUSH1 0x0 DUP6 DUP2 MSTORE PUSH1 0x20 ADD SWAP1 DUP2 MSTORE PUSH1 0x20 ADD PUSH1 0x0 KECCAK256 PUSH1 0x3 ADD PUSH1 0x14 PUSH2 0x100 EXP DUP2 SLOAD DUP2 PUSH1 0xFF MUL NOT AND SWAP1 DUP4 ISZERO ISZERO MUL OR SWAP1 SSTORE POP POP POP POP POP JUMP JUMPDEST DUP3 DUP1 SLOAD PUSH2 0x3076 SWAP1 PUSH2 0x4312 JUMP JUMPDEST SWAP1 PUSH1 0x0 MSTORE PUSH1 0x20 PUSH1 0x0 KECCAK256 SWAP1 PUSH1 0x1F ADD PUSH1 0x20 SWAP1 DIV DUP2 ADD SWAP3 DUP3 PUSH2 0x3098 JUMPI PUSH1 0x0 DUP6 SSTORE PUSH2 0x30DF JUMP JUMPDEST DUP3 PUSH1 0x1F LT PUSH2 0x30B1 JUMPI DUP1 MLOAD PUSH1 0xFF NOT AND DUP4 DUP1 ADD OR DUP6 SSTORE PUSH2 0x30DF JUMP JUMPDEST DUP3 DUP1 ADD PUSH1 0x1 ADD DUP6 SSTORE DUP3 ISZERO PUSH2 0x30DF JUMPI SWAP2 DUP3 ADD JUMPDEST DUP3 DUP2 GT ISZERO PUSH2 0x30DE JUMPI DUP3 MLOAD DUP3 SSTORE SWAP2 PUSH1 0x20 ADD SWAP2 SWAP1 PUSH1 0x1 ADD SWAP1 PUSH2 0x30C3 JUMP JUMPDEST JUMPDEST POP SWAP1 POP PUSH2 0x30EC SWAP2 SWAP1 PUSH2 0x30F0 JUMP JUMPDEST POP SWAP1 JUMP JUMPDEST JUMPDEST DUP1 DUP3 GT ISZERO PUSH2 0x3109 JUMPI PUSH1 0x0 DUP2 PUSH1 0x0 SWAP1 SSTORE POP PUSH1 0x1 ADD PUSH2 0x30F1 JUMP JUMPDEST POP SWAP1 JUMP JUMPDEST PUSH1 0x0 PUSH2 0x3120 PUSH2 0x311B DUP5 PUSH2 0x4120 JUMP JUMPDEST PUSH2 0x40EF JUMP JUMPDEST SWAP1 POP DUP3 DUP2 MSTORE PUSH1 0x20 DUP2 ADD DUP5 DUP5 DUP5 ADD GT ISZERO PUSH2 0x3138 JUMPI PUSH1 0x0 DUP1 REVERT JUMPDEST PUSH2 0x3143 DUP5 DUP3 DUP6 PUSH2 0x42D0 JUMP JUMPDEST POP SWAP4 SWAP3 POP POP POP JUMP JUMPDEST PUSH1 0x0 DUP2 CALLDATALOAD SWAP1 POP PUSH2 0x315A DUP2 PUSH2 0x4474 JUMP JUMPDEST SWAP3 SWAP2 POP POP JUMP JUMPDEST PUSH1 0x0 DUP2 CALLDATALOAD SWAP1 POP PUSH2 0x316F DUP2 PUSH2 0x448B JUMP JUMPDEST SWAP3 SWAP2 POP POP JUMP JUMPDEST PUSH1 0x0 DUP2 CALLDATALOAD SWAP1 POP PUSH2 0x3184 DUP2 PUSH2 0x44A2 JUMP JUMPDEST SWAP3 SWAP2 POP POP JUMP JUMPDEST PUSH1 0x0 DUP3 PUSH1 0x1F DUP4 ADD SLT PUSH2 0x319B JUMPI PUSH1 0x0 DUP1 REVERT JUMPDEST DUP2 CALLDATALOAD PUSH2 0x31AB DUP5 DUP3 PUSH1 0x20 DUP7 ADD PUSH2 0x310D JUMP JUMPDEST SWAP2 POP POP SWAP3 SWAP2 POP POP JUMP JUMPDEST PUSH1 0x0 DUP2 CALLDATALOAD SWAP1 POP PUSH2 0x31C3 DUP2 PUSH2 0x44B9 JUMP JUMPDEST SWAP3 SWAP2 POP POP JUMP JUMPDEST PUSH1 0x0 PUSH1 0x20 DUP3 DUP5 SUB SLT ISZERO PUSH2 0x31DB JUMPI PUSH1 0x0 DUP1 REVERT JUMPDEST PUSH1 0x0 PUSH2 0x31E9 DUP5 DUP3 DUP6 ADD PUSH2 0x314B JUMP JUMPDEST SWAP2 POP POP SWAP3 SWAP2 POP POP JUMP JUMPDEST PUSH1 0x0 DUP1 PUSH1 0x0 DUP1 PUSH1 0x80 DUP6 DUP8 SUB SLT ISZERO PUSH2 0x3208 JUMPI PUSH1 0x0 DUP1 REVERT JUMPDEST PUSH1 0x0 PUSH2 0x3216 DUP8 DUP3 DUP9 ADD PUSH2 0x314B JUMP JUMPDEST SWAP5 POP POP PUSH1 0x20 PUSH2 0x3227 DUP8 DUP3 DUP9 ADD PUSH2 0x3175 JUMP JUMPDEST SWAP4 POP POP PUSH1 0x40 PUSH2 0x3238 DUP8 DUP3 DUP9 ADD PUSH2 0x31B4 JUMP JUMPDEST SWAP3 POP POP PUSH1 0x60 PUSH2 0x3249 DUP8 DUP3 DUP9 ADD PUSH2 0x31B4 JUMP JUMPDEST SWAP2 POP POP SWAP3 SWAP6 SWAP2 SWAP5 POP SWAP3 POP JUMP JUMPDEST PUSH1 0x0 PUSH1 0x20 DUP3 DUP5 SUB SLT ISZERO PUSH2 0x3267 JUMPI PUSH1 0x0 DUP1 REVERT JUMPDEST PUSH1 0x0 PUSH2 0x3275 DUP5 DUP3 DUP6 ADD PUSH2 0x3175 JUMP JUMPDEST SWAP2 POP POP SWAP3 SWAP2 POP POP JUMP JUMPDEST PUSH1 0x0 DUP1 PUSH1 0x40 DUP4 DUP6 SUB SLT ISZERO PUSH2 0x3291 JUMPI PUSH1 0x0 DUP1 REVERT JUMPDEST PUSH1 0x0 PUSH2 0x329F DUP6 DUP3 DUP7 ADD PUSH2 0x3175 JUMP JUMPDEST SWAP3 POP POP PUSH1 0x20 PUSH2 0x32B0 DUP6 DUP3 DUP7 ADD PUSH2 0x314B JUMP JUMPDEST SWAP2 POP POP SWAP3 POP SWAP3 SWAP1 POP JUMP JUMPDEST PUSH1 0x0 DUP1 PUSH1 0x40 DUP4 DUP6 SUB SLT ISZERO PUSH2 0x32CD JUMPI PUSH1 0x0 DUP1 REVERT JUMPDEST PUSH1 0x0 PUSH2 0x32DB DUP6 DUP3 DUP7 ADD PUSH2 0x3175 JUMP JUMPDEST SWAP3 POP POP PUSH1 0x20 DUP4 ADD CALLDATALOAD PUSH8 0xFFFFFFFFFFFFFFFF DUP2 GT ISZERO PUSH2 0x32F8 JUMPI PUSH1 0x0 DUP1 REVERT JUMPDEST PUSH2 0x3304 DUP6 DUP3 DUP7 ADD PUSH2 0x318A JUMP JUMPDEST SWAP2 POP POP SWAP3 POP SWAP3 SWAP1 POP JUMP JUMPDEST PUSH1 0x0 DUP1 PUSH1 0x0 PUSH1 0x60 DUP5 DUP7 SUB SLT ISZERO PUSH2 0x3323 JUMPI PUSH1 0x0 DUP1 REVERT JUMPDEST PUSH1 0x0 DUP5 ADD CALLDATALOAD PUSH8 0xFFFFFFFFFFFFFFFF DUP2 GT ISZERO PUSH2 0x333D JUMPI PUSH1 0x0 DUP1 REVERT JUMPDEST PUSH2 0x3349 DUP7 DUP3 DUP8 ADD PUSH2 0x318A JUMP JUMPDEST SWAP4 POP POP PUSH1 0x20 PUSH2 0x335A DUP7 DUP3 DUP8 ADD PUSH2 0x3160 JUMP JUMPDEST SWAP3 POP POP PUSH1 0x40 PUSH2 0x336B DUP7 DUP3 DUP8 ADD PUSH2 0x3160 JUMP JUMPDEST SWAP2 POP POP SWAP3 POP SWAP3 POP SWAP3 JUMP JUMPDEST PUSH1 0x0 DUP1 PUSH1 0x40 DUP4 DUP6 SUB SLT ISZERO PUSH2 0x3388 JUMPI PUSH1 0x0 DUP1 REVERT JUMPDEST PUSH1 0x0 DUP4 ADD CALLDATALOAD PUSH8 0xFFFFFFFFFFFFFFFF DUP2 GT ISZERO PUSH2 0x33A2 JUMPI PUSH1 0x0 DUP1 REVERT JUMPDEST PUSH2 0x33AE DUP6 DUP3 DUP7 ADD PUSH2 0x318A JUMP JUMPDEST SWAP3 POP POP PUSH1 0x20 DUP4 ADD CALLDATALOAD PUSH8 0xFFFFFFFFFFFFFFFF DUP2 GT ISZERO PUSH2 0x33CB JUMPI PUSH1 0x0 DUP1 REVERT JUMPDEST PUSH2 0x33D7 DUP6 DUP3 DUP7 ADD PUSH2 0x318A JUMP JUMPDEST SWAP2 POP POP SWAP3 POP SWAP3 SWAP1 POP JUMP JUMPDEST PUSH1 0x0 PUSH1 0x20 DUP3 DUP5 SUB SLT ISZERO PUSH2 0x33F3 JUMPI PUSH1 0x0 DUP1 REVERT JUMPDEST PUSH1 0x0 PUSH2 0x3401 DUP5 DUP3 DUP6 ADD PUSH2 0x31B4 JUMP JUMPDEST SWAP2 POP POP SWAP3 SWAP2 POP POP JUMP JUMPDEST PUSH1 0x0 DUP1 PUSH1 0x40 DUP4 DUP6 SUB SLT ISZERO PUSH2 0x341D JUMPI PUSH1 0x0 DUP1 REVERT JUMPDEST PUSH1 0x0 PUSH2 0x342B DUP6 DUP3 DUP7 ADD PUSH2 0x31B4 JUMP JUMPDEST SWAP3 POP POP PUSH1 0x20 DUP4 ADD CALLDATALOAD PUSH8 0xFFFFFFFFFFFFFFFF DUP2 GT ISZERO PUSH2 0x3448 JUMPI PUSH1 0x0 DUP1 REVERT JUMPDEST PUSH2 0x3454 DUP6 DUP3 DUP7 ADD PUSH2 0x318A JUMP JUMPDEST SWAP2 POP POP SWAP3 POP SWAP3 SWAP1 POP JUMP JUMPDEST PUSH1 0x0 PUSH2 0x346A DUP4 DUP4 PUSH2 0x34A2 JUMP JUMPDEST PUSH1 0x20 DUP4 ADD SWAP1 POP SWAP3 SWAP2 POP POP JUMP JUMPDEST PUSH1 0x0 PUSH2 0x3482 DUP4 DUP4 PUSH2 0x3600 JUMP JUMPDEST PUSH1 0x20 DUP4 ADD SWAP1 POP SWAP3 SWAP2 POP POP JUMP JUMPDEST PUSH1 0x0 PUSH2 0x349A DUP4 DUP4 PUSH2 0x361E JUMP JUMPDEST SWAP1 POP SWAP3 SWAP2 POP POP JUMP JUMPDEST PUSH2 0x34AB DUP2 PUSH2 0x427E JUMP JUMPDEST DUP3 MSTORE POP POP JUMP JUMPDEST PUSH2 0x34BA DUP2 PUSH2 0x427E JUMP JUMPDEST DUP3 MSTORE POP POP JUMP JUMPDEST PUSH1 0x0 PUSH2 0x34CB DUP3 PUSH2 0x4180 JUMP JUMPDEST PUSH2 0x34D5 DUP2 DUP6 PUSH2 0x41D3 JUMP JUMPDEST SWAP4 POP PUSH2 0x34E0 DUP4 PUSH2 0x4150 JUMP JUMPDEST DUP1 PUSH1 0x0 JUMPDEST DUP4 DUP2 LT ISZERO PUSH2 0x3511 JUMPI DUP2 MLOAD PUSH2 0x34F8 DUP9 DUP3 PUSH2 0x345E JUMP JUMPDEST SWAP8 POP PUSH2 0x3503 DUP4 PUSH2 0x41AC JUMP JUMPDEST SWAP3 POP POP PUSH1 0x1 DUP2 ADD SWAP1 POP PUSH2 0x34E4 JUMP JUMPDEST POP DUP6 SWAP4 POP POP POP POP SWAP3 SWAP2 POP POP JUMP JUMPDEST PUSH1 0x0 PUSH2 0x3529 DUP3 PUSH2 0x418B JUMP JUMPDEST PUSH2 0x3533 DUP2 DUP6 PUSH2 0x41E4 JUMP JUMPDEST SWAP4 POP PUSH2 0x353E DUP4 PUSH2 0x4160 JUMP JUMPDEST DUP1 PUSH1 0x0 JUMPDEST DUP4 DUP2 LT ISZERO PUSH2 0x356F JUMPI DUP2 MLOAD PUSH2 0x3556 DUP9 DUP3 PUSH2 0x3476 JUMP JUMPDEST SWAP8 POP PUSH2 0x3561 DUP4 PUSH2 0x41B9 JUMP JUMPDEST SWAP3 POP POP PUSH1 0x1 DUP2 ADD SWAP1 POP PUSH2 0x3542 JUMP JUMPDEST POP DUP6 SWAP4 POP POP POP POP SWAP3 SWAP2 POP POP JUMP JUMPDEST PUSH1 0x0 PUSH2 0x3587 DUP3 PUSH2 0x4196 JUMP JUMPDEST PUSH2 0x3591 DUP2 DUP6 PUSH2 0x41F5 JUMP JUMPDEST SWAP4 POP DUP4 PUSH1 0x20 DUP3 MUL DUP6 ADD PUSH2 0x35A3 DUP6 PUSH2 0x4170 JUMP JUMPDEST DUP1 PUSH1 0x0 JUMPDEST DUP6 DUP2 LT ISZERO PUSH2 0x35DF JUMPI DUP5 DUP5 SUB DUP10 MSTORE DUP2 MLOAD PUSH2 0x35C0 DUP6 DUP3 PUSH2 0x348E JUMP JUMPDEST SWAP5 POP PUSH2 0x35CB DUP4 PUSH2 0x41C6 JUMP JUMPDEST SWAP3 POP PUSH1 0x20 DUP11 ADD SWAP10 POP POP PUSH1 0x1 DUP2 ADD SWAP1 POP PUSH2 0x35A7 JUMP JUMPDEST POP DUP3 SWAP8 POP DUP8 SWAP6 POP POP POP POP POP POP SWAP3 SWAP2 POP POP JUMP JUMPDEST PUSH2 0x35FA DUP2 PUSH2 0x4290 JUMP JUMPDEST DUP3 MSTORE POP POP JUMP JUMPDEST PUSH2 0x3609 DUP2 PUSH2 0x429C JUMP JUMPDEST DUP3 MSTORE POP POP JUMP JUMPDEST PUSH2 0x3618 DUP2 PUSH2 0x429C JUMP JUMPDEST DUP3 MSTORE POP POP JUMP JUMPDEST PUSH1 0x0 PUSH2 0x3629 DUP3 PUSH2 0x41A1 JUMP JUMPDEST PUSH2 0x3633 DUP2 DUP6 PUSH2 0x4206 JUMP JUMPDEST SWAP4 POP PUSH2 0x3643 DUP2 DUP6 PUSH1 0x20 DUP7 ADD PUSH2 0x42DF JUMP JUMPDEST PUSH2 0x364C DUP2 PUSH2 0x4463 JUMP JUMPDEST DUP5 ADD SWAP2 POP POP SWAP3 SWAP2 POP POP JUMP JUMPDEST PUSH1 0x0 PUSH2 0x3662 DUP3 PUSH2 0x41A1 JUMP JUMPDEST PUSH2 0x366C DUP2 DUP6 PUSH2 0x4217 JUMP JUMPDEST SWAP4 POP PUSH2 0x367C DUP2 DUP6 PUSH1 0x20 DUP7 ADD PUSH2 0x42DF JUMP JUMPDEST PUSH2 0x3685 DUP2 PUSH2 0x4463 JUMP JUMPDEST DUP5 ADD SWAP2 POP POP SWAP3 SWAP2 POP POP JUMP JUMPDEST PUSH1 0x0 PUSH2 0x369D PUSH1 0x2C DUP4 PUSH2 0x4217 JUMP JUMPDEST SWAP2 POP PUSH32 0x4F6E6C79206C616E646C6F7264732063616E20617070726F7665206561726C79 PUSH1 0x0 DUP4 ADD MSTORE PUSH32 0x207465726D696E6174696F6E0000000000000000000000000000000000000000 PUSH1 0x20 DUP4 ADD MSTORE PUSH1 0x40 DUP3 ADD SWAP1 POP SWAP2 SWAP1 POP JUMP JUMPDEST PUSH1 0x0 PUSH2 0x3703 PUSH1 0x3F DUP4 PUSH2 0x4217 JUMP JUMPDEST SWAP2 POP PUSH32 0x596F7520617265206E6F7420746865206F776E6572206F66207468652070726F PUSH1 0x0 DUP4 ADD MSTORE PUSH32 0x70657274792072656C6174656420746F207468697320636F6D706C61696E7400 PUSH1 0x20 DUP4 ADD MSTORE PUSH1 0x40 DUP3 ADD SWAP1 POP SWAP2 SWAP1 POP JUMP JUMPDEST PUSH1 0x0 PUSH2 0x3769 PUSH1 0x23 DUP4 PUSH2 0x4217 JUMP JUMPDEST SWAP2 POP PUSH32 0x4F6E6C79206C616E646C6F7264732063616E207465726D696E617465206C6561 PUSH1 0x0 DUP4 ADD MSTORE PUSH32 0x7365730000000000000000000000000000000000000000000000000000000000 PUSH1 0x20 DUP4 ADD MSTORE PUSH1 0x40 DUP3 ADD SWAP1 POP SWAP2 SWAP1 POP JUMP JUMPDEST PUSH1 0x0 PUSH2 0x37CF PUSH1 0x18 DUP4 PUSH2 0x4217 JUMP JUMPDEST SWAP2 POP PUSH32 0x50726F7065727479206973206E6F742072656E7461626C650000000000000000 PUSH1 0x0 DUP4 ADD MSTORE PUSH1 0x20 DUP3 ADD SWAP1 POP SWAP2 SWAP1 POP JUMP JUMPDEST PUSH1 0x0 PUSH2 0x380F PUSH1 0x1A DUP4 PUSH2 0x4217 JUMP JUMPDEST SWAP2 POP PUSH32 0x496E76616C69642074656E616E74206F722070726F7065727479000000000000 PUSH1 0x0 DUP4 ADD MSTORE PUSH1 0x20 DUP3 ADD SWAP1 POP SWAP2 SWAP1 POP JUMP JUMPDEST PUSH1 0x0 PUSH2 0x384F PUSH1 0x13 DUP4 PUSH2 0x4217 JUMP JUMPDEST SWAP2 POP PUSH32 0x5573657220616C72656164792065786973747300000000000000000000000000 PUSH1 0x0 DUP4 ADD MSTORE PUSH1 0x20 DUP3 ADD SWAP1 POP SWAP2 SWAP1 POP JUMP JUMPDEST PUSH1 0x0 PUSH2 0x388F PUSH1 0x17 DUP4 PUSH2 0x4217 JUMP JUMPDEST SWAP2 POP PUSH32 0x496E76616C696420636F6D706C61696E7420696E646578000000000000000000 PUSH1 0x0 DUP4 ADD MSTORE PUSH1 0x20 DUP3 ADD SWAP1 POP SWAP2 SWAP1 POP JUMP JUMPDEST PUSH1 0x0 PUSH2 0x38CF PUSH1 0x29 DUP4 PUSH2 0x4217 JUMP JUMPDEST SWAP2 POP PUSH32 0x596F7520646F206E6F7420686176652061206C6561736520666F722074686973 PUSH1 0x0 DUP4 ADD MSTORE PUSH32 0x2070726F70657274790000000000000000000000000000000000000000000000 PUSH1 0x20 DUP4 ADD MSTORE PUSH1 0x40 DUP3 ADD SWAP1 POP SWAP2 SWAP1 POP JUMP JUMPDEST PUSH1 0x0 PUSH2 0x3935 PUSH1 0x22 DUP4 PUSH2 0x4217 JUMP JUMPDEST SWAP2 POP PUSH32 0x4F6E6C792074656E616E74732063616E2063726561746520636F6D706C61696E PUSH1 0x0 DUP4 ADD MSTORE PUSH32 0x7473000000000000000000000000000000000000000000000000000000000000 PUSH1 0x20 DUP4 ADD MSTORE PUSH1 0x40 DUP3 ADD SWAP1 POP SWAP2 SWAP1 POP JUMP JUMPDEST PUSH1 0x0 PUSH2 0x399B PUSH1 0x2A DUP4 PUSH2 0x4217 JUMP JUMPDEST SWAP2 POP PUSH32 0x4F6E6C792074656E616E74732063616E2072657175657374206561726C792074 PUSH1 0x0 DUP4 ADD MSTORE PUSH32 0x65726D696E6174696F6E00000000000000000000000000000000000000000000 PUSH1 0x20 DUP4 ADD MSTORE PUSH1 0x40 DUP3 ADD SWAP1 POP SWAP2 SWAP1 POP JUMP JUMPDEST PUSH1 0x0 PUSH2 0x3A01 PUSH1 0x28 DUP4 PUSH2 0x4217 JUMP JUMPDEST SWAP2 POP PUSH32 0x4F6E6C79206C616E646C6F7264732063616E20726573706F6E6420746F20636F PUSH1 0x0 DUP4 ADD MSTORE PUSH32 0x6D706C61696E7473000000000000000000000000000000000000000000000000 PUSH1 0x20 DUP4 ADD MSTORE PUSH1 0x40 DUP3 ADD SWAP1 POP SWAP2 SWAP1 POP JUMP JUMPDEST PUSH1 0x0 PUSH2 0x3A67 PUSH1 0x24 DUP4 PUSH2 0x4217 JUMP JUMPDEST SWAP2 POP PUSH32 0x4F6E6C79206C616E646C6F7264732063616E206372656174652070726F706572 PUSH1 0x0 DUP4 ADD MSTORE PUSH32 0x7469657300000000000000000000000000000000000000000000000000000000 PUSH1 0x20 DUP4 ADD MSTORE PUSH1 0x40 DUP3 ADD SWAP1 POP SWAP2 SWAP1 POP JUMP JUMPDEST PUSH1 0x0 PUSH2 0x3ACD PUSH1 0x15 DUP4 PUSH2 0x4217 JUMP JUMPDEST SWAP2 POP PUSH32 0x496E76616C6964207265717565737420696E6465780000000000000000000000 PUSH1 0x0 DUP4 ADD MSTORE PUSH1 0x20 DUP3 ADD SWAP1 POP SWAP2 SWAP1 POP JUMP JUMPDEST PUSH1 0x0 PUSH2 0x3B0D PUSH1 0x2D DUP4 PUSH2 0x4217 JUMP JUMPDEST SWAP2 POP PUSH32 0x596F752063616E206F6E6C7920636F6D706C61696E2061626F75742061207265 PUSH1 0x0 DUP4 ADD MSTORE PUSH32 0x6E7465642070726F706572747900000000000000000000000000000000000000 PUSH1 0x20 DUP4 ADD MSTORE PUSH1 0x40 DUP3 ADD SWAP1 POP SWAP2 SWAP1 POP JUMP JUMPDEST PUSH1 0x0 PUSH2 0x3B73 PUSH1 0x25 DUP4 PUSH2 0x4217 JUMP JUMPDEST SWAP2 POP PUSH32 0x596F7520617265206E6F7420746865206F776E6572206F66207468652070726F PUSH1 0x0 DUP4 ADD MSTORE PUSH32 0x7065727479000000000000000000000000000000000000000000000000000000 PUSH1 0x20 DUP4 ADD MSTORE PUSH1 0x40 DUP3 ADD SWAP1 POP SWAP2 SWAP1 POP JUMP JUMPDEST PUSH2 0x3BD5 DUP2 PUSH2 0x42C6 JUMP JUMPDEST DUP3 MSTORE POP POP JUMP JUMPDEST PUSH1 0x0 PUSH1 0x20 DUP3 ADD SWAP1 POP PUSH2 0x3BF0 PUSH1 0x0 DUP4 ADD DUP5 PUSH2 0x34B1 JUMP JUMPDEST SWAP3 SWAP2 POP POP JUMP JUMPDEST PUSH1 0x0 PUSH1 0x80 DUP3 ADD SWAP1 POP PUSH2 0x3C0B PUSH1 0x0 DUP4 ADD DUP8 PUSH2 0x34B1 JUMP JUMPDEST PUSH2 0x3C18 PUSH1 0x20 DUP4 ADD DUP7 PUSH2 0x360F JUMP JUMPDEST DUP2 DUP2 SUB PUSH1 0x40 DUP4 ADD MSTORE PUSH2 0x3C2A DUP2 DUP6 PUSH2 0x3657 JUMP JUMPDEST SWAP1 POP DUP2 DUP2 SUB PUSH1 0x60 DUP4 ADD MSTORE PUSH2 0x3C3E DUP2 DUP5 PUSH2 0x3657 JUMP JUMPDEST SWAP1 POP SWAP6 SWAP5 POP POP POP POP POP JUMP JUMPDEST PUSH1 0x0 PUSH1 0x80 DUP3 ADD SWAP1 POP PUSH2 0x3C5E PUSH1 0x0 DUP4 ADD DUP8 PUSH2 0x34B1 JUMP JUMPDEST PUSH2 0x3C6B PUSH1 0x20 DUP4 ADD DUP7 PUSH2 0x360F JUMP JUMPDEST PUSH2 0x3C78 PUSH1 0x40 DUP4 ADD DUP6 PUSH2 0x3BCC JUMP JUMPDEST PUSH2 0x3C85 PUSH1 0x60 DUP4 ADD DUP5 PUSH2 0x35F1 JUMP JUMPDEST SWAP6 SWAP5 POP POP POP POP POP JUMP JUMPDEST PUSH1 0x0 PUSH1 0x80 DUP3 ADD SWAP1 POP PUSH2 0x3CA3 PUSH1 0x0 DUP4 ADD DUP8 PUSH2 0x34B1 JUMP JUMPDEST PUSH2 0x3CB0 PUSH1 0x20 DUP4 ADD DUP7 PUSH2 0x360F JUMP JUMPDEST PUSH2 0x3CBD PUSH1 0x40 DUP4 ADD DUP6 PUSH2 0x3BCC JUMP JUMPDEST PUSH2 0x3CCA PUSH1 0x60 DUP4 ADD DUP5 PUSH2 0x3BCC JUMP JUMPDEST SWAP6 SWAP5 POP POP POP POP POP JUMP JUMPDEST PUSH1 0x0 PUSH1 0x20 DUP3 ADD SWAP1 POP DUP2 DUP2 SUB PUSH1 0x0 DUP4 ADD MSTORE PUSH2 0x3CED DUP2 DUP5 PUSH2 0x34C0 JUMP JUMPDEST SWAP1 POP SWAP3 SWAP2 POP POP JUMP JUMPDEST PUSH1 0x0 PUSH1 0x60 DUP3 ADD SWAP1 POP DUP2 DUP2 SUB PUSH1 0x0 DUP4 ADD MSTORE PUSH2 0x3D0F DUP2 DUP7 PUSH2 0x351E JUMP JUMPDEST SWAP1 POP DUP2 DUP2 SUB PUSH1 0x20 DUP4 ADD MSTORE PUSH2 0x3D23 DUP2 DUP6 PUSH2 0x357C JUMP JUMPDEST SWAP1 POP DUP2 DUP2 SUB PUSH1 0x40 DUP4 ADD MSTORE PUSH2 0x3D37 DUP2 DUP5 PUSH2 0x357C JUMP JUMPDEST SWAP1 POP SWAP5 SWAP4 POP POP POP POP JUMP JUMPDEST PUSH1 0x0 PUSH1 0x80 DUP3 ADD SWAP1 POP DUP2 DUP2 SUB PUSH1 0x0 DUP4 ADD MSTORE PUSH2 0x3D5B DUP2 DUP8 PUSH2 0x351E JUMP JUMPDEST SWAP1 POP DUP2 DUP2 SUB PUSH1 0x20 DUP4 ADD MSTORE PUSH2 0x3D6F DUP2 DUP7 PUSH2 0x357C JUMP JUMPDEST SWAP1 POP DUP2 DUP2 SUB PUSH1 0x40 DUP4 ADD MSTORE PUSH2 0x3D83 DUP2 DUP6 PUSH2 0x357C JUMP JUMPDEST SWAP1 POP DUP2 DUP2 SUB PUSH1 0x60 DUP4 ADD MSTORE PUSH2 0x3D97 DUP2 DUP5 PUSH2 0x34C0 JUMP JUMPDEST SWAP1 POP SWAP6 SWAP5 POP POP POP POP POP JUMP JUMPDEST PUSH1 0x0 PUSH1 0x80 DUP3 ADD SWAP1 POP DUP2 DUP2 SUB PUSH1 0x0 DUP4 ADD MSTORE PUSH2 0x3DBC DUP2 DUP8 PUSH2 0x351E JUMP JUMPDEST SWAP1 POP DUP2 DUP2 SUB PUSH1 0x20 DUP4 ADD MSTORE PUSH2 0x3DD0 DUP2 DUP7 PUSH2 0x357C JUMP JUMPDEST SWAP1 POP DUP2 DUP2 SUB PUSH1 0x40 DUP4 ADD MSTORE PUSH2 0x3DE4 DUP2 DUP6 PUSH2 0x357C JUMP JUMPDEST SWAP1 POP DUP2 DUP2 SUB PUSH1 0x60 DUP4 ADD MSTORE PUSH2 0x3DF8 DUP2 DUP5 PUSH2 0x357C JUMP JUMPDEST SWAP1 POP SWAP6 SWAP5 POP POP POP POP POP JUMP JUMPDEST PUSH1 0x0 PUSH1 0x20 DUP3 ADD SWAP1 POP PUSH2 0x3E18 PUSH1 0x0 DUP4 ADD DUP5 PUSH2 0x360F JUMP JUMPDEST SWAP3 SWAP2 POP POP JUMP JUMPDEST PUSH1 0x0 PUSH1 0xC0 DUP3 ADD SWAP1 POP PUSH2 0x3E33 PUSH1 0x0 DUP4 ADD DUP10 PUSH2 0x360F JUMP JUMPDEST DUP2 DUP2 SUB PUSH1 0x20 DUP4 ADD MSTORE PUSH2 0x3E45 DUP2 DUP9 PUSH2 0x3657 JUMP JUMPDEST SWAP1 POP DUP2 DUP2 SUB PUSH1 0x40 DUP4 ADD MSTORE PUSH2 0x3E59 DUP2 DUP8 PUSH2 0x3657 JUMP JUMPDEST SWAP1 POP PUSH2 0x3E68 PUSH1 0x60 DUP4 ADD DUP7 PUSH2 0x34B1 JUMP JUMPDEST PUSH2 0x3E75 PUSH1 0x80 DUP4 ADD DUP6 PUSH2 0x35F1 JUMP JUMPDEST PUSH2 0x3E82 PUSH1 0xA0 DUP4 ADD DUP5 PUSH2 0x34B1 JUMP JUMPDEST SWAP8 SWAP7 POP POP POP POP POP POP POP JUMP JUMPDEST PUSH1 0x0 PUSH1 0x60 DUP3 ADD SWAP1 POP DUP2 DUP2 SUB PUSH1 0x0 DUP4 ADD MSTORE PUSH2 0x3EA7 DUP2 DUP7 PUSH2 0x3657 JUMP JUMPDEST SWAP1 POP PUSH2 0x3EB6 PUSH1 0x20 DUP4 ADD DUP6 PUSH2 0x35F1 JUMP JUMPDEST PUSH2 0x3EC3 PUSH1 0x40 DUP4 ADD DUP5 PUSH2 0x35F1 JUMP JUMPDEST SWAP5 SWAP4 POP POP POP POP JUMP JUMPDEST PUSH1 0x0 PUSH1 0x20 DUP3 ADD SWAP1 POP DUP2 DUP2 SUB PUSH1 0x0 DUP4 ADD MSTORE PUSH2 0x3EE4 DUP2 PUSH2 0x3690 JUMP JUMPDEST SWAP1 POP SWAP2 SWAP1 POP JUMP JUMPDEST PUSH1 0x0 PUSH1 0x20 DUP3 ADD SWAP1 POP DUP2 DUP2 SUB PUSH1 0x0 DUP4 ADD MSTORE PUSH2 0x3F04 DUP2 PUSH2 0x36F6 JUMP JUMPDEST SWAP1 POP SWAP2 SWAP1 POP JUMP JUMPDEST PUSH1 0x0 PUSH1 0x20 DUP3 ADD SWAP1 POP DUP2 DUP2 SUB PUSH1 0x0 DUP4 ADD MSTORE PUSH2 0x3F24 DUP2 PUSH2 0x375C JUMP JUMPDEST SWAP1 POP SWAP2 SWAP1 POP JUMP JUMPDEST PUSH1 0x0 PUSH1 0x20 DUP3 ADD SWAP1 POP DUP2 DUP2 SUB PUSH1 0x0 DUP4 ADD MSTORE PUSH2 0x3F44 DUP2 PUSH2 0x37C2 JUMP JUMPDEST SWAP1 POP SWAP2 SWAP1 POP JUMP JUMPDEST PUSH1 0x0 PUSH1 0x20 DUP3 ADD SWAP1 POP DUP2 DUP2 SUB PUSH1 0x0 DUP4 ADD MSTORE PUSH2 0x3F64 DUP2 PUSH2 0x3802 JUMP JUMPDEST SWAP1 POP SWAP2 SWAP1 POP JUMP JUMPDEST PUSH1 0x0 PUSH1 0x20 DUP3 ADD SWAP1 POP DUP2 DUP2 SUB PUSH1 0x0 DUP4 ADD MSTORE PUSH2 0x3F84 DUP2 PUSH2 0x3842 JUMP JUMPDEST SWAP1 POP SWAP2 SWAP1 POP JUMP JUMPDEST PUSH1 0x0 PUSH1 0x20 DUP3 ADD SWAP1 POP DUP2 DUP2 SUB PUSH1 0x0 DUP4 ADD MSTORE PUSH2 0x3FA4 DUP2 PUSH2 0x3882 JUMP JUMPDEST SWAP1 POP SWAP2 SWAP1 POP JUMP JUMPDEST PUSH1 0x0 PUSH1 0x20 DUP3 ADD SWAP1 POP DUP2 DUP2 SUB PUSH1 0x0 DUP4 ADD MSTORE PUSH2 0x3FC4 DUP2 PUSH2 0x38C2 JUMP JUMPDEST SWAP1 POP SWAP2 SWAP1 POP JUMP JUMPDEST PUSH1 0x0 PUSH1 0x20 DUP3 ADD SWAP1 POP DUP2 DUP2 SUB PUSH1 0x0 DUP4 ADD MSTORE PUSH2 0x3FE4 DUP2 PUSH2 0x3928 JUMP JUMPDEST SWAP1 POP SWAP2 SWAP1 POP JUMP JUMPDEST PUSH1 0x0 PUSH1 0x20 DUP3 ADD SWAP1 POP DUP2 DUP2 SUB PUSH1 0x0 DUP4 ADD MSTORE PUSH2 0x4004 DUP2 PUSH2 0x398E JUMP JUMPDEST SWAP1 POP SWAP2 SWAP1 POP JUMP JUMPDEST PUSH1 0x0 PUSH1 0x20 DUP3 ADD SWAP1 POP DUP2 DUP2 SUB PUSH1 0x0 DUP4 ADD MSTORE PUSH2 0x4024 DUP2 PUSH2 0x39F4 JUMP JUMPDEST SWAP1 POP SWAP2 SWAP1 POP JUMP JUMPDEST PUSH1 0x0 PUSH1 0x20 DUP3 ADD SWAP1 POP DUP2 DUP2 SUB PUSH1 0x0 DUP4 ADD MSTORE PUSH2 0x4044 DUP2 PUSH2 0x3A5A JUMP JUMPDEST SWAP1 POP SWAP2 SWAP1 POP JUMP JUMPDEST PUSH1 0x0 PUSH1 0x20 DUP3 ADD SWAP1 POP DUP2 DUP2 SUB PUSH1 0x0 DUP4 ADD MSTORE PUSH2 0x4064 DUP2 PUSH2 0x3AC0 JUMP JUMPDEST SWAP1 POP SWAP2 SWAP1 POP JUMP JUMPDEST PUSH1 0x0 PUSH1 0x20 DUP3 ADD SWAP1 POP DUP2 DUP2 SUB PUSH1 0x0 DUP4 ADD MSTORE PUSH2 0x4084 DUP2 PUSH2 0x3B00 JUMP JUMPDEST SWAP1 POP SWAP2 SWAP1 POP JUMP JUMPDEST PUSH1 0x0 PUSH1 0x20 DUP3 ADD SWAP1 POP DUP2 DUP2 SUB PUSH1 0x0 DUP4 ADD MSTORE PUSH2 0x40A4 DUP2 PUSH2 0x3B66 JUMP JUMPDEST SWAP1 POP SWAP2 SWAP1 POP JUMP JUMPDEST PUSH1 0x0 PUSH1 0x20 DUP3 ADD SWAP1 POP PUSH2 0x40C0 PUSH1 0x0 DUP4 ADD DUP5 PUSH2 0x3BCC JUMP JUMPDEST SWAP3 SWAP2 POP POP JUMP JUMPDEST PUSH1 0x0 PUSH1 0x40 DUP3 ADD SWAP1 POP PUSH2 0x40DB PUSH1 0x0 DUP4 ADD DUP6 PUSH2 0x3BCC JUMP JUMPDEST PUSH2 0x40E8 PUSH1 0x20 DUP4 ADD DUP5 PUSH2 0x3BCC JUMP JUMPDEST SWAP4 SWAP3 POP POP POP JUMP JUMPDEST PUSH1 0x0 PUSH1 0x40 MLOAD SWAP1 POP DUP2 DUP2 ADD DUP2 DUP2 LT PUSH8 0xFFFFFFFFFFFFFFFF DUP3 GT OR ISZERO PUSH2 0x4116 JUMPI PUSH2 0x4115 PUSH2 0x4434 JUMP JUMPDEST JUMPDEST DUP1 PUSH1 0x40 MSTORE POP SWAP2 SWAP1 POP JUMP JUMPDEST PUSH1 0x0 PUSH8 0xFFFFFFFFFFFFFFFF DUP3 GT ISZERO PUSH2 0x413B JUMPI PUSH2 0x413A PUSH2 0x4434 JUMP JUMPDEST JUMPDEST PUSH1 0x1F NOT PUSH1 0x1F DUP4 ADD AND SWAP1 POP PUSH1 0x20 DUP2 ADD SWAP1 POP SWAP2 SWAP1 POP JUMP JUMPDEST PUSH1 0x0 DUP2 SWAP1 POP PUSH1 0x20 DUP3 ADD SWAP1 POP SWAP2 SWAP1 POP JUMP JUMPDEST PUSH1 0x0 DUP2 SWAP1 POP PUSH1 0x20 DUP3 ADD SWAP1 POP SWAP2 SWAP1 POP JUMP JUMPDEST PUSH1 0x0 DUP2 SWAP1 POP PUSH1 0x20 DUP3 ADD SWAP1 POP SWAP2 SWAP1 POP JUMP JUMPDEST PUSH1 0x0 DUP2 MLOAD SWAP1 POP SWAP2 SWAP1 POP JUMP JUMPDEST PUSH1 0x0 DUP2 MLOAD SWAP1 POP SWAP2 SWAP1 POP JUMP JUMPDEST PUSH1 0x0 DUP2 MLOAD SWAP1 POP SWAP2 SWAP1 POP JUMP JUMPDEST PUSH1 0x0 DUP2 MLOAD SWAP1 POP SWAP2 SWAP1 POP JUMP JUMPDEST PUSH1 0x0 PUSH1 0x20 DUP3 ADD SWAP1 POP SWAP2 SWAP1 POP JUMP JUMPDEST PUSH1 0x0 PUSH1 0x20 DUP3 ADD SWAP1 POP SWAP2 SWAP1 POP JUMP JUMPDEST PUSH1 0x0 PUSH1 0x20 DUP3 ADD SWAP1 POP SWAP2 SWAP1 POP JUMP JUMPDEST PUSH1 0x0 DUP3 DUP3 MSTORE PUSH1 0x20 DUP3 ADD SWAP1 POP SWAP3 SWAP2 POP POP JUMP JUMPDEST PUSH1 0x0 DUP3 DUP3 MSTORE PUSH1 0x20 DUP3 ADD SWAP1 POP SWAP3 SWAP2 POP POP JUMP JUMPDEST PUSH1 0x0 DUP3 DUP3 MSTORE PUSH1 0x20 DUP3 ADD SWAP1 POP SWAP3 SWAP2 POP POP JUMP JUMPDEST PUSH1 0x0 DUP3 DUP3 MSTORE PUSH1 0x20 DUP3 ADD SWAP1 POP SWAP3 SWAP2 POP POP JUMP JUMPDEST PUSH1 0x0 DUP3 DUP3 MSTORE PUSH1 0x20 DUP3 ADD SWAP1 POP SWAP3 SWAP2 POP POP JUMP JUMPDEST PUSH1 0x0 PUSH2 0x4233 DUP3 PUSH2 0x42C6 JUMP JUMPDEST SWAP2 POP PUSH2 0x423E DUP4 PUSH2 0x42C6 JUMP JUMPDEST SWAP3 POP DUP3 PUSH32 0xFFFFFFFFFFFFFFFFFFFFFFFFFFFFFFFFFFFFFFFFFFFFFFFFFFFFFFFFFFFFFFFF SUB DUP3 GT ISZERO PUSH2 0x4273 JUMPI PUSH2 0x4272 PUSH2 0x43D6 JUMP JUMPDEST JUMPDEST DUP3 DUP3 ADD SWAP1 POP SWAP3 SWAP2 POP POP JUMP JUMPDEST PUSH1 0x0 PUSH2 0x4289 DUP3 PUSH2 0x42A6 JUMP JUMPDEST SWAP1 POP SWAP2 SWAP1 POP JUMP JUMPDEST PUSH1 0x0 DUP2 ISZERO ISZERO SWAP1 POP SWAP2 SWAP1 POP JUMP JUMPDEST PUSH1 0x0 DUP2 SWAP1 POP SWAP2 SWAP1 POP JUMP JUMPDEST PUSH1 0x0 PUSH20 0xFFFFFFFFFFFFFFFFFFFFFFFFFFFFFFFFFFFFFFFF DUP3 AND SWAP1 POP SWAP2 SWAP1 POP JUMP JUMPDEST PUSH1 0x0 DUP2 SWAP1 POP SWAP2 SWAP1 POP JUMP JUMPDEST DUP3 DUP2 DUP4 CALLDATACOPY PUSH1 0x0 DUP4 DUP4 ADD MSTORE POP POP POP JUMP JUMPDEST PUSH1 0x0 JUMPDEST DUP4 DUP2 LT ISZERO PUSH2 0x42FD JUMPI DUP1 DUP3 ADD MLOAD DUP2 DUP5 ADD MSTORE PUSH1 0x20 DUP2 ADD SWAP1 POP PUSH2 0x42E2 JUMP JUMPDEST DUP4 DUP2 GT ISZERO PUSH2 0x430C JUMPI PUSH1 0x0 DUP5 DUP5 ADD MSTORE JUMPDEST POP POP POP POP JUMP JUMPDEST PUSH1 0x0 PUSH1 0x2 DUP3 DIV SWAP1 POP PUSH1 0x1 DUP3 AND DUP1 PUSH2 0x432A JUMPI PUSH1 0x7F DUP3 AND SWAP2 POP JUMPDEST PUSH1 0x20 DUP3 LT DUP2 EQ ISZERO PUSH2 0x433E JUMPI PUSH2 0x433D PUSH2 0x4405 JUMP JUMPDEST JUMPDEST POP SWAP2 SWAP1 POP JUMP JUMPDEST PUSH1 0x0 PUSH2 0x434F DUP3 PUSH2 0x429C JUMP JUMPDEST SWAP2 POP PUSH32 0x7FFFFFFFFFFFFFFFFFFFFFFFFFFFFFFFFFFFFFFFFFFFFFFFFFFFFFFFFFFFFFFF DUP3 EQ ISZERO PUSH2 0x4382 JUMPI PUSH2 0x4381 PUSH2 0x43D6 JUMP JUMPDEST JUMPDEST PUSH1 0x1 DUP3 ADD SWAP1 POP SWAP2 SWAP1 POP JUMP JUMPDEST PUSH1 0x0 PUSH2 0x4398 DUP3 PUSH2 0x42C6 JUMP JUMPDEST SWAP2 POP PUSH32 0xFFFFFFFFFFFFFFFFFFFFFFFFFFFFFFFFFFFFFFFFFFFFFFFFFFFFFFFFFFFFFFFF DUP3 EQ ISZERO PUSH2 0x43CB JUMPI PUSH2 0x43CA PUSH2 0x43D6 JUMP JUMPDEST JUMPDEST PUSH1 0x1 DUP3 ADD SWAP1 POP SWAP2 SWAP1 POP JUMP JUMPDEST PUSH32 0x4E487B7100000000000000000000000000000000000000000000000000000000 PUSH1 0x0 MSTORE PUSH1 0x11 PUSH1 0x4 MSTORE PUSH1 0x24 PUSH1 0x0 REVERT JUMPDEST PUSH32 0x4E487B7100000000000000000000000000000000000000000000000000000000 PUSH1 0x0 MSTORE PUSH1 0x22 PUSH1 0x4 MSTORE PUSH1 0x24 PUSH1 0x0 REVERT JUMPDEST PUSH32 0x4E487B7100000000000000000000000000000000000000000000000000000000 PUSH1 0x0 MSTORE PUSH1 0x41 PUSH1 0x4 MSTORE PUSH1 0x24 PUSH1 0x0 REVERT JUMPDEST PUSH1 0x0 PUSH1 0x1F NOT PUSH1 0x1F DUP4 ADD AND SWAP1 POP SWAP2 SWAP1 POP JUMP JUMPDEST PUSH2 0x447D DUP2 PUSH2 0x427E JUMP JUMPDEST DUP2 EQ PUSH2 0x4488 JUMPI PUSH1 0x0 DUP1 REVERT JUMPDEST POP JUMP JUMPDEST PUSH2 0x4494 DUP2 PUSH2 0x4290 JUMP JUMPDEST DUP2 EQ PUSH2 0x449F JUMPI PUSH1 0x0 DUP1 REVERT JUMPDEST POP JUMP JUMPDEST PUSH2 0x44AB DUP2 PUSH2 0x429C JUMP JUMPDEST DUP2 EQ PUSH2 0x44B6 JUMPI PUSH1 0x0 DUP1 REVERT JUMPDEST POP JUMP JUMPDEST PUSH2 0x44C2 DUP2 PUSH2 0x42C6 JUMP JUMPDEST DUP2 EQ PUSH2 0x44CD JUMPI PUSH1 0x0 DUP1 REVERT JUMPDEST POP JUMP INVALID LOG2 PUSH5 0x6970667358 0x22 SLT KECCAK256 0xEB PUSH32 0x9B01F81630328E2A6F39729E128B5A028E477AE43DED8F0CFC4E755D30576473 PUSH16 0x6C634300080000330000000000000000 "
				},
				"gasEstimates": {
					"creation": {
						"codeDepositCost": "3534000",
						"executionCost": "23980",
						"totalCost": "3557980"
					},
					"external": {
						"approveEarlyTermination(uint256)": "infinite",
						"complaints(uint256)": "infinite",
						"createComplaint(int256,string)": "infinite",
						"createLease(address,int256,uint256,uint256)": "infinite",
						"createProperty(string,string)": "infinite",
						"createUser(string,bool,bool)": "infinite",
						"earlyTerminationRequests(uint256)": "infinite",
						"getLandlordComplaints()": "infinite",
						"getTenantComplaints()": "infinite",
						"landlordCount()": "1175",
						"leases(uint256)": "infinite",
						"listProperties(uint256)": "infinite",
						"listRentedProperties()": "infinite",
						"listUsers()": "infinite",
						"properties(int256)": "infinite",
						"propertyIdCounter()": "1153",
						"requestEarlyTermination(int256)": "infinite",
						"respondToComplaint(uint256,string)": "infinite",
						"tenantCount()": "1219",
						"terminateLease(int256,address)": "infinite",
						"userList(uint256)": "2400",
						"users(address)": "infinite"
					}
				},
				"methodIdentifiers": {
					"approveEarlyTermination(uint256)": "ae23d553",
					"complaints(uint256)": "7e69e912",
					"createComplaint(int256,string)": "6233775c",
					"createLease(address,int256,uint256,uint256)": "c9dda6fe",
					"createProperty(string,string)": "07460b66",
					"createUser(string,bool,bool)": "16ef034c",
					"earlyTerminationRequests(uint256)": "63575877",
					"getLandlordComplaints()": "33625e78",
					"getTenantComplaints()": "503015bf",
					"landlordCount()": "06552091",
					"leases(uint256)": "8927a106",
					"listProperties(uint256)": "9c386174",
					"listRentedProperties()": "91909980",
					"listUsers()": "8ad257b7",
					"properties(int256)": "70acd52a",
					"propertyIdCounter()": "00d89033",
					"requestEarlyTermination(int256)": "3317e396",
					"respondToComplaint(uint256,string)": "adba8378",
					"tenantCount()": "1307430a",
					"terminateLease(int256,address)": "40ec27f3",
					"userList(uint256)": "9f4216e8",
					"users(address)": "a87430ba"
				}
			},
			"storageLayout": {
				"storage": [
					{
						"astId": 53,
						"contract": "contracts/RentalContract.sol:RentalManagement",
						"label": "users",
						"offset": 0,
						"slot": "0",
						"type": "t_mapping(t_address,t_struct(User)8_storage)"
					},
					{
						"astId": 58,
						"contract": "contracts/RentalContract.sol:RentalManagement",
						"label": "properties",
						"offset": 0,
						"slot": "1",
						"type": "t_mapping(t_int256,t_struct(Property)21_storage)"
					},
					{
						"astId": 62,
						"contract": "contracts/RentalContract.sol:RentalManagement",
						"label": "leases",
						"offset": 0,
						"slot": "2",
						"type": "t_array(t_struct(Lease)30_storage)dyn_storage"
					},
					{
						"astId": 66,
						"contract": "contracts/RentalContract.sol:RentalManagement",
						"label": "complaints",
						"offset": 0,
						"slot": "3",
						"type": "t_array(t_struct(Complaint)39_storage)dyn_storage"
					},
					{
						"astId": 70,
						"contract": "contracts/RentalContract.sol:RentalManagement",
						"label": "earlyTerminationRequests",
						"offset": 0,
						"slot": "4",
						"type": "t_array(t_struct(EarlyTermination)48_storage)dyn_storage"
					},
					{
						"astId": 73,
						"contract": "contracts/RentalContract.sol:RentalManagement",
						"label": "userList",
						"offset": 0,
						"slot": "5",
						"type": "t_array(t_address)dyn_storage"
					},
					{
						"astId": 75,
						"contract": "contracts/RentalContract.sol:RentalManagement",
						"label": "propertyIdCounter",
						"offset": 0,
						"slot": "6",
						"type": "t_int256"
					},
					{
						"astId": 77,
						"contract": "contracts/RentalContract.sol:RentalManagement",
						"label": "tenantCount",
						"offset": 0,
						"slot": "7",
						"type": "t_uint256"
					},
					{
						"astId": 79,
						"contract": "contracts/RentalContract.sol:RentalManagement",
						"label": "landlordCount",
						"offset": 0,
						"slot": "8",
						"type": "t_uint256"
					}
				],
				"types": {
					"t_address": {
						"encoding": "inplace",
						"label": "address",
						"numberOfBytes": "20"
					},
					"t_array(t_address)dyn_storage": {
						"base": "t_address",
						"encoding": "dynamic_array",
						"label": "address[]",
						"numberOfBytes": "32"
					},
					"t_array(t_struct(Complaint)39_storage)dyn_storage": {
						"base": "t_struct(Complaint)39_storage",
						"encoding": "dynamic_array",
						"label": "struct RentalManagement.Complaint[]",
						"numberOfBytes": "32"
					},
					"t_array(t_struct(EarlyTermination)48_storage)dyn_storage": {
						"base": "t_struct(EarlyTermination)48_storage",
						"encoding": "dynamic_array",
						"label": "struct RentalManagement.EarlyTermination[]",
						"numberOfBytes": "32"
					},
					"t_array(t_struct(Lease)30_storage)dyn_storage": {
						"base": "t_struct(Lease)30_storage",
						"encoding": "dynamic_array",
						"label": "struct RentalManagement.Lease[]",
						"numberOfBytes": "32"
					},
					"t_bool": {
						"encoding": "inplace",
						"label": "bool",
						"numberOfBytes": "1"
					},
					"t_int256": {
						"encoding": "inplace",
						"label": "int256",
						"numberOfBytes": "32"
					},
					"t_mapping(t_address,t_struct(User)8_storage)": {
						"encoding": "mapping",
						"key": "t_address",
						"label": "mapping(address => struct RentalManagement.User)",
						"numberOfBytes": "32",
						"value": "t_struct(User)8_storage"
					},
					"t_mapping(t_int256,t_struct(Property)21_storage)": {
						"encoding": "mapping",
						"key": "t_int256",
						"label": "mapping(int256 => struct RentalManagement.Property)",
						"numberOfBytes": "32",
						"value": "t_struct(Property)21_storage"
					},
					"t_string_storage": {
						"encoding": "bytes",
						"label": "string",
						"numberOfBytes": "32"
					},
					"t_struct(Complaint)39_storage": {
						"encoding": "inplace",
						"label": "struct RentalManagement.Complaint",
						"members": [
							{
								"astId": 32,
								"contract": "contracts/RentalContract.sol:RentalManagement",
								"label": "user",
								"offset": 0,
								"slot": "0",
								"type": "t_address"
							},
							{
								"astId": 34,
								"contract": "contracts/RentalContract.sol:RentalManagement",
								"label": "propertyId",
								"offset": 0,
								"slot": "1",
								"type": "t_int256"
							},
							{
								"astId": 36,
								"contract": "contracts/RentalContract.sol:RentalManagement",
								"label": "description",
								"offset": 0,
								"slot": "2",
								"type": "t_string_storage"
							},
							{
								"astId": 38,
								"contract": "contracts/RentalContract.sol:RentalManagement",
								"label": "response",
								"offset": 0,
								"slot": "3",
								"type": "t_string_storage"
							}
						],
						"numberOfBytes": "128"
					},
					"t_struct(EarlyTermination)48_storage": {
						"encoding": "inplace",
						"label": "struct RentalManagement.EarlyTermination",
						"members": [
							{
								"astId": 41,
								"contract": "contracts/RentalContract.sol:RentalManagement",
								"label": "tenant",
								"offset": 0,
								"slot": "0",
								"type": "t_address"
							},
							{
								"astId": 43,
								"contract": "contracts/RentalContract.sol:RentalManagement",
								"label": "propertyId",
								"offset": 0,
								"slot": "1",
								"type": "t_int256"
							},
							{
								"astId": 45,
								"contract": "contracts/RentalContract.sol:RentalManagement",
								"label": "requestTime",
								"offset": 0,
								"slot": "2",
								"type": "t_uint256"
							},
							{
								"astId": 47,
								"contract": "contracts/RentalContract.sol:RentalManagement",
								"label": "isApproved",
								"offset": 0,
								"slot": "3",
								"type": "t_bool"
							}
						],
						"numberOfBytes": "128"
					},
					"t_struct(Lease)30_storage": {
						"encoding": "inplace",
						"label": "struct RentalManagement.Lease",
						"members": [
							{
								"astId": 23,
								"contract": "contracts/RentalContract.sol:RentalManagement",
								"label": "tenant",
								"offset": 0,
								"slot": "0",
								"type": "t_address"
							},
							{
								"astId": 25,
								"contract": "contracts/RentalContract.sol:RentalManagement",
								"label": "propertyId",
								"offset": 0,
								"slot": "1",
								"type": "t_int256"
							},
							{
								"astId": 27,
								"contract": "contracts/RentalContract.sol:RentalManagement",
								"label": "startDate",
								"offset": 0,
								"slot": "2",
								"type": "t_uint256"
							},
							{
								"astId": 29,
								"contract": "contracts/RentalContract.sol:RentalManagement",
								"label": "endDate",
								"offset": 0,
								"slot": "3",
								"type": "t_uint256"
							}
						],
						"numberOfBytes": "128"
					},
					"t_struct(Property)21_storage": {
						"encoding": "inplace",
						"label": "struct RentalManagement.Property",
						"members": [
							{
								"astId": 10,
								"contract": "contracts/RentalContract.sol:RentalManagement",
								"label": "Id",
								"offset": 0,
								"slot": "0",
								"type": "t_int256"
							},
							{
								"astId": 12,
								"contract": "contracts/RentalContract.sol:RentalManagement",
								"label": "name",
								"offset": 0,
								"slot": "1",
								"type": "t_string_storage"
							},
							{
								"astId": 14,
								"contract": "contracts/RentalContract.sol:RentalManagement",
								"label": "description",
								"offset": 0,
								"slot": "2",
								"type": "t_string_storage"
							},
							{
								"astId": 16,
								"contract": "contracts/RentalContract.sol:RentalManagement",
								"label": "owner",
								"offset": 0,
								"slot": "3",
								"type": "t_address"
							},
							{
								"astId": 18,
								"contract": "contracts/RentalContract.sol:RentalManagement",
								"label": "isRentable",
								"offset": 20,
								"slot": "3",
								"type": "t_bool"
							},
							{
								"astId": 20,
								"contract": "contracts/RentalContract.sol:RentalManagement",
								"label": "tenant",
								"offset": 0,
								"slot": "4",
								"type": "t_address"
							}
						],
						"numberOfBytes": "160"
					},
					"t_struct(User)8_storage": {
						"encoding": "inplace",
						"label": "struct RentalManagement.User",
						"members": [
							{
								"astId": 3,
								"contract": "contracts/RentalContract.sol:RentalManagement",
								"label": "name",
								"offset": 0,
								"slot": "0",
								"type": "t_string_storage"
							},
							{
								"astId": 5,
								"contract": "contracts/RentalContract.sol:RentalManagement",
								"label": "isTenant",
								"offset": 0,
								"slot": "1",
								"type": "t_bool"
							},
							{
								"astId": 7,
								"contract": "contracts/RentalContract.sol:RentalManagement",
								"label": "isLandlord",
								"offset": 1,
								"slot": "1",
								"type": "t_bool"
							}
						],
						"numberOfBytes": "64"
					},
					"t_uint256": {
						"encoding": "inplace",
						"label": "uint256",
						"numberOfBytes": "32"
					}
				}
			},
			"userdoc": {
				"kind": "user",
				"methods": {},
				"version": 1
			}
		}
	}
}